{
  "_format": "hh-sol-artifact-1",
  "contractName": "EllipticCurve",
  "sourceName": "contracts/dnssec-oracle/algorithms/EllipticCurve.sol",
  "abi": [
    {
      "inputs": [
        {
          "internalType": "uint256",
          "name": "x0",
          "type": "uint256"
        },
        {
          "internalType": "uint256",
          "name": "y0",
          "type": "uint256"
        },
        {
          "internalType": "uint256",
          "name": "x1",
          "type": "uint256"
        },
        {
          "internalType": "uint256",
          "name": "y1",
          "type": "uint256"
        }
      ],
      "name": "add",
      "outputs": [
        {
          "internalType": "uint256",
          "name": "",
          "type": "uint256"
        },
        {
          "internalType": "uint256",
          "name": "",
          "type": "uint256"
        }
      ],
      "stateMutability": "pure",
      "type": "function"
    },
    {
      "inputs": [
        {
          "internalType": "uint256",
          "name": "x1",
          "type": "uint256"
        },
        {
          "internalType": "uint256",
          "name": "y1",
          "type": "uint256"
        },
        {
          "internalType": "uint256",
          "name": "x2",
          "type": "uint256"
        },
        {
          "internalType": "uint256",
          "name": "y2",
          "type": "uint256"
        }
      ],
      "name": "addAndReturnProjectivePoint",
      "outputs": [
        {
          "internalType": "uint256[3]",
          "name": "P",
          "type": "uint256[3]"
        }
      ],
      "stateMutability": "pure",
      "type": "function"
    },
    {
      "inputs": [
        {
          "internalType": "uint256",
          "name": "x0",
          "type": "uint256"
        },
        {
          "internalType": "uint256",
          "name": "y0",
          "type": "uint256"
        },
        {
          "internalType": "uint256",
          "name": "z0",
          "type": "uint256"
        },
        {
          "internalType": "uint256",
          "name": "x1",
          "type": "uint256"
        },
        {
          "internalType": "uint256",
          "name": "y1",
          "type": "uint256"
        },
        {
          "internalType": "uint256",
          "name": "z1",
          "type": "uint256"
        }
      ],
      "name": "addProj",
      "outputs": [
        {
          "internalType": "uint256",
          "name": "x2",
          "type": "uint256"
        },
        {
          "internalType": "uint256",
          "name": "y2",
          "type": "uint256"
        },
        {
          "internalType": "uint256",
          "name": "z2",
          "type": "uint256"
        }
      ],
      "stateMutability": "pure",
      "type": "function"
    },
    {
      "inputs": [
        {
          "internalType": "uint256",
          "name": "x",
          "type": "uint256"
        },
        {
          "internalType": "uint256",
          "name": "y",
          "type": "uint256"
        }
      ],
      "name": "isOnCurve",
      "outputs": [
        {
          "internalType": "bool",
          "name": "",
          "type": "bool"
        }
      ],
      "stateMutability": "pure",
      "type": "function"
    },
    {
      "inputs": [
        {
          "internalType": "uint256",
          "name": "x0",
          "type": "uint256"
        },
        {
          "internalType": "uint256",
          "name": "y0",
          "type": "uint256"
        }
      ],
      "name": "isZeroCurve",
      "outputs": [
        {
          "internalType": "bool",
          "name": "isZero",
          "type": "bool"
        }
      ],
      "stateMutability": "pure",
      "type": "function"
    },
    {
      "inputs": [
        {
          "internalType": "uint256",
          "name": "scalar",
          "type": "uint256"
        }
      ],
      "name": "multipleGeneratorByScalar",
      "outputs": [
        {
          "internalType": "uint256",
          "name": "",
          "type": "uint256"
        },
        {
          "internalType": "uint256",
          "name": "",
          "type": "uint256"
        }
      ],
      "stateMutability": "pure",
      "type": "function"
    },
    {
      "inputs": [
        {
          "internalType": "uint256",
          "name": "x0",
          "type": "uint256"
        },
        {
          "internalType": "uint256",
          "name": "y0",
          "type": "uint256"
        },
        {
          "internalType": "uint256",
          "name": "exp",
          "type": "uint256"
        }
      ],
      "name": "multiplyPowerBase2",
      "outputs": [
        {
          "internalType": "uint256",
          "name": "",
          "type": "uint256"
        },
        {
          "internalType": "uint256",
          "name": "",
          "type": "uint256"
        }
      ],
      "stateMutability": "pure",
      "type": "function"
    },
    {
      "inputs": [
        {
          "internalType": "uint256",
          "name": "x0",
          "type": "uint256"
        },
        {
          "internalType": "uint256",
          "name": "y0",
          "type": "uint256"
        },
        {
          "internalType": "uint256",
          "name": "scalar",
          "type": "uint256"
        }
      ],
      "name": "multiplyScalar",
      "outputs": [
        {
          "internalType": "uint256",
          "name": "x1",
          "type": "uint256"
        },
        {
          "internalType": "uint256",
          "name": "y1",
          "type": "uint256"
        }
      ],
      "stateMutability": "pure",
      "type": "function"
    },
    {
      "inputs": [
        {
          "internalType": "uint256",
          "name": "x0",
          "type": "uint256"
        },
        {
          "internalType": "uint256",
          "name": "y0",
          "type": "uint256"
        },
        {
          "internalType": "uint256",
          "name": "z0",
          "type": "uint256"
        }
      ],
      "name": "toAffinePoint",
      "outputs": [
        {
          "internalType": "uint256",
          "name": "x1",
          "type": "uint256"
        },
        {
          "internalType": "uint256",
          "name": "y1",
          "type": "uint256"
        }
      ],
      "stateMutability": "pure",
      "type": "function"
    },
    {
      "inputs": [
        {
          "internalType": "uint256",
          "name": "x0",
          "type": "uint256"
        },
        {
          "internalType": "uint256",
          "name": "y0",
          "type": "uint256"
        }
      ],
      "name": "toProjectivePoint",
      "outputs": [
        {
          "internalType": "uint256[3]",
          "name": "P",
          "type": "uint256[3]"
        }
      ],
      "stateMutability": "pure",
      "type": "function"
    },
    {
      "inputs": [
        {
          "internalType": "uint256",
          "name": "x0",
          "type": "uint256"
        },
        {
          "internalType": "uint256",
          "name": "y0",
          "type": "uint256"
        }
      ],
      "name": "twice",
      "outputs": [
        {
          "internalType": "uint256",
          "name": "",
          "type": "uint256"
        },
        {
          "internalType": "uint256",
          "name": "",
          "type": "uint256"
        }
      ],
      "stateMutability": "pure",
      "type": "function"
    },
    {
      "inputs": [
        {
          "internalType": "uint256",
          "name": "x0",
          "type": "uint256"
        },
        {
          "internalType": "uint256",
          "name": "y0",
          "type": "uint256"
        },
        {
          "internalType": "uint256",
          "name": "z0",
          "type": "uint256"
        }
      ],
      "name": "twiceProj",
      "outputs": [
        {
          "internalType": "uint256",
          "name": "x1",
          "type": "uint256"
        },
        {
          "internalType": "uint256",
          "name": "y1",
          "type": "uint256"
        },
        {
          "internalType": "uint256",
          "name": "z1",
          "type": "uint256"
        }
      ],
      "stateMutability": "pure",
      "type": "function"
    },
    {
      "inputs": [
        {
          "internalType": "bytes32",
          "name": "message",
          "type": "bytes32"
        },
        {
          "internalType": "uint256[2]",
          "name": "rs",
          "type": "uint256[2]"
        },
        {
          "internalType": "uint256[2]",
          "name": "Q",
          "type": "uint256[2]"
        }
      ],
      "name": "validateSignature",
      "outputs": [
        {
          "internalType": "bool",
          "name": "",
          "type": "bool"
        }
      ],
      "stateMutability": "pure",
      "type": "function"
    },
    {
      "inputs": [],
      "name": "zeroAffine",
      "outputs": [
        {
          "internalType": "uint256",
          "name": "x",
          "type": "uint256"
        },
        {
          "internalType": "uint256",
          "name": "y",
          "type": "uint256"
        }
      ],
      "stateMutability": "pure",
      "type": "function"
    },
    {
      "inputs": [],
      "name": "zeroProj",
      "outputs": [
        {
          "internalType": "uint256",
          "name": "x",
          "type": "uint256"
        },
        {
          "internalType": "uint256",
          "name": "y",
          "type": "uint256"
        },
        {
          "internalType": "uint256",
          "name": "z",
          "type": "uint256"
        }
      ],
      "stateMutability": "pure",
      "type": "function"
    }
  ],
  "bytecode": "0x608060405234801561001057600080fd5b50612c17806100206000396000f3fe608060405234801561001057600080fd5b50600436106100f55760003560e01c8063713eca2811610097578063c30cfa2d11610066578063c30cfa2d146102ee578063c80edca41461031e578063e022d77c14610350578063f214aba014610381576100f5565b8063713eca281461023e57806372fb4a141461026e5780637ec8da8d1461029f57806384dfba46146102cf576100f5565b80630b0dbcfa116100d35780630b0dbcfa1461018c57806314c67060146101bc578063322b24aa146101dc578063675ca0431461020d576100f5565b806304e960d7146100fa57806309d3ef311461012a5780630afb4ddc1461015b575b600080fd5b610114600480360381019061010f919061267d565b6103b3565b6040516101219190612923565b60405180910390f35b610144600480360381019061013f91906126f5565b6109ca565b60405161015292919061293e565b60405180910390f35b610175600480360381019061017091906126cc565b6109fe565b60405161018392919061293e565b60405180910390f35b6101a660048036038101906101a191906126f5565b610a55565b6040516101b39190612923565b60405180910390f35b6101c4610d82565b6040516101d393929190612967565b60405180910390f35b6101f660048036038101906101f19190612731565b610d97565b60405161020492919061293e565b60405180910390f35b61022760048036038101906102229190612731565b610dfa565b60405161023592919061293e565b60405180910390f35b61025860048036038101906102539190612780565b610ee8565b6040516102659190612908565b60405180910390f35b61028860048036038101906102839190612731565b610f1d565b60405161029692919061293e565b60405180910390f35b6102b960048036038101906102b491906126f5565b611023565b6040516102c69190612908565b60405180910390f35b6102d7611280565b6040516102e592919061293e565b60405180910390f35b610308600480360381019061030391906126f5565b61128e565b6040516103159190612923565b60405180910390f35b61033860048036038101906103339190612731565b6112b8565b60405161034793929190612967565b60405180910390f35b61036a60048036038101906103659190612780565b611b59565b60405161037892919061293e565b60405180910390f35b61039b600480360381019061039691906127e3565b611b93565b6040516103aa93929190612967565b60405180910390f35b600080836000600281106103f0577f4e487b7100000000000000000000000000000000000000000000000000000000600052603260045260246000fd5b6020020151148061045f57507fffffffff00000000ffffffffffffffffbce6faada7179e84f3b9cac2fc63255183600060028110610457577f4e487b7100000000000000000000000000000000000000000000000000000000600052603260045260246000fd5b602002015110155b806104a857506000836001600281106104a1577f4e487b7100000000000000000000000000000000000000000000000000000000600052603260045260246000fd5b6020020151145b156104b657600090506109c3565b61053c826000600281106104f3577f4e487b7100000000000000000000000000000000000000000000000000000000600052603260045260246000fd5b602002015183600160028110610532577f4e487b7100000000000000000000000000000000000000000000000000000000600052603260045260246000fd5b6020020151610a55565b61054957600090506109c3565b60008060008060006105b98860016002811061058e577f4e487b7100000000000000000000000000000000000000000000000000000000600052603260045260246000fd5b60200201517fffffffff00000000ffffffffffffffffbce6faada7179e84f3b9cac2fc632551611e0a565b90506106607f6b17d1f2e12c4247f8bce6e563a440f277037d812deb33a0f4a13945d898c2967f4fe342e2fe1a7f9b8ee7eb4a7c0f9e162bce33576b315ececbb6406837bf51f57fffffffff00000000ffffffffffffffffbce6faada7179e84f3b9cac2fc63255180610655577f4e487b7100000000000000000000000000000000000000000000000000000000600052601260045260246000fd5b848d60001c09610f1d565b8094508196505050610784876000600281106106a5577f4e487b7100000000000000000000000000000000000000000000000000000000600052603260045260246000fd5b6020020151886001600281106106e4577f4e487b7100000000000000000000000000000000000000000000000000000000600052603260045260246000fd5b60200201517fffffffff00000000ffffffffffffffffbce6faada7179e84f3b9cac2fc6325518061073e577f4e487b7100000000000000000000000000000000000000000000000000000000600052601260045260246000fd5b848c600060028110610779577f4e487b7100000000000000000000000000000000000000000000000000000000600052603260045260246000fd5b602002015109610f1d565b8093508195505050600061079a86858786610ee8565b90506000816002600381106107d8577f4e487b7100000000000000000000000000000000000000000000000000000000600052603260045260246000fd5b602002015114156107f257600096505050505050506109c3565b600061085c82600260038110610831577f4e487b7100000000000000000000000000000000000000000000000000000000600052603260045260246000fd5b60200201517fffffffff00000001000000000000000000000000ffffffffffffffffffffffff611e0a565b90507fffffffff00000001000000000000000000000000ffffffffffffffffffffffff806108b3577f4e487b7100000000000000000000000000000000000000000000000000000000600052601260045260246000fd5b7fffffffff00000001000000000000000000000000ffffffffffffffffffffffff80610908577f4e487b7100000000000000000000000000000000000000000000000000000000600052601260045260246000fd5b82830983600060038110610945577f4e487b7100000000000000000000000000000000000000000000000000000000600052603260045260246000fd5b602002015109905089600060028110610987577f4e487b7100000000000000000000000000000000000000000000000000000000600052603260045260246000fd5b60200201517fffffffff00000000ffffffffffffffffbce6faada7179e84f3b9cac2fc632551826109b89190612ae4565b149750505050505050505b9392505050565b60008060006109db858560016112b8565b8093508196508297505050506109f2858583610dfa565b92509250509250929050565b600080610a4c7f6b17d1f2e12c4247f8bce6e563a440f277037d812deb33a0f4a13945d898c2967f4fe342e2fe1a7f9b8ee7eb4a7c0f9e162bce33576b315ececbb6406837bf51f585610f1d565b91509150915091565b60008260001480610a8557507fffffffff00000001000000000000000000000000ffffffffffffffffffffffff83145b80610a905750816000145b80610aba57507fffffffff00000001000000000000000000000000ffffffffffffffffffffffff82145b15610ac85760009050610d7c565b60007fffffffff00000001000000000000000000000000ffffffffffffffffffffffff80610b1f577f4e487b7100000000000000000000000000000000000000000000000000000000600052601260045260246000fd5b838409905060007fffffffff00000001000000000000000000000000ffffffffffffffffffffffff80610b7b577f4e487b7100000000000000000000000000000000000000000000000000000000600052601260045260246000fd5b857fffffffff00000001000000000000000000000000ffffffffffffffffffffffff80610bd1577f4e487b7100000000000000000000000000000000000000000000000000000000600052601260045260246000fd5b87880909905060007fffffffff00000001000000000000000000000000fffffffffffffffffffffffc14610cd1577fffffffff00000001000000000000000000000000ffffffffffffffffffffffff80610c54577f4e487b7100000000000000000000000000000000000000000000000000000000600052601260045260246000fd5b7fffffffff00000001000000000000000000000000ffffffffffffffffffffffff80610ca9577f4e487b7100000000000000000000000000000000000000000000000000000000600052601260045260246000fd5b7fffffffff00000001000000000000000000000000fffffffffffffffffffffffc8709820890505b60007f5ac635d8aa3a93e7b3ebbd55769886bc651d06b0cc53b0f63bce3c3e27d2604b14610d74577fffffffff00000001000000000000000000000000ffffffffffffffffffffffff80610d4e577f4e487b7100000000000000000000000000000000000000000000000000000000600052601260045260246000fd5b7f5ac635d8aa3a93e7b3ebbd55769886bc651d06b0cc53b0f63bce3c3e27d2604b820890505b808214925050505b92915050565b60008060008060016000925092509250909192565b6000806000859050600085905060006001905060005b86811015610ddf57610dc08484846112b8565b8094508195508296505050508080610dd790612a9b565b915050610dad565b50610deb838383610dfa565b94509450505050935093915050565b6000806000610e29847fffffffff00000001000000000000000000000000ffffffffffffffffffffffff611e0a565b90507fffffffff00000001000000000000000000000000ffffffffffffffffffffffff80610e80577f4e487b7100000000000000000000000000000000000000000000000000000000600052601260045260246000fd5b81870992507fffffffff00000001000000000000000000000000ffffffffffffffffffffffff80610eda577f4e487b7100000000000000000000000000000000000000000000000000000000600052601260045260246000fd5b818609915050935093915050565b610ef06125a7565b600080610eff87878787611b59565b8092508193505050610f118282611023565b92505050949350505050565b6000806000831415610f3a57610f31611280565b9150915061101b565b6001831415610f4e5784849150915061101b565b6002831415610f6a57610f6185856109ca565b9150915061101b565b600085905060008590506000600190506000600190508895508794506000600288610f959190612ae4565b1415610fa357600094508495505b600187901c96505b600087111561100757610fbf8484846112b8565b8094508195508296505050506001600288610fda9190612ae4565b1415610ffb57610fee848484898986611b93565b8093508197508298505050505b600187901c9650610fab565b611012868683610dfa565b95509550505050505b935093915050565b61102b6125a7565b7fffffffff00000001000000000000000000000000ffffffffffffffffffffffff80611080577f4e487b7100000000000000000000000000000000000000000000000000000000600052601260045260246000fd5b6001600008816002600381106110bf577f4e487b7100000000000000000000000000000000000000000000000000000000600052603260045260246000fd5b6020020181815250507fffffffff00000001000000000000000000000000ffffffffffffffffffffffff8061111d577f4e487b7100000000000000000000000000000000000000000000000000000000600052601260045260246000fd5b81600260038110611157577f4e487b7100000000000000000000000000000000000000000000000000000000600052603260045260246000fd5b6020020151840981600060038110611198577f4e487b7100000000000000000000000000000000000000000000000000000000600052603260045260246000fd5b6020020181815250507fffffffff00000001000000000000000000000000ffffffffffffffffffffffff806111f6577f4e487b7100000000000000000000000000000000000000000000000000000000600052601260045260246000fd5b81600260038110611230577f4e487b7100000000000000000000000000000000000000000000000000000000600052603260045260246000fd5b6020020151830981600160038110611271577f4e487b7100000000000000000000000000000000000000000000000000000000600052603260045260246000fd5b60200201818152505092915050565b600080600080915091509091565b6000808314801561129f5750600082145b156112ad57600190506112b2565b600090505b92915050565b60008060008060008060006112cd8a8a61128e565b156112e9576112da610d82565b96509650965050505050611b50565b7fffffffff00000001000000000000000000000000ffffffffffffffffffffffff8061133e577f4e487b7100000000000000000000000000000000000000000000000000000000600052601260045260246000fd5b888a0992507fffffffff00000001000000000000000000000000ffffffffffffffffffffffff80611398577f4e487b7100000000000000000000000000000000000000000000000000000000600052601260045260246000fd5b6002840992507fffffffff00000001000000000000000000000000ffffffffffffffffffffffff806113f3577f4e487b7100000000000000000000000000000000000000000000000000000000600052601260045260246000fd5b8a840991507fffffffff00000001000000000000000000000000ffffffffffffffffffffffff8061144d577f4e487b7100000000000000000000000000000000000000000000000000000000600052601260045260246000fd5b89830991507fffffffff00000001000000000000000000000000ffffffffffffffffffffffff806114a7577f4e487b7100000000000000000000000000000000000000000000000000000000600052601260045260246000fd5b6002830991507fffffffff00000001000000000000000000000000ffffffffffffffffffffffff80611502577f4e487b7100000000000000000000000000000000000000000000000000000000600052601260045260246000fd5b8a8b0999507fffffffff00000001000000000000000000000000ffffffffffffffffffffffff8061155c577f4e487b7100000000000000000000000000000000000000000000000000000000600052601260045260246000fd5b60038b0993507fffffffff00000001000000000000000000000000ffffffffffffffffffffffff806115b7577f4e487b7100000000000000000000000000000000000000000000000000000000600052601260045260246000fd5b88890997507fffffffff00000001000000000000000000000000ffffffffffffffffffffffff80611611577f4e487b7100000000000000000000000000000000000000000000000000000000600052601260045260246000fd5b7fffffffff00000001000000000000000000000000fffffffffffffffffffffffc890997507fffffffff00000001000000000000000000000000ffffffffffffffffffffffff8061168b577f4e487b7100000000000000000000000000000000000000000000000000000000600052601260045260246000fd5b88850893507fffffffff00000001000000000000000000000000ffffffffffffffffffffffff806116e5577f4e487b7100000000000000000000000000000000000000000000000000000000600052601260045260246000fd5b84850990507fffffffff00000001000000000000000000000000ffffffffffffffffffffffff8061173f577f4e487b7100000000000000000000000000000000000000000000000000000000600052601260045260246000fd5b8260020999507fffffffff00000001000000000000000000000000ffffffffffffffffffffffff8061179a577f4e487b7100000000000000000000000000000000000000000000000000000000600052601260045260246000fd5b8a7fffffffff00000001000000000000000000000000ffffffffffffffffffffffff6117c69190612a16565b820890507fffffffff00000001000000000000000000000000ffffffffffffffffffffffff8061181f577f4e487b7100000000000000000000000000000000000000000000000000000000600052601260045260246000fd5b817fffffffff00000001000000000000000000000000ffffffffffffffffffffffff61184b9190612a16565b830899507fffffffff00000001000000000000000000000000ffffffffffffffffffffffff806118a4577f4e487b7100000000000000000000000000000000000000000000000000000000600052601260045260246000fd5b8a850999507fffffffff00000001000000000000000000000000ffffffffffffffffffffffff806118fe577f4e487b7100000000000000000000000000000000000000000000000000000000600052601260045260246000fd5b838a0998507fffffffff00000001000000000000000000000000ffffffffffffffffffffffff80611958577f4e487b7100000000000000000000000000000000000000000000000000000000600052601260045260246000fd5b898a0998507fffffffff00000001000000000000000000000000ffffffffffffffffffffffff806119b2577f4e487b7100000000000000000000000000000000000000000000000000000000600052601260045260246000fd5b8960020998507fffffffff00000001000000000000000000000000ffffffffffffffffffffffff80611a0d577f4e487b7100000000000000000000000000000000000000000000000000000000600052601260045260246000fd5b897fffffffff00000001000000000000000000000000ffffffffffffffffffffffff611a399190612a16565b8b0895507fffffffff00000001000000000000000000000000ffffffffffffffffffffffff80611a92577f4e487b7100000000000000000000000000000000000000000000000000000000600052601260045260246000fd5b81840996507fffffffff00000001000000000000000000000000ffffffffffffffffffffffff80611aec577f4e487b7100000000000000000000000000000000000000000000000000000000600052601260045260246000fd5b83840994507fffffffff00000001000000000000000000000000ffffffffffffffffffffffff80611b46577f4e487b7100000000000000000000000000000000000000000000000000000000600052601260045260246000fd5b8386099450505050505b93509350939050565b6000806000611b6e8787600188886001611b93565b809350819850829950505050611b85878783610dfa565b925092505094509492505050565b6000806000806000806000611ba88d8d61128e565b15611bbf5789898996509650965050505050611dfe565b611bc98a8a61128e565b15611be0578c8c8c96509650965050505050611dfe565b7fffffffff00000001000000000000000000000000ffffffffffffffffffffffff80611c35577f4e487b7100000000000000000000000000000000000000000000000000000000600052601260045260246000fd5b888d0993507fffffffff00000001000000000000000000000000ffffffffffffffffffffffff80611c8f577f4e487b7100000000000000000000000000000000000000000000000000000000600052601260045260246000fd5b8b8a0992507fffffffff00000001000000000000000000000000ffffffffffffffffffffffff80611ce9577f4e487b7100000000000000000000000000000000000000000000000000000000600052601260045260246000fd5b888e0991507fffffffff00000001000000000000000000000000ffffffffffffffffffffffff80611d43577f4e487b7100000000000000000000000000000000000000000000000000000000600052601260045260246000fd5b8b8b09905080821415611d895782841415611d7257611d638d8d8d6112b8565b96509650965050505050611dfe565b611d7a610d82565b96509650965050505050611dfe565b611ded7fffffffff00000001000000000000000000000000ffffffffffffffffffffffff80611de1577f4e487b7100000000000000000000000000000000000000000000000000000000600052601260045260246000fd5b898d0983838688611f14565b809750819850829950505050505050505b96509650969350505050565b600080831480611e1957508183145b80611e245750600082145b15611e325760009050611f0e565b81831115611e7457818381611e70577f4e487b7100000000000000000000000000000000000000000000000000000000600052601260045260246000fd5b0692505b600080600190506000849050600086905060005b60008214611eea57818381611ec6577f4e487b7100000000000000000000000000000000000000000000000000000000600052601260045260246000fd5b04905083848202860383848402860380955081965082975083985050505050611e88565b6000851215611f055784600003870395505050505050611f0e565b84955050505050505b92915050565b6000806000806000806000807fffffffff00000001000000000000000000000000ffffffffffffffffffffffff80611f75577f4e487b7100000000000000000000000000000000000000000000000000000000600052601260045260246000fd5b8a7fffffffff00000001000000000000000000000000ffffffffffffffffffffffff611fa19190612a16565b8a0890507fffffffff00000001000000000000000000000000ffffffffffffffffffffffff80611ffa577f4e487b7100000000000000000000000000000000000000000000000000000000600052601260045260246000fd5b8b7fffffffff00000001000000000000000000000000ffffffffffffffffffffffff6120269190612a16565b8d0894507fffffffff00000001000000000000000000000000ffffffffffffffffffffffff8061207f577f4e487b7100000000000000000000000000000000000000000000000000000000600052601260045260246000fd5b85860993507fffffffff00000001000000000000000000000000ffffffffffffffffffffffff806120d9577f4e487b7100000000000000000000000000000000000000000000000000000000600052601260045260246000fd5b81820991507fffffffff00000001000000000000000000000000ffffffffffffffffffffffff80612133577f4e487b7100000000000000000000000000000000000000000000000000000000600052601260045260246000fd5b8d830991507fffffffff00000001000000000000000000000000ffffffffffffffffffffffff8061218d577f4e487b7100000000000000000000000000000000000000000000000000000000600052601260045260246000fd5b8c8c089a507fffffffff00000001000000000000000000000000ffffffffffffffffffffffff806121e7577f4e487b7100000000000000000000000000000000000000000000000000000000600052601260045260246000fd5b848c099a507fffffffff00000001000000000000000000000000ffffffffffffffffffffffff80612241577f4e487b7100000000000000000000000000000000000000000000000000000000600052601260045260246000fd5b8b7fffffffff00000001000000000000000000000000ffffffffffffffffffffffff61226d9190612a16565b830891507fffffffff00000001000000000000000000000000ffffffffffffffffffffffff806122c6577f4e487b7100000000000000000000000000000000000000000000000000000000600052601260045260246000fd5b82860997507fffffffff00000001000000000000000000000000ffffffffffffffffffffffff80612320577f4e487b7100000000000000000000000000000000000000000000000000000000600052601260045260246000fd5b85850992507fffffffff00000001000000000000000000000000ffffffffffffffffffffffff8061237a577f4e487b7100000000000000000000000000000000000000000000000000000000600052601260045260246000fd5b848d099b507fffffffff00000001000000000000000000000000ffffffffffffffffffffffff806123d4577f4e487b7100000000000000000000000000000000000000000000000000000000600052601260045260246000fd5b827fffffffff00000001000000000000000000000000ffffffffffffffffffffffff6124009190612a16565b8d089b507fffffffff00000001000000000000000000000000ffffffffffffffffffffffff80612459577f4e487b7100000000000000000000000000000000000000000000000000000000600052601260045260246000fd5b8c820990507fffffffff00000001000000000000000000000000ffffffffffffffffffffffff806124b3577f4e487b7100000000000000000000000000000000000000000000000000000000600052601260045260246000fd5b838a0998507fffffffff00000001000000000000000000000000ffffffffffffffffffffffff8061250d577f4e487b7100000000000000000000000000000000000000000000000000000000600052601260045260246000fd5b897fffffffff00000001000000000000000000000000ffffffffffffffffffffffff6125399190612a16565b820896507fffffffff00000001000000000000000000000000ffffffffffffffffffffffff80612592577f4e487b7100000000000000000000000000000000000000000000000000000000600052601260045260246000fd5b8d840995505050505050955095509592505050565b6040518060600160405280600390602082028036833780820191505090505090565b60006125dc6125d7846129c3565b61299e565b905080828560208602820111156125f257600080fd5b60005b8581101561262257816126088882612668565b8452602084019350602083019250506001810190506125f5565b5050509392505050565b600082601f83011261263d57600080fd5b600261264a8482856125c9565b91505092915050565b60008135905061266281612bb3565b92915050565b60008135905061267781612bca565b92915050565b600080600060a0848603121561269257600080fd5b60006126a086828701612653565b93505060206126b18682870161262c565b92505060606126c28682870161262c565b9150509250925092565b6000602082840312156126de57600080fd5b60006126ec84828501612668565b91505092915050565b6000806040838503121561270857600080fd5b600061271685828601612668565b925050602061272785828601612668565b9150509250929050565b60008060006060848603121561274657600080fd5b600061275486828701612668565b935050602061276586828701612668565b925050604061277686828701612668565b9150509250925092565b6000806000806080858703121561279657600080fd5b60006127a487828801612668565b94505060206127b587828801612668565b93505060406127c687828801612668565b92505060606127d787828801612668565b91505092959194509250565b60008060008060008060c087890312156127fc57600080fd5b600061280a89828a01612668565b965050602061281b89828a01612668565b955050604061282c89828a01612668565b945050606061283d89828a01612668565b935050608061284e89828a01612668565b92505060a061285f89828a01612668565b9150509295509295509295565b600061287883836128ea565b60208301905092915050565b61288d816129f3565b6128978184612a0b565b92506128a2826129e9565b8060005b838110156128d35781516128ba878261286c565b96506128c5836129fe565b9250506001810190506128a6565b505050505050565b6128e481612a4a565b82525050565b6128f381612a60565b82525050565b61290281612a60565b82525050565b600060608201905061291d6000830184612884565b92915050565b600060208201905061293860008301846128db565b92915050565b600060408201905061295360008301856128f9565b61296060208301846128f9565b9392505050565b600060608201905061297c60008301866128f9565b61298960208301856128f9565b61299660408301846128f9565b949350505050565b60006129a86129b9565b90506129b48282612a6a565b919050565b6000604051905090565b600067ffffffffffffffff8211156129de576129dd612b73565b5b602082029050919050565b6000819050919050565b600060039050919050565b6000602082019050919050565b600081905092915050565b6000612a2182612a60565b9150612a2c83612a60565b925082821015612a3f57612a3e612b15565b5b828203905092915050565b60008115159050919050565b6000819050919050565b6000819050919050565b612a7382612ba2565b810181811067ffffffffffffffff82111715612a9257612a91612b73565b5b80604052505050565b6000612aa682612a60565b91507fffffffffffffffffffffffffffffffffffffffffffffffffffffffffffffffff821415612ad957612ad8612b15565b5b600182019050919050565b6000612aef82612a60565b9150612afa83612a60565b925082612b0a57612b09612b44565b5b828206905092915050565b7f4e487b7100000000000000000000000000000000000000000000000000000000600052601160045260246000fd5b7f4e487b7100000000000000000000000000000000000000000000000000000000600052601260045260246000fd5b7f4e487b7100000000000000000000000000000000000000000000000000000000600052604160045260246000fd5b6000601f19601f8301169050919050565b612bbc81612a56565b8114612bc757600080fd5b50565b612bd381612a60565b8114612bde57600080fd5b5056fea2646970667358221220e1cea55eabd16c389c654cd8a7f97f3ed1c99832e4591696e1be0ae70406b31864736f6c63430008040033",
  "linkReferences": {},
  "deployedLinkReferences": {}
}