{
  "_format": "hh-sol-artifact-1",
  "contractName": "DummyDNSSEC",
  "sourceName": "contracts/dnsregistrar/mocks/DummyDnsRegistrarDNSSEC.sol",
  "abi": [
    {
      "inputs": [
        {
          "internalType": "uint16",
          "name": "dnstype",
          "type": "uint16"
        },
        {
          "internalType": "bytes",
          "name": "name",
          "type": "bytes"
        }
      ],
      "name": "rrdata",
      "outputs": [
        {
          "internalType": "uint32",
          "name": "",
          "type": "uint32"
        },
        {
          "internalType": "uint64",
          "name": "",
          "type": "uint64"
        },
        {
          "internalType": "bytes20",
          "name": "",
          "type": "bytes20"
        }
      ],
      "stateMutability": "view",
      "type": "function"
    },
    {
      "inputs": [
        {
          "internalType": "uint16",
          "name": "_expectedType",
          "type": "uint16"
        },
        {
          "internalType": "bytes",
          "name": "_expectedName",
          "type": "bytes"
        },
        {
          "internalType": "uint32",
          "name": "_inception",
          "type": "uint32"
        },
        {
          "internalType": "uint64",
          "name": "_inserted",
          "type": "uint64"
        },
        {
          "internalType": "bytes",
          "name": "_proof",
          "type": "bytes"
        }
      ],
      "name": "setData",
      "outputs": [],
      "stateMutability": "nonpayable",
      "type": "function"
    }
  ],
  "bytecode": "0x608060405234801561001057600080fd5b50610753806100206000396000f3fe608060405234801561001057600080fd5b50600436106100365760003560e01c8063087991bc1461003b5780638581a99c1461006d575b600080fd5b6100556004803603810190610050919061032e565b610089565b604051610064939291906104ec565b60405180910390f35b61008760048036038101906100829190610382565b610121565b005b60008060008060009054906101000a900461ffff1661ffff168561ffff16146100b157600080fd5b60016040516100c091906104d5565b60405180910390208480519060200120146100da57600080fd5b600260009054906101000a900463ffffffff16600260049054906101000a900467ffffffffffffffff166002600c9054906101000a900460601b9250925092509250925092565b846000806101000a81548161ffff021916908361ffff16021790555083600190805190602001906101539291906101e4565b5082600260006101000a81548163ffffffff021916908363ffffffff16021790555081600260046101000a81548167ffffffffffffffff021916908367ffffffffffffffff16021790555060008151146101dd5780805190602001206002600c6101000a81548173ffffffffffffffffffffffffffffffffffffffff021916908360601c02179055505b5050505050565b8280546101f090610606565b90600052602060002090601f0160209004810192826102125760008555610259565b82601f1061022b57805160ff1916838001178555610259565b82800160010185558215610259579182015b8281111561025857825182559160200191906001019061023d565b5b509050610266919061026a565b5090565b5b8082111561028357600081600090555060010161026b565b5090565b600061029a61029584610548565b610523565b9050828152602081018484840111156102b257600080fd5b6102bd8482856105f7565b509392505050565b600082601f8301126102d657600080fd5b81356102e6848260208601610287565b91505092915050565b6000813590506102fe816106d8565b92915050565b600081359050610313816106ef565b92915050565b60008135905061032881610706565b92915050565b6000806040838503121561034157600080fd5b600061034f858286016102ef565b925050602083013567ffffffffffffffff81111561036c57600080fd5b610378858286016102c5565b9150509250929050565b600080600080600060a0868803121561039a57600080fd5b60006103a8888289016102ef565b955050602086013567ffffffffffffffff8111156103c557600080fd5b6103d1888289016102c5565b94505060406103e288828901610304565b93505060606103f388828901610319565b925050608086013567ffffffffffffffff81111561041057600080fd5b61041c888289016102c5565b9150509295509295909350565b61043281610599565b82525050565b6000815461044581610606565b61044f818661058e565b9450600182166000811461046a576001811461047b576104ae565b60ff198316865281860193506104ae565b61048485610579565b60005b838110156104a657815481890152600182019150602081019050610487565b838801955050505b50505092915050565b6104c0816105d3565b82525050565b6104cf816105e3565b82525050565b60006104e18284610438565b915081905092915050565b600060608201905061050160008301866104b7565b61050e60208301856104c6565b61051b6040830184610429565b949350505050565b600061052d61053e565b90506105398282610638565b919050565b6000604051905090565b600067ffffffffffffffff82111561056357610562610698565b5b61056c826106c7565b9050602081019050919050565b60008190508160005260206000209050919050565b600081905092915050565b60007fffffffffffffffffffffffffffffffffffffffff00000000000000000000000082169050919050565b600061ffff82169050919050565b600063ffffffff82169050919050565b600067ffffffffffffffff82169050919050565b82818337600083830152505050565b6000600282049050600182168061061e57607f821691505b6020821081141561063257610631610669565b5b50919050565b610641826106c7565b810181811067ffffffffffffffff821117156106605761065f610698565b5b80604052505050565b7f4e487b7100000000000000000000000000000000000000000000000000000000600052602260045260246000fd5b7f4e487b7100000000000000000000000000000000000000000000000000000000600052604160045260246000fd5b6000601f19601f8301169050919050565b6106e1816105c5565b81146106ec57600080fd5b50565b6106f8816105d3565b811461070357600080fd5b50565b61070f816105e3565b811461071a57600080fd5b5056fea264697066735822122056b3526333d3b003a40c7189eeee28f1149579317f5813b7553a07bcfbc3ab2664736f6c63430008040033",
  "linkReferences": {},
  "deployedLinkReferences": {}
}