{
  "_format": "hh-sol-artifact-1",
  "contractName": "DummyProxyRegistry",
  "sourceName": "contracts/ethregistrar/mocks/DummyProxyRegistry.sol",
  "abi": [
    {
      "inputs": [
        {
          "internalType": "address",
          "name": "_target",
          "type": "address"
        }
      ],
      "stateMutability": "nonpayable",
      "type": "constructor"
    },
    {
      "inputs": [
        {
          "internalType": "address",
          "name": "a",
          "type": "address"
        }
      ],
      "name": "proxies",
      "outputs": [
        {
          "internalType": "address",
          "name": "",
          "type": "address"
        }
      ],
      "stateMutability": "view",
      "type": "function"
    }
  ],
  "bytecode": "0x608060405234801561001057600080fd5b506040516102803803806102808339818101604052810190610032919061008d565b806000806101000a81548173ffffffffffffffffffffffffffffffffffffffff021916908373ffffffffffffffffffffffffffffffffffffffff160217905550506100ff565b600081519050610087816100e8565b92915050565b60006020828403121561009f57600080fd5b60006100ad84828501610078565b91505092915050565b60006100c1826100c8565b9050919050565b600073ffffffffffffffffffffffffffffffffffffffff82169050919050565b6100f1816100b6565b81146100fc57600080fd5b50565b6101728061010e6000396000f3fe608060405234801561001057600080fd5b506004361061002b5760003560e01c8063c455279114610030575b600080fd5b61004a600480360381019061004591906100a0565b610060565b60405161005791906100d8565b60405180910390f35b60008060009054906101000a900473ffffffffffffffffffffffffffffffffffffffff169050919050565b60008135905061009a81610125565b92915050565b6000602082840312156100b257600080fd5b60006100c08482850161008b565b91505092915050565b6100d2816100f3565b82525050565b60006020820190506100ed60008301846100c9565b92915050565b60006100fe82610105565b9050919050565b600073ffffffffffffffffffffffffffffffffffffffff82169050919050565b61012e816100f3565b811461013957600080fd5b5056fea2646970667358221220e1e4e84b148bfa312c78ba931007709b262f844283b07e1a2f87b7a947d07da064736f6c63430008040033",
  "linkReferences": {},
  "deployedLinkReferences": {}
}