{
  "_format": "hh-sol-artifact-1",
  "contractName": "RSASHA256Algorithm",
  "sourceName": "contracts/dnssec-oracle/algorithms/RSASHA256Algorithm.sol",
  "abi": [
    {
      "inputs": [
        {
          "internalType": "bytes",
          "name": "key",
          "type": "bytes"
        },
        {
          "internalType": "bytes",
          "name": "data",
          "type": "bytes"
        },
        {
          "internalType": "bytes",
          "name": "sig",
          "type": "bytes"
        }
      ],
      "name": "verify",
      "outputs": [
        {
          "internalType": "bool",
          "name": "",
          "type": "bool"
        }
      ],
      "stateMutability": "view",
      "type": "function"
    }
  ],
  "bytecode": "0x608060405234801561001057600080fd5b50610d82806100206000396000f3fe608060405234801561001057600080fd5b506004361061002b5760003560e01c8063de8f50a114610030575b600080fd5b61004a60048036038101906100459190610a36565b610060565b6040516100579190610b27565b60405180910390f35b600060608060006100bf60048b8b8080601f016020809104026020016040519081016040528093929190818152602001838380828437600081840152601f19601f820116905080830192505050505050506103ea90919063ffffffff16565b60ff16905060008161ffff16146101be5761012e60058261ffff168c8c8080601f016020809104026020016040519081016040528093929190818152602001838380828437600081840152601f19601f8201169050808301925050505050505061043b9092919063ffffffff16565b92506101b76005826101409190610b4d565b61ffff1660058361ffff168d8d90506101599190610c35565b6101639190610c35565b8c8c8080601f016020809104026020016040519081016040528093929190818152602001838380828437600081840152601f19601f8201169050808301925050505050505061043b9092919063ffffffff16565b9150610302565b61021660058b8b8080601f016020809104026020016040519081016040528093929190818152602001838380828437600081840152601f19601f820116905080830192505050505050506104f690919063ffffffff16565b905061027660078261ffff168c8c8080601f016020809104026020016040519081016040528093929190818152602001838380828437600081840152601f19601f8201169050808301925050505050505061043b9092919063ffffffff16565b92506102ff6007826102889190610b4d565b61ffff1660078361ffff168d8d90506102a19190610c35565b6102ab9190610c35565b8c8c8080601f016020809104026020016040519081016040528093929190818152602001838380828437600081840152601f19601f8201169050808301925050505050505061043b9092919063ffffffff16565b91505b6000606061035584868a8a8080601f016020809104026020016040519081016040528093929190818152602001838380828437600081840152601f19601f82011690508083019250505050505050610525565b80925081935050508180156103d95750610385602082516103769190610c35565b8261054090919063ffffffff16565b60028b8b604051610397929190610b0e565b602060405180830381855afa1580156103b4573d6000803e3d6000fd5b5050506040513d601f19601f820116820180604052508101906103d79190610a0d565b145b955050505050509695505050505050565b6000828281518110610425577f4e487b7100000000000000000000000000000000000000000000000000000000600052603260045260246000fd5b602001015160f81c60f81b60f81c905092915050565b60608351828461044b9190610b85565b111561045657600080fd5b60008267ffffffffffffffff811115610498577f4e487b7100000000000000000000000000000000000000000000000000000000600052604160045260246000fd5b6040519080825280601f01601f1916602001820160405280156104ca5781602001600182028036833780820191505090505b50905060008060208301915085602088010190506104e982828761056b565b8293505050509392505050565b600082516002836105079190610b85565b111561051257600080fd5b61ffff8260028501015116905092915050565b600060606105348385876105cf565b91509150935093915050565b600082516020836105519190610b85565b111561055c57600080fd5b81602084010151905092915050565b5b602081106105aa57815183526020836105859190610b85565b92506020826105949190610b85565b91506020816105a39190610c35565b905061056c565b60006001826020036101000a0390508019835116818551168181178652505050505050565b60006060600083518551875160606105e79190610b85565b6105f19190610b85565b6105fb9190610b85565b9050610605610994565b610618828261072f90919063ffffffff16565b50610630875160001b8261079990919063ffffffff16565b50610648865160001b8261079990919063ffffffff16565b50610660855160001b8261079990919063ffffffff16565b5061067487826107bb90919063ffffffff16565b5061068886826107bb90919063ffffffff16565b5061069c85826107bb90919063ffffffff16565b50845167ffffffffffffffff8111156106de577f4e487b7100000000000000000000000000000000000000000000000000000000600052604160045260246000fd5b6040519080825280601f01601f1916602001820160405280156107105781602001600182028036833780820191505090505b50925084516020840183602084510160055afa93505050935093915050565b610737610994565b60006020836107469190610ca6565b14610772576020826107589190610ca6565b60206107649190610c35565b8261076f9190610b85565b91505b81836020018181525050604051808452600081528281016020016040525082905092915050565b6107a1610994565b6107b3838460000151518460206107dd565b905092915050565b6107c3610994565b6107d583846000015151848551610865565b905092915050565b6107e5610994565b846020015184836107f69190610b85565b111561081e5761081d856002868561080e9190610b85565b6108189190610bdb565b610954565b5b60006001836101000a0390508260200360080284901c935085518386820101858319825116178152815185880111156108575784870182525b505050849050949350505050565b61086d610994565b825182111561087b57600080fd5b8460200151828561088c9190610b85565b11156108c1576108c08560026108b1886020015188876108ac9190610b85565b610978565b6108bb9190610bdb565b610954565b5b6000808651805187602083010193508088870111156108e05787860182525b60208701925050505b6020841061092757805182526020826109029190610b85565b91506020816109119190610b85565b90506020846109209190610c35565b93506108e9565b60006001856020036101000a03905080198251168184511681811785525050508692505050949350505050565b600082600001519050610967838361072f565b5061097283826107bb565b50505050565b60008183111561098a5782905061098e565b8190505b92915050565b604051806040016040528060608152602001600081525090565b6000815190506109bd81610d35565b92915050565b60008083601f8401126109d557600080fd5b8235905067ffffffffffffffff8111156109ee57600080fd5b602083019150836001820283011115610a0657600080fd5b9250929050565b600060208284031215610a1f57600080fd5b6000610a2d848285016109ae565b91505092915050565b60008060008060008060608789031215610a4f57600080fd5b600087013567ffffffffffffffff811115610a6957600080fd5b610a7589828a016109c3565b9650965050602087013567ffffffffffffffff811115610a9457600080fd5b610aa089828a016109c3565b9450945050604087013567ffffffffffffffff811115610abf57600080fd5b610acb89828a016109c3565b92509250509295509295509295565b610ae381610c69565b82525050565b6000610af58385610b42565b9350610b02838584610c97565b82840190509392505050565b6000610b1b828486610ae9565b91508190509392505050565b6000602082019050610b3c6000830184610ada565b92915050565b600081905092915050565b6000610b5882610c7f565b9150610b6383610c7f565b92508261ffff03821115610b7a57610b79610cd7565b5b828201905092915050565b6000610b9082610c8d565b9150610b9b83610c8d565b9250827fffffffffffffffffffffffffffffffffffffffffffffffffffffffffffffffff03821115610bd057610bcf610cd7565b5b828201905092915050565b6000610be682610c8d565b9150610bf183610c8d565b9250817fffffffffffffffffffffffffffffffffffffffffffffffffffffffffffffffff0483118215151615610c2a57610c29610cd7565b5b828202905092915050565b6000610c4082610c8d565b9150610c4b83610c8d565b925082821015610c5e57610c5d610cd7565b5b828203905092915050565b60008115159050919050565b6000819050919050565b600061ffff82169050919050565b6000819050919050565b82818337600083830152505050565b6000610cb182610c8d565b9150610cbc83610c8d565b925082610ccc57610ccb610d06565b5b828206905092915050565b7f4e487b7100000000000000000000000000000000000000000000000000000000600052601160045260246000fd5b7f4e487b7100000000000000000000000000000000000000000000000000000000600052601260045260246000fd5b610d3e81610c75565b8114610d4957600080fd5b5056fea26469706673582212206f783b2e11fd459662ef5003ced3f495bb51b59e21a9dcf8f65d4d2d0b73507864736f6c63430008040033",
  "linkReferences": {},
  "deployedLinkReferences": {}
}