{
  "_format": "hh-sol-artifact-1",
  "contractName": "OwnedResolver",
  "sourceName": "contracts/resolvers/OwnedResolver.sol",
  "abi": [
    {
      "anonymous": false,
      "inputs": [
        {
          "indexed": true,
          "internalType": "bytes32",
          "name": "node",
          "type": "bytes32"
        },
        {
          "indexed": true,
          "internalType": "uint256",
          "name": "contentType",
          "type": "uint256"
        }
      ],
      "name": "ABIChanged",
      "type": "event"
    },
    {
      "anonymous": false,
      "inputs": [
        {
          "indexed": true,
          "internalType": "bytes32",
          "name": "node",
          "type": "bytes32"
        },
        {
          "indexed": false,
          "internalType": "address",
          "name": "a",
          "type": "address"
        }
      ],
      "name": "AddrChanged",
      "type": "event"
    },
    {
      "anonymous": false,
      "inputs": [
        {
          "indexed": true,
          "internalType": "bytes32",
          "name": "node",
          "type": "bytes32"
        },
        {
          "indexed": false,
          "internalType": "uint256",
          "name": "coinType",
          "type": "uint256"
        },
        {
          "indexed": false,
          "internalType": "bytes",
          "name": "newAddress",
          "type": "bytes"
        }
      ],
      "name": "AddressChanged",
      "type": "event"
    },
    {
      "anonymous": false,
      "inputs": [
        {
          "indexed": true,
          "internalType": "bytes32",
          "name": "node",
          "type": "bytes32"
        },
        {
          "indexed": false,
          "internalType": "bytes",
          "name": "hash",
          "type": "bytes"
        }
      ],
      "name": "ContenthashChanged",
      "type": "event"
    },
    {
      "anonymous": false,
      "inputs": [
        {
          "indexed": true,
          "internalType": "bytes32",
          "name": "node",
          "type": "bytes32"
        },
        {
          "indexed": false,
          "internalType": "bytes",
          "name": "name",
          "type": "bytes"
        },
        {
          "indexed": false,
          "internalType": "uint16",
          "name": "resource",
          "type": "uint16"
        },
        {
          "indexed": false,
          "internalType": "bytes",
          "name": "record",
          "type": "bytes"
        }
      ],
      "name": "DNSRecordChanged",
      "type": "event"
    },
    {
      "anonymous": false,
      "inputs": [
        {
          "indexed": true,
          "internalType": "bytes32",
          "name": "node",
          "type": "bytes32"
        },
        {
          "indexed": false,
          "internalType": "bytes",
          "name": "name",
          "type": "bytes"
        },
        {
          "indexed": false,
          "internalType": "uint16",
          "name": "resource",
          "type": "uint16"
        }
      ],
      "name": "DNSRecordDeleted",
      "type": "event"
    },
    {
      "anonymous": false,
      "inputs": [
        {
          "indexed": true,
          "internalType": "bytes32",
          "name": "node",
          "type": "bytes32"
        }
      ],
      "name": "DNSZoneCleared",
      "type": "event"
    },
    {
      "anonymous": false,
      "inputs": [
        {
          "indexed": true,
          "internalType": "bytes32",
          "name": "node",
          "type": "bytes32"
        },
        {
          "indexed": false,
          "internalType": "bytes",
          "name": "lastzonehash",
          "type": "bytes"
        },
        {
          "indexed": false,
          "internalType": "bytes",
          "name": "zonehash",
          "type": "bytes"
        }
      ],
      "name": "DNSZonehashChanged",
      "type": "event"
    },
    {
      "anonymous": false,
      "inputs": [
        {
          "indexed": true,
          "internalType": "bytes32",
          "name": "node",
          "type": "bytes32"
        },
        {
          "indexed": true,
          "internalType": "bytes4",
          "name": "interfaceID",
          "type": "bytes4"
        },
        {
          "indexed": false,
          "internalType": "address",
          "name": "implementer",
          "type": "address"
        }
      ],
      "name": "InterfaceChanged",
      "type": "event"
    },
    {
      "anonymous": false,
      "inputs": [
        {
          "indexed": true,
          "internalType": "bytes32",
          "name": "node",
          "type": "bytes32"
        },
        {
          "indexed": false,
          "internalType": "string",
          "name": "name",
          "type": "string"
        }
      ],
      "name": "NameChanged",
      "type": "event"
    },
    {
      "anonymous": false,
      "inputs": [
        {
          "indexed": true,
          "internalType": "address",
          "name": "previousOwner",
          "type": "address"
        },
        {
          "indexed": true,
          "internalType": "address",
          "name": "newOwner",
          "type": "address"
        }
      ],
      "name": "OwnershipTransferred",
      "type": "event"
    },
    {
      "anonymous": false,
      "inputs": [
        {
          "indexed": true,
          "internalType": "bytes32",
          "name": "node",
          "type": "bytes32"
        },
        {
          "indexed": false,
          "internalType": "bytes32",
          "name": "x",
          "type": "bytes32"
        },
        {
          "indexed": false,
          "internalType": "bytes32",
          "name": "y",
          "type": "bytes32"
        }
      ],
      "name": "PubkeyChanged",
      "type": "event"
    },
    {
      "anonymous": false,
      "inputs": [
        {
          "indexed": true,
          "internalType": "bytes32",
          "name": "node",
          "type": "bytes32"
        },
        {
          "indexed": true,
          "internalType": "string",
          "name": "indexedKey",
          "type": "string"
        },
        {
          "indexed": false,
          "internalType": "string",
          "name": "key",
          "type": "string"
        }
      ],
      "name": "TextChanged",
      "type": "event"
    },
    {
      "inputs": [
        {
          "internalType": "bytes32",
          "name": "node",
          "type": "bytes32"
        },
        {
          "internalType": "uint256",
          "name": "contentTypes",
          "type": "uint256"
        }
      ],
      "name": "ABI",
      "outputs": [
        {
          "internalType": "uint256",
          "name": "",
          "type": "uint256"
        },
        {
          "internalType": "bytes",
          "name": "",
          "type": "bytes"
        }
      ],
      "stateMutability": "view",
      "type": "function"
    },
    {
      "inputs": [
        {
          "internalType": "bytes32",
          "name": "node",
          "type": "bytes32"
        }
      ],
      "name": "addr",
      "outputs": [
        {
          "internalType": "address payable",
          "name": "",
          "type": "address"
        }
      ],
      "stateMutability": "view",
      "type": "function"
    },
    {
      "inputs": [
        {
          "internalType": "bytes32",
          "name": "node",
          "type": "bytes32"
        },
        {
          "internalType": "uint256",
          "name": "coinType",
          "type": "uint256"
        }
      ],
      "name": "addr",
      "outputs": [
        {
          "internalType": "bytes",
          "name": "",
          "type": "bytes"
        }
      ],
      "stateMutability": "view",
      "type": "function"
    },
    {
      "inputs": [
        {
          "internalType": "bytes32",
          "name": "node",
          "type": "bytes32"
        }
      ],
      "name": "clearDNSZone",
      "outputs": [],
      "stateMutability": "nonpayable",
      "type": "function"
    },
    {
      "inputs": [
        {
          "internalType": "bytes32",
          "name": "node",
          "type": "bytes32"
        }
      ],
      "name": "contenthash",
      "outputs": [
        {
          "internalType": "bytes",
          "name": "",
          "type": "bytes"
        }
      ],
      "stateMutability": "view",
      "type": "function"
    },
    {
      "inputs": [
        {
          "internalType": "bytes32",
          "name": "node",
          "type": "bytes32"
        },
        {
          "internalType": "bytes32",
          "name": "name",
          "type": "bytes32"
        },
        {
          "internalType": "uint16",
          "name": "resource",
          "type": "uint16"
        }
      ],
      "name": "dnsRecord",
      "outputs": [
        {
          "internalType": "bytes",
          "name": "",
          "type": "bytes"
        }
      ],
      "stateMutability": "view",
      "type": "function"
    },
    {
      "inputs": [
        {
          "internalType": "bytes32",
          "name": "node",
          "type": "bytes32"
        },
        {
          "internalType": "bytes32",
          "name": "name",
          "type": "bytes32"
        }
      ],
      "name": "hasDNSRecords",
      "outputs": [
        {
          "internalType": "bool",
          "name": "",
          "type": "bool"
        }
      ],
      "stateMutability": "view",
      "type": "function"
    },
    {
      "inputs": [
        {
          "internalType": "bytes32",
          "name": "node",
          "type": "bytes32"
        },
        {
          "internalType": "bytes4",
          "name": "interfaceID",
          "type": "bytes4"
        }
      ],
      "name": "interfaceImplementer",
      "outputs": [
        {
          "internalType": "address",
          "name": "",
          "type": "address"
        }
      ],
      "stateMutability": "view",
      "type": "function"
    },
    {
      "inputs": [
        {
          "internalType": "bytes32",
          "name": "node",
          "type": "bytes32"
        }
      ],
      "name": "name",
      "outputs": [
        {
          "internalType": "string",
          "name": "",
          "type": "string"
        }
      ],
      "stateMutability": "view",
      "type": "function"
    },
    {
      "inputs": [],
      "name": "owner",
      "outputs": [
        {
          "internalType": "address",
          "name": "",
          "type": "address"
        }
      ],
      "stateMutability": "view",
      "type": "function"
    },
    {
      "inputs": [
        {
          "internalType": "bytes32",
          "name": "node",
          "type": "bytes32"
        }
      ],
      "name": "pubkey",
      "outputs": [
        {
          "internalType": "bytes32",
          "name": "x",
          "type": "bytes32"
        },
        {
          "internalType": "bytes32",
          "name": "y",
          "type": "bytes32"
        }
      ],
      "stateMutability": "view",
      "type": "function"
    },
    {
      "inputs": [],
      "name": "renounceOwnership",
      "outputs": [],
      "stateMutability": "nonpayable",
      "type": "function"
    },
    {
      "inputs": [
        {
          "internalType": "bytes32",
          "name": "node",
          "type": "bytes32"
        },
        {
          "internalType": "uint256",
          "name": "contentType",
          "type": "uint256"
        },
        {
          "internalType": "bytes",
          "name": "data",
          "type": "bytes"
        }
      ],
      "name": "setABI",
      "outputs": [],
      "stateMutability": "nonpayable",
      "type": "function"
    },
    {
      "inputs": [
        {
          "internalType": "bytes32",
          "name": "node",
          "type": "bytes32"
        },
        {
          "internalType": "uint256",
          "name": "coinType",
          "type": "uint256"
        },
        {
          "internalType": "bytes",
          "name": "a",
          "type": "bytes"
        }
      ],
      "name": "setAddr",
      "outputs": [],
      "stateMutability": "nonpayable",
      "type": "function"
    },
    {
      "inputs": [
        {
          "internalType": "bytes32",
          "name": "node",
          "type": "bytes32"
        },
        {
          "internalType": "address",
          "name": "a",
          "type": "address"
        }
      ],
      "name": "setAddr",
      "outputs": [],
      "stateMutability": "nonpayable",
      "type": "function"
    },
    {
      "inputs": [
        {
          "internalType": "bytes32",
          "name": "node",
          "type": "bytes32"
        },
        {
          "internalType": "bytes",
          "name": "hash",
          "type": "bytes"
        }
      ],
      "name": "setContenthash",
      "outputs": [],
      "stateMutability": "nonpayable",
      "type": "function"
    },
    {
      "inputs": [
        {
          "internalType": "bytes32",
          "name": "node",
          "type": "bytes32"
        },
        {
          "internalType": "bytes",
          "name": "data",
          "type": "bytes"
        }
      ],
      "name": "setDNSRecords",
      "outputs": [],
      "stateMutability": "nonpayable",
      "type": "function"
    },
    {
      "inputs": [
        {
          "internalType": "bytes32",
          "name": "node",
          "type": "bytes32"
        },
        {
          "internalType": "bytes4",
          "name": "interfaceID",
          "type": "bytes4"
        },
        {
          "internalType": "address",
          "name": "implementer",
          "type": "address"
        }
      ],
      "name": "setInterface",
      "outputs": [],
      "stateMutability": "nonpayable",
      "type": "function"
    },
    {
      "inputs": [
        {
          "internalType": "bytes32",
          "name": "node",
          "type": "bytes32"
        },
        {
          "internalType": "string",
          "name": "name",
          "type": "string"
        }
      ],
      "name": "setName",
      "outputs": [],
      "stateMutability": "nonpayable",
      "type": "function"
    },
    {
      "inputs": [
        {
          "internalType": "bytes32",
          "name": "node",
          "type": "bytes32"
        },
        {
          "internalType": "bytes32",
          "name": "x",
          "type": "bytes32"
        },
        {
          "internalType": "bytes32",
          "name": "y",
          "type": "bytes32"
        }
      ],
      "name": "setPubkey",
      "outputs": [],
      "stateMutability": "nonpayable",
      "type": "function"
    },
    {
      "inputs": [
        {
          "internalType": "bytes32",
          "name": "node",
          "type": "bytes32"
        },
        {
          "internalType": "string",
          "name": "key",
          "type": "string"
        },
        {
          "internalType": "string",
          "name": "value",
          "type": "string"
        }
      ],
      "name": "setText",
      "outputs": [],
      "stateMutability": "nonpayable",
      "type": "function"
    },
    {
      "inputs": [
        {
          "internalType": "bytes32",
          "name": "node",
          "type": "bytes32"
        },
        {
          "internalType": "bytes",
          "name": "hash",
          "type": "bytes"
        }
      ],
      "name": "setZonehash",
      "outputs": [],
      "stateMutability": "nonpayable",
      "type": "function"
    },
    {
      "inputs": [
        {
          "internalType": "bytes4",
          "name": "interfaceID",
          "type": "bytes4"
        }
      ],
      "name": "supportsInterface",
      "outputs": [
        {
          "internalType": "bool",
          "name": "",
          "type": "bool"
        }
      ],
      "stateMutability": "pure",
      "type": "function"
    },
    {
      "inputs": [
        {
          "internalType": "bytes32",
          "name": "node",
          "type": "bytes32"
        },
        {
          "internalType": "string",
          "name": "key",
          "type": "string"
        }
      ],
      "name": "text",
      "outputs": [
        {
          "internalType": "string",
          "name": "",
          "type": "string"
        }
      ],
      "stateMutability": "view",
      "type": "function"
    },
    {
      "inputs": [
        {
          "internalType": "address",
          "name": "newOwner",
          "type": "address"
        }
      ],
      "name": "transferOwnership",
      "outputs": [],
      "stateMutability": "nonpayable",
      "type": "function"
    },
    {
      "inputs": [
        {
          "internalType": "bytes32",
          "name": "node",
          "type": "bytes32"
        }
      ],
      "name": "zonehash",
      "outputs": [
        {
          "internalType": "bytes",
          "name": "",
          "type": "bytes"
        }
      ],
      "stateMutability": "view",
      "type": "function"
    }
  ],
  "bytecode": "0x60806040523480156200001157600080fd5b50600062000024620000c860201b60201c565b9050806000806101000a81548173ffffffffffffffffffffffffffffffffffffffff021916908373ffffffffffffffffffffffffffffffffffffffff1602179055508073ffffffffffffffffffffffffffffffffffffffff16600073ffffffffffffffffffffffffffffffffffffffff167f8be0079c531659141344cd1fd0a4f28419497f9722a3daafe3b4186f6b6457e060405160405180910390a350620000d0565b600033905090565b613a2f80620000e06000396000f3fe608060405234801561001057600080fd5b506004361061018e5760003560e01c8063715018a6116100de578063bc1c58d111610097578063d5fa2b0011610071578063d5fa2b00146104c9578063e59d895d146104e5578063f1cb7e0614610501578063f2fde38b146105315761018e565b8063bc1c58d11461044c578063c86902331461047c578063ce3decdc146104ad5761018e565b8063715018a6146103a057806377372213146103aa5780638b95dd71146103c65780638da5cb5b146103e2578063a8fa568214610400578063ad5780af146104305761018e565b8063304e6ade1161014b57806359d1d43c1161012557806359d1d43c146102f45780635c98042b14610324578063623195b014610354578063691f3431146103705761018e565b8063304e6ade146102785780633b3b57de146102945780634cbf6ba4146102c45761018e565b806301ffc9a7146101935780630af179d7146101c357806310f13a8c146101df578063124a319c146101fb5780632203ab561461022b57806329cd62ea1461025c575b600080fd5b6101ad60048036038101906101a89190613098565b61054d565b6040516101ba9190613322565b60405180910390f35b6101dd60048036038101906101d89190612e50565b61055f565b005b6101f960048036038101906101f49190612f00565b610791565b005b61021560048036038101906102109190612dc5565b61083f565b60405161022291906132d1565b60405180910390f35b61024560048036038101906102409190612f89565b610c83565b6040516102539291906134fb565b60405180910390f35b61027660048036038101906102719190612d27565b610db8565b005b610292600480360381019061028d9190612e50565b610e4a565b005b6102ae60048036038101906102a99190612c86565b610ec0565b6040516102bb9190613307565b60405180910390f35b6102de60048036038101906102d99190612ceb565b610ef6565b6040516102eb9190613322565b60405180910390f35b61030e60048036038101906103099190612ea8565b610f5e565b60405161031b9190613499565b60405180910390f35b61033e60048036038101906103399190612c86565b611023565b60405161034b91906133a5565b60405180910390f35b61036e60048036038101906103699190612fc5565b6110c8565b005b61038a60048036038101906103859190612c86565b61115f565b6040516103979190613499565b60405180910390f35b6103a8611204565b005b6103c460048036038101906103bf9190612ea8565b61133e565b005b6103e060048036038101906103db9190613031565b6113b4565b005b6103ea61148a565b6040516103f791906132d1565b60405180910390f35b61041a60048036038101906104159190612d76565b6114b3565b60405161042791906133a5565b60405180910390f35b61044a60048036038101906104459190612c86565b6115a8565b005b61046660048036038101906104619190612c86565b611615565b60405161047391906133a5565b60405180910390f35b61049660048036038101906104919190612c86565b6116ba565b6040516104a492919061333d565b60405180910390f35b6104c760048036038101906104c29190612e50565b6116f4565b005b6104e360048036038101906104de9190612caf565b61180d565b005b6104ff60048036038101906104fa9190612e01565b611839565b005b61051b60048036038101906105169190612f89565b61194b565b60405161052891906133a5565b60405180910390f35b61054b60048036038101906105469190612c5d565b611a02565b005b600061055882611bab565b9050919050565b8261056981611c0c565b61057257600080fd5b6000806060806000806105d360008a8a8080601f016020809104026020016040519081016040528093929190818152602001838380828437600081840152601f19601f82011690508083019250505050505050611c4b90919063ffffffff16565b90505b6105df81611c75565b6107155760008661ffff16141561063b578060400151955061060081611c8b565b93508360405160200161061391906132a1565b60405160208183030381529060405280519060200120915061063481611cc2565b9250610707565b600061064682611c8b565b9050816040015161ffff168761ffff1614158061067357506106718186611cfb90919063ffffffff16565b155b15610705576106de8b86898d8d8080601f016020809104026020016040519081016040528093929190818152602001838380828437600081840152601f19601f820116905080830192505050505050508a8b88602001516106d49190613625565b60008b5114611d22565b81604001519650816020015195508094508480519060200120925061070282611cc2565b93505b505b6107108161204d565b6105d6565b50600083511115610786576107858984878b8b8080601f016020809104026020016040519081016040528093929190818152602001838380828437600081840152601f19601f8201169050808301925050505050505088898e8e905061077b9190613625565b6000895114611d22565b5b505050505050505050565b8461079b81611c0c565b6107a457600080fd5b8282600b600089815260200190815260200160002087876040516107c99291906132b8565b908152602001604051809103902091906107e49291906128be565b5084846040516107f59291906132b8565b6040518091039020867fd8c9334b1a9c2f9da342a0a2b32629c1a229b6445dad78947f674b44444a7550878760405161082f929190613475565b60405180910390a3505050505050565b600080600860008581526020019081526020016000206000847bffffffffffffffffffffffffffffffffffffffffffffffffffffffff19167bffffffffffffffffffffffffffffffffffffffffffffffffffffffff1916815260200190815260200160002060009054906101000a900473ffffffffffffffffffffffffffffffffffffffff169050600073ffffffffffffffffffffffffffffffffffffffff168173ffffffffffffffffffffffffffffffffffffffff16146109045780915050610c7d565b600061090f85610ec0565b9050600073ffffffffffffffffffffffffffffffffffffffff168173ffffffffffffffffffffffffffffffffffffffff16141561095157600092505050610c7d565b6000808273ffffffffffffffffffffffffffffffffffffffff166301ffc9a760e01b6040516024016109839190613366565b6040516020818303038152906040527f01ffc9a7000000000000000000000000000000000000000000000000000000007bffffffffffffffffffffffffffffffffffffffffffffffffffffffff19166020820180517bffffffffffffffffffffffffffffffffffffffffffffffffffffffff8381831617835250505050604051610a0d91906132a1565b600060405180830381855afa9150503d8060008114610a48576040519150601f19603f3d011682016040523d82523d6000602084013e610a4d565b606091505b5091509150811580610a60575060208151105b80610ad45750600060f81b81601f81518110610aa5577f4e487b7100000000000000000000000000000000000000000000000000000000600052603260045260246000fd5b602001015160f81c60f81b7effffffffffffffffffffffffffffffffffffffffffffffffffffffffffffff1916145b15610ae6576000945050505050610c7d565b8273ffffffffffffffffffffffffffffffffffffffff1686604051602401610b0e9190613366565b6040516020818303038152906040527f01ffc9a7000000000000000000000000000000000000000000000000000000007bffffffffffffffffffffffffffffffffffffffffffffffffffffffff19166020820180517bffffffffffffffffffffffffffffffffffffffffffffffffffffffff8381831617835250505050604051610b9891906132a1565b600060405180830381855afa9150503d8060008114610bd3576040519150601f19603f3d011682016040523d82523d6000602084013e610bd8565b606091505b508092508193505050811580610bef575060208151105b80610c635750600060f81b81601f81518110610c34577f4e487b7100000000000000000000000000000000000000000000000000000000600052603260045260246000fd5b602001015160f81c60f81b7effffffffffffffffffffffffffffffffffffffffffffffffffffffffffffff1916145b15610c75576000945050505050610c7d565b829450505050505b92915050565b6000606060006001600086815260200190815260200160002090506000600190505b848111610d9857600085821614158015610cdd575060008260008381526020019081526020016000208054610cd990613799565b9050115b15610d8c5780826000838152602001908152602001600020808054610d0190613799565b80601f0160208091040260200160405190810160405280929190818152602001828054610d2d90613799565b8015610d7a5780601f10610d4f57610100808354040283529160200191610d7a565b820191906000526020600020905b815481529060010190602001808311610d5d57829003601f168201915b50505050509050935093505050610db1565b600181901b9050610ca5565b5060006040518060200160405280600081525092509250505b9250929050565b82610dc281611c0c565b610dcb57600080fd5b604051806040016040528084815260200183815250600a60008681526020019081526020016000206000820151816000015560208201518160010155905050837f1d6f5e03d3f63eb58751986629a5439baee5079ff04f345becb66e23eb154e468484604051610e3c92919061333d565b60405180910390a250505050565b82610e5481611c0c565b610e5d57600080fd5b8282600360008781526020019081526020016000209190610e7f929190612944565b50837fe379c1624ed7e714cc0937528a32359d69d5281337765313dba4e081b72d75788484604051610eb2929190613381565b60405180910390a250505050565b600080610ece83603c61194b565b9050600081511415610ee4576000915050610ef1565b610eed81612197565b9150505b919050565b60008060076000858152602001908152602001600020600060056000878152602001908152602001600020548152602001908152602001600020600084815260200190815260200160002060009054906101000a900461ffff1661ffff161415905092915050565b6060600b60008581526020019081526020016000208383604051610f839291906132b8565b90815260200160405180910390208054610f9c90613799565b80601f0160208091040260200160405190810160405280929190818152602001828054610fc890613799565b80156110155780601f10610fea57610100808354040283529160200191611015565b820191906000526020600020905b815481529060010190602001808311610ff857829003601f168201915b505050505090509392505050565b606060046000838152602001908152602001600020805461104390613799565b80601f016020809104026020016040519081016040528092919081815260200182805461106f90613799565b80156110bc5780601f10611091576101008083540402835291602001916110bc565b820191906000526020600020905b81548152906001019060200180831161109f57829003601f168201915b50505050509050919050565b836110d281611c0c565b6110db57600080fd5b6000846001866110eb9190613625565b16146110f657600080fd5b82826001600088815260200190815260200160002060008781526020019081526020016000209190611129929190612944565b5083857faa121bbeef5f32f5961a2a28966e769023910fc9479059ee3495d4c1a696efe360405160405180910390a35050505050565b606060096000838152602001908152602001600020805461117f90613799565b80601f01602080910402602001604051908101604052809291908181526020018280546111ab90613799565b80156111f85780601f106111cd576101008083540402835291602001916111f8565b820191906000526020600020905b8154815290600101906020018083116111db57829003601f168201915b50505050509050919050565b61120c6121ba565b73ffffffffffffffffffffffffffffffffffffffff1661122a61148a565b73ffffffffffffffffffffffffffffffffffffffff1614611280576040517f08c379a0000000000000000000000000000000000000000000000000000000008152600401611277906134db565b60405180910390fd5b600073ffffffffffffffffffffffffffffffffffffffff1660008054906101000a900473ffffffffffffffffffffffffffffffffffffffff1673ffffffffffffffffffffffffffffffffffffffff167f8be0079c531659141344cd1fd0a4f28419497f9722a3daafe3b4186f6b6457e060405160405180910390a360008060006101000a81548173ffffffffffffffffffffffffffffffffffffffff021916908373ffffffffffffffffffffffffffffffffffffffff160217905550565b8261134881611c0c565b61135157600080fd5b82826009600087815260200190815260200160002091906113739291906128be565b50837fb7d29e911041e8d9b843369e890bcb72c9388692ba48b65ac54e7214c4c348f784846040516113a6929190613475565b60405180910390a250505050565b826113be81611c0c565b6113c757600080fd5b837f65412581168e88a1e60c6459d7f44ae83ad0832e670826c05a4e2476b57af75284846040516113f99291906134fb565b60405180910390a2603c83141561144b57837f52d7d861f09ab3d26239d492e8968629f95e9e318cf0b73bfddc441522a15fd261143584612197565b60405161144291906132ec565b60405180910390a25b8160026000868152602001908152602001600020600085815260200190815260200160002090805190602001906114839291906129ca565b5050505050565b60008060009054906101000a900473ffffffffffffffffffffffffffffffffffffffff16905090565b606060066000858152602001908152602001600020600060056000878152602001908152602001600020548152602001908152602001600020600084815260200190815260200160002060008361ffff1661ffff168152602001908152602001600020805461152190613799565b80601f016020809104026020016040519081016040528092919081815260200182805461154d90613799565b801561159a5780601f1061156f5761010080835404028352916020019161159a565b820191906000526020600020905b81548152906001019060200180831161157d57829003601f168201915b505050505090509392505050565b806115b281611c0c565b6115bb57600080fd5b6005600083815260200190815260200160002060008154809291906115df90613827565b9190505550817fb757169b8492ca2f1c6619d9d76ce22803035c3b1d5f6930dffe7b127c1a198360405160405180910390a25050565b606060036000838152602001908152602001600020805461163590613799565b80601f016020809104026020016040519081016040528092919081815260200182805461166190613799565b80156116ae5780601f10611683576101008083540402835291602001916116ae565b820191906000526020600020905b81548152906001019060200180831161169157829003601f168201915b50505050509050919050565b600080600a600084815260200190815260200160002060000154600a60008581526020019081526020016000206001015491509150915091565b826116fe81611c0c565b61170757600080fd5b600060046000868152602001908152602001600020805461172790613799565b80601f016020809104026020016040519081016040528092919081815260200182805461175390613799565b80156117a05780601f10611775576101008083540402835291602001916117a0565b820191906000526020600020905b81548152906001019060200180831161178357829003601f168201915b5050505050905083836004600088815260200190815260200160002091906117c9929190612944565b50847f8f15ed4b723ef428f250961da8315675b507046737e19319fc1a4d81bfe87f858286866040516117fe939291906133c7565b60405180910390a25050505050565b8161181781611c0c565b61182057600080fd5b61183483603c61182f856121c2565b6113b4565b505050565b8261184381611c0c565b61184c57600080fd5b81600860008681526020019081526020016000206000857bffffffffffffffffffffffffffffffffffffffffffffffffffffffff19167bffffffffffffffffffffffffffffffffffffffffffffffffffffffff1916815260200190815260200160002060006101000a81548173ffffffffffffffffffffffffffffffffffffffff021916908373ffffffffffffffffffffffffffffffffffffffff160217905550827bffffffffffffffffffffffffffffffffffffffffffffffffffffffff1916847f7c69f06bea0bdef565b709e93a147836b0063ba2dd89f02d0b7e8d931e6a6daa8460405161193d91906132d1565b60405180910390a350505050565b6060600260008481526020019081526020016000206000838152602001908152602001600020805461197c90613799565b80601f01602080910402602001604051908101604052809291908181526020018280546119a890613799565b80156119f55780601f106119ca576101008083540402835291602001916119f5565b820191906000526020600020905b8154815290600101906020018083116119d857829003601f168201915b5050505050905092915050565b611a0a6121ba565b73ffffffffffffffffffffffffffffffffffffffff16611a2861148a565b73ffffffffffffffffffffffffffffffffffffffff1614611a7e576040517f08c379a0000000000000000000000000000000000000000000000000000000008152600401611a75906134db565b60405180910390fd5b600073ffffffffffffffffffffffffffffffffffffffff168173ffffffffffffffffffffffffffffffffffffffff161415611aee576040517f08c379a0000000000000000000000000000000000000000000000000000000008152600401611ae5906134bb565b60405180910390fd5b8073ffffffffffffffffffffffffffffffffffffffff1660008054906101000a900473ffffffffffffffffffffffffffffffffffffffff1673ffffffffffffffffffffffffffffffffffffffff167f8be0079c531659141344cd1fd0a4f28419497f9722a3daafe3b4186f6b6457e060405160405180910390a3806000806101000a81548173ffffffffffffffffffffffffffffffffffffffff021916908373ffffffffffffffffffffffffffffffffffffffff16021790555050565b60006359d1d43c60e01b7bffffffffffffffffffffffffffffffffffffffffffffffffffffffff1916827bffffffffffffffffffffffffffffffffffffffffffffffffffffffff19161480611c055750611c048261224c565b5b9050919050565b6000611c1661148a565b73ffffffffffffffffffffffffffffffffffffffff163373ffffffffffffffffffffffffffffffffffffffff16149050919050565b611c53612a50565b828160000181905250818160c0018181525050611c6f8161204d565b92915050565b6000816000015151826020015110159050919050565b6060611cbb8260200151611ca7846000015185602001516122ad565b84600001516123509092919063ffffffff16565b9050919050565b6060611cf48260a001518360a001518460c00151611ce09190613625565b84600001516123509092919063ffffffff16565b9050919050565b600081518351148015611d1a5750611d19836000846000875161240b565b5b905092915050565b6000600560008981526020019081526020016000205490506000878051906020012090506000611d5d8686896123509092919063ffffffff16565b90508315611ecf576000600660008c81526020019081526020016000206000858152602001908152602001600020600084815260200190815260200160002060008a61ffff1661ffff1681526020019081526020016000208054611dc090613799565b905014611e3657600760008b815260200190815260200160002060008481526020019081526020016000206000838152602001908152602001600020600081819054906101000a900461ffff1680929190611e1a9061376f565b91906101000a81548161ffff021916908361ffff160217905550505b600660008b81526020019081526020016000206000848152602001908152602001600020600083815260200190815260200160002060008961ffff1661ffff1681526020019081526020016000206000611e909190612a9b565b897f03528ed0c2a3ebc993b12ce3c16bb382f9c7d88ef7d8a1bf290eaf35955a12078a8a604051611ec2929190613400565b60405180910390a2612041565b6000600660008c81526020019081526020016000206000858152602001908152602001600020600084815260200190815260200160002060008a61ffff1661ffff1681526020019081526020016000208054611f2a90613799565b90501415611fa157600760008b815260200190815260200160002060008481526020019081526020016000206000838152602001908152602001600020600081819054906101000a900461ffff1680929190611f85906137fc565b91906101000a81548161ffff021916908361ffff160217905550505b80600660008c81526020019081526020016000206000858152602001908152602001600020600084815260200190815260200160002060008a61ffff1661ffff16815260200190815260200160002090805190602001906120039291906129ca565b50897f52a608b3303a48862d07a73d82fa221318c0027fbbcfb1b2329bface3f19ff2b8a8a8460405161203893929190613430565b60405180910390a25b50505050505050505050565b8060c0015181602001818152505080600001515181602001511061207057612194565b6000612084826000015183602001516122ad565b826020015161209391906135cf565b90506120ac81836000015161242f90919063ffffffff16565b826040019061ffff16908161ffff16815250506002816120cc91906135cf565b90506120e581836000015161242f90919063ffffffff16565b826060019061ffff16908161ffff168152505060028161210591906135cf565b905061211e81836000015161245e90919063ffffffff16565b826080019063ffffffff16908163ffffffff168152505060048161214291906135cf565b9050600061215d82846000015161242f90919063ffffffff16565b61ffff16905060028261217091906135cf565b9150818360a0018181525050808261218891906135cf565b8360c001818152505050505b50565b600060148251146121a757600080fd5b600c6101000a6020830151049050919050565b600033905090565b6060601467ffffffffffffffff811115612205577f4e487b7100000000000000000000000000000000000000000000000000000000600052604160045260246000fd5b6040519080825280601f01601f1916602001820160405280156122375781602001600182028036833780820191505090505b509050600c6101000a82026020820152919050565b600063c869023360e01b7bffffffffffffffffffffffffffffffffffffffffffffffffffffffff1916827bffffffffffffffffffffffffffffffffffffffffffffffffffffffff191614806122a657506122a58261248f565b5b9050919050565b6000808290505b60011561233b57835181106122f2577f4e487b7100000000000000000000000000000000000000000000000000000000600052600160045260246000fd5b600061230782866124f090919063ffffffff16565b60ff16905060018161231991906135cf565b8261232491906135cf565b91506000811415612335575061233b565b506122b4565b82816123479190613625565b91505092915050565b60608351828461236091906135cf565b111561236b57600080fd5b60008267ffffffffffffffff8111156123ad577f4e487b7100000000000000000000000000000000000000000000000000000000600052604160045260246000fd5b6040519080825280601f01601f1916602001820160405280156123df5781602001600182028036833780820191505090505b50905060008060208301915085602088010190506123fe828287612541565b8293505050509392505050565b60006124188484846125a5565b6124238787856125a5565b14905095945050505050565b6000825160028361244091906135cf565b111561244b57600080fd5b61ffff8260028501015116905092915050565b6000825160048361246f91906135cf565b111561247a57600080fd5b63ffffffff8260048501015116905092915050565b600063691f343160e01b7bffffffffffffffffffffffffffffffffffffffffffffffffffffffff1916827bffffffffffffffffffffffffffffffffffffffffffffffffffffffff191614806124e957506124e8826125d1565b5b9050919050565b600082828151811061252b577f4e487b7100000000000000000000000000000000000000000000000000000000600052603260045260246000fd5b602001015160f81c60f81b60f81c905092915050565b5b60208110612580578151835260208361255b91906135cf565b925060208261256a91906135cf565b91506020816125799190613625565b9050612542565b60006001826020036101000a0390508019835116818551168181178652505050505050565b6000835182846125b591906135cf565b11156125c057600080fd5b818360208601012090509392505050565b60007f124a319c1247f4318c3c16c7e9cc865d0fb5d80d7bf02f56cafc0d14da0208507bffffffffffffffffffffffffffffffffffffffffffffffffffffffff1916827bffffffffffffffffffffffffffffffffffffffffffffffffffffffff1916148061264457506126438261264b565b5b9050919050565b600063a8fa568260e01b7bffffffffffffffffffffffffffffffffffffffffffffffffffffffff1916827bffffffffffffffffffffffffffffffffffffffffffffffffffffffff191614806126e45750635c47637c60e01b7bffffffffffffffffffffffffffffffffffffffffffffffffffffffff1916827bffffffffffffffffffffffffffffffffffffffffffffffffffffffff1916145b806126f457506126f3826126fb565b5b9050919050565b600063bc1c58d160e01b7bffffffffffffffffffffffffffffffffffffffffffffffffffffffff1916827bffffffffffffffffffffffffffffffffffffffffffffffffffffffff1916148061275557506127548261275c565b5b9050919050565b6000633b3b57de60e01b7bffffffffffffffffffffffffffffffffffffffffffffffffffffffff1916827bffffffffffffffffffffffffffffffffffffffffffffffffffffffff191614806127f5575063f1cb7e0660e01b7bffffffffffffffffffffffffffffffffffffffffffffffffffffffff1916827bffffffffffffffffffffffffffffffffffffffffffffffffffffffff1916145b8061280557506128048261280c565b5b9050919050565b6000632203ab5660e01b7bffffffffffffffffffffffffffffffffffffffffffffffffffffffff1916827bffffffffffffffffffffffffffffffffffffffffffffffffffffffff1916148061286657506128658261286d565b5b9050919050565b60006301ffc9a760e01b7bffffffffffffffffffffffffffffffffffffffffffffffffffffffff1916827bffffffffffffffffffffffffffffffffffffffffffffffffffffffff1916149050919050565b8280546128ca90613799565b90600052602060002090601f0160209004810192826128ec5760008555612933565b82601f1061290557803560ff1916838001178555612933565b82800160010185558215612933579182015b82811115612932578235825591602001919060010190612917565b5b5090506129409190612adb565b5090565b82805461295090613799565b90600052602060002090601f01602090048101928261297257600085556129b9565b82601f1061298b57803560ff19168380011785556129b9565b828001600101855582156129b9579182015b828111156129b857823582559160200191906001019061299d565b5b5090506129c69190612adb565b5090565b8280546129d690613799565b90600052602060002090601f0160209004810192826129f85760008555612a3f565b82601f10612a1157805160ff1916838001178555612a3f565b82800160010185558215612a3f579182015b82811115612a3e578251825591602001919060010190612a23565b5b509050612a4c9190612adb565b5090565b6040518060e001604052806060815260200160008152602001600061ffff168152602001600061ffff168152602001600063ffffffff16815260200160008152602001600081525090565b508054612aa790613799565b6000825580601f10612ab95750612ad8565b601f016020900490600052602060002090810190612ad79190612adb565b5b50565b5b80821115612af4576000816000905550600101612adc565b5090565b6000612b0b612b0684613550565b61352b565b905082815260208101848484011115612b2357600080fd5b612b2e84828561372d565b509392505050565b600081359050612b4581613986565b92915050565b600081359050612b5a8161399d565b92915050565b600081359050612b6f816139b4565b92915050565b60008083601f840112612b8757600080fd5b8235905067ffffffffffffffff811115612ba057600080fd5b602083019150836001820283011115612bb857600080fd5b9250929050565b600082601f830112612bd057600080fd5b8135612be0848260208601612af8565b91505092915050565b60008083601f840112612bfb57600080fd5b8235905067ffffffffffffffff811115612c1457600080fd5b602083019150836001820283011115612c2c57600080fd5b9250929050565b600081359050612c42816139cb565b92915050565b600081359050612c57816139e2565b92915050565b600060208284031215612c6f57600080fd5b6000612c7d84828501612b36565b91505092915050565b600060208284031215612c9857600080fd5b6000612ca684828501612b4b565b91505092915050565b60008060408385031215612cc257600080fd5b6000612cd085828601612b4b565b9250506020612ce185828601612b36565b9150509250929050565b60008060408385031215612cfe57600080fd5b6000612d0c85828601612b4b565b9250506020612d1d85828601612b4b565b9150509250929050565b600080600060608486031215612d3c57600080fd5b6000612d4a86828701612b4b565b9350506020612d5b86828701612b4b565b9250506040612d6c86828701612b4b565b9150509250925092565b600080600060608486031215612d8b57600080fd5b6000612d9986828701612b4b565b9350506020612daa86828701612b4b565b9250506040612dbb86828701612c33565b9150509250925092565b60008060408385031215612dd857600080fd5b6000612de685828601612b4b565b9250506020612df785828601612b60565b9150509250929050565b600080600060608486031215612e1657600080fd5b6000612e2486828701612b4b565b9350506020612e3586828701612b60565b9250506040612e4686828701612b36565b9150509250925092565b600080600060408486031215612e6557600080fd5b6000612e7386828701612b4b565b935050602084013567ffffffffffffffff811115612e9057600080fd5b612e9c86828701612b75565b92509250509250925092565b600080600060408486031215612ebd57600080fd5b6000612ecb86828701612b4b565b935050602084013567ffffffffffffffff811115612ee857600080fd5b612ef486828701612be9565b92509250509250925092565b600080600080600060608688031215612f1857600080fd5b6000612f2688828901612b4b565b955050602086013567ffffffffffffffff811115612f4357600080fd5b612f4f88828901612be9565b9450945050604086013567ffffffffffffffff811115612f6e57600080fd5b612f7a88828901612be9565b92509250509295509295909350565b60008060408385031215612f9c57600080fd5b6000612faa85828601612b4b565b9250506020612fbb85828601612c48565b9150509250929050565b60008060008060608587031215612fdb57600080fd5b6000612fe987828801612b4b565b9450506020612ffa87828801612c48565b935050604085013567ffffffffffffffff81111561301757600080fd5b61302387828801612b75565b925092505092959194509250565b60008060006060848603121561304657600080fd5b600061305486828701612b4b565b935050602061306586828701612c48565b925050604084013567ffffffffffffffff81111561308257600080fd5b61308e86828701612bbf565b9150509250925092565b6000602082840312156130aa57600080fd5b60006130b884828501612b60565b91505092915050565b6130ca816136f7565b82525050565b6130d98161366b565b82525050565b6130e881613659565b82525050565b6130f78161367d565b82525050565b61310681613689565b82525050565b61311581613693565b82525050565b60006131278385613597565b935061313483858461372d565b61313d836138fd565b840190509392505050565b600061315382613581565b61315d8185613597565b935061316d81856020860161373c565b613176816138fd565b840191505092915050565b600061318c82613581565b61319681856135a8565b93506131a681856020860161373c565b80840191505092915050565b60006131be83856135b3565b93506131cb83858461372d565b6131d4836138fd565b840190509392505050565b60006131eb83856135c4565b93506131f883858461372d565b82840190509392505050565b600061320f8261358c565b61321981856135b3565b935061322981856020860161373c565b613232816138fd565b840191505092915050565b600061324a6026836135b3565b91506132558261390e565b604082019050919050565b600061326d6020836135b3565b91506132788261395d565b602082019050919050565b61328c816136bf565b82525050565b61329b816136ed565b82525050565b60006132ad8284613181565b915081905092915050565b60006132c58284866131df565b91508190509392505050565b60006020820190506132e660008301846130df565b92915050565b600060208201905061330160008301846130c1565b92915050565b600060208201905061331c60008301846130d0565b92915050565b600060208201905061333760008301846130ee565b92915050565b600060408201905061335260008301856130fd565b61335f60208301846130fd565b9392505050565b600060208201905061337b600083018461310c565b92915050565b6000602082019050818103600083015261339c81848661311b565b90509392505050565b600060208201905081810360008301526133bf8184613148565b905092915050565b600060408201905081810360008301526133e18186613148565b905081810360208301526133f681848661311b565b9050949350505050565b6000604082019050818103600083015261341a8185613148565b90506134296020830184613283565b9392505050565b6000606082019050818103600083015261344a8186613148565b90506134596020830185613283565b818103604083015261346b8184613148565b9050949350505050565b600060208201905081810360008301526134908184866131b2565b90509392505050565b600060208201905081810360008301526134b38184613204565b905092915050565b600060208201905081810360008301526134d48161323d565b9050919050565b600060208201905081810360008301526134f481613260565b9050919050565b60006040820190506135106000830185613292565b81810360208301526135228184613148565b90509392505050565b6000613535613546565b905061354182826137cb565b919050565b6000604051905090565b600067ffffffffffffffff82111561356b5761356a6138ce565b5b613574826138fd565b9050602081019050919050565b600081519050919050565b600081519050919050565b600082825260208201905092915050565b600081905092915050565b600082825260208201905092915050565b600081905092915050565b60006135da826136ed565b91506135e5836136ed565b9250827fffffffffffffffffffffffffffffffffffffffffffffffffffffffffffffffff0382111561361a57613619613870565b5b828201905092915050565b6000613630826136ed565b915061363b836136ed565b92508282101561364e5761364d613870565b5b828203905092915050565b6000613664826136cd565b9050919050565b6000613676826136cd565b9050919050565b60008115159050919050565b6000819050919050565b60007fffffffff0000000000000000000000000000000000000000000000000000000082169050919050565b600061ffff82169050919050565b600073ffffffffffffffffffffffffffffffffffffffff82169050919050565b6000819050919050565b600061370282613709565b9050919050565b60006137148261371b565b9050919050565b6000613726826136cd565b9050919050565b82818337600083830152505050565b60005b8381101561375a57808201518184015260208101905061373f565b83811115613769576000848401525b50505050565b600061377a826136bf565b9150600082141561378e5761378d613870565b5b600182039050919050565b600060028204905060018216806137b157607f821691505b602082108114156137c5576137c461389f565b5b50919050565b6137d4826138fd565b810181811067ffffffffffffffff821117156137f3576137f26138ce565b5b80604052505050565b6000613807826136bf565b915061ffff82141561381c5761381b613870565b5b600182019050919050565b6000613832826136ed565b91507fffffffffffffffffffffffffffffffffffffffffffffffffffffffffffffffff82141561386557613864613870565b5b600182019050919050565b7f4e487b7100000000000000000000000000000000000000000000000000000000600052601160045260246000fd5b7f4e487b7100000000000000000000000000000000000000000000000000000000600052602260045260246000fd5b7f4e487b7100000000000000000000000000000000000000000000000000000000600052604160045260246000fd5b6000601f19601f8301169050919050565b7f4f776e61626c653a206e6577206f776e657220697320746865207a65726f206160008201527f6464726573730000000000000000000000000000000000000000000000000000602082015250565b7f4f776e61626c653a2063616c6c6572206973206e6f7420746865206f776e6572600082015250565b61398f81613659565b811461399a57600080fd5b50565b6139a681613689565b81146139b157600080fd5b50565b6139bd81613693565b81146139c857600080fd5b50565b6139d4816136bf565b81146139df57600080fd5b50565b6139eb816136ed565b81146139f657600080fd5b5056fea2646970667358221220d5dd7b51571ca7e37aa38324352a794cdd44dac3a42f64f7654769b58872676864736f6c63430008040033",
  "linkReferences": {},
  "deployedLinkReferences": {}
}