{
  "_format": "hh-sol-artifact-1",
  "contractName": "SHA256Digest",
  "sourceName": "contracts/dnssec-oracle/digests/SHA256Digest.sol",
  "abi": [
    {
      "inputs": [
        {
          "internalType": "bytes",
          "name": "data",
          "type": "bytes"
        },
        {
          "internalType": "bytes",
          "name": "hash",
          "type": "bytes"
        }
      ],
      "name": "verify",
      "outputs": [
        {
          "internalType": "bool",
          "name": "",
          "type": "bool"
        }
      ],
      "stateMutability": "pure",
      "type": "function"
    }
  ],
  "bytecode": "0x608060405234801561001057600080fd5b506103b3806100206000396000f3fe608060405234801561001057600080fd5b506004361061002b5760003560e01c8063f7e83aee14610030575b600080fd5b61004a600480360381019061004591906101ca565b610060565b604051610057919061028c565b60405180910390f35b60006100ba600084848080601f016020809104026020016040519081016040528093929190818152602001838380828437600081840152601f19601f8201169050808301925050505050505061011790919063ffffffff16565b600286866040516100cc929190610273565b602060405180830381855afa1580156100e9573d6000803e3d6000fd5b5050506040513d601f19601f8201168201806040525081019061010c91906101a1565b149050949350505050565b6000825160208361012891906102b2565b111561013357600080fd5b81602084010151905092915050565b60008151905061015181610366565b92915050565b60008083601f84011261016957600080fd5b8235905067ffffffffffffffff81111561018257600080fd5b60208301915083600182028301111561019a57600080fd5b9250929050565b6000602082840312156101b357600080fd5b60006101c184828501610142565b91505092915050565b600080600080604085870312156101e057600080fd5b600085013567ffffffffffffffff8111156101fa57600080fd5b61020687828801610157565b9450945050602085013567ffffffffffffffff81111561022557600080fd5b61023187828801610157565b925092505092959194509250565b61024881610308565b82525050565b600061025a83856102a7565b9350610267838584610328565b82840190509392505050565b600061028082848661024e565b91508190509392505050565b60006020820190506102a1600083018461023f565b92915050565b600081905092915050565b60006102bd8261031e565b91506102c88361031e565b9250827fffffffffffffffffffffffffffffffffffffffffffffffffffffffffffffffff038211156102fd576102fc610337565b5b828201905092915050565b60008115159050919050565b6000819050919050565b6000819050919050565b82818337600083830152505050565b7f4e487b7100000000000000000000000000000000000000000000000000000000600052601160045260246000fd5b61036f81610314565b811461037a57600080fd5b5056fea26469706673582212206f8fd5071e7af6b94d2d195db9f448a3636c02f49ecc148a2ef65b6a34adf7b764736f6c63430008040033",
  "linkReferences": {},
  "deployedLinkReferences": {}
}