{
  "_format": "hh-sol-artifact-1",
  "contractName": "SimplePublicSuffixList",
  "sourceName": "contracts/dnsregistrar/SimplePublicSuffixList.sol",
  "abi": [
    {
      "anonymous": false,
      "inputs": [
        {
          "indexed": true,
          "internalType": "address",
          "name": "previousOwner",
          "type": "address"
        },
        {
          "indexed": true,
          "internalType": "address",
          "name": "newOwner",
          "type": "address"
        }
      ],
      "name": "OwnershipTransferred",
      "type": "event"
    },
    {
      "inputs": [
        {
          "internalType": "bytes[]",
          "name": "names",
          "type": "bytes[]"
        }
      ],
      "name": "addPublicSuffixes",
      "outputs": [],
      "stateMutability": "nonpayable",
      "type": "function"
    },
    {
      "inputs": [
        {
          "internalType": "address",
          "name": "addr",
          "type": "address"
        }
      ],
      "name": "isOwner",
      "outputs": [
        {
          "internalType": "bool",
          "name": "",
          "type": "bool"
        }
      ],
      "stateMutability": "view",
      "type": "function"
    },
    {
      "inputs": [
        {
          "internalType": "bytes",
          "name": "name",
          "type": "bytes"
        }
      ],
      "name": "isPublicSuffix",
      "outputs": [
        {
          "internalType": "bool",
          "name": "",
          "type": "bool"
        }
      ],
      "stateMutability": "view",
      "type": "function"
    },
    {
      "inputs": [],
      "name": "owner",
      "outputs": [
        {
          "internalType": "address",
          "name": "",
          "type": "address"
        }
      ],
      "stateMutability": "view",
      "type": "function"
    },
    {
      "inputs": [
        {
          "internalType": "address",
          "name": "newOwner",
          "type": "address"
        }
      ],
      "name": "transferOwnership",
      "outputs": [],
      "stateMutability": "nonpayable",
      "type": "function"
    }
  ],
  "bytecode": "0x608060405234801561001057600080fd5b50336000806101000a81548173ffffffffffffffffffffffffffffffffffffffff021916908373ffffffffffffffffffffffffffffffffffffffff160217905550610898806100606000396000f3fe608060405234801561001057600080fd5b50600436106100575760003560e01c80632f54bf6e1461005c5780634f89059e1461008c5780636329cdfc146100bc5780638da5cb5b146100d8578063f2fde38b146100f6575b600080fd5b610076600480360381019061007191906104b7565b610112565b6040516100839190610625565b60405180910390f35b6100a660048036038101906100a19190610521565b61016a565b6040516100b39190610625565b60405180910390f35b6100d660048036038101906100d191906104e0565b6101a2565b005b6100e061024d565b6040516100ed919061060a565b60405180910390f35b610110600480360381019061010b91906104b7565b610271565b005b60008173ffffffffffffffffffffffffffffffffffffffff1660008054906101000a900473ffffffffffffffffffffffffffffffffffffffff1673ffffffffffffffffffffffffffffffffffffffff16149050919050565b60006001838360405161017e9291906105da565b908152602001604051809103902060009054906101000a900460ff16905092915050565b6101ab33610112565b6101b457600080fd5b60005b8151811015610249576001808383815181106101fc577f4e487b7100000000000000000000000000000000000000000000000000000000600052603260045260246000fd5b602002602001015160405161021191906105f3565b908152602001604051809103902060006101000a81548160ff021916908315150217905550808061024190610793565b9150506101b7565b5050565b60008054906101000a900473ffffffffffffffffffffffffffffffffffffffff1681565b61027a33610112565b61028357600080fd5b8073ffffffffffffffffffffffffffffffffffffffff1660008054906101000a900473ffffffffffffffffffffffffffffffffffffffff1673ffffffffffffffffffffffffffffffffffffffff167f8be0079c531659141344cd1fd0a4f28419497f9722a3daafe3b4186f6b6457e060405160405180910390a3806000806101000a81548173ffffffffffffffffffffffffffffffffffffffff021916908373ffffffffffffffffffffffffffffffffffffffff16021790555050565b600061035361034e84610665565b610640565b9050808382526020820190508285602086028201111561037257600080fd5b60005b858110156103bc57813567ffffffffffffffff81111561039457600080fd5b8086016103a1898261048d565b85526020850194506020840193505050600181019050610375565b5050509392505050565b60006103d96103d484610691565b610640565b9050828152602081018484840111156103f157600080fd5b6103fc848285610720565b509392505050565b6000813590506104138161084b565b92915050565b600082601f83011261042a57600080fd5b813561043a848260208601610340565b91505092915050565b60008083601f84011261045557600080fd5b8235905067ffffffffffffffff81111561046e57600080fd5b60208301915083600182028301111561048657600080fd5b9250929050565b600082601f83011261049e57600080fd5b81356104ae8482602086016103c6565b91505092915050565b6000602082840312156104c957600080fd5b60006104d784828501610404565b91505092915050565b6000602082840312156104f257600080fd5b600082013567ffffffffffffffff81111561050c57600080fd5b61051884828501610419565b91505092915050565b6000806020838503121561053457600080fd5b600083013567ffffffffffffffff81111561054e57600080fd5b61055a85828601610443565b92509250509250929050565b61056f816106d8565b82525050565b61057e816106ea565b82525050565b600061059083856106cd565b935061059d838584610720565b82840190509392505050565b60006105b4826106c2565b6105be81856106cd565b93506105ce81856020860161072f565b80840191505092915050565b60006105e7828486610584565b91508190509392505050565b60006105ff82846105a9565b915081905092915050565b600060208201905061061f6000830184610566565b92915050565b600060208201905061063a6000830184610575565b92915050565b600061064a61065b565b90506106568282610762565b919050565b6000604051905090565b600067ffffffffffffffff8211156106805761067f61080b565b5b602082029050602081019050919050565b600067ffffffffffffffff8211156106ac576106ab61080b565b5b6106b58261083a565b9050602081019050919050565b600081519050919050565b600081905092915050565b60006106e3826106f6565b9050919050565b60008115159050919050565b600073ffffffffffffffffffffffffffffffffffffffff82169050919050565b6000819050919050565b82818337600083830152505050565b60005b8381101561074d578082015181840152602081019050610732565b8381111561075c576000848401525b50505050565b61076b8261083a565b810181811067ffffffffffffffff8211171561078a5761078961080b565b5b80604052505050565b600061079e82610716565b91507fffffffffffffffffffffffffffffffffffffffffffffffffffffffffffffffff8214156107d1576107d06107dc565b5b600182019050919050565b7f4e487b7100000000000000000000000000000000000000000000000000000000600052601160045260246000fd5b7f4e487b7100000000000000000000000000000000000000000000000000000000600052604160045260246000fd5b6000601f19601f8301169050919050565b610854816106d8565b811461085f57600080fd5b5056fea264697066735822122009b54c2073a53ad6c56b1d0f4fcbcee7ea54047ff95115db40294e393a17cad464736f6c63430008040033",
  "linkReferences": {},
  "deployedLinkReferences": {}
}