{
  "_format": "hh-sol-artifact-1",
  "contractName": "EventNFT",
  "sourceName": "contracts/EventNFT.sol",
  "abi": [
    {
      "inputs": [
        {
          "internalType": "contract IPOAP",
          "name": "poap",
          "type": "address"
        }
      ],
      "stateMutability": "nonpayable",
      "type": "constructor"
    },
    {
      "anonymous": false,
      "inputs": [
        {
          "indexed": true,
          "internalType": "address",
          "name": "owner",
          "type": "address"
        },
        {
          "indexed": true,
          "internalType": "address",
          "name": "approved",
          "type": "address"
        },
        {
          "indexed": true,
          "internalType": "uint256",
          "name": "tokenId",
          "type": "uint256"
        }
      ],
      "name": "Approval",
      "type": "event"
    },
    {
      "anonymous": false,
      "inputs": [
        {
          "indexed": true,
          "internalType": "address",
          "name": "owner",
          "type": "address"
        },
        {
          "indexed": true,
          "internalType": "address",
          "name": "operator",
          "type": "address"
        },
        {
          "indexed": false,
          "internalType": "bool",
          "name": "approved",
          "type": "bool"
        }
      ],
      "name": "ApprovalForAll",
      "type": "event"
    },
    {
      "anonymous": false,
      "inputs": [
        {
          "indexed": true,
          "internalType": "uint256",
          "name": "eventID",
          "type": "uint256"
        },
        {
          "indexed": true,
          "internalType": "address",
          "name": "participant",
          "type": "address"
        },
        {
          "indexed": false,
          "internalType": "uint256",
          "name": "poapID",
          "type": "uint256"
        },
        {
          "indexed": false,
          "internalType": "uint256",
          "name": "numberOfParticipants",
          "type": "uint256"
        },
        {
          "indexed": false,
          "internalType": "uint256",
          "name": "numberOfAttendance",
          "type": "uint256"
        }
      ],
      "name": "Attended",
      "type": "event"
    },
    {
      "anonymous": false,
      "inputs": [
        {
          "indexed": false,
          "internalType": "uint256",
          "name": "eventID",
          "type": "uint256"
        },
        {
          "indexed": true,
          "internalType": "address",
          "name": "createdBy",
          "type": "address"
        },
        {
          "indexed": false,
          "internalType": "uint256",
          "name": "startedAt",
          "type": "uint256"
        },
        {
          "indexed": false,
          "internalType": "uint256",
          "name": "endedAt",
          "type": "uint256"
        },
        {
          "indexed": false,
          "internalType": "uint256",
          "name": "limitOfParticipants",
          "type": "uint256"
        },
        {
          "indexed": false,
          "internalType": "string",
          "name": "participantType",
          "type": "string"
        },
        {
          "indexed": false,
          "internalType": "address",
          "name": "targetTokenAddress",
          "type": "address"
        },
        {
          "indexed": false,
          "internalType": "uint256",
          "name": "targetTokenID",
          "type": "uint256"
        }
      ],
      "name": "EventCreated",
      "type": "event"
    },
    {
      "anonymous": false,
      "inputs": [
        {
          "indexed": true,
          "internalType": "address",
          "name": "previousOwner",
          "type": "address"
        },
        {
          "indexed": true,
          "internalType": "address",
          "name": "newOwner",
          "type": "address"
        }
      ],
      "name": "OwnershipTransferred",
      "type": "event"
    },
    {
      "anonymous": false,
      "inputs": [
        {
          "indexed": true,
          "internalType": "uint256",
          "name": "eventID",
          "type": "uint256"
        },
        {
          "indexed": true,
          "internalType": "address",
          "name": "participant",
          "type": "address"
        },
        {
          "indexed": false,
          "internalType": "uint256",
          "name": "numberOfParticipants",
          "type": "uint256"
        },
        {
          "indexed": false,
          "internalType": "uint256",
          "name": "numberOfAttendance",
          "type": "uint256"
        }
      ],
      "name": "Participated",
      "type": "event"
    },
    {
      "anonymous": false,
      "inputs": [
        {
          "indexed": true,
          "internalType": "address",
          "name": "from",
          "type": "address"
        },
        {
          "indexed": true,
          "internalType": "address",
          "name": "to",
          "type": "address"
        },
        {
          "indexed": true,
          "internalType": "uint256",
          "name": "tokenId",
          "type": "uint256"
        }
      ],
      "name": "Transfer",
      "type": "event"
    },
    {
      "inputs": [],
      "name": "ERROR_ATTENDED_ALREADY",
      "outputs": [
        {
          "internalType": "string",
          "name": "",
          "type": "string"
        }
      ],
      "stateMutability": "view",
      "type": "function"
    },
    {
      "inputs": [],
      "name": "ERROR_EVENT_ENDED_ALREADY",
      "outputs": [
        {
          "internalType": "string",
          "name": "",
          "type": "string"
        }
      ],
      "stateMutability": "view",
      "type": "function"
    },
    {
      "inputs": [],
      "name": "ERROR_EVENT_NOT_FOUND",
      "outputs": [
        {
          "internalType": "string",
          "name": "",
          "type": "string"
        }
      ],
      "stateMutability": "view",
      "type": "function"
    },
    {
      "inputs": [],
      "name": "ERROR_NOT_PARTICIPANTED",
      "outputs": [
        {
          "internalType": "string",
          "name": "",
          "type": "string"
        }
      ],
      "stateMutability": "view",
      "type": "function"
    },
    {
      "inputs": [],
      "name": "ERROR_PARTICIPATED_ALREADY",
      "outputs": [
        {
          "internalType": "string",
          "name": "",
          "type": "string"
        }
      ],
      "stateMutability": "view",
      "type": "function"
    },
    {
      "inputs": [],
      "name": "ERROR_PAST_ENDED_AT",
      "outputs": [
        {
          "internalType": "string",
          "name": "",
          "type": "string"
        }
      ],
      "stateMutability": "view",
      "type": "function"
    },
    {
      "inputs": [],
      "name": "ERROR_REACH_PARTICIPANTS_LIMIT",
      "outputs": [
        {
          "internalType": "string",
          "name": "",
          "type": "string"
        }
      ],
      "stateMutability": "view",
      "type": "function"
    },
    {
      "inputs": [],
      "name": "TOKEN_NAME",
      "outputs": [
        {
          "internalType": "string",
          "name": "",
          "type": "string"
        }
      ],
      "stateMutability": "view",
      "type": "function"
    },
    {
      "inputs": [],
      "name": "TOKEN_SYMBOL",
      "outputs": [
        {
          "internalType": "string",
          "name": "",
          "type": "string"
        }
      ],
      "stateMutability": "view",
      "type": "function"
    },
    {
      "inputs": [
        {
          "internalType": "uint256",
          "name": "",
          "type": "uint256"
        }
      ],
      "name": "_events",
      "outputs": [
        {
          "internalType": "uint256",
          "name": "startedAt",
          "type": "uint256"
        },
        {
          "internalType": "uint256",
          "name": "endedAt",
          "type": "uint256"
        },
        {
          "internalType": "uint256",
          "name": "limitOfParticipants",
          "type": "uint256"
        },
        {
          "internalType": "uint256",
          "name": "numberOfParticipants",
          "type": "uint256"
        },
        {
          "internalType": "uint256",
          "name": "numberOfAttendance",
          "type": "uint256"
        },
        {
          "internalType": "enum IEventNFT.ParticipantType",
          "name": "participantType",
          "type": "uint8"
        },
        {
          "internalType": "address",
          "name": "targetTokenAddress",
          "type": "address"
        },
        {
          "internalType": "uint256",
          "name": "targetTokenID",
          "type": "uint256"
        }
      ],
      "stateMutability": "view",
      "type": "function"
    },
    {
      "inputs": [
        {
          "internalType": "address",
          "name": "to",
          "type": "address"
        },
        {
          "internalType": "uint256",
          "name": "tokenId",
          "type": "uint256"
        }
      ],
      "name": "approve",
      "outputs": [],
      "stateMutability": "nonpayable",
      "type": "function"
    },
    {
      "inputs": [
        {
          "internalType": "uint256",
          "name": "eventID",
          "type": "uint256"
        },
        {
          "internalType": "address",
          "name": "account",
          "type": "address"
        }
      ],
      "name": "attendEvent",
      "outputs": [],
      "stateMutability": "nonpayable",
      "type": "function"
    },
    {
      "inputs": [
        {
          "internalType": "address",
          "name": "owner",
          "type": "address"
        }
      ],
      "name": "balanceOf",
      "outputs": [
        {
          "internalType": "uint256",
          "name": "",
          "type": "uint256"
        }
      ],
      "stateMutability": "view",
      "type": "function"
    },
    {
      "inputs": [
        {
          "internalType": "address",
          "name": "host",
          "type": "address"
        },
        {
          "internalType": "string",
          "name": "resourceURI",
          "type": "string"
        },
        {
          "internalType": "uint256",
          "name": "limitOfParticipants",
          "type": "uint256"
        },
        {
          "internalType": "uint256",
          "name": "startedAt",
          "type": "uint256"
        },
        {
          "internalType": "uint256",
          "name": "endedAt",
          "type": "uint256"
        },
        {
          "internalType": "enum IEventNFT.ParticipantType",
          "name": "participantType",
          "type": "uint8"
        },
        {
          "internalType": "address",
          "name": "targetTokenContract",
          "type": "address"
        },
        {
          "internalType": "uint256",
          "name": "targetTokenTypeID",
          "type": "uint256"
        }
      ],
      "name": "createEvent",
      "outputs": [
        {
          "internalType": "uint256",
          "name": "",
          "type": "uint256"
        }
      ],
      "stateMutability": "nonpayable",
      "type": "function"
    },
    {
      "inputs": [
        {
          "internalType": "uint256",
          "name": "tokenId",
          "type": "uint256"
        }
      ],
      "name": "getApproved",
      "outputs": [
        {
          "internalType": "address",
          "name": "",
          "type": "address"
        }
      ],
      "stateMutability": "view",
      "type": "function"
    },
    {
      "inputs": [
        {
          "internalType": "address",
          "name": "owner",
          "type": "address"
        },
        {
          "internalType": "address",
          "name": "operator",
          "type": "address"
        }
      ],
      "name": "isApprovedForAll",
      "outputs": [
        {
          "internalType": "bool",
          "name": "",
          "type": "bool"
        }
      ],
      "stateMutability": "view",
      "type": "function"
    },
    {
      "inputs": [],
      "name": "name",
      "outputs": [
        {
          "internalType": "string",
          "name": "",
          "type": "string"
        }
      ],
      "stateMutability": "view",
      "type": "function"
    },
    {
      "inputs": [],
      "name": "owner",
      "outputs": [
        {
          "internalType": "address",
          "name": "",
          "type": "address"
        }
      ],
      "stateMutability": "view",
      "type": "function"
    },
    {
      "inputs": [
        {
          "internalType": "uint256",
          "name": "tokenId",
          "type": "uint256"
        }
      ],
      "name": "ownerOf",
      "outputs": [
        {
          "internalType": "address",
          "name": "",
          "type": "address"
        }
      ],
      "stateMutability": "view",
      "type": "function"
    },
    {
      "inputs": [
        {
          "internalType": "enum IEventNFT.ParticipantType",
          "name": "e",
          "type": "uint8"
        }
      ],
      "name": "participantTypeToString",
      "outputs": [
        {
          "internalType": "string",
          "name": "",
          "type": "string"
        }
      ],
      "stateMutability": "view",
      "type": "function"
    },
    {
      "inputs": [
        {
          "internalType": "uint256",
          "name": "eventID",
          "type": "uint256"
        },
        {
          "internalType": "address",
          "name": "account",
          "type": "address"
        }
      ],
      "name": "participateEvent",
      "outputs": [],
      "stateMutability": "nonpayable",
      "type": "function"
    },
    {
      "inputs": [],
      "name": "poap",
      "outputs": [
        {
          "internalType": "contract IPOAP",
          "name": "",
          "type": "address"
        }
      ],
      "stateMutability": "view",
      "type": "function"
    },
    {
      "inputs": [],
      "name": "renounceOwnership",
      "outputs": [],
      "stateMutability": "nonpayable",
      "type": "function"
    },
    {
      "inputs": [
        {
          "internalType": "address",
          "name": "from",
          "type": "address"
        },
        {
          "internalType": "address",
          "name": "to",
          "type": "address"
        },
        {
          "internalType": "uint256",
          "name": "tokenId",
          "type": "uint256"
        }
      ],
      "name": "safeTransferFrom",
      "outputs": [],
      "stateMutability": "nonpayable",
      "type": "function"
    },
    {
      "inputs": [
        {
          "internalType": "address",
          "name": "from",
          "type": "address"
        },
        {
          "internalType": "address",
          "name": "to",
          "type": "address"
        },
        {
          "internalType": "uint256",
          "name": "tokenId",
          "type": "uint256"
        },
        {
          "internalType": "bytes",
          "name": "data",
          "type": "bytes"
        }
      ],
      "name": "safeTransferFrom",
      "outputs": [],
      "stateMutability": "nonpayable",
      "type": "function"
    },
    {
      "inputs": [
        {
          "internalType": "address",
          "name": "operator",
          "type": "address"
        },
        {
          "internalType": "bool",
          "name": "approved",
          "type": "bool"
        }
      ],
      "name": "setApprovalForAll",
      "outputs": [],
      "stateMutability": "nonpayable",
      "type": "function"
    },
    {
      "inputs": [
        {
          "internalType": "bytes4",
          "name": "interfaceId",
          "type": "bytes4"
        }
      ],
      "name": "supportsInterface",
      "outputs": [
        {
          "internalType": "bool",
          "name": "",
          "type": "bool"
        }
      ],
      "stateMutability": "view",
      "type": "function"
    },
    {
      "inputs": [],
      "name": "symbol",
      "outputs": [
        {
          "internalType": "string",
          "name": "",
          "type": "string"
        }
      ],
      "stateMutability": "view",
      "type": "function"
    },
    {
      "inputs": [
        {
          "internalType": "uint256",
          "name": "tokenID",
          "type": "uint256"
        }
      ],
      "name": "tokenURI",
      "outputs": [
        {
          "internalType": "string",
          "name": "",
          "type": "string"
        }
      ],
      "stateMutability": "view",
      "type": "function"
    },
    {
      "inputs": [
        {
          "internalType": "address",
          "name": "from",
          "type": "address"
        },
        {
          "internalType": "address",
          "name": "to",
          "type": "address"
        },
        {
          "internalType": "uint256",
          "name": "tokenId",
          "type": "uint256"
        }
      ],
      "name": "transferFrom",
      "outputs": [],
      "stateMutability": "nonpayable",
      "type": "function"
    },
    {
      "inputs": [
        {
          "internalType": "address",
          "name": "newOwner",
          "type": "address"
        }
      ],
      "name": "transferOwnership",
      "outputs": [],
      "stateMutability": "nonpayable",
      "type": "function"
    }
  ],
  "bytecode": "0x60806040523480156200001157600080fd5b506040516200530b3803806200530b83398181016040528101906200003791906200027d565b6040518060400160405280600b81526020017f4375706361704576656e740000000000000000000000000000000000000000008152506040518060400160405280600381526020017f43504500000000000000000000000000000000000000000000000000000000008152508160009081620000b4919062000529565b508060019081620000c6919062000529565b505050620000e9620000dd6200013160201b60201c565b6200013960201b60201c565b80600860006101000a81548173ffffffffffffffffffffffffffffffffffffffff021916908373ffffffffffffffffffffffffffffffffffffffff1602179055505062000610565b600033905090565b6000600760009054906101000a900473ffffffffffffffffffffffffffffffffffffffff16905081600760006101000a81548173ffffffffffffffffffffffffffffffffffffffff021916908373ffffffffffffffffffffffffffffffffffffffff1602179055508173ffffffffffffffffffffffffffffffffffffffff168173ffffffffffffffffffffffffffffffffffffffff167f8be0079c531659141344cd1fd0a4f28419497f9722a3daafe3b4186f6b6457e060405160405180910390a35050565b600080fd5b600073ffffffffffffffffffffffffffffffffffffffff82169050919050565b6000620002318262000204565b9050919050565b6000620002458262000224565b9050919050565b620002578162000238565b81146200026357600080fd5b50565b60008151905062000277816200024c565b92915050565b600060208284031215620002965762000295620001ff565b5b6000620002a68482850162000266565b91505092915050565b600081519050919050565b7f4e487b7100000000000000000000000000000000000000000000000000000000600052604160045260246000fd5b7f4e487b7100000000000000000000000000000000000000000000000000000000600052602260045260246000fd5b600060028204905060018216806200033157607f821691505b602082108103620003475762000346620002e9565b5b50919050565b60008190508160005260206000209050919050565b60006020601f8301049050919050565b600082821b905092915050565b600060088302620003b17fffffffffffffffffffffffffffffffffffffffffffffffffffffffffffffffff8262000372565b620003bd868362000372565b95508019841693508086168417925050509392505050565b6000819050919050565b6000819050919050565b60006200040a62000404620003fe84620003d5565b620003df565b620003d5565b9050919050565b6000819050919050565b6200042683620003e9565b6200043e620004358262000411565b8484546200037f565b825550505050565b600090565b6200045562000446565b620004628184846200041b565b505050565b5b818110156200048a576200047e6000826200044b565b60018101905062000468565b5050565b601f821115620004d957620004a3816200034d565b620004ae8462000362565b81016020851015620004be578190505b620004d6620004cd8562000362565b83018262000467565b50505b505050565b600082821c905092915050565b6000620004fe60001984600802620004de565b1980831691505092915050565b6000620005198383620004eb565b9150826002028217905092915050565b6200053482620002af565b67ffffffffffffffff81111562000550576200054f620002ba565b5b6200055c825462000318565b620005698282856200048e565b600060209050601f831160018114620005a157600084156200058c578287015190505b6200059885826200050b565b86555062000608565b601f198416620005b1866200034d565b60005b82811015620005db57848901518255600182019150602085019450602081019050620005b4565b86831015620005fb5784890151620005f7601f891682620004eb565b8355505b6001600288020188555050505b505050505050565b614ceb80620006206000396000f3fe608060405234801561001057600080fd5b50600436106101e55760003560e01c80636352211e1161010f578063b4cb85cc116100a2578063ce3820d911610071578063ce3820d914610572578063e985e9c51461058e578063f040d0f2146105be578063f2fde38b146105f5576101e5565b8063b4cb85cc146104d8578063b7c4fd7314610508578063b88d4fde14610526578063c87b56dd14610542576101e5565b80638bb1c0a2116100de5780638bb1c0a2146104625780638da5cb5b1461048057806395d89b411461049e578063a22cb465146104bc576101e5565b80636352211e146103dc57806370a082311461040c578063715018a61461043c57806376f25d9014610446576101e5565b80631cd7c1bf116101875780632a905318116101565780632a9053181461036657806342842e0e14610384578063484a0104146103a057806354f82cf6146103be576101e5565b80631cd7c1bf146102de5780631d407212146102fc57806320417a071461031a57806323b872dd1461034a576101e5565b8063095ea7b3116101c3578063095ea7b3146102685780630b38d5bd1461028457806317e7a861146102a257806318821400146102c0576101e5565b806301ffc9a7146101ea57806306fdde031461021a578063081812fc14610238575b600080fd5b61020460048036038101906101ff9190613250565b610611565b6040516102119190613298565b60405180910390f35b6102226106f3565b60405161022f9190613343565b60405180910390f35b610252600480360381019061024d919061339b565b610785565b60405161025f9190613409565b60405180910390f35b610282600480360381019061027d9190613450565b6107cb565b005b61028c6108e2565b6040516102999190613343565b60405180910390f35b6102aa61091b565b6040516102b79190613343565b60405180910390f35b6102c8610954565b6040516102d59190613343565b60405180910390f35b6102e661098d565b6040516102f39190613343565b60405180910390f35b6103046109a9565b6040516103119190613343565b60405180910390f35b610334600480360381019061032f91906134b5565b6109c5565b6040516103419190613343565b60405180910390f35b610364600480360381019061035f91906134e2565b610b70565b005b61036e610bd0565b60405161037b9190613343565b60405180910390f35b61039e600480360381019061039991906134e2565b610c09565b005b6103a8610c29565b6040516103b59190613594565b60405180910390f35b6103c6610c53565b6040516103d39190613343565b60405180910390f35b6103f660048036038101906103f1919061339b565b610c8c565b6040516104039190613409565b60405180910390f35b610426600480360381019061042191906135af565b610d3d565b60405161043391906135eb565b60405180910390f35b610444610df4565b005b610460600480360381019061045b9190613606565b610e08565b005b61046a610eb3565b6040516104779190613343565b60405180910390f35b610488610ecf565b6040516104959190613409565b60405180910390f35b6104a6610ef9565b6040516104b39190613343565b60405180910390f35b6104d660048036038101906104d19190613672565b610f8b565b005b6104f260048036038101906104ed91906137e7565b610fa1565b6040516104ff91906135eb565b60405180910390f35b610510610fc9565b60405161051d9190613343565b60405180910390f35b610540600480360381019061053b919061395a565b610fe5565b005b61055c6004803603810190610557919061339b565b611047565b6040516105699190613343565b60405180910390f35b61058c60048036038101906105879190613606565b611059565b005b6105a860048036038101906105a391906139dd565b611104565b6040516105b59190613298565b60405180910390f35b6105d860048036038101906105d3919061339b565b611198565b6040516105ec989796959493929190613a94565b60405180910390f35b61060f600480360381019061060a91906135af565b61120d565b005b60007f80ac58cd000000000000000000000000000000000000000000000000000000007bffffffffffffffffffffffffffffffffffffffffffffffffffffffff1916827bffffffffffffffffffffffffffffffffffffffffffffffffffffffff191614806106dc57507f5b5e139f000000000000000000000000000000000000000000000000000000007bffffffffffffffffffffffffffffffffffffffffffffffffffffffff1916827bffffffffffffffffffffffffffffffffffffffffffffffffffffffff1916145b806106ec57506106eb82611290565b5b9050919050565b60606000805461070290613b41565b80601f016020809104026020016040519081016040528092919081815260200182805461072e90613b41565b801561077b5780601f106107505761010080835404028352916020019161077b565b820191906000526020600020905b81548152906001019060200180831161075e57829003601f168201915b5050505050905090565b6000610790826112fa565b6004600083815260200190815260200160002060009054906101000a900473ffffffffffffffffffffffffffffffffffffffff169050919050565b60006107d682610c8c565b90508073ffffffffffffffffffffffffffffffffffffffff168373ffffffffffffffffffffffffffffffffffffffff1603610846576040517f08c379a000000000000000000000000000000000000000000000000000000000815260040161083d90613be4565b60405180910390fd5b8073ffffffffffffffffffffffffffffffffffffffff16610865611345565b73ffffffffffffffffffffffffffffffffffffffff16148061089457506108938161088e611345565b611104565b5b6108d3576040517f08c379a00000000000000000000000000000000000000000000000000000000081526004016108ca90613c76565b60405180910390fd5b6108dd838361134d565b505050565b6040518060400160405280601781526020017f6576656e742068617320656e64656420616c726561647900000000000000000081525081565b6040518060400160405280600f81526020017f6576656e74206e6f7420666f756e64000000000000000000000000000000000081525081565b6040518060400160405280600b81526020017f4375706361704576656e7400000000000000000000000000000000000000000081525081565b604051806060016040528060238152602001614c456023913981565b604051806060016040528060278152602001614c686027913981565b6060600060038111156109db576109da613a1d565b5b8260038111156109ee576109ed613a1d565b5b03610a30576040518060400160405280600381526020017f616e7900000000000000000000000000000000000000000000000000000000008152509050610b6b565b60016003811115610a4457610a43613a1d565b5b826003811115610a5757610a56613a1d565b5b03610a99576040518060400160405280600581526020017f65726332300000000000000000000000000000000000000000000000000000008152509050610b6b565b60026003811115610aad57610aac613a1d565b5b826003811115610ac057610abf613a1d565b5b03610b02576040518060400160405280600681526020017f65726337323100000000000000000000000000000000000000000000000000008152509050610b6b565b600380811115610b1557610b14613a1d565b5b826003811115610b2857610b27613a1d565b5b03610b6a576040518060400160405280600781526020017f65726331313535000000000000000000000000000000000000000000000000008152509050610b6b565b5b919050565b610b81610b7b611345565b82611406565b610bc0576040517f08c379a0000000000000000000000000000000000000000000000000000000008152600401610bb790613d08565b60405180910390fd5b610bcb83838361149b565b505050565b6040518060400160405280600381526020017f435045000000000000000000000000000000000000000000000000000000000081525081565b610c2483838360405180602001604052806000815250610fe5565b505050565b6000600860009054906101000a900473ffffffffffffffffffffffffffffffffffffffff16905090565b6040518060400160405280601c81526020017f6163636f756e742068617320617474656e64656420616c72656164790000000081525081565b6000806002600084815260200190815260200160002060009054906101000a900473ffffffffffffffffffffffffffffffffffffffff169050600073ffffffffffffffffffffffffffffffffffffffff168173ffffffffffffffffffffffffffffffffffffffff1603610d34576040517f08c379a0000000000000000000000000000000000000000000000000000000008152600401610d2b90613d74565b60405180910390fd5b80915050919050565b60008073ffffffffffffffffffffffffffffffffffffffff168273ffffffffffffffffffffffffffffffffffffffff1603610dad576040517f08c379a0000000000000000000000000000000000000000000000000000000008152600401610da490613e06565b60405180910390fd5b600360008373ffffffffffffffffffffffffffffffffffffffff1673ffffffffffffffffffffffffffffffffffffffff168152602001908152602001600020549050919050565b610dfc611701565b610e06600061177f565b565b610e10611701565b816000600960008381526020019081526020016000206000015414156040518060400160405280600f81526020017f6576656e74206e6f7420666f756e64000000000000000000000000000000000081525090610ea3576040517f08c379a0000000000000000000000000000000000000000000000000000000008152600401610e9a9190613343565b60405180910390fd5b50610eae8383611845565b505050565b604051806060016040528060278152602001614c8f6027913981565b6000600760009054906101000a900473ffffffffffffffffffffffffffffffffffffffff16905090565b606060018054610f0890613b41565b80601f0160208091040260200160405190810160405280929190818152602001828054610f3490613b41565b8015610f815780601f10610f5657610100808354040283529160200191610f81565b820191906000526020600020905b815481529060010190602001808311610f6457829003601f168201915b5050505050905090565b610f9d610f96611345565b8383611ab4565b5050565b6000610fab611701565b610fbb8989898989898989611c20565b905098975050505050505050565b604051806060016040528060298152602001614c1c6029913981565b610ff6610ff0611345565b83611406565b611035576040517f08c379a000000000000000000000000000000000000000000000000000000000815260040161102c90613d08565b60405180910390fd5b61104184848484612200565b50505050565b60606110528261225c565b9050919050565b611061611701565b816000600960008381526020019081526020016000206000015414156040518060400160405280600f81526020017f6576656e74206e6f7420666f756e640000000000000000000000000000000000815250906110f4576040517f08c379a00000000000000000000000000000000000000000000000000000000081526004016110eb9190613343565b60405180910390fd5b506110ff838361236e565b505050565b6000600560008473ffffffffffffffffffffffffffffffffffffffff1673ffffffffffffffffffffffffffffffffffffffff16815260200190815260200160002060008373ffffffffffffffffffffffffffffffffffffffff1673ffffffffffffffffffffffffffffffffffffffff16815260200190815260200160002060009054906101000a900460ff16905092915050565b60096020528060005260406000206000915090508060000154908060010154908060020154908060030154908060040154908060050160009054906101000a900460ff16908060050160019054906101000a900473ffffffffffffffffffffffffffffffffffffffff16908060060154905088565b611215611701565b600073ffffffffffffffffffffffffffffffffffffffff168173ffffffffffffffffffffffffffffffffffffffff1603611284576040517f08c379a000000000000000000000000000000000000000000000000000000000815260040161127b90613e98565b60405180910390fd5b61128d8161177f565b50565b60007f01ffc9a7000000000000000000000000000000000000000000000000000000007bffffffffffffffffffffffffffffffffffffffffffffffffffffffff1916827bffffffffffffffffffffffffffffffffffffffffffffffffffffffff1916149050919050565b61130381612a3d565b611342576040517f08c379a000000000000000000000000000000000000000000000000000000000815260040161133990613d74565b60405180910390fd5b50565b600033905090565b816004600083815260200190815260200160002060006101000a81548173ffffffffffffffffffffffffffffffffffffffff021916908373ffffffffffffffffffffffffffffffffffffffff160217905550808273ffffffffffffffffffffffffffffffffffffffff166113c083610c8c565b73ffffffffffffffffffffffffffffffffffffffff167f8c5be1e5ebec7d5bd14f71427d1e84f3dd0314c0f7b2291e5b200ac8c7c3b92560405160405180910390a45050565b60008061141283610c8c565b90508073ffffffffffffffffffffffffffffffffffffffff168473ffffffffffffffffffffffffffffffffffffffff16148061145457506114538185611104565b5b8061149257508373ffffffffffffffffffffffffffffffffffffffff1661147a84610785565b73ffffffffffffffffffffffffffffffffffffffff16145b91505092915050565b8273ffffffffffffffffffffffffffffffffffffffff166114bb82610c8c565b73ffffffffffffffffffffffffffffffffffffffff1614611511576040517f08c379a000000000000000000000000000000000000000000000000000000000815260040161150890613f2a565b60405180910390fd5b600073ffffffffffffffffffffffffffffffffffffffff168273ffffffffffffffffffffffffffffffffffffffff1603611580576040517f08c379a000000000000000000000000000000000000000000000000000000000815260040161157790613fbc565b60405180910390fd5b61158b838383612aa9565b61159660008261134d565b6001600360008573ffffffffffffffffffffffffffffffffffffffff1673ffffffffffffffffffffffffffffffffffffffff16815260200190815260200160002060008282546115e6919061400b565b925050819055506001600360008473ffffffffffffffffffffffffffffffffffffffff1673ffffffffffffffffffffffffffffffffffffffff168152602001908152602001600020600082825461163d919061403f565b92505081905550816002600083815260200190815260200160002060006101000a81548173ffffffffffffffffffffffffffffffffffffffff021916908373ffffffffffffffffffffffffffffffffffffffff160217905550808273ffffffffffffffffffffffffffffffffffffffff168473ffffffffffffffffffffffffffffffffffffffff167fddf252ad1be2c89b69c2b068fc378daa952ba7f163c4a11628f55a4df523b3ef60405160405180910390a46116fc838383612aae565b505050565b611709611345565b73ffffffffffffffffffffffffffffffffffffffff16611727610ecf565b73ffffffffffffffffffffffffffffffffffffffff161461177d576040517f08c379a0000000000000000000000000000000000000000000000000000000008152600401611774906140bf565b60405180910390fd5b565b6000600760009054906101000a900473ffffffffffffffffffffffffffffffffffffffff16905081600760006101000a81548173ffffffffffffffffffffffffffffffffffffffff021916908373ffffffffffffffffffffffffffffffffffffffff1602179055508173ffffffffffffffffffffffffffffffffffffffff168173ffffffffffffffffffffffffffffffffffffffff167f8be0079c531659141344cd1fd0a4f28419497f9722a3daafe3b4186f6b6457e060405160405180910390a35050565b6000600a600084815260200190815260200160002060008373ffffffffffffffffffffffffffffffffffffffff1673ffffffffffffffffffffffffffffffffffffffff16815260200190815260200160002060009054906101000a900460ff169050600060038111156118bb576118ba613a1d565b5b8160038111156118ce576118cd613a1d565b5b14806118fd57506003808111156118e8576118e7613a1d565b5b8160038111156118fb576118fa613a1d565b5b145b1561195757604051806060016040528060298152602001614c1c602991396040517f08c379a000000000000000000000000000000000000000000000000000000000815260040161194e9190613343565b60405180910390fd5b6002600381111561196b5761196a613a1d565b5b81600381111561197e5761197d613a1d565b5b036119f5576040518060400160405280601c81526020017f6163636f756e742068617320617474656e64656420616c7265616479000000008152506040517f08c379a00000000000000000000000000000000000000000000000000000000081526004016119ec9190613343565b60405180910390fd5b60006009600085815260200190815260200160002090506001816003016000828254611a21919061400b565b925050819055506001816004016000828254611a3d919061403f565b925050819055506000611a508585612ab3565b90508373ffffffffffffffffffffffffffffffffffffffff16857f1a4082f5bc0f88acf08250717d3c057de144f9e238407ee7c7cdfb7b7c5ceb528385600301548660040154604051611aa5939291906140df565b60405180910390a35050505050565b8173ffffffffffffffffffffffffffffffffffffffff168373ffffffffffffffffffffffffffffffffffffffff1603611b22576040517f08c379a0000000000000000000000000000000000000000000000000000000008152600401611b1990614162565b60405180910390fd5b80600560008573ffffffffffffffffffffffffffffffffffffffff1673ffffffffffffffffffffffffffffffffffffffff16815260200190815260200160002060008473ffffffffffffffffffffffffffffffffffffffff1673ffffffffffffffffffffffffffffffffffffffff16815260200190815260200160002060006101000a81548160ff0219169083151502179055508173ffffffffffffffffffffffffffffffffffffffff168373ffffffffffffffffffffffffffffffffffffffff167f17307eab39ab6107e8899845ad3d59bd9653f200f220920489ca2b5937696c3183604051611c139190613298565b60405180910390a3505050565b6000808603611c2d574295505b6000851480611c3b57508486105b604051806060016040528060278152602001614c686027913990611c95576040517f08c379a0000000000000000000000000000000000000000000000000000000008152600401611c8c9190613343565b60405180910390fd5b5060006003811115611caa57611ca9613a1d565b5b846003811115611cbd57611cbc613a1d565b5b03611d7957600073ffffffffffffffffffffffffffffffffffffffff168373ffffffffffffffffffffffffffffffffffffffff1614611d31576040517f08c379a0000000000000000000000000000000000000000000000000000000008152600401611d28906141ce565b60405180910390fd5b60008214611d74576040517f08c379a0000000000000000000000000000000000000000000000000000000008152600401611d6b9061423a565b60405180910390fd5b612041565b600073ffffffffffffffffffffffffffffffffffffffff168373ffffffffffffffffffffffffffffffffffffffff1603611de8576040517f08c379a0000000000000000000000000000000000000000000000000000000008152600401611ddf906142a6565b60405180910390fd5b60016003811115611dfc57611dfb613a1d565b5b846003811115611e0f57611e0e613a1d565b5b1480611e3f575060026003811115611e2a57611e29613a1d565b5b846003811115611e3d57611e3c613a1d565b5b145b15611f4f5760008214611e87576040517f08c379a0000000000000000000000000000000000000000000000000000000008152600401611e7e9061423a565b60405180910390fd5b600083905060008173ffffffffffffffffffffffffffffffffffffffff166370a08231306040518263ffffffff1660e01b8152600401611ec79190613409565b602060405180830381865afa158015611ee4573d6000803e3d6000fd5b505050506040513d601f19601f82011682018060405250810190611f0891906142db565b1015611f49576040517f08c379a0000000000000000000000000000000000000000000000000000000008152600401611f409061437a565b60405180910390fd5b50612040565b600380811115611f6257611f61613a1d565b5b846003811115611f7557611f74613a1d565b5b0361203f57600083905060008173ffffffffffffffffffffffffffffffffffffffff1662fdd58e30866040518363ffffffff1660e01b8152600401611fbb92919061439a565b602060405180830381865afa158015611fd8573d6000803e3d6000fd5b505050506040513d601f19601f82011682018060405250810190611ffc91906142db565b101561203d576040517f08c379a000000000000000000000000000000000000000000000000000000000815260040161203490614435565b60405180910390fd5b505b5b5b600061204b612b5d565b90506120578a82612b78565b612061818a612b96565b60405180610100016040528088815260200187815260200189815260200160008152602001600081526020018660038111156120a05761209f613a1d565b5b81526020018573ffffffffffffffffffffffffffffffffffffffff1681526020018481525060096000838152602001908152602001600020600082015181600001556020820151816001015560408201518160020155606082015181600301556080820151816004015560a08201518160050160006101000a81548160ff0219169083600381111561213557612134613a1d565b5b021790555060c08201518160050160016101000a81548173ffffffffffffffffffffffffffffffffffffffff021916908373ffffffffffffffffffffffffffffffffffffffff16021790555060e082015181600601559050508973ffffffffffffffffffffffffffffffffffffffff167f8e7c690b695fc5877a75b3e526441cd104aedd6145f00665dbd2160c5662b2978289898c6121d38b6109c5565b8a8a6040516121e89796959493929190614455565b60405180910390a28091505098975050505050505050565b61220b84848461149b565b61221784848484612c03565b612256576040517f08c379a000000000000000000000000000000000000000000000000000000000815260040161224d9061453d565b60405180910390fd5b50505050565b6060612267826112fa565b600060066000848152602001908152602001600020805461228790613b41565b80601f01602080910402602001604051908101604052809291908181526020018280546122b390613b41565b80156123005780601f106122d557610100808354040283529160200191612300565b820191906000526020600020905b8154815290600101906020018083116122e357829003601f168201915b505050505090506000612311612d8a565b90506000815103612326578192505050612369565b60008251111561235b578082604051602001612343929190614599565b60405160208183030381529060405292505050612369565b61236484612da1565b925050505b919050565b60006009600084815260200190815260200160002090506000600a600085815260200190815260200160002060008473ffffffffffffffffffffffffffffffffffffffff1673ffffffffffffffffffffffffffffffffffffffff16815260200190815260200160002060009054906101000a900460ff169050600160038111156123fb576123fa613a1d565b5b81600381111561240e5761240d613a1d565b5b1415801561244157506002600381111561242b5761242a613a1d565b5b81600381111561243e5761243d613a1d565b5b14155b604051806060016040528060238152602001614c45602391399061249b576040517f08c379a00000000000000000000000000000000000000000000000000000000081526004016124929190613343565b60405180910390fd5b50600160038111156124b0576124af613a1d565b5b8260050160009054906101000a900460ff1660038111156124d4576124d3613a1d565b5b14806125155750600260038111156124ef576124ee613a1d565b5b8260050160009054906101000a900460ff16600381111561251357612512613a1d565b5b145b156126055760008260050160019054906101000a900473ffffffffffffffffffffffffffffffffffffffff16905060008173ffffffffffffffffffffffffffffffffffffffff166370a08231866040518263ffffffff1660e01b815260040161257e9190613409565b602060405180830381865afa15801561259b573d6000803e3d6000fd5b505050506040513d601f19601f820116820180604052508101906125bf91906142db565b116125ff576040517f08c379a00000000000000000000000000000000000000000000000000000000081526004016125f690614609565b60405180910390fd5b5061272e565b60038081111561261857612617613a1d565b5b8260050160009054906101000a900460ff16600381111561263c5761263b613a1d565b5b0361272d5760008260050160019054906101000a900473ffffffffffffffffffffffffffffffffffffffff16905060008173ffffffffffffffffffffffffffffffffffffffff1662fdd58e8686600601546040518363ffffffff1660e01b81526004016126aa92919061439a565b602060405180830381865afa1580156126c7573d6000803e3d6000fd5b505050506040513d601f19601f820116820180604052508101906126eb91906142db565b1161272b576040517f08c379a000000000000000000000000000000000000000000000000000000000815260040161272290614609565b60405180910390fd5b505b5b600082600101541480612745575081600101544211155b6040518060400160405280601781526020017f6576656e742068617320656e64656420616c7265616479000000000000000000815250906127bc576040517f08c379a00000000000000000000000000000000000000000000000000000000081526004016127b39190613343565b60405180910390fd5b5060006001836004015484600301546127d5919061403f565b6127df919061403f565b90508260020154811115604051806060016040528060278152602001614c8f6027913990612843576040517f08c379a000000000000000000000000000000000000000000000000000000000815260040161283a9190613343565b60405180910390fd5b50600060018460030154612857919061403f565b90506000846004015490506000600a600089815260200190815260200160002060008873ffffffffffffffffffffffffffffffffffffffff1673ffffffffffffffffffffffffffffffffffffffff16815260200190815260200160002060009054906101000a900460ff169050600190508673ffffffffffffffffffffffffffffffffffffffff16887f20fe128b25ee6824800a2ffce0bbace6ba602f124f276eeaaacd7a3967ab223f8585604051612911929190614629565b60405180910390a3856000015442106129a957600183612931919061400b565b9250600182612940919061403f565b91506002905060006129528989612ab3565b90508773ffffffffffffffffffffffffffffffffffffffff16897f1a4082f5bc0f88acf08250717d3c057de144f9e238407ee7c7cdfb7b7c5ceb5283878760405161299f939291906140df565b60405180910390a3505b82866003018190555081866004018190555080600a60008a815260200190815260200160002060008973ffffffffffffffffffffffffffffffffffffffff1673ffffffffffffffffffffffffffffffffffffffff16815260200190815260200160002060006101000a81548160ff02191690836003811115612a2e57612a2d613a1d565b5b02179055505050505050505050565b60008073ffffffffffffffffffffffffffffffffffffffff166002600084815260200190815260200160002060009054906101000a900473ffffffffffffffffffffffffffffffffffffffff1673ffffffffffffffffffffffffffffffffffffffff1614159050919050565b505050565b505050565b6000600860009054906101000a900473ffffffffffffffffffffffffffffffffffffffff1673ffffffffffffffffffffffffffffffffffffffff166340c10f1983856040518363ffffffff1660e01b8152600401612b1292919061439a565b6020604051808303816000875af1158015612b31573d6000803e3d6000fd5b505050506040513d601f19601f82011682018060405250810190612b5591906142db565b905092915050565b6000612b69600b612e09565b612b73600b612e1f565b905090565b612b92828260405180602001604052806000815250612e2d565b5050565b612b9f82612a3d565b612bde576040517f08c379a0000000000000000000000000000000000000000000000000000000008152600401612bd5906146c4565b60405180910390fd5b80600660008481526020019081526020016000209081612bfe9190614886565b505050565b6000612c248473ffffffffffffffffffffffffffffffffffffffff16612e88565b15612d7d578373ffffffffffffffffffffffffffffffffffffffff1663150b7a02612c4d611345565b8786866040518563ffffffff1660e01b8152600401612c6f94939291906149ad565b6020604051808303816000875af1925050508015612cab57506040513d601f19601f82011682018060405250810190612ca89190614a0e565b60015b612d2d573d8060008114612cdb576040519150601f19603f3d011682016040523d82523d6000602084013e612ce0565b606091505b506000815103612d25576040517f08c379a0000000000000000000000000000000000000000000000000000000008152600401612d1c9061453d565b60405180910390fd5b805181602001fd5b63150b7a0260e01b7bffffffffffffffffffffffffffffffffffffffffffffffffffffffff1916817bffffffffffffffffffffffffffffffffffffffffffffffffffffffff191614915050612d82565b600190505b949350505050565b606060405180602001604052806000815250905090565b6060612dac826112fa565b6000612db6612d8a565b90506000815111612dd65760405180602001604052806000815250612e01565b80612de084612eab565b604051602001612df1929190614599565b6040516020818303038152906040525b915050919050565b6001816000016000828254019250508190555050565b600081600001549050919050565b612e37838361300b565b612e446000848484612c03565b612e83576040517f08c379a0000000000000000000000000000000000000000000000000000000008152600401612e7a9061453d565b60405180910390fd5b505050565b6000808273ffffffffffffffffffffffffffffffffffffffff163b119050919050565b606060008203612ef2576040518060400160405280600181526020017f30000000000000000000000000000000000000000000000000000000000000008152509050613006565b600082905060005b60008214612f24578080612f0d90614a3b565b915050600a82612f1d9190614ab2565b9150612efa565b60008167ffffffffffffffff811115612f4057612f3f6136bc565b5b6040519080825280601f01601f191660200182016040528015612f725781602001600182028036833780820191505090505b5090505b60008514612fff57600182612f8b919061400b565b9150600a85612f9a9190614ae3565b6030612fa6919061403f565b60f81b818381518110612fbc57612fbb614b14565b5b60200101907effffffffffffffffffffffffffffffffffffffffffffffffffffffffffffff1916908160001a905350600a85612ff89190614ab2565b9450612f76565b8093505050505b919050565b600073ffffffffffffffffffffffffffffffffffffffff168273ffffffffffffffffffffffffffffffffffffffff160361307a576040517f08c379a000000000000000000000000000000000000000000000000000000000815260040161307190614b8f565b60405180910390fd5b61308381612a3d565b156130c3576040517f08c379a00000000000000000000000000000000000000000000000000000000081526004016130ba90614bfb565b60405180910390fd5b6130cf60008383612aa9565b6001600360008473ffffffffffffffffffffffffffffffffffffffff1673ffffffffffffffffffffffffffffffffffffffff168152602001908152602001600020600082825461311f919061403f565b92505081905550816002600083815260200190815260200160002060006101000a81548173ffffffffffffffffffffffffffffffffffffffff021916908373ffffffffffffffffffffffffffffffffffffffff160217905550808273ffffffffffffffffffffffffffffffffffffffff16600073ffffffffffffffffffffffffffffffffffffffff167fddf252ad1be2c89b69c2b068fc378daa952ba7f163c4a11628f55a4df523b3ef60405160405180910390a46131e060008383612aae565b5050565b6000604051905090565b600080fd5b600080fd5b60007fffffffff0000000000000000000000000000000000000000000000000000000082169050919050565b61322d816131f8565b811461323857600080fd5b50565b60008135905061324a81613224565b92915050565b600060208284031215613266576132656131ee565b5b60006132748482850161323b565b91505092915050565b60008115159050919050565b6132928161327d565b82525050565b60006020820190506132ad6000830184613289565b92915050565b600081519050919050565b600082825260208201905092915050565b60005b838110156132ed5780820151818401526020810190506132d2565b60008484015250505050565b6000601f19601f8301169050919050565b6000613315826132b3565b61331f81856132be565b935061332f8185602086016132cf565b613338816132f9565b840191505092915050565b6000602082019050818103600083015261335d818461330a565b905092915050565b6000819050919050565b61337881613365565b811461338357600080fd5b50565b6000813590506133958161336f565b92915050565b6000602082840312156133b1576133b06131ee565b5b60006133bf84828501613386565b91505092915050565b600073ffffffffffffffffffffffffffffffffffffffff82169050919050565b60006133f3826133c8565b9050919050565b613403816133e8565b82525050565b600060208201905061341e60008301846133fa565b92915050565b61342d816133e8565b811461343857600080fd5b50565b60008135905061344a81613424565b92915050565b60008060408385031215613467576134666131ee565b5b60006134758582860161343b565b925050602061348685828601613386565b9150509250929050565b6004811061349d57600080fd5b50565b6000813590506134af81613490565b92915050565b6000602082840312156134cb576134ca6131ee565b5b60006134d9848285016134a0565b91505092915050565b6000806000606084860312156134fb576134fa6131ee565b5b60006135098682870161343b565b935050602061351a8682870161343b565b925050604061352b86828701613386565b9150509250925092565b6000819050919050565b600061355a613555613550846133c8565b613535565b6133c8565b9050919050565b600061356c8261353f565b9050919050565b600061357e82613561565b9050919050565b61358e81613573565b82525050565b60006020820190506135a96000830184613585565b92915050565b6000602082840312156135c5576135c46131ee565b5b60006135d38482850161343b565b91505092915050565b6135e581613365565b82525050565b600060208201905061360060008301846135dc565b92915050565b6000806040838503121561361d5761361c6131ee565b5b600061362b85828601613386565b925050602061363c8582860161343b565b9150509250929050565b61364f8161327d565b811461365a57600080fd5b50565b60008135905061366c81613646565b92915050565b60008060408385031215613689576136886131ee565b5b60006136978582860161343b565b92505060206136a88582860161365d565b9150509250929050565b600080fd5b600080fd5b7f4e487b7100000000000000000000000000000000000000000000000000000000600052604160045260246000fd5b6136f4826132f9565b810181811067ffffffffffffffff82111715613713576137126136bc565b5b80604052505050565b60006137266131e4565b905061373282826136eb565b919050565b600067ffffffffffffffff821115613752576137516136bc565b5b61375b826132f9565b9050602081019050919050565b82818337600083830152505050565b600061378a61378584613737565b61371c565b9050828152602081018484840111156137a6576137a56136b7565b5b6137b1848285613768565b509392505050565b600082601f8301126137ce576137cd6136b2565b5b81356137de848260208601613777565b91505092915050565b600080600080600080600080610100898b031215613808576138076131ee565b5b60006138168b828c0161343b565b985050602089013567ffffffffffffffff811115613837576138366131f3565b5b6138438b828c016137b9565b97505060406138548b828c01613386565b96505060606138658b828c01613386565b95505060806138768b828c01613386565b94505060a06138878b828c016134a0565b93505060c06138988b828c0161343b565b92505060e06138a98b828c01613386565b9150509295985092959890939650565b600067ffffffffffffffff8211156138d4576138d36136bc565b5b6138dd826132f9565b9050602081019050919050565b60006138fd6138f8846138b9565b61371c565b905082815260208101848484011115613919576139186136b7565b5b613924848285613768565b509392505050565b600082601f830112613941576139406136b2565b5b81356139518482602086016138ea565b91505092915050565b60008060008060808587031215613974576139736131ee565b5b60006139828782880161343b565b94505060206139938782880161343b565b93505060406139a487828801613386565b925050606085013567ffffffffffffffff8111156139c5576139c46131f3565b5b6139d18782880161392c565b91505092959194509250565b600080604083850312156139f4576139f36131ee565b5b6000613a028582860161343b565b9250506020613a138582860161343b565b9150509250929050565b7f4e487b7100000000000000000000000000000000000000000000000000000000600052602160045260246000fd5b60048110613a5d57613a5c613a1d565b5b50565b6000819050613a6e82613a4c565b919050565b6000613a7e82613a60565b9050919050565b613a8e81613a73565b82525050565b600061010082019050613aaa600083018b6135dc565b613ab7602083018a6135dc565b613ac460408301896135dc565b613ad160608301886135dc565b613ade60808301876135dc565b613aeb60a0830186613a85565b613af860c08301856133fa565b613b0560e08301846135dc565b9998505050505050505050565b7f4e487b7100000000000000000000000000000000000000000000000000000000600052602260045260246000fd5b60006002820490506001821680613b5957607f821691505b602082108103613b6c57613b6b613b12565b5b50919050565b7f4552433732313a20617070726f76616c20746f2063757272656e74206f776e6560008201527f7200000000000000000000000000000000000000000000000000000000000000602082015250565b6000613bce6021836132be565b9150613bd982613b72565b604082019050919050565b60006020820190508181036000830152613bfd81613bc1565b9050919050565b7f4552433732313a20617070726f76652063616c6c6572206973206e6f7420746f60008201527f6b656e206f776e6572206e6f7220617070726f76656420666f7220616c6c0000602082015250565b6000613c60603e836132be565b9150613c6b82613c04565b604082019050919050565b60006020820190508181036000830152613c8f81613c53565b9050919050565b7f4552433732313a2063616c6c6572206973206e6f7420746f6b656e206f776e6560008201527f72206e6f7220617070726f766564000000000000000000000000000000000000602082015250565b6000613cf2602e836132be565b9150613cfd82613c96565b604082019050919050565b60006020820190508181036000830152613d2181613ce5565b9050919050565b7f4552433732313a20696e76616c696420746f6b656e2049440000000000000000600082015250565b6000613d5e6018836132be565b9150613d6982613d28565b602082019050919050565b60006020820190508181036000830152613d8d81613d51565b9050919050565b7f4552433732313a2061646472657373207a65726f206973206e6f74206120766160008201527f6c6964206f776e65720000000000000000000000000000000000000000000000602082015250565b6000613df06029836132be565b9150613dfb82613d94565b604082019050919050565b60006020820190508181036000830152613e1f81613de3565b9050919050565b7f4f776e61626c653a206e6577206f776e657220697320746865207a65726f206160008201527f6464726573730000000000000000000000000000000000000000000000000000602082015250565b6000613e826026836132be565b9150613e8d82613e26565b604082019050919050565b60006020820190508181036000830152613eb181613e75565b9050919050565b7f4552433732313a207472616e736665722066726f6d20696e636f72726563742060008201527f6f776e6572000000000000000000000000000000000000000000000000000000602082015250565b6000613f146025836132be565b9150613f1f82613eb8565b604082019050919050565b60006020820190508181036000830152613f4381613f07565b9050919050565b7f4552433732313a207472616e7366657220746f20746865207a65726f2061646460008201527f7265737300000000000000000000000000000000000000000000000000000000602082015250565b6000613fa66024836132be565b9150613fb182613f4a565b604082019050919050565b60006020820190508181036000830152613fd581613f99565b9050919050565b7f4e487b7100000000000000000000000000000000000000000000000000000000600052601160045260246000fd5b600061401682613365565b915061402183613365565b925082820390508181111561403957614038613fdc565b5b92915050565b600061404a82613365565b915061405583613365565b925082820190508082111561406d5761406c613fdc565b5b92915050565b7f4f776e61626c653a2063616c6c6572206973206e6f7420746865206f776e6572600082015250565b60006140a96020836132be565b91506140b482614073565b602082019050919050565b600060208201905081810360008301526140d88161409c565b9050919050565b60006060820190506140f460008301866135dc565b61410160208301856135dc565b61410e60408301846135dc565b949350505050565b7f4552433732313a20617070726f766520746f2063616c6c657200000000000000600082015250565b600061414c6019836132be565b915061415782614116565b602082019050919050565b6000602082019050818103600083015261417b8161413f565b9050919050565b7f746172676574546f6b656e41646472657373206d757374206265207a65726f00600082015250565b60006141b8601f836132be565b91506141c382614182565b602082019050919050565b600060208201905081810360008301526141e7816141ab565b9050919050565b7f746172676574546f6b656e547970654944206d757374206265207a65726f0000600082015250565b6000614224601e836132be565b915061422f826141ee565b602082019050919050565b6000602082019050818103600083015261425381614217565b9050919050565b7f74617267657420746f6b656e2061646472657373206973207265717569726564600082015250565b60006142906020836132be565b915061429b8261425a565b602082019050919050565b600060208201905081810360008301526142bf81614283565b9050919050565b6000815190506142d58161336f565b92915050565b6000602082840312156142f1576142f06131ee565b5b60006142ff848285016142c6565b91505092915050565b7f636f6e747261637420646f65736e277420737570706f72742062616c616e656360008201527f4f66000000000000000000000000000000000000000000000000000000000000602082015250565b60006143646022836132be565b915061436f82614308565b604082019050919050565b6000602082019050818103600083015261439381614357565b9050919050565b60006040820190506143af60008301856133fa565b6143bc60208301846135dc565b9392505050565b7f636f6e747261637420646f65736e277420737570706f72742062616c616e636560008201527f4f66000000000000000000000000000000000000000000000000000000000000602082015250565b600061441f6022836132be565b915061442a826143c3565b604082019050919050565b6000602082019050818103600083015261444e81614412565b9050919050565b600060e08201905061446a600083018a6135dc565b61447760208301896135dc565b61448460408301886135dc565b61449160608301876135dc565b81810360808301526144a3818661330a565b90506144b260a08301856133fa565b6144bf60c08301846135dc565b98975050505050505050565b7f4552433732313a207472616e7366657220746f206e6f6e20455243373231526560008201527f63656976657220696d706c656d656e7465720000000000000000000000000000602082015250565b60006145276032836132be565b9150614532826144cb565b604082019050919050565b600060208201905081810360008301526145568161451a565b9050919050565b600081905092915050565b6000614573826132b3565b61457d818561455d565b935061458d8185602086016132cf565b80840191505092915050565b60006145a58285614568565b91506145b18284614568565b91508190509392505050565b7f6163636f756e7420646f65736e2774206861766520746f6b656e000000000000600082015250565b60006145f3601a836132be565b91506145fe826145bd565b602082019050919050565b60006020820190508181036000830152614622816145e6565b9050919050565b600060408201905061463e60008301856135dc565b61464b60208301846135dc565b9392505050565b7f45524337323155524953746f726167653a2055524920736574206f66206e6f6e60008201527f6578697374656e7420746f6b656e000000000000000000000000000000000000602082015250565b60006146ae602e836132be565b91506146b982614652565b604082019050919050565b600060208201905081810360008301526146dd816146a1565b9050919050565b60008190508160005260206000209050919050565b60006020601f8301049050919050565b600082821b905092915050565b6000600883026147467fffffffffffffffffffffffffffffffffffffffffffffffffffffffffffffffff82614709565b6147508683614709565b95508019841693508086168417925050509392505050565b600061478361477e61477984613365565b613535565b613365565b9050919050565b6000819050919050565b61479d83614768565b6147b16147a98261478a565b848454614716565b825550505050565b600090565b6147c66147b9565b6147d1818484614794565b505050565b5b818110156147f5576147ea6000826147be565b6001810190506147d7565b5050565b601f82111561483a5761480b816146e4565b614814846146f9565b81016020851015614823578190505b61483761482f856146f9565b8301826147d6565b50505b505050565b600082821c905092915050565b600061485d6000198460080261483f565b1980831691505092915050565b6000614876838361484c565b9150826002028217905092915050565b61488f826132b3565b67ffffffffffffffff8111156148a8576148a76136bc565b5b6148b28254613b41565b6148bd8282856147f9565b600060209050601f8311600181146148f057600084156148de578287015190505b6148e8858261486a565b865550614950565b601f1984166148fe866146e4565b60005b8281101561492657848901518255600182019150602085019450602081019050614901565b86831015614943578489015161493f601f89168261484c565b8355505b6001600288020188555050505b505050505050565b600081519050919050565b600082825260208201905092915050565b600061497f82614958565b6149898185614963565b93506149998185602086016132cf565b6149a2816132f9565b840191505092915050565b60006080820190506149c260008301876133fa565b6149cf60208301866133fa565b6149dc60408301856135dc565b81810360608301526149ee8184614974565b905095945050505050565b600081519050614a0881613224565b92915050565b600060208284031215614a2457614a236131ee565b5b6000614a32848285016149f9565b91505092915050565b6000614a4682613365565b91507fffffffffffffffffffffffffffffffffffffffffffffffffffffffffffffffff8203614a7857614a77613fdc565b5b600182019050919050565b7f4e487b7100000000000000000000000000000000000000000000000000000000600052601260045260246000fd5b6000614abd82613365565b9150614ac883613365565b925082614ad857614ad7614a83565b5b828204905092915050565b6000614aee82613365565b9150614af983613365565b925082614b0957614b08614a83565b5b828206905092915050565b7f4e487b7100000000000000000000000000000000000000000000000000000000600052603260045260246000fd5b7f4552433732313a206d696e7420746f20746865207a65726f2061646472657373600082015250565b6000614b796020836132be565b9150614b8482614b43565b602082019050919050565b60006020820190508181036000830152614ba881614b6c565b9050919050565b7f4552433732313a20746f6b656e20616c7265616479206d696e74656400000000600082015250565b6000614be5601c836132be565b9150614bf082614baf565b602082019050919050565b60006020820190508181036000830152614c1481614bd8565b905091905056fe6163636f756e7420686173206e6f742072656769737465726564206173207061727469636970616e746163636f756e74206861732070617274696369706174656420696e20616c72656164796576656e7420656e642074696d65206d7573742062652061667465722073746172742074696d65746f74616c206f66207061727469636970616e7473206861732072656163686564206c696d6974a26469706673582212200f56e8883ef674c07eb48c78d3f7d72a354eba3005b099578bc7a118eb6d0c5764736f6c63430008110033",
  "linkReferences": {},
  "deployedLinkReferences": {}
}