{
  "_format": "hh-sol-artifact-1",
  "contractName": "CupCap",
  "sourceName": "contracts/CupCap.sol",
  "abi": [
    {
      "inputs": [
        {
          "internalType": "contract IEventNFT",
          "name": "eventNFT",
          "type": "address"
        },
        {
          "internalType": "contract IBusinessCardDesign",
          "name": "businessCardDesign",
          "type": "address"
        },
        {
          "internalType": "contract IBusinessCard",
          "name": "businessCard",
          "type": "address"
        }
      ],
      "stateMutability": "nonpayable",
      "type": "constructor"
    },
    {
      "anonymous": false,
      "inputs": [
        {
          "indexed": true,
          "internalType": "address",
          "name": "previousOwner",
          "type": "address"
        },
        {
          "indexed": true,
          "internalType": "address",
          "name": "newOwner",
          "type": "address"
        }
      ],
      "name": "OwnershipTransferred",
      "type": "event"
    },
    {
      "anonymous": false,
      "inputs": [
        {
          "indexed": false,
          "internalType": "address",
          "name": "account",
          "type": "address"
        }
      ],
      "name": "Paused",
      "type": "event"
    },
    {
      "anonymous": false,
      "inputs": [
        {
          "indexed": false,
          "internalType": "address",
          "name": "account",
          "type": "address"
        }
      ],
      "name": "Unpaused",
      "type": "event"
    },
    {
      "inputs": [],
      "name": "_businessCard",
      "outputs": [
        {
          "internalType": "contract IBusinessCard",
          "name": "",
          "type": "address"
        }
      ],
      "stateMutability": "view",
      "type": "function"
    },
    {
      "inputs": [],
      "name": "_businessCardDesign",
      "outputs": [
        {
          "internalType": "contract IBusinessCardDesign",
          "name": "",
          "type": "address"
        }
      ],
      "stateMutability": "view",
      "type": "function"
    },
    {
      "inputs": [],
      "name": "_eventNFT",
      "outputs": [
        {
          "internalType": "contract IEventNFT",
          "name": "",
          "type": "address"
        }
      ],
      "stateMutability": "view",
      "type": "function"
    },
    {
      "inputs": [
        {
          "internalType": "uint256",
          "name": "eventID",
          "type": "uint256"
        }
      ],
      "name": "attendEvent",
      "outputs": [],
      "stateMutability": "nonpayable",
      "type": "function"
    },
    {
      "inputs": [
        {
          "internalType": "uint256",
          "name": "eventID",
          "type": "uint256"
        },
        {
          "internalType": "address",
          "name": "account",
          "type": "address"
        }
      ],
      "name": "attendEventByHost",
      "outputs": [],
      "stateMutability": "nonpayable",
      "type": "function"
    },
    {
      "inputs": [
        {
          "internalType": "string",
          "name": "resourceURI",
          "type": "string"
        }
      ],
      "name": "createBusinessCardDesign",
      "outputs": [
        {
          "internalType": "uint256",
          "name": "",
          "type": "uint256"
        }
      ],
      "stateMutability": "nonpayable",
      "type": "function"
    },
    {
      "inputs": [
        {
          "internalType": "address",
          "name": "host",
          "type": "address"
        },
        {
          "internalType": "string",
          "name": "resourceURI",
          "type": "string"
        },
        {
          "internalType": "uint256",
          "name": "limitOfParticipants",
          "type": "uint256"
        },
        {
          "internalType": "uint256",
          "name": "startedAt",
          "type": "uint256"
        },
        {
          "internalType": "uint256",
          "name": "endedAt",
          "type": "uint256"
        },
        {
          "internalType": "bool",
          "name": "shouldHostInclude",
          "type": "bool"
        }
      ],
      "name": "createEvent",
      "outputs": [
        {
          "internalType": "uint256",
          "name": "",
          "type": "uint256"
        }
      ],
      "stateMutability": "nonpayable",
      "type": "function"
    },
    {
      "inputs": [
        {
          "internalType": "address",
          "name": "host",
          "type": "address"
        },
        {
          "internalType": "string",
          "name": "resourceURI",
          "type": "string"
        },
        {
          "internalType": "uint256",
          "name": "limitOfParticipants",
          "type": "uint256"
        },
        {
          "internalType": "uint256",
          "name": "startedAt",
          "type": "uint256"
        },
        {
          "internalType": "uint256",
          "name": "endedAt",
          "type": "uint256"
        },
        {
          "internalType": "bool",
          "name": "shouldHostInclude",
          "type": "bool"
        },
        {
          "internalType": "address",
          "name": "tokenAddress",
          "type": "address"
        },
        {
          "internalType": "uint256",
          "name": "tokenID",
          "type": "uint256"
        }
      ],
      "name": "createEventForERC1155Holder",
      "outputs": [
        {
          "internalType": "uint256",
          "name": "",
          "type": "uint256"
        }
      ],
      "stateMutability": "nonpayable",
      "type": "function"
    },
    {
      "inputs": [
        {
          "internalType": "address",
          "name": "host",
          "type": "address"
        },
        {
          "internalType": "string",
          "name": "resourceURI",
          "type": "string"
        },
        {
          "internalType": "uint256",
          "name": "limitOfParticipants",
          "type": "uint256"
        },
        {
          "internalType": "uint256",
          "name": "startedAt",
          "type": "uint256"
        },
        {
          "internalType": "uint256",
          "name": "endedAt",
          "type": "uint256"
        },
        {
          "internalType": "bool",
          "name": "shouldHostInclude",
          "type": "bool"
        },
        {
          "internalType": "address",
          "name": "tokenAddress",
          "type": "address"
        }
      ],
      "name": "createEventForERC20Holder",
      "outputs": [
        {
          "internalType": "uint256",
          "name": "",
          "type": "uint256"
        }
      ],
      "stateMutability": "nonpayable",
      "type": "function"
    },
    {
      "inputs": [
        {
          "internalType": "address",
          "name": "host",
          "type": "address"
        },
        {
          "internalType": "string",
          "name": "resourceURI",
          "type": "string"
        },
        {
          "internalType": "uint256",
          "name": "limitOfParticipants",
          "type": "uint256"
        },
        {
          "internalType": "uint256",
          "name": "startedAt",
          "type": "uint256"
        },
        {
          "internalType": "uint256",
          "name": "endedAt",
          "type": "uint256"
        },
        {
          "internalType": "bool",
          "name": "shouldHostInclude",
          "type": "bool"
        },
        {
          "internalType": "address",
          "name": "tokenAddress",
          "type": "address"
        }
      ],
      "name": "createEventForERC721Holder",
      "outputs": [
        {
          "internalType": "uint256",
          "name": "",
          "type": "uint256"
        }
      ],
      "stateMutability": "nonpayable",
      "type": "function"
    },
    {
      "inputs": [
        {
          "internalType": "address",
          "name": "host",
          "type": "address"
        },
        {
          "internalType": "string",
          "name": "resourceURI",
          "type": "string"
        },
        {
          "internalType": "uint256",
          "name": "limitOfParticipants",
          "type": "uint256"
        },
        {
          "internalType": "uint256",
          "name": "startedAt",
          "type": "uint256"
        },
        {
          "internalType": "uint256",
          "name": "endedAt",
          "type": "uint256"
        },
        {
          "internalType": "bool",
          "name": "shouldHostInclude",
          "type": "bool"
        },
        {
          "internalType": "uint256",
          "name": "eventID",
          "type": "uint256"
        }
      ],
      "name": "createEventForPastParticipant",
      "outputs": [
        {
          "internalType": "uint256",
          "name": "",
          "type": "uint256"
        }
      ],
      "stateMutability": "nonpayable",
      "type": "function"
    },
    {
      "inputs": [
        {
          "internalType": "address",
          "name": "to",
          "type": "address"
        },
        {
          "internalType": "uint256",
          "name": "designID",
          "type": "uint256"
        },
        {
          "internalType": "uint256",
          "name": "number",
          "type": "uint256"
        }
      ],
      "name": "mintDesignToken",
      "outputs": [],
      "stateMutability": "nonpayable",
      "type": "function"
    },
    {
      "inputs": [],
      "name": "owner",
      "outputs": [
        {
          "internalType": "address",
          "name": "",
          "type": "address"
        }
      ],
      "stateMutability": "view",
      "type": "function"
    },
    {
      "inputs": [
        {
          "internalType": "uint256",
          "name": "eventID",
          "type": "uint256"
        }
      ],
      "name": "participateEvent",
      "outputs": [],
      "stateMutability": "nonpayable",
      "type": "function"
    },
    {
      "inputs": [
        {
          "internalType": "uint256",
          "name": "eventID",
          "type": "uint256"
        },
        {
          "internalType": "address",
          "name": "account",
          "type": "address"
        }
      ],
      "name": "participateEventByHost",
      "outputs": [],
      "stateMutability": "nonpayable",
      "type": "function"
    },
    {
      "inputs": [],
      "name": "pause",
      "outputs": [],
      "stateMutability": "nonpayable",
      "type": "function"
    },
    {
      "inputs": [],
      "name": "paused",
      "outputs": [
        {
          "internalType": "bool",
          "name": "",
          "type": "bool"
        }
      ],
      "stateMutability": "view",
      "type": "function"
    },
    {
      "inputs": [],
      "name": "renounceOwnership",
      "outputs": [],
      "stateMutability": "nonpayable",
      "type": "function"
    },
    {
      "inputs": [
        {
          "internalType": "uint256",
          "name": "designID",
          "type": "uint256"
        }
      ],
      "name": "selectDesign",
      "outputs": [],
      "stateMutability": "nonpayable",
      "type": "function"
    },
    {
      "inputs": [
        {
          "internalType": "address",
          "name": "to",
          "type": "address"
        }
      ],
      "name": "sendBusinessCard",
      "outputs": [],
      "stateMutability": "nonpayable",
      "type": "function"
    },
    {
      "inputs": [
        {
          "internalType": "string",
          "name": "resourceURI",
          "type": "string"
        }
      ],
      "name": "setBusinessCardResource",
      "outputs": [],
      "stateMutability": "nonpayable",
      "type": "function"
    },
    {
      "inputs": [
        {
          "internalType": "address",
          "name": "from",
          "type": "address"
        },
        {
          "internalType": "bytes",
          "name": "signature",
          "type": "bytes"
        }
      ],
      "name": "takeBusinessCard",
      "outputs": [],
      "stateMutability": "nonpayable",
      "type": "function"
    },
    {
      "inputs": [
        {
          "internalType": "address",
          "name": "newOwner",
          "type": "address"
        }
      ],
      "name": "transferOwnership",
      "outputs": [],
      "stateMutability": "nonpayable",
      "type": "function"
    },
    {
      "inputs": [],
      "name": "unpause",
      "outputs": [],
      "stateMutability": "nonpayable",
      "type": "function"
    }
  ],
  "bytecode": "0x60806040523480156200001157600080fd5b5060405162002eb138038062002eb1833981810160405281019062000037919062000311565b620000576200004b6200013d60201b60201c565b6200014560201b60201c565b60008060146101000a81548160ff02191690831515021790555082600160006101000a81548173ffffffffffffffffffffffffffffffffffffffff021916908373ffffffffffffffffffffffffffffffffffffffff16021790555081600260006101000a81548173ffffffffffffffffffffffffffffffffffffffff021916908373ffffffffffffffffffffffffffffffffffffffff16021790555080600360006101000a81548173ffffffffffffffffffffffffffffffffffffffff021916908373ffffffffffffffffffffffffffffffffffffffff1602179055505050506200036d565b600033905090565b60008060009054906101000a900473ffffffffffffffffffffffffffffffffffffffff169050816000806101000a81548173ffffffffffffffffffffffffffffffffffffffff021916908373ffffffffffffffffffffffffffffffffffffffff1602179055508173ffffffffffffffffffffffffffffffffffffffff168173ffffffffffffffffffffffffffffffffffffffff167f8be0079c531659141344cd1fd0a4f28419497f9722a3daafe3b4186f6b6457e060405160405180910390a35050565b600080fd5b600073ffffffffffffffffffffffffffffffffffffffff82169050919050565b60006200023b826200020e565b9050919050565b60006200024f826200022e565b9050919050565b620002618162000242565b81146200026d57600080fd5b50565b600081519050620002818162000256565b92915050565b600062000294826200022e565b9050919050565b620002a68162000287565b8114620002b257600080fd5b50565b600081519050620002c6816200029b565b92915050565b6000620002d9826200022e565b9050919050565b620002eb81620002cc565b8114620002f757600080fd5b50565b6000815190506200030b81620002e0565b92915050565b6000806000606084860312156200032d576200032c62000209565b5b60006200033d8682870162000270565b93505060206200035086828701620002b5565b92505060406200036386828701620002fa565b9150509250925092565b612b34806200037d6000396000f3fe608060405234801561001057600080fd5b50600436106101585760003560e01c80637a84355b116100c3578063bb7db7061161007c578063bb7db70614610377578063d2ea3eb8146103a7578063d8ca623e146103c3578063df86ec7a146103e1578063e79c6d3614610411578063f2fde38b1461042d57610158565b80637a84355b146102b55780638456cb59146102d1578063876caf24146102db5780638a7a271f146102f95780638da5cb5b146103295780639a1e83461461034757610158565b80633f4ba83a116101155780633f4ba83a1461022d5780634229d462146102375780635c975abb146102535780636f06e16c1461027157806370e7b9711461028f578063715018a6146102ab57610158565b8063048588db1461015d5780631e01da3d14610179578063220a4a4b146101a957806326617aa9146101c557806326fa67bd146101e157806327c1efcc146101fd575b600080fd5b610177600480360381019061017291906117df565b610449565b005b610193600480360381019061018e91906119e8565b6104e3565b6040516101a09190611ab5565b60405180910390f35b6101c360048036038101906101be91906117df565b61059c565b005b6101df60048036038101906101da9190611ad0565b610636565b005b6101fb60048036038101906101f69190611afd565b6106d0565b005b61021760048036038101906102129190611b3d565b610874565b6040516102249190611ab5565b60405180910390f35b61023561089e565b005b610251600480360381019061024c91906117df565b6108b0565b005b61025b61094a565b6040516102689190611c0a565b60405180910390f35b610279610960565b6040516102869190611c84565b60405180910390f35b6102a960048036038101906102a49190611c9f565b610986565b005b6102b3610a24565b005b6102cf60048036038101906102ca9190611afd565b610a38565b005b6102d9610bdc565b005b6102e3610bee565b6040516102f09190611d13565b60405180910390f35b610313600480360381019061030e9190611d2e565b610c14565b6040516103209190611ab5565b60405180910390f35b610331610ccb565b60405161033e9190611d86565b60405180910390f35b610361600480360381019061035c9190611da1565b610cf4565b60405161036e9190611ab5565b60405180910390f35b610391600480360381019061038c9190611e4a565b610d1d565b60405161039e9190611ab5565b60405180910390f35b6103c160048036038101906103bc9190611fbd565b610d47565b005b6103cb610e53565b6040516103d8919061203a565b60405180910390f35b6103fb60048036038101906103f69190611b3d565b610e79565b6040516104089190611ab5565b60405180910390f35b61042b60048036038101906104269190611d2e565b610ea3565b005b61044760048036038101906104429190611ad0565b610f3d565b005b610451610fc0565b600160009054906101000a900473ffffffffffffffffffffffffffffffffffffffff1673ffffffffffffffffffffffffffffffffffffffff166376f25d9082336040518363ffffffff1660e01b81526004016104ae929190612055565b600060405180830381600087803b1580156104c857600080fd5b505af11580156104dc573d6000803e3d6000fd5b5050505050565b60006104ed610fc0565b61058f8888888888886003600160009054906101000a900473ffffffffffffffffffffffffffffffffffffffff1673ffffffffffffffffffffffffffffffffffffffff1663484a01046040518163ffffffff1660e01b8152600401602060405180830381865afa158015610565573d6000803e3d6000fd5b505050506040513d601f19601f8201168201806040525081019061058991906120bc565b8a61100a565b9050979650505050505050565b6105a4610fc0565b600260009054906101000a900473ffffffffffffffffffffffffffffffffffffffff1673ffffffffffffffffffffffffffffffffffffffff16632e6bfe9433836040518363ffffffff1660e01b81526004016106019291906120e9565b600060405180830381600087803b15801561061b57600080fd5b505af115801561062f573d6000803e3d6000fd5b5050505050565b61063e610fc0565b600360009054906101000a900473ffffffffffffffffffffffffffffffffffffffff1673ffffffffffffffffffffffffffffffffffffffff1663ee1fe2ad33836040518363ffffffff1660e01b815260040161069b929190612112565b600060405180830381600087803b1580156106b557600080fd5b505af11580156106c9573d6000803e3d6000fd5b5050505050565b6106d8610fc0565b3373ffffffffffffffffffffffffffffffffffffffff16600160009054906101000a900473ffffffffffffffffffffffffffffffffffffffff1673ffffffffffffffffffffffffffffffffffffffff16636352211e846040518263ffffffff1660e01b815260040161074a9190611ab5565b602060405180830381865afa158015610767573d6000803e3d6000fd5b505050506040513d601f19601f8201168201806040525081019061078b9190612150565b73ffffffffffffffffffffffffffffffffffffffff16146107e1576040517f08c379a00000000000000000000000000000000000000000000000000000000081526004016107d8906121da565b60405180910390fd5b600160009054906101000a900473ffffffffffffffffffffffffffffffffffffffff1673ffffffffffffffffffffffffffffffffffffffff166376f25d9083836040518363ffffffff1660e01b815260040161083e929190612055565b600060405180830381600087803b15801561085857600080fd5b505af115801561086c573d6000803e3d6000fd5b505050505050565b600061087e610fc0565b610891888888888888600189600061100a565b9050979650505050505050565b6108a6611162565b6108ae6111e0565b565b6108b8610fc0565b600160009054906101000a900473ffffffffffffffffffffffffffffffffffffffff1673ffffffffffffffffffffffffffffffffffffffff1663ce3820d982336040518363ffffffff1660e01b8152600401610915929190612055565b600060405180830381600087803b15801561092f57600080fd5b505af1158015610943573d6000803e3d6000fd5b5050505050565b60008060149054906101000a900460ff16905090565b600260009054906101000a900473ffffffffffffffffffffffffffffffffffffffff1681565b61098e610fc0565b600260009054906101000a900473ffffffffffffffffffffffffffffffffffffffff1673ffffffffffffffffffffffffffffffffffffffff1663156e29f68484846040518463ffffffff1660e01b81526004016109ed939291906121fa565b600060405180830381600087803b158015610a0757600080fd5b505af1158015610a1b573d6000803e3d6000fd5b50505050505050565b610a2c611162565b610a366000611242565b565b610a40610fc0565b3373ffffffffffffffffffffffffffffffffffffffff16600160009054906101000a900473ffffffffffffffffffffffffffffffffffffffff1673ffffffffffffffffffffffffffffffffffffffff16636352211e846040518263ffffffff1660e01b8152600401610ab29190611ab5565b602060405180830381865afa158015610acf573d6000803e3d6000fd5b505050506040513d601f19601f82011682018060405250810190610af39190612150565b73ffffffffffffffffffffffffffffffffffffffff1614610b49576040517f08c379a0000000000000000000000000000000000000000000000000000000008152600401610b40906121da565b60405180910390fd5b600160009054906101000a900473ffffffffffffffffffffffffffffffffffffffff1673ffffffffffffffffffffffffffffffffffffffff1663ce3820d983836040518363ffffffff1660e01b8152600401610ba6929190612055565b600060405180830381600087803b158015610bc057600080fd5b505af1158015610bd4573d6000803e3d6000fd5b505050505050565b610be4611162565b610bec611306565b565b600160009054906101000a900473ffffffffffffffffffffffffffffffffffffffff1681565b6000610c1e611162565b610c26610fc0565b600260009054906101000a900473ffffffffffffffffffffffffffffffffffffffff1673ffffffffffffffffffffffffffffffffffffffff1663ff588459836040518263ffffffff1660e01b8152600401610c81919061229f565b6020604051808303816000875af1158015610ca0573d6000803e3d6000fd5b505050506040513d601f19601f82011682018060405250810190610cc491906122d6565b9050919050565b60008060009054906101000a900473ffffffffffffffffffffffffffffffffffffffff16905090565b6000610cfe610fc0565b610d11878787878787600080600061100a565b90509695505050505050565b6000610d27610fc0565b610d3989898989898960038a8a61100a565b905098975050505050505050565b610d4f610fc0565b60008233604051602001610d6492919061243a565b6040516020818303038152906040529050610d80818385611369565b610dbf576040517f08c379a0000000000000000000000000000000000000000000000000000000008152600401610db6906124d3565b60405180910390fd5b600360009054906101000a900473ffffffffffffffffffffffffffffffffffffffff1673ffffffffffffffffffffffffffffffffffffffff1663ee1fe2ad84336040518363ffffffff1660e01b8152600401610e1c929190612112565b600060405180830381600087803b158015610e3657600080fd5b505af1158015610e4a573d6000803e3d6000fd5b50505050505050565b600360009054906101000a900473ffffffffffffffffffffffffffffffffffffffff1681565b6000610e83610fc0565b610e96888888888888600289600061100a565b9050979650505050505050565b610eab610fc0565b600360009054906101000a900473ffffffffffffffffffffffffffffffffffffffff1673ffffffffffffffffffffffffffffffffffffffff16638dc0d48633836040518363ffffffff1660e01b8152600401610f089291906124f3565b600060405180830381600087803b158015610f2257600080fd5b505af1158015610f36573d6000803e3d6000fd5b5050505050565b610f45611162565b600073ffffffffffffffffffffffffffffffffffffffff168173ffffffffffffffffffffffffffffffffffffffff1603610fb4576040517f08c379a0000000000000000000000000000000000000000000000000000000008152600401610fab90612595565b60405180910390fd5b610fbd81611242565b50565b610fc861094a565b15611008576040517f08c379a0000000000000000000000000000000000000000000000000000000008152600401610fff90612601565b60405180910390fd5b565b600080600160009054906101000a900473ffffffffffffffffffffffffffffffffffffffff1673ffffffffffffffffffffffffffffffffffffffff1663b4cb85cc8c8c8c8c8c8b8b8b6040518963ffffffff1660e01b8152600401611076989796959493929190612698565b6020604051808303816000875af1158015611095573d6000803e3d6000fd5b505050506040513d601f19601f820116820180604052508101906110b991906122d6565b9050851561115157600160009054906101000a900473ffffffffffffffffffffffffffffffffffffffff1673ffffffffffffffffffffffffffffffffffffffff1663ce3820d9828d6040518363ffffffff1660e01b815260040161111e929190612055565b600060405180830381600087803b15801561113857600080fd5b505af115801561114c573d6000803e3d6000fd5b505050505b809150509998505050505050505050565b61116a6113c4565b73ffffffffffffffffffffffffffffffffffffffff16611188610ccb565b73ffffffffffffffffffffffffffffffffffffffff16146111de576040517f08c379a00000000000000000000000000000000000000000000000000000000081526004016111d590612769565b60405180910390fd5b565b6111e86113cc565b60008060146101000a81548160ff0219169083151502179055507f5db9ee0a495bf2e6ff9c91a7834c1ba4fdd244a5e8aa4e537bd38aeae4b073aa61122b6113c4565b6040516112389190611d86565b60405180910390a1565b60008060009054906101000a900473ffffffffffffffffffffffffffffffffffffffff169050816000806101000a81548173ffffffffffffffffffffffffffffffffffffffff021916908373ffffffffffffffffffffffffffffffffffffffff1602179055508173ffffffffffffffffffffffffffffffffffffffff168173ffffffffffffffffffffffffffffffffffffffff167f8be0079c531659141344cd1fd0a4f28419497f9722a3daafe3b4186f6b6457e060405160405180910390a35050565b61130e610fc0565b6001600060146101000a81548160ff0219169083151502179055507f62e78cea01bee320cd4e420270b5ea74000d11b0c9f74754ebdbfc544b05a2586113526113c4565b60405161135f9190611d86565b60405180910390a1565b60008173ffffffffffffffffffffffffffffffffffffffff166113a4846113968780519060200120611415565b61144590919063ffffffff16565b73ffffffffffffffffffffffffffffffffffffffff161490509392505050565b600033905090565b6113d461094a565b611413576040517f08c379a000000000000000000000000000000000000000000000000000000000815260040161140a906127d5565b60405180910390fd5b565b600081604051602001611428919061286c565b604051602081830303815290604052805190602001209050919050565b6000806000611454858561146c565b91509150611461816114bd565b819250505092915050565b60008060418351036114ad5760008060006020860151925060408601519150606086015160001a90506114a187828585611689565b945094505050506114b6565b60006002915091505b9250929050565b600060048111156114d1576114d0612621565b5b8160048111156114e4576114e3612621565b5b031561168657600160048111156114fe576114fd612621565b5b81600481111561151157611510612621565b5b03611551576040517f08c379a0000000000000000000000000000000000000000000000000000000008152600401611548906128de565b60405180910390fd5b6002600481111561156557611564612621565b5b81600481111561157857611577612621565b5b036115b8576040517f08c379a00000000000000000000000000000000000000000000000000000000081526004016115af9061294a565b60405180910390fd5b600360048111156115cc576115cb612621565b5b8160048111156115df576115de612621565b5b0361161f576040517f08c379a0000000000000000000000000000000000000000000000000000000008152600401611616906129dc565b60405180910390fd5b60048081111561163257611631612621565b5b81600481111561164557611644612621565b5b03611685576040517f08c379a000000000000000000000000000000000000000000000000000000000815260040161167c90612a6e565b60405180910390fd5b5b50565b6000807f7fffffffffffffffffffffffffffffff5d576e7357a4501ddfe92f46681b20a08360001c11156116c457600060039150915061178c565b601b8560ff16141580156116dc5750601c8560ff1614155b156116ee57600060049150915061178c565b6000600187878787604051600081526020016040526040516117139493929190612ab9565b6020604051602081039080840390855afa158015611735573d6000803e3d6000fd5b505050602060405103519050600073ffffffffffffffffffffffffffffffffffffffff168173ffffffffffffffffffffffffffffffffffffffff16036117835760006001925092505061178c565b80600092509250505b94509492505050565b6000604051905090565b600080fd5b600080fd5b6000819050919050565b6117bc816117a9565b81146117c757600080fd5b50565b6000813590506117d9816117b3565b92915050565b6000602082840312156117f5576117f461179f565b5b6000611803848285016117ca565b91505092915050565b600073ffffffffffffffffffffffffffffffffffffffff82169050919050565b60006118378261180c565b9050919050565b6118478161182c565b811461185257600080fd5b50565b6000813590506118648161183e565b92915050565b600080fd5b600080fd5b6000601f19601f8301169050919050565b7f4e487b7100000000000000000000000000000000000000000000000000000000600052604160045260246000fd5b6118bd82611874565b810181811067ffffffffffffffff821117156118dc576118db611885565b5b80604052505050565b60006118ef611795565b90506118fb82826118b4565b919050565b600067ffffffffffffffff82111561191b5761191a611885565b5b61192482611874565b9050602081019050919050565b82818337600083830152505050565b600061195361194e84611900565b6118e5565b90508281526020810184848401111561196f5761196e61186f565b5b61197a848285611931565b509392505050565b600082601f8301126119975761199661186a565b5b81356119a7848260208601611940565b91505092915050565b60008115159050919050565b6119c5816119b0565b81146119d057600080fd5b50565b6000813590506119e2816119bc565b92915050565b600080600080600080600060e0888a031215611a0757611a0661179f565b5b6000611a158a828b01611855565b975050602088013567ffffffffffffffff811115611a3657611a356117a4565b5b611a428a828b01611982565b9650506040611a538a828b016117ca565b9550506060611a648a828b016117ca565b9450506080611a758a828b016117ca565b93505060a0611a868a828b016119d3565b92505060c0611a978a828b016117ca565b91505092959891949750929550565b611aaf816117a9565b82525050565b6000602082019050611aca6000830184611aa6565b92915050565b600060208284031215611ae657611ae561179f565b5b6000611af484828501611855565b91505092915050565b60008060408385031215611b1457611b1361179f565b5b6000611b22858286016117ca565b9250506020611b3385828601611855565b9150509250929050565b600080600080600080600060e0888a031215611b5c57611b5b61179f565b5b6000611b6a8a828b01611855565b975050602088013567ffffffffffffffff811115611b8b57611b8a6117a4565b5b611b978a828b01611982565b9650506040611ba88a828b016117ca565b9550506060611bb98a828b016117ca565b9450506080611bca8a828b016117ca565b93505060a0611bdb8a828b016119d3565b92505060c0611bec8a828b01611855565b91505092959891949750929550565b611c04816119b0565b82525050565b6000602082019050611c1f6000830184611bfb565b92915050565b6000819050919050565b6000611c4a611c45611c408461180c565b611c25565b61180c565b9050919050565b6000611c5c82611c2f565b9050919050565b6000611c6e82611c51565b9050919050565b611c7e81611c63565b82525050565b6000602082019050611c996000830184611c75565b92915050565b600080600060608486031215611cb857611cb761179f565b5b6000611cc686828701611855565b9350506020611cd7868287016117ca565b9250506040611ce8868287016117ca565b9150509250925092565b6000611cfd82611c51565b9050919050565b611d0d81611cf2565b82525050565b6000602082019050611d286000830184611d04565b92915050565b600060208284031215611d4457611d4361179f565b5b600082013567ffffffffffffffff811115611d6257611d616117a4565b5b611d6e84828501611982565b91505092915050565b611d808161182c565b82525050565b6000602082019050611d9b6000830184611d77565b92915050565b60008060008060008060c08789031215611dbe57611dbd61179f565b5b6000611dcc89828a01611855565b965050602087013567ffffffffffffffff811115611ded57611dec6117a4565b5b611df989828a01611982565b9550506040611e0a89828a016117ca565b9450506060611e1b89828a016117ca565b9350506080611e2c89828a016117ca565b92505060a0611e3d89828a016119d3565b9150509295509295509295565b600080600080600080600080610100898b031215611e6b57611e6a61179f565b5b6000611e798b828c01611855565b985050602089013567ffffffffffffffff811115611e9a57611e996117a4565b5b611ea68b828c01611982565b9750506040611eb78b828c016117ca565b9650506060611ec88b828c016117ca565b9550506080611ed98b828c016117ca565b94505060a0611eea8b828c016119d3565b93505060c0611efb8b828c01611855565b92505060e0611f0c8b828c016117ca565b9150509295985092959890939650565b600067ffffffffffffffff821115611f3757611f36611885565b5b611f4082611874565b9050602081019050919050565b6000611f60611f5b84611f1c565b6118e5565b905082815260208101848484011115611f7c57611f7b61186f565b5b611f87848285611931565b509392505050565b600082601f830112611fa457611fa361186a565b5b8135611fb4848260208601611f4d565b91505092915050565b60008060408385031215611fd457611fd361179f565b5b6000611fe285828601611855565b925050602083013567ffffffffffffffff811115612003576120026117a4565b5b61200f85828601611f8f565b9150509250929050565b600061202482611c51565b9050919050565b61203481612019565b82525050565b600060208201905061204f600083018461202b565b92915050565b600060408201905061206a6000830185611aa6565b6120776020830184611d77565b9392505050565b60006120898261182c565b9050919050565b6120998161207e565b81146120a457600080fd5b50565b6000815190506120b681612090565b92915050565b6000602082840312156120d2576120d161179f565b5b60006120e0848285016120a7565b91505092915050565b60006040820190506120fe6000830185611d77565b61210b6020830184611aa6565b9392505050565b60006040820190506121276000830185611d77565b6121346020830184611d77565b9392505050565b60008151905061214a8161183e565b92915050565b6000602082840312156121665761216561179f565b5b60006121748482850161213b565b91505092915050565b600082825260208201905092915050565b7f6f6e6c79206576656e7420686f73742063616e2063616c6c0000000000000000600082015250565b60006121c460188361217d565b91506121cf8261218e565b602082019050919050565b600060208201905081810360008301526121f3816121b7565b9050919050565b600060608201905061220f6000830186611d77565b61221c6020830185611aa6565b6122296040830184611aa6565b949350505050565b600081519050919050565b60005b8381101561225a57808201518184015260208101905061223f565b60008484015250505050565b600061227182612231565b61227b818561217d565b935061228b81856020860161223c565b61229481611874565b840191505092915050565b600060208201905081810360008301526122b98184612266565b905092915050565b6000815190506122d0816117b3565b92915050565b6000602082840312156122ec576122eb61179f565b5b60006122fa848285016122c1565b91505092915050565b600081905092915050565b7f5b00000000000000000000000000000000000000000000000000000000000000600082015250565b6000612344600183612303565b915061234f8261230e565b600182019050919050565b60008160601b9050919050565b60006123728261235a565b9050919050565b600061238482612367565b9050919050565b61239c6123978261182c565b612379565b82525050565b7f2c00000000000000000000000000000000000000000000000000000000000000600082015250565b60006123d8600183612303565b91506123e3826123a2565b600182019050919050565b7f5d00000000000000000000000000000000000000000000000000000000000000600082015250565b6000612424600183612303565b915061242f826123ee565b600182019050919050565b600061244582612337565b9150612451828561238b565b601482019150612460826123cb565b915061246c828461238b565b60148201915061247b82612417565b91508190509392505050565b7f7369676e617475726520697320696e76616c6964000000000000000000000000600082015250565b60006124bd60148361217d565b91506124c882612487565b602082019050919050565b600060208201905081810360008301526124ec816124b0565b9050919050565b60006040820190506125086000830185611d77565b818103602083015261251a8184612266565b90509392505050565b7f4f776e61626c653a206e6577206f776e657220697320746865207a65726f206160008201527f6464726573730000000000000000000000000000000000000000000000000000602082015250565b600061257f60268361217d565b915061258a82612523565b604082019050919050565b600060208201905081810360008301526125ae81612572565b9050919050565b7f5061757361626c653a2070617573656400000000000000000000000000000000600082015250565b60006125eb60108361217d565b91506125f6826125b5565b602082019050919050565b6000602082019050818103600083015261261a816125de565b9050919050565b7f4e487b7100000000000000000000000000000000000000000000000000000000600052602160045260246000fd5b6004811061266157612660612621565b5b50565b600081905061267282612650565b919050565b600061268282612664565b9050919050565b61269281612677565b82525050565b6000610100820190506126ae600083018b611d77565b81810360208301526126c0818a612266565b90506126cf6040830189611aa6565b6126dc6060830188611aa6565b6126e96080830187611aa6565b6126f660a0830186612689565b61270360c0830185611d77565b61271060e0830184611aa6565b9998505050505050505050565b7f4f776e61626c653a2063616c6c6572206973206e6f7420746865206f776e6572600082015250565b600061275360208361217d565b915061275e8261271d565b602082019050919050565b6000602082019050818103600083015261278281612746565b9050919050565b7f5061757361626c653a206e6f7420706175736564000000000000000000000000600082015250565b60006127bf60148361217d565b91506127ca82612789565b602082019050919050565b600060208201905081810360008301526127ee816127b2565b9050919050565b7f19457468657265756d205369676e6564204d6573736167653a0a333200000000600082015250565b600061282b601c83612303565b9150612836826127f5565b601c82019050919050565b6000819050919050565b6000819050919050565b61286661286182612841565b61284b565b82525050565b60006128778261281e565b91506128838284612855565b60208201915081905092915050565b7f45434453413a20696e76616c6964207369676e61747572650000000000000000600082015250565b60006128c860188361217d565b91506128d382612892565b602082019050919050565b600060208201905081810360008301526128f7816128bb565b9050919050565b7f45434453413a20696e76616c6964207369676e6174757265206c656e67746800600082015250565b6000612934601f8361217d565b915061293f826128fe565b602082019050919050565b6000602082019050818103600083015261296381612927565b9050919050565b7f45434453413a20696e76616c6964207369676e6174757265202773272076616c60008201527f7565000000000000000000000000000000000000000000000000000000000000602082015250565b60006129c660228361217d565b91506129d18261296a565b604082019050919050565b600060208201905081810360008301526129f5816129b9565b9050919050565b7f45434453413a20696e76616c6964207369676e6174757265202776272076616c60008201527f7565000000000000000000000000000000000000000000000000000000000000602082015250565b6000612a5860228361217d565b9150612a63826129fc565b604082019050919050565b60006020820190508181036000830152612a8781612a4b565b9050919050565b612a9781612841565b82525050565b600060ff82169050919050565b612ab381612a9d565b82525050565b6000608082019050612ace6000830187612a8e565b612adb6020830186612aaa565b612ae86040830185612a8e565b612af56060830184612a8e565b9594505050505056fea26469706673582212203669478b396c5d4be3855b903b87dc6b8fef7b2bf6d3cc6c0946fb8821124a5664736f6c63430008110033",
  "linkReferences": {},
  "deployedLinkReferences": {}
}