{
  "_format": "hh-sol-artifact-1",
  "contractName": "ETHRegistrarController",
  "sourceName": "contracts/ethregistrar/ETHRegistrarController.sol",
  "abi": [
    {
      "inputs": [
        {
          "internalType": "contract BaseRegistrarImplementation",
          "name": "_base",
          "type": "address"
        },
        {
          "internalType": "contract PriceOracle",
          "name": "_prices",
          "type": "address"
        },
        {
          "internalType": "uint256",
          "name": "_minCommitmentAge",
          "type": "uint256"
        },
        {
          "internalType": "uint256",
          "name": "_maxCommitmentAge",
          "type": "uint256"
        }
      ],
      "stateMutability": "nonpayable",
      "type": "constructor"
    },
    {
      "anonymous": false,
      "inputs": [
        {
          "indexed": false,
          "internalType": "string",
          "name": "name",
          "type": "string"
        },
        {
          "indexed": true,
          "internalType": "bytes32",
          "name": "label",
          "type": "bytes32"
        },
        {
          "indexed": true,
          "internalType": "address",
          "name": "owner",
          "type": "address"
        },
        {
          "indexed": false,
          "internalType": "uint256",
          "name": "cost",
          "type": "uint256"
        },
        {
          "indexed": false,
          "internalType": "uint256",
          "name": "expires",
          "type": "uint256"
        }
      ],
      "name": "NameRegistered",
      "type": "event"
    },
    {
      "anonymous": false,
      "inputs": [
        {
          "indexed": false,
          "internalType": "string",
          "name": "name",
          "type": "string"
        },
        {
          "indexed": true,
          "internalType": "bytes32",
          "name": "label",
          "type": "bytes32"
        },
        {
          "indexed": false,
          "internalType": "uint256",
          "name": "cost",
          "type": "uint256"
        },
        {
          "indexed": false,
          "internalType": "uint256",
          "name": "expires",
          "type": "uint256"
        }
      ],
      "name": "NameRenewed",
      "type": "event"
    },
    {
      "anonymous": false,
      "inputs": [
        {
          "indexed": true,
          "internalType": "address",
          "name": "oracle",
          "type": "address"
        }
      ],
      "name": "NewPriceOracle",
      "type": "event"
    },
    {
      "anonymous": false,
      "inputs": [
        {
          "indexed": true,
          "internalType": "address",
          "name": "previousOwner",
          "type": "address"
        },
        {
          "indexed": true,
          "internalType": "address",
          "name": "newOwner",
          "type": "address"
        }
      ],
      "name": "OwnershipTransferred",
      "type": "event"
    },
    {
      "inputs": [],
      "name": "MIN_REGISTRATION_DURATION",
      "outputs": [
        {
          "internalType": "uint256",
          "name": "",
          "type": "uint256"
        }
      ],
      "stateMutability": "view",
      "type": "function"
    },
    {
      "inputs": [
        {
          "internalType": "string",
          "name": "name",
          "type": "string"
        }
      ],
      "name": "available",
      "outputs": [
        {
          "internalType": "bool",
          "name": "",
          "type": "bool"
        }
      ],
      "stateMutability": "view",
      "type": "function"
    },
    {
      "inputs": [
        {
          "internalType": "bytes32",
          "name": "commitment",
          "type": "bytes32"
        }
      ],
      "name": "commit",
      "outputs": [],
      "stateMutability": "nonpayable",
      "type": "function"
    },
    {
      "inputs": [
        {
          "internalType": "bytes32",
          "name": "",
          "type": "bytes32"
        }
      ],
      "name": "commitments",
      "outputs": [
        {
          "internalType": "uint256",
          "name": "",
          "type": "uint256"
        }
      ],
      "stateMutability": "view",
      "type": "function"
    },
    {
      "inputs": [
        {
          "internalType": "string",
          "name": "name",
          "type": "string"
        },
        {
          "internalType": "address",
          "name": "owner",
          "type": "address"
        },
        {
          "internalType": "bytes32",
          "name": "secret",
          "type": "bytes32"
        }
      ],
      "name": "makeCommitment",
      "outputs": [
        {
          "internalType": "bytes32",
          "name": "",
          "type": "bytes32"
        }
      ],
      "stateMutability": "pure",
      "type": "function"
    },
    {
      "inputs": [
        {
          "internalType": "string",
          "name": "name",
          "type": "string"
        },
        {
          "internalType": "address",
          "name": "owner",
          "type": "address"
        },
        {
          "internalType": "bytes32",
          "name": "secret",
          "type": "bytes32"
        },
        {
          "internalType": "address",
          "name": "resolver",
          "type": "address"
        },
        {
          "internalType": "address",
          "name": "addr",
          "type": "address"
        }
      ],
      "name": "makeCommitmentWithConfig",
      "outputs": [
        {
          "internalType": "bytes32",
          "name": "",
          "type": "bytes32"
        }
      ],
      "stateMutability": "pure",
      "type": "function"
    },
    {
      "inputs": [],
      "name": "maxCommitmentAge",
      "outputs": [
        {
          "internalType": "uint256",
          "name": "",
          "type": "uint256"
        }
      ],
      "stateMutability": "view",
      "type": "function"
    },
    {
      "inputs": [],
      "name": "minCommitmentAge",
      "outputs": [
        {
          "internalType": "uint256",
          "name": "",
          "type": "uint256"
        }
      ],
      "stateMutability": "view",
      "type": "function"
    },
    {
      "inputs": [],
      "name": "owner",
      "outputs": [
        {
          "internalType": "address",
          "name": "",
          "type": "address"
        }
      ],
      "stateMutability": "view",
      "type": "function"
    },
    {
      "inputs": [
        {
          "internalType": "string",
          "name": "name",
          "type": "string"
        },
        {
          "internalType": "address",
          "name": "owner",
          "type": "address"
        },
        {
          "internalType": "uint256",
          "name": "duration",
          "type": "uint256"
        },
        {
          "internalType": "bytes32",
          "name": "secret",
          "type": "bytes32"
        }
      ],
      "name": "register",
      "outputs": [],
      "stateMutability": "payable",
      "type": "function"
    },
    {
      "inputs": [
        {
          "internalType": "string",
          "name": "name",
          "type": "string"
        },
        {
          "internalType": "address",
          "name": "owner",
          "type": "address"
        },
        {
          "internalType": "uint256",
          "name": "duration",
          "type": "uint256"
        },
        {
          "internalType": "bytes32",
          "name": "secret",
          "type": "bytes32"
        },
        {
          "internalType": "address",
          "name": "resolver",
          "type": "address"
        },
        {
          "internalType": "address",
          "name": "addr",
          "type": "address"
        }
      ],
      "name": "registerWithConfig",
      "outputs": [],
      "stateMutability": "payable",
      "type": "function"
    },
    {
      "inputs": [
        {
          "internalType": "string",
          "name": "name",
          "type": "string"
        },
        {
          "internalType": "uint256",
          "name": "duration",
          "type": "uint256"
        }
      ],
      "name": "renew",
      "outputs": [],
      "stateMutability": "payable",
      "type": "function"
    },
    {
      "inputs": [],
      "name": "renounceOwnership",
      "outputs": [],
      "stateMutability": "nonpayable",
      "type": "function"
    },
    {
      "inputs": [
        {
          "internalType": "string",
          "name": "name",
          "type": "string"
        },
        {
          "internalType": "uint256",
          "name": "duration",
          "type": "uint256"
        }
      ],
      "name": "rentPrice",
      "outputs": [
        {
          "internalType": "uint256",
          "name": "",
          "type": "uint256"
        }
      ],
      "stateMutability": "view",
      "type": "function"
    },
    {
      "inputs": [
        {
          "internalType": "uint256",
          "name": "_minCommitmentAge",
          "type": "uint256"
        },
        {
          "internalType": "uint256",
          "name": "_maxCommitmentAge",
          "type": "uint256"
        }
      ],
      "name": "setCommitmentAges",
      "outputs": [],
      "stateMutability": "nonpayable",
      "type": "function"
    },
    {
      "inputs": [
        {
          "internalType": "contract PriceOracle",
          "name": "_prices",
          "type": "address"
        }
      ],
      "name": "setPriceOracle",
      "outputs": [],
      "stateMutability": "nonpayable",
      "type": "function"
    },
    {
      "inputs": [
        {
          "internalType": "bytes4",
          "name": "interfaceID",
          "type": "bytes4"
        }
      ],
      "name": "supportsInterface",
      "outputs": [
        {
          "internalType": "bool",
          "name": "",
          "type": "bool"
        }
      ],
      "stateMutability": "pure",
      "type": "function"
    },
    {
      "inputs": [
        {
          "internalType": "address",
          "name": "newOwner",
          "type": "address"
        }
      ],
      "name": "transferOwnership",
      "outputs": [],
      "stateMutability": "nonpayable",
      "type": "function"
    },
    {
      "inputs": [
        {
          "internalType": "string",
          "name": "name",
          "type": "string"
        }
      ],
      "name": "valid",
      "outputs": [
        {
          "internalType": "bool",
          "name": "",
          "type": "bool"
        }
      ],
      "stateMutability": "pure",
      "type": "function"
    },
    {
      "inputs": [],
      "name": "withdraw",
      "outputs": [],
      "stateMutability": "nonpayable",
      "type": "function"
    }
  ],
  "bytecode": "0x60806040523480156200001157600080fd5b5060405162002cf138038062002cf18339818101604052810190620000379190620001db565b6000620000496200018e60201b60201c565b9050806000806101000a81548173ffffffffffffffffffffffffffffffffffffffff021916908373ffffffffffffffffffffffffffffffffffffffff1602179055508073ffffffffffffffffffffffffffffffffffffffff16600073ffffffffffffffffffffffffffffffffffffffff167f8be0079c531659141344cd1fd0a4f28419497f9722a3daafe3b4186f6b6457e060405160405180910390a350818111620000f457600080fd5b83600160006101000a81548173ffffffffffffffffffffffffffffffffffffffff021916908373ffffffffffffffffffffffffffffffffffffffff16021790555082600260006101000a81548173ffffffffffffffffffffffffffffffffffffffff021916908373ffffffffffffffffffffffffffffffffffffffff160217905550816003819055508060048190555050505050620002fb565b600033905090565b600081519050620001a781620002ad565b92915050565b600081519050620001be81620002c7565b92915050565b600081519050620001d581620002e1565b92915050565b60008060008060808587031215620001f257600080fd5b6000620002028782880162000196565b94505060206200021587828801620001ad565b93505060406200022887828801620001c4565b92505060606200023b87828801620001c4565b91505092959194509250565b6000620002548262000283565b9050919050565b6000620002688262000247565b9050919050565b60006200027c8262000247565b9050919050565b600073ffffffffffffffffffffffffffffffffffffffff82169050919050565b6000819050919050565b620002b8816200025b565b8114620002c457600080fd5b50565b620002d2816200026f565b8114620002de57600080fd5b50565b620002ec81620002a3565b8114620002f857600080fd5b50565b6129e6806200030b6000396000f3fe60806040526004361061011f5760003560e01c80638d839ffe116100a0578063ce1e09c011610064578063ce1e09c0146103cb578063f14fcbc8146103f6578063f2fde38b1461041f578063f49826be14610448578063f7a16963146104855761011f565b80638d839ffe146102df5780638da5cb5b1461030a5780639791c09714610335578063acf1a84114610372578063aeb8ce9b1461038e5761011f565b80637e324479116100e75780637e324479146101f5578063839df9451461021e57806383e7f6ff1461025b57806385f6d155146102985780638a95b09f146102b45761011f565b806301ffc9a7146101245780633ccfd60b146101615780633d86c52f14610178578063530e784f146101b5578063715018a6146101de575b600080fd5b34801561013057600080fd5b5061014b60048036038101906101469190611d75565b6104a1565b60405161015891906123c7565b60405180910390f35b34801561016d57600080fd5b506101766106a7565b005b34801561018457600080fd5b5061019f600480360381019061019a9190611f70565b61076c565b6040516101ac91906123e2565b60405180910390f35b3480156101c157600080fd5b506101dc60048036038101906101d79190611dc7565b61088f565b005b3480156101ea57600080fd5b506101f36109b4565b005b34801561020157600080fd5b5061021c6004803603810190610217919061211d565b610aee565b005b34801561022a57600080fd5b5061024560048036038101906102409190611d23565b610b7c565b60405161025291906124e4565b60405180910390f35b34801561026757600080fd5b50610282600480360381019061027d91906120a0565b610b94565b60405161028f91906124e4565b60405180910390f35b6102b260048036038101906102ad9190611df0565b610d06565b005b3480156102c057600080fd5b506102c9610d60565b6040516102d691906124e4565b60405180910390f35b3480156102eb57600080fd5b506102f4610d67565b60405161030191906124e4565b60405180910390f35b34801561031657600080fd5b5061031f610d6d565b60405161032c9190612375565b60405180910390f35b34801561034157600080fd5b5061035c60048036038101906103579190611ec8565b610d96565b60405161036991906123c7565b60405180910390f35b61038c60048036038101906103879190611e70565b610dac565b005b34801561039a57600080fd5b506103b560048036038101906103b09190611ec8565b610f7e565b6040516103c291906123c7565b60405180910390f35b3480156103d757600080fd5b506103e0611052565b6040516103ed91906124e4565b60405180910390f35b34801561040257600080fd5b5061041d60048036038101906104189190611d23565b611058565b005b34801561042b57600080fd5b5061044660048036038101906104419190611cd1565b61109f565b005b34801561045457600080fd5b5061046f600480360381019061046a9190611f09565b611248565b60405161047c91906123e2565b60405180910390f35b61049f600480360381019061049a9190611fff565b611261565b005b60007f01ffc9a7a5cef8baa21ed3c5c0d7e23accb804b619e9333b597f47a0d84076e27bffffffffffffffffffffffffffffffffffffffffffffffffffffffff1916827bffffffffffffffffffffffffffffffffffffffffffffffffffffffff1916148061061657507facf1a8418b97267ffdb4c11281360744af0ddfe62846b256a04a02acee3a53c37f85f6d1554d9d3ed5c2776e29804063f395dfd65a8dc71f4d1cb6f073d7ee75a37ff14fcbc8f6996b31406143e2613e60bde3c1118cfe166c0aa27ba40ef1033df57ff49826be766d3cc8dc7e4aab3f18eb3d339eb3bce85a7b9144119bbe997b2cc37faeb8ce9b70d5d3f3fba501c34cd61a54703dbe3cfb25bd75d3574635f9ea76837f83e7f6ff8df5fd22801ca995afba5d2bc5cac5264a339adb4a410c5da6c4332418181818187bffffffffffffffffffffffffffffffffffffffffffffffffffffffff1916827bffffffffffffffffffffffffffffffffffffffffffffffffffffffff1916145b806106a057507f3d86c52f15403f1a062ec90b8fe0792e3be0a9cb236cd8ee4ec4b45821bd2faa7ff7a169630bfe39d181bbd2e0b758ee9f1a6ddc0eca0932c13225406d06d41653187bffffffffffffffffffffffffffffffffffffffffffffffffffffffff1916827bffffffffffffffffffffffffffffffffffffffffffffffffffffffff1916145b9050919050565b6106af6118c5565b73ffffffffffffffffffffffffffffffffffffffff166106cd610d6d565b73ffffffffffffffffffffffffffffffffffffffff1614610723576040517f08c379a000000000000000000000000000000000000000000000000000000000815260040161071a906124c4565b60405180910390fd5b3373ffffffffffffffffffffffffffffffffffffffff166108fc479081150290604051600060405180830381858888f19350505050158015610769573d6000803e3d6000fd5b50565b60008086805190602001209050600073ffffffffffffffffffffffffffffffffffffffff168473ffffffffffffffffffffffffffffffffffffffff161480156107e15750600073ffffffffffffffffffffffffffffffffffffffff168373ffffffffffffffffffffffffffffffffffffffff16145b15610819578086866040516020016107fb939291906122f3565b60405160208183030381529060405280519060200120915050610886565b600073ffffffffffffffffffffffffffffffffffffffff168473ffffffffffffffffffffffffffffffffffffffff16141561085357600080fd5b808685858860405160200161086c959493929190612294565b604051602081830303815290604052805190602001209150505b95945050505050565b6108976118c5565b73ffffffffffffffffffffffffffffffffffffffff166108b5610d6d565b73ffffffffffffffffffffffffffffffffffffffff161461090b576040517f08c379a0000000000000000000000000000000000000000000000000000000008152600401610902906124c4565b60405180910390fd5b80600260006101000a81548173ffffffffffffffffffffffffffffffffffffffff021916908373ffffffffffffffffffffffffffffffffffffffff160217905550600260009054906101000a900473ffffffffffffffffffffffffffffffffffffffff1673ffffffffffffffffffffffffffffffffffffffff167ff261845a790fe29bbd6631e2ca4a5bdc83e6eed7c3271d9590d97287e00e912360405160405180910390a250565b6109bc6118c5565b73ffffffffffffffffffffffffffffffffffffffff166109da610d6d565b73ffffffffffffffffffffffffffffffffffffffff1614610a30576040517f08c379a0000000000000000000000000000000000000000000000000000000008152600401610a27906124c4565b60405180910390fd5b600073ffffffffffffffffffffffffffffffffffffffff1660008054906101000a900473ffffffffffffffffffffffffffffffffffffffff1673ffffffffffffffffffffffffffffffffffffffff167f8be0079c531659141344cd1fd0a4f28419497f9722a3daafe3b4186f6b6457e060405160405180910390a360008060006101000a81548173ffffffffffffffffffffffffffffffffffffffff021916908373ffffffffffffffffffffffffffffffffffffffff160217905550565b610af66118c5565b73ffffffffffffffffffffffffffffffffffffffff16610b14610d6d565b73ffffffffffffffffffffffffffffffffffffffff1614610b6a576040517f08c379a0000000000000000000000000000000000000000000000000000000008152600401610b61906124c4565b60405180910390fd5b81600381905550806004819055505050565b60056020528060005260406000206000915090505481565b60008083805190602001209050600260009054906101000a900473ffffffffffffffffffffffffffffffffffffffff1673ffffffffffffffffffffffffffffffffffffffff166350e9a71585600160009054906101000a900473ffffffffffffffffffffffffffffffffffffffff1673ffffffffffffffffffffffffffffffffffffffff1663d6e4fa868560001c6040518263ffffffff1660e01b8152600401610c3e91906124e4565b60206040518083038186803b158015610c5657600080fd5b505afa158015610c6a573d6000803e3d6000fd5b505050506040513d601f19601f82011682018060405250810190610c8e91906120f4565b866040518463ffffffff1660e01b8152600401610cad93929190612466565b60206040518083038186803b158015610cc557600080fd5b505afa158015610cd9573d6000803e3d6000fd5b505050506040513d601f19601f82011682018060405250810190610cfd91906120f4565b91505092915050565b610d5985858080601f016020809104026020016040519081016040528093929190818152602001838380828437600081840152601f19601f82011690508083019250505050505050848484600080611261565b5050505050565b6224ea0081565b60035481565b60008060009054906101000a900473ffffffffffffffffffffffffffffffffffffffff16905090565b60006003610da3836118cd565b10159050919050565b6000610dfc84848080601f016020809104026020016040519081016040528093929190818152602001838380828437600081840152601f19601f8201169050808301925050505050505083610b94565b905080341015610e0b57600080fd5b60008484604051610e1d92919061235c565b604051809103902090506000600160009054906101000a900473ffffffffffffffffffffffffffffffffffffffff1673ffffffffffffffffffffffffffffffffffffffff1663c475abff8360001c866040518363ffffffff1660e01b8152600401610e8992919061255f565b602060405180830381600087803b158015610ea357600080fd5b505af1158015610eb7573d6000803e3d6000fd5b505050506040513d601f19601f82011682018060405250810190610edb91906120f4565b905082341115610f38573373ffffffffffffffffffffffffffffffffffffffff166108fc8434610f0b919061265b565b9081150290604051600060405180830381858888f19350505050158015610f36573d6000803e3d6000fd5b505b817f3da24c024582931cfaf8267d8ed24d13a82a8068d5bd337d30ec45cea4e506ae87878685604051610f6e9493929190612426565b60405180910390a2505050505050565b60008082805190602001209050610f9483610d96565b801561104a5750600160009054906101000a900473ffffffffffffffffffffffffffffffffffffffff1673ffffffffffffffffffffffffffffffffffffffff166396e494e88260001c6040518263ffffffff1660e01b8152600401610ff991906124e4565b60206040518083038186803b15801561101157600080fd5b505afa158015611025573d6000803e3d6000fd5b505050506040513d601f19601f820116820180604052508101906110499190611cfa565b5b915050919050565b60045481565b42600454600560008481526020019081526020016000205461107a9190612605565b1061108457600080fd5b42600560008381526020019081526020016000208190555050565b6110a76118c5565b73ffffffffffffffffffffffffffffffffffffffff166110c5610d6d565b73ffffffffffffffffffffffffffffffffffffffff161461111b576040517f08c379a0000000000000000000000000000000000000000000000000000000008152600401611112906124c4565b60405180910390fd5b600073ffffffffffffffffffffffffffffffffffffffff168173ffffffffffffffffffffffffffffffffffffffff16141561118b576040517f08c379a0000000000000000000000000000000000000000000000000000000008152600401611182906124a4565b60405180910390fd5b8073ffffffffffffffffffffffffffffffffffffffff1660008054906101000a900473ffffffffffffffffffffffffffffffffffffffff1673ffffffffffffffffffffffffffffffffffffffff167f8be0079c531659141344cd1fd0a4f28419497f9722a3daafe3b4186f6b6457e060405160405180910390a3806000806101000a81548173ffffffffffffffffffffffffffffffffffffffff021916908373ffffffffffffffffffffffffffffffffffffffff16021790555050565b600061125884848460008061076c565b90509392505050565b6000611270878786868661076c565b9050600061127f888784611aa8565b905060008880519060200120905060008160001c905060008073ffffffffffffffffffffffffffffffffffffffff168773ffffffffffffffffffffffffffffffffffffffff161461171d57600160009054906101000a900473ffffffffffffffffffffffffffffffffffffffff1673ffffffffffffffffffffffffffffffffffffffff1663fca247ac83308c6040518463ffffffff1660e01b815260040161132993929190612528565b602060405180830381600087803b15801561134357600080fd5b505af1158015611357573d6000803e3d6000fd5b505050506040513d601f19601f8201168201806040525081019061137b91906120f4565b90506000600160009054906101000a900473ffffffffffffffffffffffffffffffffffffffff1673ffffffffffffffffffffffffffffffffffffffff1663ddf7fcb06040518163ffffffff1660e01b815260040160206040518083038186803b1580156113e757600080fd5b505afa1580156113fb573d6000803e3d6000fd5b505050506040513d601f19601f8201168201806040525081019061141f9190611d4c565b84604051602001611431929190612330565b604051602081830303815290604052805190602001209050600160009054906101000a900473ffffffffffffffffffffffffffffffffffffffff1673ffffffffffffffffffffffffffffffffffffffff16633f15457f6040518163ffffffff1660e01b815260040160206040518083038186803b1580156114b157600080fd5b505afa1580156114c5573d6000803e3d6000fd5b505050506040513d601f19601f820116820180604052508101906114e99190611d9e565b73ffffffffffffffffffffffffffffffffffffffff16631896f70a828a6040518363ffffffff1660e01b81526004016115239291906123fd565b600060405180830381600087803b15801561153d57600080fd5b505af1158015611551573d6000803e3d6000fd5b50505050600073ffffffffffffffffffffffffffffffffffffffff168773ffffffffffffffffffffffffffffffffffffffff16146115f7578773ffffffffffffffffffffffffffffffffffffffff1663d5fa2b0082896040518363ffffffff1660e01b81526004016115c49291906123fd565b600060405180830381600087803b1580156115de57600080fd5b505af11580156115f2573d6000803e3d6000fd5b505050505b600160009054906101000a900473ffffffffffffffffffffffffffffffffffffffff1673ffffffffffffffffffffffffffffffffffffffff166328ed4f6c848d6040518363ffffffff1660e01b81526004016116549291906124ff565b600060405180830381600087803b15801561166e57600080fd5b505af1158015611682573d6000803e3d6000fd5b50505050600160009054906101000a900473ffffffffffffffffffffffffffffffffffffffff1673ffffffffffffffffffffffffffffffffffffffff166323b872dd308d866040518463ffffffff1660e01b81526004016116e593929190612390565b600060405180830381600087803b1580156116ff57600080fd5b505af1158015611713573d6000803e3d6000fd5b505050505061180a565b600073ffffffffffffffffffffffffffffffffffffffff168673ffffffffffffffffffffffffffffffffffffffff161461175657600080fd5b600160009054906101000a900473ffffffffffffffffffffffffffffffffffffffff1673ffffffffffffffffffffffffffffffffffffffff1663fca247ac838c8c6040518463ffffffff1660e01b81526004016117b593929190612528565b602060405180830381600087803b1580156117cf57600080fd5b505af11580156117e3573d6000803e3d6000fd5b505050506040513d601f19601f8201168201806040525081019061180791906120f4565b90505b8973ffffffffffffffffffffffffffffffffffffffff16837fca6abbe9d7f11422cb6ca7629fbf6fe9efb1c621f71ce8f02b9f2a230097404f8d878560405161185593929190612466565b60405180910390a3833411156118b8573373ffffffffffffffffffffffffffffffffffffffff166108fc853461188b919061265b565b9081150290604051600060405180830381858888f193505050501580156118b6573d6000803e3d6000fd5b505b5050505050505050505050565b600033905090565b60008060008084519050600092505b80821015611a9d57600085838151811061191f577f4e487b7100000000000000000000000000000000000000000000000000000000600052603260045260246000fd5b602001015160f81c60f81b9050608060f81b817effffffffffffffffffffffffffffffffffffffffffffffffffffffffffffff1916101561196e576001836119679190612605565b9250611a89565b60e060f81b817effffffffffffffffffffffffffffffffffffffffffffffffffffffffffffff191610156119b0576002836119a99190612605565b9250611a88565b60f060f81b817effffffffffffffffffffffffffffffffffffffffffffffffffffffffffffff191610156119f2576003836119eb9190612605565b9250611a87565b60f8801b817effffffffffffffffffffffffffffffffffffffffffffffffffffffffffffff19161015611a3357600483611a2c9190612605565b9250611a86565b60fc60f81b817effffffffffffffffffffffffffffffffffffffffffffffffffffffffffffff19161015611a7557600583611a6e9190612605565b9250611a85565b600683611a829190612605565b92505b5b5b5b5b508280611a95906127a4565b9350506118dc565b829350505050919050565b6000426003546005600085815260200190815260200160002054611acc9190612605565b1115611ad757600080fd5b426004546005600085815260200190815260200160002054611af99190612605565b11611b0357600080fd5b611b0c84610f7e565b611b1557600080fd5b60056000838152602001908152602001600020600090556000611b388585610b94565b90506224ea00841015611b4a57600080fd5b80341015611b5757600080fd5b809150509392505050565b6000611b75611b70846125ad565b612588565b905082815260208101848484011115611b8d57600080fd5b611b98848285612731565b509392505050565b600081359050611baf8161290f565b92915050565b600081519050611bc481612926565b92915050565b600081359050611bd98161293d565b92915050565b600081519050611bee8161293d565b92915050565b600081359050611c0381612954565b92915050565b600081519050611c188161296b565b92915050565b600081359050611c2d81612982565b92915050565b60008083601f840112611c4557600080fd5b8235905067ffffffffffffffff811115611c5e57600080fd5b602083019150836001820283011115611c7657600080fd5b9250929050565b600082601f830112611c8e57600080fd5b8135611c9e848260208601611b62565b91505092915050565b600081359050611cb681612999565b92915050565b600081519050611ccb81612999565b92915050565b600060208284031215611ce357600080fd5b6000611cf184828501611ba0565b91505092915050565b600060208284031215611d0c57600080fd5b6000611d1a84828501611bb5565b91505092915050565b600060208284031215611d3557600080fd5b6000611d4384828501611bca565b91505092915050565b600060208284031215611d5e57600080fd5b6000611d6c84828501611bdf565b91505092915050565b600060208284031215611d8757600080fd5b6000611d9584828501611bf4565b91505092915050565b600060208284031215611db057600080fd5b6000611dbe84828501611c09565b91505092915050565b600060208284031215611dd957600080fd5b6000611de784828501611c1e565b91505092915050565b600080600080600060808688031215611e0857600080fd5b600086013567ffffffffffffffff811115611e2257600080fd5b611e2e88828901611c33565b95509550506020611e4188828901611ba0565b9350506040611e5288828901611ca7565b9250506060611e6388828901611bca565b9150509295509295909350565b600080600060408486031215611e8557600080fd5b600084013567ffffffffffffffff811115611e9f57600080fd5b611eab86828701611c33565b93509350506020611ebe86828701611ca7565b9150509250925092565b600060208284031215611eda57600080fd5b600082013567ffffffffffffffff811115611ef457600080fd5b611f0084828501611c7d565b91505092915050565b600080600060608486031215611f1e57600080fd5b600084013567ffffffffffffffff811115611f3857600080fd5b611f4486828701611c7d565b9350506020611f5586828701611ba0565b9250506040611f6686828701611bca565b9150509250925092565b600080600080600060a08688031215611f8857600080fd5b600086013567ffffffffffffffff811115611fa257600080fd5b611fae88828901611c7d565b9550506020611fbf88828901611ba0565b9450506040611fd088828901611bca565b9350506060611fe188828901611ba0565b9250506080611ff288828901611ba0565b9150509295509295909350565b60008060008060008060c0878903121561201857600080fd5b600087013567ffffffffffffffff81111561203257600080fd5b61203e89828a01611c7d565b965050602061204f89828a01611ba0565b955050604061206089828a01611ca7565b945050606061207189828a01611bca565b935050608061208289828a01611ba0565b92505060a061209389828a01611ba0565b9150509295509295509295565b600080604083850312156120b357600080fd5b600083013567ffffffffffffffff8111156120cd57600080fd5b6120d985828601611c7d565b92505060206120ea85828601611ca7565b9150509250929050565b60006020828403121561210657600080fd5b600061211484828501611cbc565b91505092915050565b6000806040838503121561213057600080fd5b600061213e85828601611ca7565b925050602061214f85828601611ca7565b9150509250929050565b6121628161268f565b82525050565b6121796121748261268f565b6127ed565b82525050565b612188816126a1565b82525050565b612197816126ad565b82525050565b6121ae6121a9826126ad565b6127ff565b82525050565b60006121c083856125e9565b93506121cd838584612731565b82840190509392505050565b60006121e583856125f4565b93506121f2838584612731565b6121fb83612879565b840190509392505050565b6000612211826125de565b61221b81856125f4565b935061222b818560208601612740565b61223481612879565b840191505092915050565b600061224c6026836125f4565b915061225782612897565b604082019050919050565b600061226f6020836125f4565b915061227a826128e6565b602082019050919050565b61228e81612727565b82525050565b60006122a0828861219d565b6020820191506122b08287612168565b6014820191506122c08286612168565b6014820191506122d08285612168565b6014820191506122e0828461219d565b6020820191508190509695505050505050565b60006122ff828661219d565b60208201915061230f8285612168565b60148201915061231f828461219d565b602082019150819050949350505050565b600061233c828561219d565b60208201915061234c828461219d565b6020820191508190509392505050565b60006123698284866121b4565b91508190509392505050565b600060208201905061238a6000830184612159565b92915050565b60006060820190506123a56000830186612159565b6123b26020830185612159565b6123bf6040830184612285565b949350505050565b60006020820190506123dc600083018461217f565b92915050565b60006020820190506123f7600083018461218e565b92915050565b6000604082019050612412600083018561218e565b61241f6020830184612159565b9392505050565b600060608201905081810360008301526124418186886121d9565b90506124506020830185612285565b61245d6040830184612285565b95945050505050565b600060608201905081810360008301526124808186612206565b905061248f6020830185612285565b61249c6040830184612285565b949350505050565b600060208201905081810360008301526124bd8161223f565b9050919050565b600060208201905081810360008301526124dd81612262565b9050919050565b60006020820190506124f96000830184612285565b92915050565b60006040820190506125146000830185612285565b6125216020830184612159565b9392505050565b600060608201905061253d6000830186612285565b61254a6020830185612159565b6125576040830184612285565b949350505050565b60006040820190506125746000830185612285565b6125816020830184612285565b9392505050565b60006125926125a3565b905061259e8282612773565b919050565b6000604051905090565b600067ffffffffffffffff8211156125c8576125c761284a565b5b6125d182612879565b9050602081019050919050565b600081519050919050565b600081905092915050565b600082825260208201905092915050565b600061261082612727565b915061261b83612727565b9250827fffffffffffffffffffffffffffffffffffffffffffffffffffffffffffffffff038211156126505761264f61281b565b5b828201905092915050565b600061266682612727565b915061267183612727565b9250828210156126845761268361281b565b5b828203905092915050565b600061269a82612707565b9050919050565b60008115159050919050565b6000819050919050565b60007fffffffff0000000000000000000000000000000000000000000000000000000082169050919050565b60006126ee8261268f565b9050919050565b60006127008261268f565b9050919050565b600073ffffffffffffffffffffffffffffffffffffffff82169050919050565b6000819050919050565b82818337600083830152505050565b60005b8381101561275e578082015181840152602081019050612743565b8381111561276d576000848401525b50505050565b61277c82612879565b810181811067ffffffffffffffff8211171561279b5761279a61284a565b5b80604052505050565b60006127af82612727565b91507fffffffffffffffffffffffffffffffffffffffffffffffffffffffffffffffff8214156127e2576127e161281b565b5b600182019050919050565b60006127f882612809565b9050919050565b6000819050919050565b60006128148261288a565b9050919050565b7f4e487b7100000000000000000000000000000000000000000000000000000000600052601160045260246000fd5b7f4e487b7100000000000000000000000000000000000000000000000000000000600052604160045260246000fd5b6000601f19601f8301169050919050565b60008160601b9050919050565b7f4f776e61626c653a206e6577206f776e657220697320746865207a65726f206160008201527f6464726573730000000000000000000000000000000000000000000000000000602082015250565b7f4f776e61626c653a2063616c6c6572206973206e6f7420746865206f776e6572600082015250565b6129188161268f565b811461292357600080fd5b50565b61292f816126a1565b811461293a57600080fd5b50565b612946816126ad565b811461295157600080fd5b50565b61295d816126b7565b811461296857600080fd5b50565b612974816126e3565b811461297f57600080fd5b50565b61298b816126f5565b811461299657600080fd5b50565b6129a281612727565b81146129ad57600080fd5b5056fea264697066735822122029cdcc188dd976d312c4552184803cea8f6297dac82c00dfeaf6ec7bbccecf4f64736f6c63430008040033",
  "linkReferences": {},
  "deployedLinkReferences": {}
}