{
  "_format": "hh-sol-artifact-1",
  "contractName": "SHA1Digest",
  "sourceName": "contracts/dnssec-oracle/digests/SHA1Digest.sol",
  "abi": [
    {
      "inputs": [
        {
          "internalType": "bytes",
          "name": "data",
          "type": "bytes"
        },
        {
          "internalType": "bytes",
          "name": "hash",
          "type": "bytes"
        }
      ],
      "name": "verify",
      "outputs": [
        {
          "internalType": "bool",
          "name": "",
          "type": "bool"
        }
      ],
      "stateMutability": "pure",
      "type": "function"
    }
  ],
  "bytecode": "0x608060405234801561001057600080fd5b50610860806100206000396000f3fe608060405234801561001057600080fd5b506004361061002b5760003560e01c8063f7e83aee14610030575b600080fd5b61004a600480360381019061004591906106f0565b610060565b6040516100579190610774565b60405180910390f35b6000806100bb600085858080601f016020809104026020016040519081016040528093929190818152602001838380828437600081840152601f19601f8201169050808301925050505050505061013b90919063ffffffff16565b6bffffffffffffffffffffffff19169050600061011b87878080601f016020809104026020016040519081016040528093929190818152602001838380828437600081840152601f19601f82011690508083019250505050505050610188565b9050806bffffffffffffffffffffffff1916821492505050949350505050565b6000825160148361014c919061078f565b111561015757600080fd5b7fffffffffffffffffffffffffffffffffffffffff0000000000000000000000008260208501015116905092915050565b60006040518251602084019350604067ffffffffffffffc0600183011601600982820310600181146101b9576101c0565b6040820191505b50776745230100efcdab890098badcfe001032547600c3d2e1f0610218565b6000838310156102115782820151905082840393506020841015610210576001846020036101000a03198082169150505b5b9392505050565b60005b828110156106265761022e8482896101df565b855261023e8460208301896101df565b6020860152604081850310600181146102565761025f565b60808286038701535b506040830381146001811461027357610283565b6008850260208701511760208701525b5060405b608081101561030f5760408103860151603882038701511860208203870151600c830388015118187c010000000100000001000000010000000100000001000000010000000163800000008204167ffffffffefffffffefffffffefffffffefffffffefffffffefffffffefffffffe6002830216179050808288015250600c81019050610287565b5060805b61014081101561039c57608081038601516070820387015118604082038701516018830388015118187c030000000300000003000000030000000300000003000000030000000363400000008204167ffffffffcfffffffcfffffffcfffffffcfffffffcfffffffcfffffffcfffffffc6004830216179050808288015250601881019050610313565b508160008060005b60508110156105f85760148104600081146103d65760018114610420576002811461045d57600381146104c0576104f9565b6501000000000085046a01000000000000000000008604189350836f01000000000000000000000000000000860416935083650100000000008604189350635a82799992506104f9565b6a010000000000000000000085046f01000000000000000000000000000000860418935083650100000000008604189350636ed9eba192506104f9565b6a010000000000000000000085046f01000000000000000000000000000000860417935083650100000000008604169350836a010000000000000000000086046f01000000000000000000000000000000870416179350638f1bbcdc92506104f9565b6a010000000000000000000085046f0100000000000000000000000000000086041893508365010000000000860418935063ca62c1d692505b50601f770800000000000000000000000000000000000000000000008504168063ffffffe073080000000000000000000000000000000000000087041617905080840190508063ffffffff86160190508083019050807c0100000000000000000000000000000000000000000000000000000000600484028c0151040190507401000000000000000000000000000000000000000081026501000000000086041794506a0100000000000000000000633fffffff6a040000000000000000000087041663c00000006604000000000000880416170277ffffffff00ffffffff000000000000ffffffff00ffffffff8616179450506001810190506103a4565b5077ffffffff00ffffffff00ffffffff00ffffffff00ffffffff83860116945050505060408101905061021b565b506c0100000000000000000000000063ffffffff821667ffffffff000000006101008404166bffffffff0000000000000000620100008504166fffffffff000000000000000000000000630100000086041673ffffffff000000000000000000000000000000006401000000008704161717171702945050505050919050565b60008083601f8401126106b857600080fd5b8235905067ffffffffffffffff8111156106d157600080fd5b6020830191508360018202830111156106e957600080fd5b9250929050565b6000806000806040858703121561070657600080fd5b600085013567ffffffffffffffff81111561072057600080fd5b61072c878288016106a6565b9450945050602085013567ffffffffffffffff81111561074b57600080fd5b610757878288016106a6565b925092505092959194509250565b61076e816107e5565b82525050565b60006020820190506107896000830184610765565b92915050565b600061079a826107f1565b91506107a5836107f1565b9250827fffffffffffffffffffffffffffffffffffffffffffffffffffffffffffffffff038211156107da576107d96107fb565b5b828201905092915050565b60008115159050919050565b6000819050919050565b7f4e487b7100000000000000000000000000000000000000000000000000000000600052601160045260246000fdfea264697066735822122032af8598420239602b77e22ad7d0d8631dbc3acf09f46423ea29508708933d3c64736f6c63430008040033",
  "linkReferences": {},
  "deployedLinkReferences": {}
}