{
  "_format": "hh-sol-artifact-1",
  "contractName": "DNSRegistrar",
  "sourceName": "contracts/dnsregistrar/DNSRegistrar.sol",
  "abi": [
    {
      "inputs": [
        {
          "internalType": "contract DNSSEC",
          "name": "_dnssec",
          "type": "address"
        },
        {
          "internalType": "contract PublicSuffixList",
          "name": "_suffixes",
          "type": "address"
        },
        {
          "internalType": "contract ENS",
          "name": "_ens",
          "type": "address"
        }
      ],
      "stateMutability": "nonpayable",
      "type": "constructor"
    },
    {
      "anonymous": false,
      "inputs": [
        {
          "indexed": true,
          "internalType": "bytes32",
          "name": "node",
          "type": "bytes32"
        },
        {
          "indexed": true,
          "internalType": "address",
          "name": "owner",
          "type": "address"
        },
        {
          "indexed": false,
          "internalType": "bytes",
          "name": "dnsname",
          "type": "bytes"
        }
      ],
      "name": "Claim",
      "type": "event"
    },
    {
      "anonymous": false,
      "inputs": [
        {
          "indexed": false,
          "internalType": "address",
          "name": "oracle",
          "type": "address"
        }
      ],
      "name": "NewOracle",
      "type": "event"
    },
    {
      "anonymous": false,
      "inputs": [
        {
          "indexed": false,
          "internalType": "address",
          "name": "suffixes",
          "type": "address"
        }
      ],
      "name": "NewPublicSuffixList",
      "type": "event"
    },
    {
      "inputs": [
        {
          "internalType": "bytes",
          "name": "name",
          "type": "bytes"
        },
        {
          "internalType": "bytes",
          "name": "proof",
          "type": "bytes"
        }
      ],
      "name": "claim",
      "outputs": [],
      "stateMutability": "nonpayable",
      "type": "function"
    },
    {
      "inputs": [],
      "name": "ens",
      "outputs": [
        {
          "internalType": "contract ENS",
          "name": "",
          "type": "address"
        }
      ],
      "stateMutability": "view",
      "type": "function"
    },
    {
      "inputs": [],
      "name": "oracle",
      "outputs": [
        {
          "internalType": "contract DNSSEC",
          "name": "",
          "type": "address"
        }
      ],
      "stateMutability": "view",
      "type": "function"
    },
    {
      "inputs": [
        {
          "internalType": "bytes",
          "name": "name",
          "type": "bytes"
        },
        {
          "components": [
            {
              "internalType": "bytes",
              "name": "rrset",
              "type": "bytes"
            },
            {
              "internalType": "bytes",
              "name": "sig",
              "type": "bytes"
            }
          ],
          "internalType": "struct DNSSEC.RRSetWithSignature[]",
          "name": "input",
          "type": "tuple[]"
        },
        {
          "internalType": "bytes",
          "name": "proof",
          "type": "bytes"
        }
      ],
      "name": "proveAndClaim",
      "outputs": [],
      "stateMutability": "nonpayable",
      "type": "function"
    },
    {
      "inputs": [
        {
          "internalType": "contract DNSSEC",
          "name": "_dnssec",
          "type": "address"
        }
      ],
      "name": "setOracle",
      "outputs": [],
      "stateMutability": "nonpayable",
      "type": "function"
    },
    {
      "inputs": [
        {
          "internalType": "contract PublicSuffixList",
          "name": "_suffixes",
          "type": "address"
        }
      ],
      "name": "setPublicSuffixList",
      "outputs": [],
      "stateMutability": "nonpayable",
      "type": "function"
    },
    {
      "inputs": [],
      "name": "suffixes",
      "outputs": [
        {
          "internalType": "contract PublicSuffixList",
          "name": "",
          "type": "address"
        }
      ],
      "stateMutability": "view",
      "type": "function"
    },
    {
      "inputs": [
        {
          "internalType": "bytes4",
          "name": "interfaceID",
          "type": "bytes4"
        }
      ],
      "name": "supportsInterface",
      "outputs": [
        {
          "internalType": "bool",
          "name": "",
          "type": "bool"
        }
      ],
      "stateMutability": "pure",
      "type": "function"
    }
  ],
  "bytecode": "0x60806040523480156200001157600080fd5b5060405162002dca38038062002dca8339818101604052810190620000379190620001fb565b826000806101000a81548173ffffffffffffffffffffffffffffffffffffffff021916908373ffffffffffffffffffffffffffffffffffffffff1602179055507fb3eacd0e351fafdfefdec84e1cd19679b38dbcd63ea7c2c24da17fd2bc3b3c0e60008054906101000a900473ffffffffffffffffffffffffffffffffffffffff16604051620000c8919062000262565b60405180910390a181600260006101000a81548173ffffffffffffffffffffffffffffffffffffffff021916908373ffffffffffffffffffffffffffffffffffffffff1602179055507f9176b7f47e4504df5e5516c99d90d82ac7cbd49cc77e7f22ba2ac2f2e3a3eba8600260009054906101000a900473ffffffffffffffffffffffffffffffffffffffff1660405162000164919062000262565b60405180910390a180600160006101000a81548173ffffffffffffffffffffffffffffffffffffffff021916908373ffffffffffffffffffffffffffffffffffffffff1602179055505050506200033d565b600081519050620001c781620002ef565b92915050565b600081519050620001de8162000309565b92915050565b600081519050620001f58162000323565b92915050565b6000806000606084860312156200021157600080fd5b60006200022186828701620001b6565b93505060206200023486828701620001e4565b92505060406200024786828701620001cd565b9150509250925092565b6200025c816200027f565b82525050565b600060208201905062000279600083018462000251565b92915050565b60006200028c82620002cf565b9050919050565b6000620002a0826200027f565b9050919050565b6000620002b4826200027f565b9050919050565b6000620002c8826200027f565b9050919050565b600073ffffffffffffffffffffffffffffffffffffffff82169050919050565b620002fa8162000293565b81146200030657600080fd5b50565b6200031481620002a7565b81146200032057600080fd5b50565b6200032e81620002bb565b81146200033a57600080fd5b50565b612a7d806200034d6000396000f3fe608060405234801561001057600080fd5b50600436106100885760003560e01c80637adbf9731161005b5780637adbf973146101155780637dc0d1d0146101315780638bbedf751461014f578063be27b22c1461016b57610088565b806301ffc9a71461008d5780631ecfc411146100bd57806330349ebe146100d95780633f15457f146100f7575b600080fd5b6100a760048036038101906100a29190611ccc565b610187565b6040516100b49190612180565b60405180910390f35b6100d760048036038101906100d29190611e62565b61029d565b005b6100e16104a8565b6040516100ee919061226e565b60405180910390f35b6100ff6104ce565b60405161010c9190612253565b60405180910390f35b61012f600480360381019061012a9190611e39565b6104f4565b005b6101396106fc565b6040516101469190612238565b60405180910390f35b61016960048036038101906101649190611d36565b610720565b005b61018560048036038101906101809190611dcd565b6107e3565b005b60007f01ffc9a7a5cef8baa21ed3c5c0d7e23accb804b619e9333b597f47a0d84076e27bffffffffffffffffffffffffffffffffffffffffffffffffffffffff1916827bffffffffffffffffffffffffffffffffffffffffffffffffffffffff1916148061029657507f7dc0d1d053709daf7666fa92d95a4a378b3697fa925497d6f41c4277db5805557fd94585bdbcfe8f813f622f992acac91edb949402317ea853110ee88dff8626337fbe27b22c9acdad36ca1f0f94c9fd0d70d9f9852f6e2a5bfda55706679287197018187bffffffffffffffffffffffffffffffffffffffffffffffffffffffff1916827bffffffffffffffffffffffffffffffffffffffffffffffffffffffff1916145b9050919050565b6000600160009054906101000a900473ffffffffffffffffffffffffffffffffffffffff1673ffffffffffffffffffffffffffffffffffffffff166302571be36000801b6040518263ffffffff1660e01b81526004016102fd919061219b565b60206040518083038186803b15801561031557600080fd5b505afa158015610329573d6000803e3d6000fd5b505050506040513d601f19601f8201168201806040525081019061034d9190611c51565b905060008173ffffffffffffffffffffffffffffffffffffffff16638da5cb5b6040518163ffffffff1660e01b815260040160206040518083038186803b15801561039757600080fd5b505afa1580156103ab573d6000803e3d6000fd5b505050506040513d601f19601f820116820180604052508101906103cf9190611c51565b90508073ffffffffffffffffffffffffffffffffffffffff163373ffffffffffffffffffffffffffffffffffffffff161461040957600080fd5b82600260006101000a81548173ffffffffffffffffffffffffffffffffffffffff021916908373ffffffffffffffffffffffffffffffffffffffff1602179055507f9176b7f47e4504df5e5516c99d90d82ac7cbd49cc77e7f22ba2ac2f2e3a3eba8600260009054906101000a900473ffffffffffffffffffffffffffffffffffffffff1660405161049b919061212e565b60405180910390a1505050565b600260009054906101000a900473ffffffffffffffffffffffffffffffffffffffff1681565b600160009054906101000a900473ffffffffffffffffffffffffffffffffffffffff1681565b6000600160009054906101000a900473ffffffffffffffffffffffffffffffffffffffff1673ffffffffffffffffffffffffffffffffffffffff166302571be36000801b6040518263ffffffff1660e01b8152600401610554919061219b565b60206040518083038186803b15801561056c57600080fd5b505afa158015610580573d6000803e3d6000fd5b505050506040513d601f19601f820116820180604052508101906105a49190611c51565b905060008173ffffffffffffffffffffffffffffffffffffffff16638da5cb5b6040518163ffffffff1660e01b815260040160206040518083038186803b1580156105ee57600080fd5b505afa158015610602573d6000803e3d6000fd5b505050506040513d601f19601f820116820180604052508101906106269190611c51565b90508073ffffffffffffffffffffffffffffffffffffffff163373ffffffffffffffffffffffffffffffffffffffff161461066057600080fd5b826000806101000a81548173ffffffffffffffffffffffffffffffffffffffff021916908373ffffffffffffffffffffffffffffffffffffffff1602179055507fb3eacd0e351fafdfefdec84e1cd19679b38dbcd63ea7c2c24da17fd2bc3b3c0e60008054906101000a900473ffffffffffffffffffffffffffffffffffffffff166040516106ef919061212e565b60405180910390a1505050565b60008054906101000a900473ffffffffffffffffffffffffffffffffffffffff1681565b60008054906101000a900473ffffffffffffffffffffffffffffffffffffffff1673ffffffffffffffffffffffffffffffffffffffff1663435cc16283836040518363ffffffff1660e01b815260040161077b929190612149565b600060405180830381600087803b15801561079557600080fd5b505af11580156107a9573d6000803e3d6000fd5b505050506040513d6000823e3d601f19601f820116820180604052508101906107d29190611cf5565b90506107de83826107e3565b505050565b60006107f9600084610ab290919063ffffffff16565b60ff169050600061081660018386610b039092919063ffffffff16565b9050600061085360018461082a9190612412565b60018588516108399190612574565b6108439190612574565b87610b2f9092919063ffffffff16565b9050600260009054906101000a900473ffffffffffffffffffffffffffffffffffffffff1673ffffffffffffffffffffffffffffffffffffffff16634f89059e826040518263ffffffff1660e01b81526004016108b09190612216565b60206040518083038186803b1580156108c857600080fd5b505afa1580156108dc573d6000803e3d6000fd5b505050506040513d601f19601f820116820180604052508101906109009190611c7a565b61093f576040517f08c379a000000000000000000000000000000000000000000000000000000000815260040161093690612289565b60405180910390fd5b600061094c826000610bea565b9050600061097b60008054906101000a900473ffffffffffffffffffffffffffffffffffffffff168888611005565b5080915050600160009054906101000a900473ffffffffffffffffffffffffffffffffffffffff1673ffffffffffffffffffffffffffffffffffffffff166306ab59238386846040518463ffffffff1660e01b81526004016109df939291906121df565b602060405180830381600087803b1580156109f957600080fd5b505af1158015610a0d573d6000803e3d6000fd5b505050506040513d601f19601f82011682018060405250810190610a319190611ca3565b508073ffffffffffffffffffffffffffffffffffffffff168285604051602001610a5c929190612102565b604051602081830303815290604052805190602001207fa2e66ce20e6fb2c4f61339c364ad79f15160cf5307230c8bc4d628adbca2ba3989604051610aa19190612216565b60405180910390a350505050505050565b6000828281518110610aed577f4e487b7100000000000000000000000000000000000000000000000000000000600052603260045260246000fd5b602001015160f81c60f81b60f81c905092915050565b600083518284610b139190612412565b1115610b1e57600080fd5b818360208601012090509392505050565b606083518284610b3f9190612412565b1115610b4a57600080fd5b60008267ffffffffffffffff811115610b8c577f4e487b7100000000000000000000000000000000000000000000000000000000600052604160045260246000fd5b6040519080825280601f01601f191660200182016040528015610bbe5781602001600182028036833780820191505090505b5090506000806020830191508560208801019050610bdd828287611276565b8293505050509392505050565b600080610c008385610ab290919063ffffffff16565b60ff1690506000811415610c1a576000801b915050610fff565b6000610c3d8560018487610c2e9190612412565b610c389190612412565b610bea565b90506000610c62600186610c519190612412565b8488610b039092919063ffffffff16565b90508181604051602001610c77929190612102565b6040516020818303038152906040528051906020012093506000600160009054906101000a900473ffffffffffffffffffffffffffffffffffffffff1673ffffffffffffffffffffffffffffffffffffffff166302571be3866040518263ffffffff1660e01b8152600401610cec919061219b565b60206040518083038186803b158015610d0457600080fd5b505afa158015610d18573d6000803e3d6000fd5b505050506040513d601f19601f82011682018060405250810190610d3c9190611c51565b9050600073ffffffffffffffffffffffffffffffffffffffff168173ffffffffffffffffffffffffffffffffffffffff161480610da457503073ffffffffffffffffffffffffffffffffffffffff168173ffffffffffffffffffffffffffffffffffffffff16145b610de3576040517f08c379a0000000000000000000000000000000000000000000000000000000008152600401610dda906122a9565b60405180910390fd5b3073ffffffffffffffffffffffffffffffffffffffff168173ffffffffffffffffffffffffffffffffffffffff1614610ffa576000801b831415610f46576000600160009054906101000a900473ffffffffffffffffffffffffffffffffffffffff1673ffffffffffffffffffffffffffffffffffffffff166302571be36000801b6040518263ffffffff1660e01b8152600401610e81919061219b565b60206040518083038186803b158015610e9957600080fd5b505afa158015610ead573d6000803e3d6000fd5b505050506040513d601f19601f82011682018060405250810190610ed19190611c51565b90508073ffffffffffffffffffffffffffffffffffffffff16638cb8ecec84306040518363ffffffff1660e01b8152600401610f0e9291906121b6565b600060405180830381600087803b158015610f2857600080fd5b505af1158015610f3c573d6000803e3d6000fd5b5050505050610ff9565b600160009054906101000a900473ffffffffffffffffffffffffffffffffffffffff1673ffffffffffffffffffffffffffffffffffffffff166306ab59238484306040518463ffffffff1660e01b8152600401610fa5939291906121df565b602060405180830381600087803b158015610fbf57600080fd5b505af1158015610fd3573d6000803e3d6000fd5b505050506040513d601f19601f82011682018060405250810190610ff79190611ca3565b505b5b505050505b92915050565b600080611010611948565b611030600586516110219190612412565b826112da90919063ffffffff16565b506110796040518060400160405280600581526020017f045f656e730000000000000000000000000000000000000000000000000000008152508261134490919063ffffffff16565b5061108d858261134490919063ffffffff16565b506000808773ffffffffffffffffffffffffffffffffffffffff1663087991bc601085600001516040518363ffffffff1660e01b81526004016110d19291906122e9565b60606040518083038186803b1580156110e957600080fd5b505afa1580156110fd573d6000803e3d6000fd5b505050506040513d601f19601f820116820180604052508101906111219190611e8b565b9091508093508192505050600060601b6bffffffffffffffffffffffff1916826bffffffffffffffffffffffff191614801561115e575060008651145b15611172576000809450945050505061126e565b85805190602001206bffffffffffffffffffffffff1916826bffffffffffffffffffffffff1916146111a357600080fd5b60006111b960008861136690919063ffffffff16565b90505b6111c581611390565b611262576111e28160800151836111dc9190612468565b426113a6565b611221576040517f08c379a0000000000000000000000000000000000000000000000000000000008152600401611218906122c9565b60405180910390fd5b600080611232898460a001516113c2565b80935081925050508115611252578060019750975050505050505061126e565b505061125d81611448565b6111bc565b50600080945094505050505b935093915050565b5b602081106112b557815183526020836112909190612412565b925060208261129f9190612412565b91506020816112ae9190612574565b9050611277565b60006001826020036101000a0390508019835116818551168181178652505050505050565b6112e2611948565b60006020836112f191906127d3565b1461131d5760208261130391906127d3565b602061130f9190612574565b8261131a9190612412565b91505b81836020018181525050604051808452600081528281016020016040525082905092915050565b61134c611948565b61135e83846000015151848551611592565b905092915050565b61136e611962565b828160000181905250818160c001818152505061138a81611448565b92915050565b6000816000015151826020015110159050919050565b60008082846113b591906124fc565b60030b1215905092915050565b6000805b83518310156114395760006113e48486610ab290919063ffffffff16565b60ff1690506001846113f69190612412565b9350600080611406878785611681565b809350819250505081156114235780600194509450505050611441565b828661142f9190612412565b95505050506113c6565b600080915091505b9250929050565b8060c0015181602001818152505080600001515181602001511061146b5761158f565b600061147f826000015183602001516116eb565b826020015161148e9190612412565b90506114a781836000015161178e90919063ffffffff16565b826040019061ffff16908161ffff16815250506002816114c79190612412565b90506114e081836000015161178e90919063ffffffff16565b826060019061ffff16908161ffff16815250506002816115009190612412565b90506115198183600001516117bd90919063ffffffff16565b826080019063ffffffff16908163ffffffff168152505060048161153d9190612412565b9050600061155882846000015161178e90919063ffffffff16565b61ffff16905060028261156b9190612412565b9150818360a001818152505080826115839190612412565b8360c001818152505050505b50565b61159a611948565b82518211156115a857600080fd5b846020015182856115b99190612412565b11156115ee576115ed8560026115de886020015188876115d99190612412565b6117ee565b6115e891906124a2565b61180a565b5b60008086518051876020830101935080888701111561160d5787860182525b60208701925050505b60208410611654578051825260208261162f9190612412565b915060208161163e9190612412565b905060208461164d9190612574565b9350611616565b60006001856020036101000a03905080198251168184511681811785525050508692505050949350505050565b60008063613d307861169c85876117bd90919063ffffffff16565b63ffffffff16146116b357600080915091506116e3565b602c8310156116c857600080915091506116e3565b6116de856004866116d99190612412565b61182e565b915091505b935093915050565b6000808290505b6001156117795783518110611730577f4e487b7100000000000000000000000000000000000000000000000000000000600052600160045260246000fd5b60006117458286610ab290919063ffffffff16565b60ff1690506001816117579190612412565b826117629190612412565b915060008114156117735750611779565b506116f2565b82816117859190612574565b91505092915050565b6000825160028361179f9190612412565b11156117aa57600080fd5b61ffff8260028501015116905092915050565b600082516004836117ce9190612412565b11156117d957600080fd5b63ffffffff8260048501015116905092915050565b60008183111561180057829050611804565b8190505b92915050565b60008260000151905061181d83836112da565b506118288382611344565b50505050565b60008060288385516118409190612574565b10156118525760008091509150611941565b6000808490505b6028856118669190612412565b81101561193757600482901b915060006118898288610ab290919063ffffffff16565b60ff1690506030811015801561189f5750603a81105b156118ba576030816118b19190612574565b83179250611923565b604181101580156118cb5750604781105b156118e6576037816118dd9190612574565b83179250611922565b606181101580156118f75750606781105b15611912576057816119099190612574565b83179250611921565b60008094509450505050611941565b5b5b50808061192f90612780565b915050611859565b5080600192509250505b9250929050565b604051806040016040528060608152602001600081525090565b6040518060e001604052806060815260200160008152602001600061ffff168152602001600061ffff168152602001600063ffffffff16815260200160008152602001600081525090565b60006119c06119bb8461233e565b612319565b905080838252602082019050828560208602820111156119df57600080fd5b60005b85811015611a2957813567ffffffffffffffff811115611a0157600080fd5b808601611a0e8982611bc0565b855260208501945060208401935050506001810190506119e2565b5050509392505050565b6000611a46611a418461236a565b612319565b905082815260208101848484011115611a5e57600080fd5b611a6984828561270d565b509392505050565b6000611a84611a7f8461236a565b612319565b905082815260208101848484011115611a9c57600080fd5b611aa784828561271c565b509392505050565b600081519050611abe8161298f565b92915050565b600082601f830112611ad557600080fd5b8135611ae58482602086016119ad565b91505092915050565b600081519050611afd816129a6565b92915050565b600081519050611b12816129bd565b92915050565b600081519050611b27816129d4565b92915050565b600081359050611b3c816129eb565b92915050565b600082601f830112611b5357600080fd5b8135611b63848260208601611a33565b91505092915050565b600082601f830112611b7d57600080fd5b8151611b8d848260208601611a71565b91505092915050565b600081359050611ba581612a02565b92915050565b600081359050611bba81612a19565b92915050565b600060408284031215611bd257600080fd5b611bdc6040612319565b9050600082013567ffffffffffffffff811115611bf857600080fd5b611c0484828501611b42565b600083015250602082013567ffffffffffffffff811115611c2457600080fd5b611c3084828501611b42565b60208301525092915050565b600081519050611c4b81612a30565b92915050565b600060208284031215611c6357600080fd5b6000611c7184828501611aaf565b91505092915050565b600060208284031215611c8c57600080fd5b6000611c9a84828501611aee565b91505092915050565b600060208284031215611cb557600080fd5b6000611cc384828501611b18565b91505092915050565b600060208284031215611cde57600080fd5b6000611cec84828501611b2d565b91505092915050565b600060208284031215611d0757600080fd5b600082015167ffffffffffffffff811115611d2157600080fd5b611d2d84828501611b6c565b91505092915050565b600080600060608486031215611d4b57600080fd5b600084013567ffffffffffffffff811115611d6557600080fd5b611d7186828701611b42565b935050602084013567ffffffffffffffff811115611d8e57600080fd5b611d9a86828701611ac4565b925050604084013567ffffffffffffffff811115611db757600080fd5b611dc386828701611b42565b9150509250925092565b60008060408385031215611de057600080fd5b600083013567ffffffffffffffff811115611dfa57600080fd5b611e0685828601611b42565b925050602083013567ffffffffffffffff811115611e2357600080fd5b611e2f85828601611b42565b9150509250929050565b600060208284031215611e4b57600080fd5b6000611e5984828501611b96565b91505092915050565b600060208284031215611e7457600080fd5b6000611e8284828501611bab565b91505092915050565b600080600060608486031215611ea057600080fd5b6000611eae86828701611c3c565b9350506020611ebf86828701611c3c565b9250506040611ed086828701611b03565b9150509250925092565b6000611ee683836120af565b905092915050565b611ef7816125a8565b82525050565b6000611f08826123ab565b611f1281856123ce565b935083602082028501611f248561239b565b8060005b85811015611f605784840389528151611f418582611eda565b9450611f4c836123c1565b925060208a01995050600181019050611f28565b50829750879550505050505092915050565b611f7b816125ba565b82525050565b611f8a816125f2565b82525050565b611fa1611f9c826125f2565b6127c9565b82525050565b6000611fb2826123b6565b611fbc81856123df565b9350611fcc81856020860161271c565b611fd581612891565b840191505092915050565b6000611feb826123b6565b611ff581856123f0565b935061200581856020860161271c565b61200e81612891565b840191505092915050565b612022816126a1565b82525050565b612031816126c5565b82525050565b612040816126e9565b82525050565b6000612053602383612401565b915061205e826128a2565b604082019050919050565b6000612076602a83612401565b9150612081826128f1565b604082019050919050565b6000612099603c83612401565b91506120a482612940565b604082019050919050565b600060408301600083015184820360008601526120cc8282611fa7565b915050602083015184820360208601526120e68282611fa7565b9150508091505092915050565b6120fc81612659565b82525050565b600061210e8285611f90565b60208201915061211e8284611f90565b6020820191508190509392505050565b60006020820190506121436000830184611eee565b92915050565b600060408201905081810360008301526121638185611efd565b905081810360208301526121778184611fe0565b90509392505050565b60006020820190506121956000830184611f72565b92915050565b60006020820190506121b06000830184611f81565b92915050565b60006040820190506121cb6000830185611f81565b6121d86020830184611eee565b9392505050565b60006060820190506121f46000830186611f81565b6122016020830185611f81565b61220e6040830184611eee565b949350505050565b600060208201905081810360008301526122308184611fe0565b905092915050565b600060208201905061224d6000830184612019565b92915050565b60006020820190506122686000830184612028565b92915050565b60006020820190506122836000830184612037565b92915050565b600060208201905081810360008301526122a281612046565b9050919050565b600060208201905081810360008301526122c281612069565b9050919050565b600060208201905081810360008301526122e28161208c565b9050919050565b60006040820190506122fe60008301856120f3565b81810360208301526123108184611fe0565b90509392505050565b6000612323612334565b905061232f828261274f565b919050565b6000604051905090565b600067ffffffffffffffff82111561235957612358612862565b5b602082029050602081019050919050565b600067ffffffffffffffff82111561238557612384612862565b5b61238e82612891565b9050602081019050919050565b6000819050602082019050919050565b600081519050919050565b600081519050919050565b6000602082019050919050565b600082825260208201905092915050565b600082825260208201905092915050565b600082825260208201905092915050565b600082825260208201905092915050565b600061241d82612687565b915061242883612687565b9250827fffffffffffffffffffffffffffffffffffffffffffffffffffffffffffffffff0382111561245d5761245c612804565b5b828201905092915050565b600061247382612691565b915061247e83612691565b92508263ffffffff0382111561249757612496612804565b5b828201905092915050565b60006124ad82612687565b91506124b883612687565b9250817fffffffffffffffffffffffffffffffffffffffffffffffffffffffffffffffff04831182151516156124f1576124f0612804565b5b828202905092915050565b60006125078261264c565b91506125128361264c565b9250827fffffffffffffffffffffffffffffffffffffffffffffffffffffffff800000000182126000841215161561254d5761254c612804565b5b82637fffffff01821360008412161561256957612568612804565b5b828203905092915050565b600061257f82612687565b915061258a83612687565b92508282101561259d5761259c612804565b5b828203905092915050565b60006125b382612667565b9050919050565b60008115159050919050565b60007fffffffffffffffffffffffffffffffffffffffff00000000000000000000000082169050919050565b6000819050919050565b60007fffffffff0000000000000000000000000000000000000000000000000000000082169050919050565b6000612633826125a8565b9050919050565b6000612645826125a8565b9050919050565b60008160030b9050919050565b600061ffff82169050919050565b600073ffffffffffffffffffffffffffffffffffffffff82169050919050565b6000819050919050565b600063ffffffff82169050919050565b60006126ac826126b3565b9050919050565b60006126be82612667565b9050919050565b60006126d0826126d7565b9050919050565b60006126e282612667565b9050919050565b60006126f4826126fb565b9050919050565b600061270682612667565b9050919050565b82818337600083830152505050565b60005b8381101561273a57808201518184015260208101905061271f565b83811115612749576000848401525b50505050565b61275882612891565b810181811067ffffffffffffffff8211171561277757612776612862565b5b80604052505050565b600061278b82612687565b91507fffffffffffffffffffffffffffffffffffffffffffffffffffffffffffffffff8214156127be576127bd612804565b5b600182019050919050565b6000819050919050565b60006127de82612687565b91506127e983612687565b9250826127f9576127f8612833565b5b828206905092915050565b7f4e487b7100000000000000000000000000000000000000000000000000000000600052601160045260246000fd5b7f4e487b7100000000000000000000000000000000000000000000000000000000600052601260045260246000fd5b7f4e487b7100000000000000000000000000000000000000000000000000000000600052604160045260246000fd5b6000601f19601f8301169050919050565b7f506172656e74206e616d65206d7573742062652061207075626c69632073756660008201527f6669780000000000000000000000000000000000000000000000000000000000602082015250565b7f43616e6e6f7420656e61626c652061206e616d65206f776e656420627920736f60008201527f6d656f6e6520656c736500000000000000000000000000000000000000000000602082015250565b7f444e53207265636f7264206973207374616c653b2072656672657368206f722060008201527f64656c657465206974206265666f72652070726f63656564696e672e00000000602082015250565b612998816125a8565b81146129a357600080fd5b50565b6129af816125ba565b81146129ba57600080fd5b50565b6129c6816125c6565b81146129d157600080fd5b50565b6129dd816125f2565b81146129e857600080fd5b50565b6129f4816125fc565b81146129ff57600080fd5b50565b612a0b81612628565b8114612a1657600080fd5b50565b612a228161263a565b8114612a2d57600080fd5b50565b612a3981612691565b8114612a4457600080fd5b5056fea2646970667358221220f136cc9c8db7b0227fa75aabafa7bb5c0848e93806772f820b2d06b5bd9fcc7f64736f6c63430008040033",
  "linkReferences": {},
  "deployedLinkReferences": {}
}