{
  "_format": "hh-sol-artifact-1",
  "contractName": "Owned",
  "sourceName": "contracts/dnssec-oracle/Owned.sol",
  "abi": [
    {
      "inputs": [],
      "stateMutability": "nonpayable",
      "type": "constructor"
    },
    {
      "inputs": [],
      "name": "owner",
      "outputs": [
        {
          "internalType": "address",
          "name": "",
          "type": "address"
        }
      ],
      "stateMutability": "view",
      "type": "function"
    },
    {
      "inputs": [
        {
          "internalType": "address",
          "name": "newOwner",
          "type": "address"
        }
      ],
      "name": "setOwner",
      "outputs": [],
      "stateMutability": "nonpayable",
      "type": "function"
    }
  ],
  "bytecode": "0x608060405234801561001057600080fd5b50336000806101000a81548173ffffffffffffffffffffffffffffffffffffffff021916908373ffffffffffffffffffffffffffffffffffffffff16021790555061021b806100606000396000f3fe608060405234801561001057600080fd5b50600436106100365760003560e01c806313af40351461003b5780638da5cb5b14610057575b600080fd5b61005560048036038101906100509190610149565b610075565b005b61005f610110565b60405161006c9190610181565b60405180910390f35b60008054906101000a900473ffffffffffffffffffffffffffffffffffffffff1673ffffffffffffffffffffffffffffffffffffffff163373ffffffffffffffffffffffffffffffffffffffff16146100cd57600080fd5b806000806101000a81548173ffffffffffffffffffffffffffffffffffffffff021916908373ffffffffffffffffffffffffffffffffffffffff16021790555050565b60008054906101000a900473ffffffffffffffffffffffffffffffffffffffff1681565b600081359050610143816101ce565b92915050565b60006020828403121561015b57600080fd5b600061016984828501610134565b91505092915050565b61017b8161019c565b82525050565b60006020820190506101966000830184610172565b92915050565b60006101a7826101ae565b9050919050565b600073ffffffffffffffffffffffffffffffffffffffff82169050919050565b6101d78161019c565b81146101e257600080fd5b5056fea26469706673582212209ee1075ec1d1101ba4b425c51a93476d1908120b81e0aad810d4b42acc81822064736f6c63430008040033",
  "linkReferences": {},
  "deployedLinkReferences": {}
}