{
  "_format": "hh-sol-artifact-1",
  "contractName": "POAP",
  "sourceName": "contracts/POAP.sol",
  "abi": [
    {
      "inputs": [],
      "stateMutability": "nonpayable",
      "type": "constructor"
    },
    {
      "anonymous": false,
      "inputs": [
        {
          "indexed": true,
          "internalType": "address",
          "name": "account",
          "type": "address"
        },
        {
          "indexed": true,
          "internalType": "address",
          "name": "operator",
          "type": "address"
        },
        {
          "indexed": false,
          "internalType": "bool",
          "name": "approved",
          "type": "bool"
        }
      ],
      "name": "ApprovalForAll",
      "type": "event"
    },
    {
      "anonymous": false,
      "inputs": [
        {
          "indexed": true,
          "internalType": "uint256",
          "name": "eventID",
          "type": "uint256"
        },
        {
          "indexed": true,
          "internalType": "address",
          "name": "account",
          "type": "address"
        },
        {
          "indexed": false,
          "internalType": "uint256",
          "name": "index",
          "type": "uint256"
        }
      ],
      "name": "Issued",
      "type": "event"
    },
    {
      "anonymous": false,
      "inputs": [
        {
          "indexed": true,
          "internalType": "address",
          "name": "previousOwner",
          "type": "address"
        },
        {
          "indexed": true,
          "internalType": "address",
          "name": "newOwner",
          "type": "address"
        }
      ],
      "name": "OwnershipTransferred",
      "type": "event"
    },
    {
      "anonymous": false,
      "inputs": [
        {
          "indexed": true,
          "internalType": "address",
          "name": "operator",
          "type": "address"
        },
        {
          "indexed": true,
          "internalType": "address",
          "name": "from",
          "type": "address"
        },
        {
          "indexed": true,
          "internalType": "address",
          "name": "to",
          "type": "address"
        },
        {
          "indexed": false,
          "internalType": "uint256[]",
          "name": "ids",
          "type": "uint256[]"
        },
        {
          "indexed": false,
          "internalType": "uint256[]",
          "name": "values",
          "type": "uint256[]"
        }
      ],
      "name": "TransferBatch",
      "type": "event"
    },
    {
      "anonymous": false,
      "inputs": [
        {
          "indexed": true,
          "internalType": "address",
          "name": "operator",
          "type": "address"
        },
        {
          "indexed": true,
          "internalType": "address",
          "name": "from",
          "type": "address"
        },
        {
          "indexed": true,
          "internalType": "address",
          "name": "to",
          "type": "address"
        },
        {
          "indexed": false,
          "internalType": "uint256",
          "name": "id",
          "type": "uint256"
        },
        {
          "indexed": false,
          "internalType": "uint256",
          "name": "value",
          "type": "uint256"
        }
      ],
      "name": "TransferSingle",
      "type": "event"
    },
    {
      "anonymous": false,
      "inputs": [
        {
          "indexed": false,
          "internalType": "string",
          "name": "value",
          "type": "string"
        },
        {
          "indexed": true,
          "internalType": "uint256",
          "name": "id",
          "type": "uint256"
        }
      ],
      "name": "URI",
      "type": "event"
    },
    {
      "inputs": [],
      "name": "ERROR_ISSUE_MULTIPLE_POAP",
      "outputs": [
        {
          "internalType": "string",
          "name": "",
          "type": "string"
        }
      ],
      "stateMutability": "view",
      "type": "function"
    },
    {
      "inputs": [],
      "name": "ERROR_POAP_ISSUED_ALREADY",
      "outputs": [
        {
          "internalType": "string",
          "name": "",
          "type": "string"
        }
      ],
      "stateMutability": "view",
      "type": "function"
    },
    {
      "inputs": [],
      "name": "ERROR_TRANSFER_POAP",
      "outputs": [
        {
          "internalType": "string",
          "name": "",
          "type": "string"
        }
      ],
      "stateMutability": "view",
      "type": "function"
    },
    {
      "inputs": [
        {
          "internalType": "address",
          "name": "account",
          "type": "address"
        },
        {
          "internalType": "uint256",
          "name": "id",
          "type": "uint256"
        }
      ],
      "name": "balanceOf",
      "outputs": [
        {
          "internalType": "uint256",
          "name": "",
          "type": "uint256"
        }
      ],
      "stateMutability": "view",
      "type": "function"
    },
    {
      "inputs": [
        {
          "internalType": "address[]",
          "name": "accounts",
          "type": "address[]"
        },
        {
          "internalType": "uint256[]",
          "name": "ids",
          "type": "uint256[]"
        }
      ],
      "name": "balanceOfBatch",
      "outputs": [
        {
          "internalType": "uint256[]",
          "name": "",
          "type": "uint256[]"
        }
      ],
      "stateMutability": "view",
      "type": "function"
    },
    {
      "inputs": [
        {
          "internalType": "uint256",
          "name": "eventID",
          "type": "uint256"
        },
        {
          "internalType": "address",
          "name": "account",
          "type": "address"
        }
      ],
      "name": "getID",
      "outputs": [
        {
          "internalType": "uint256",
          "name": "",
          "type": "uint256"
        }
      ],
      "stateMutability": "view",
      "type": "function"
    },
    {
      "inputs": [
        {
          "internalType": "uint256",
          "name": "eventID",
          "type": "uint256"
        },
        {
          "internalType": "address",
          "name": "account",
          "type": "address"
        }
      ],
      "name": "has",
      "outputs": [
        {
          "internalType": "bool",
          "name": "",
          "type": "bool"
        }
      ],
      "stateMutability": "view",
      "type": "function"
    },
    {
      "inputs": [
        {
          "internalType": "address",
          "name": "account",
          "type": "address"
        },
        {
          "internalType": "address",
          "name": "operator",
          "type": "address"
        }
      ],
      "name": "isApprovedForAll",
      "outputs": [
        {
          "internalType": "bool",
          "name": "",
          "type": "bool"
        }
      ],
      "stateMutability": "view",
      "type": "function"
    },
    {
      "inputs": [
        {
          "internalType": "address",
          "name": "to",
          "type": "address"
        },
        {
          "internalType": "uint256",
          "name": "eventID",
          "type": "uint256"
        }
      ],
      "name": "mint",
      "outputs": [
        {
          "internalType": "uint256",
          "name": "",
          "type": "uint256"
        }
      ],
      "stateMutability": "nonpayable",
      "type": "function"
    },
    {
      "inputs": [],
      "name": "owner",
      "outputs": [
        {
          "internalType": "address",
          "name": "",
          "type": "address"
        }
      ],
      "stateMutability": "view",
      "type": "function"
    },
    {
      "inputs": [],
      "name": "renounceOwnership",
      "outputs": [],
      "stateMutability": "nonpayable",
      "type": "function"
    },
    {
      "inputs": [
        {
          "internalType": "address",
          "name": "from",
          "type": "address"
        },
        {
          "internalType": "address",
          "name": "to",
          "type": "address"
        },
        {
          "internalType": "uint256[]",
          "name": "ids",
          "type": "uint256[]"
        },
        {
          "internalType": "uint256[]",
          "name": "amounts",
          "type": "uint256[]"
        },
        {
          "internalType": "bytes",
          "name": "data",
          "type": "bytes"
        }
      ],
      "name": "safeBatchTransferFrom",
      "outputs": [],
      "stateMutability": "nonpayable",
      "type": "function"
    },
    {
      "inputs": [
        {
          "internalType": "address",
          "name": "from",
          "type": "address"
        },
        {
          "internalType": "address",
          "name": "to",
          "type": "address"
        },
        {
          "internalType": "uint256",
          "name": "id",
          "type": "uint256"
        },
        {
          "internalType": "uint256",
          "name": "amount",
          "type": "uint256"
        },
        {
          "internalType": "bytes",
          "name": "data",
          "type": "bytes"
        }
      ],
      "name": "safeTransferFrom",
      "outputs": [],
      "stateMutability": "nonpayable",
      "type": "function"
    },
    {
      "inputs": [
        {
          "internalType": "address",
          "name": "operator",
          "type": "address"
        },
        {
          "internalType": "bool",
          "name": "approved",
          "type": "bool"
        }
      ],
      "name": "setApprovalForAll",
      "outputs": [],
      "stateMutability": "nonpayable",
      "type": "function"
    },
    {
      "inputs": [
        {
          "internalType": "bytes4",
          "name": "interfaceId",
          "type": "bytes4"
        }
      ],
      "name": "supportsInterface",
      "outputs": [
        {
          "internalType": "bool",
          "name": "",
          "type": "bool"
        }
      ],
      "stateMutability": "view",
      "type": "function"
    },
    {
      "inputs": [
        {
          "internalType": "address",
          "name": "newOwner",
          "type": "address"
        }
      ],
      "name": "transferOwnership",
      "outputs": [],
      "stateMutability": "nonpayable",
      "type": "function"
    },
    {
      "inputs": [
        {
          "internalType": "uint256",
          "name": "",
          "type": "uint256"
        }
      ],
      "name": "uri",
      "outputs": [
        {
          "internalType": "string",
          "name": "",
          "type": "string"
        }
      ],
      "stateMutability": "view",
      "type": "function"
    }
  ],
  "bytecode": "0x60806040523480156200001157600080fd5b506040518060200160405280600081525062000033816200005a60201b60201c565b5062000054620000486200006f60201b60201c565b6200007760201b60201c565b6200049e565b80600290816200006b9190620003b7565b5050565b600033905090565b6000600360009054906101000a900473ffffffffffffffffffffffffffffffffffffffff16905081600360006101000a81548173ffffffffffffffffffffffffffffffffffffffff021916908373ffffffffffffffffffffffffffffffffffffffff1602179055508173ffffffffffffffffffffffffffffffffffffffff168173ffffffffffffffffffffffffffffffffffffffff167f8be0079c531659141344cd1fd0a4f28419497f9722a3daafe3b4186f6b6457e060405160405180910390a35050565b600081519050919050565b7f4e487b7100000000000000000000000000000000000000000000000000000000600052604160045260246000fd5b7f4e487b7100000000000000000000000000000000000000000000000000000000600052602260045260246000fd5b60006002820490506001821680620001bf57607f821691505b602082108103620001d557620001d462000177565b5b50919050565b60008190508160005260206000209050919050565b60006020601f8301049050919050565b600082821b905092915050565b6000600883026200023f7fffffffffffffffffffffffffffffffffffffffffffffffffffffffffffffffff8262000200565b6200024b868362000200565b95508019841693508086168417925050509392505050565b6000819050919050565b6000819050919050565b600062000298620002926200028c8462000263565b6200026d565b62000263565b9050919050565b6000819050919050565b620002b48362000277565b620002cc620002c3826200029f565b8484546200020d565b825550505050565b600090565b620002e3620002d4565b620002f0818484620002a9565b505050565b5b8181101562000318576200030c600082620002d9565b600181019050620002f6565b5050565b601f82111562000367576200033181620001db565b6200033c84620001f0565b810160208510156200034c578190505b620003646200035b85620001f0565b830182620002f5565b50505b505050565b600082821c905092915050565b60006200038c600019846008026200036c565b1980831691505092915050565b6000620003a7838362000379565b9150826002028217905092915050565b620003c2826200013d565b67ffffffffffffffff811115620003de57620003dd62000148565b5b620003ea8254620001a6565b620003f78282856200031c565b600060209050601f8311600181146200042f57600084156200041a578287015190505b62000426858262000399565b86555062000496565b601f1984166200043f86620001db565b60005b82811015620004695784890151825560018201915060208501945060208101905062000442565b8683101562000489578489015162000485601f89168262000379565b8355505b6001600288020188555050505b505050505050565b6131ac80620004ae6000396000f3fe608060405234801561001057600080fd5b506004361061010a5760003560e01c8063715018a6116100a2578063a22cb46511610071578063a22cb465146102df578063c28f3135146102fb578063e985e9c514610319578063f242432a14610349578063f2fde38b146103655761010a565b8063715018a6146102695780637ac595f2146102735780638da5cb5b146102915780639feedcf1146102af5761010a565b806335021678116100de57806335021678146101bb57806340c10f19146101d957806347b84f41146102095780634e1273f4146102395761010a565b8062fdd58e1461010f57806301ffc9a71461013f5780630e89341c1461016f5780632eb2c2d61461019f575b600080fd5b61012960048036038101906101249190611e20565b610381565b6040516101369190611e6f565b60405180910390f35b61015960048036038101906101549190611ee2565b610449565b6040516101669190611f2a565b60405180910390f35b61018960048036038101906101849190611f45565b61052b565b6040516101969190612002565b60405180910390f35b6101b960048036038101906101b49190612221565b6105bf565b005b6101c3610660565b6040516101d09190612002565b60405180910390f35b6101f360048036038101906101ee9190611e20565b610699565b6040516102009190611e6f565b60405180910390f35b610223600480360381019061021e91906122f0565b6107fd565b6040516102309190611f2a565b60405180910390f35b610253600480360381019061024e91906123f3565b610811565b6040516102609190612529565b60405180910390f35b61027161092a565b005b61027b61093e565b6040516102889190612002565b60405180910390f35b61029961095a565b6040516102a6919061255a565b60405180910390f35b6102c960048036038101906102c491906122f0565b610984565b6040516102d69190611e6f565b60405180910390f35b6102f960048036038101906102f491906125a1565b610998565b005b6103036109ae565b6040516103109190612002565b60405180910390f35b610333600480360381019061032e91906125e1565b6109e7565b6040516103409190611f2a565b60405180910390f35b610363600480360381019061035e9190612621565b610a7b565b005b61037f600480360381019061037a91906126b8565b610b1c565b005b60008073ffffffffffffffffffffffffffffffffffffffff168373ffffffffffffffffffffffffffffffffffffffff16036103f1576040517f08c379a00000000000000000000000000000000000000000000000000000000081526004016103e890612757565b60405180910390fd5b60008083815260200190815260200160002060008473ffffffffffffffffffffffffffffffffffffffff1673ffffffffffffffffffffffffffffffffffffffff16815260200190815260200160002054905092915050565b60007fd9b67a26000000000000000000000000000000000000000000000000000000007bffffffffffffffffffffffffffffffffffffffffffffffffffffffff1916827bffffffffffffffffffffffffffffffffffffffffffffffffffffffff1916148061051457507f0e89341c000000000000000000000000000000000000000000000000000000007bffffffffffffffffffffffffffffffffffffffffffffffffffffffff1916827bffffffffffffffffffffffffffffffffffffffffffffffffffffffff1916145b80610524575061052382610b9f565b5b9050919050565b60606002805461053a906127a6565b80601f0160208091040260200160405190810160405280929190818152602001828054610566906127a6565b80156105b35780601f10610588576101008083540402835291602001916105b3565b820191906000526020600020905b81548152906001019060200180831161059657829003601f168201915b50505050509050919050565b6105c7610c09565b73ffffffffffffffffffffffffffffffffffffffff168573ffffffffffffffffffffffffffffffffffffffff16148061060d575061060c85610607610c09565b6109e7565b5b61064c576040517f08c379a000000000000000000000000000000000000000000000000000000000815260040161064390612849565b60405180910390fd5b6106598585858585610c11565b5050505050565b6040518060400160405280601a81526020017f726563697069656e742068617320504f415020616c726561647900000000000081525081565b60006106a3610f32565b6106ad8284610fb0565b156040518060400160405280601a81526020017f726563697069656e742068617320504f415020616c726561647900000000000081525090610725576040517f08c379a000000000000000000000000000000000000000000000000000000000815260040161071c9190612002565b60405180910390fd5b50600061073183610fc7565b905061074f848460016040518060200160405280600081525061100d565b806005600085815260200190815260200160002060008673ffffffffffffffffffffffffffffffffffffffff1673ffffffffffffffffffffffffffffffffffffffff168152602001908152602001600020819055508373ffffffffffffffffffffffffffffffffffffffff16837f317f5fcebc6292737b7bf155c74847bfde3facfb62681e7b754c7eedb9eef875836040516107eb9190611e6f565b60405180910390a38091505092915050565b60006108098383610fb0565b905092915050565b60608151835114610857576040517f08c379a000000000000000000000000000000000000000000000000000000000815260040161084e906128db565b60405180910390fd5b6000835167ffffffffffffffff81111561087457610873612029565b5b6040519080825280602002602001820160405280156108a25781602001602082028036833780820191505090505b50905060005b845181101561091f576108ef8582815181106108c7576108c66128fb565b5b60200260200101518583815181106108e2576108e16128fb565b5b6020026020010151610381565b828281518110610902576109016128fb565b5b6020026020010181815250508061091890612959565b90506108a8565b508091505092915050565b610932610f32565b61093c60006111bd565b565b6040518060600160405280602d815260200161314a602d913981565b6000600360009054906101000a900473ffffffffffffffffffffffffffffffffffffffff16905090565b60006109908383611283565b905092915050565b6109aa6109a3610c09565b83836112de565b5050565b6040518060400160405280601c81526020017f7472616e7366657220504f4150206973206e6f7420616c6c6f7765640000000081525081565b6000600160008473ffffffffffffffffffffffffffffffffffffffff1673ffffffffffffffffffffffffffffffffffffffff16815260200190815260200160002060008373ffffffffffffffffffffffffffffffffffffffff1673ffffffffffffffffffffffffffffffffffffffff16815260200190815260200160002060009054906101000a900460ff16905092915050565b610a83610c09565b73ffffffffffffffffffffffffffffffffffffffff168573ffffffffffffffffffffffffffffffffffffffff161480610ac95750610ac885610ac3610c09565b6109e7565b5b610b08576040517f08c379a0000000000000000000000000000000000000000000000000000000008152600401610aff90612849565b60405180910390fd5b610b15858585858561144a565b5050505050565b610b24610f32565b600073ffffffffffffffffffffffffffffffffffffffff168173ffffffffffffffffffffffffffffffffffffffff1603610b93576040517f08c379a0000000000000000000000000000000000000000000000000000000008152600401610b8a90612a13565b60405180910390fd5b610b9c816111bd565b50565b60007f01ffc9a7000000000000000000000000000000000000000000000000000000007bffffffffffffffffffffffffffffffffffffffffffffffffffffffff1916827bffffffffffffffffffffffffffffffffffffffffffffffffffffffff1916149050919050565b600033905090565b8151835114610c55576040517f08c379a0000000000000000000000000000000000000000000000000000000008152600401610c4c90612aa5565b60405180910390fd5b600073ffffffffffffffffffffffffffffffffffffffff168473ffffffffffffffffffffffffffffffffffffffff1603610cc4576040517f08c379a0000000000000000000000000000000000000000000000000000000008152600401610cbb90612b37565b60405180910390fd5b6000610cce610c09565b9050610cde8187878787876116e5565b60005b8451811015610e8f576000858281518110610cff57610cfe6128fb565b5b602002602001015190506000858381518110610d1e57610d1d6128fb565b5b60200260200101519050600080600084815260200190815260200160002060008b73ffffffffffffffffffffffffffffffffffffffff1673ffffffffffffffffffffffffffffffffffffffff16815260200190815260200160002054905081811015610dbf576040517f08c379a0000000000000000000000000000000000000000000000000000000008152600401610db690612bc9565b60405180910390fd5b81810360008085815260200190815260200160002060008c73ffffffffffffffffffffffffffffffffffffffff1673ffffffffffffffffffffffffffffffffffffffff168152602001908152602001600020819055508160008085815260200190815260200160002060008b73ffffffffffffffffffffffffffffffffffffffff1673ffffffffffffffffffffffffffffffffffffffff1681526020019081526020016000206000828254610e749190612be9565b9250508190555050505080610e8890612959565b9050610ce1565b508473ffffffffffffffffffffffffffffffffffffffff168673ffffffffffffffffffffffffffffffffffffffff168273ffffffffffffffffffffffffffffffffffffffff167f4a39dc06d4c0dbc64b70af90fd698a233a518aa5d07e595d983b8c0526c8f7fb8787604051610f06929190612c1d565b60405180910390a4610f1c818787878787611925565b610f2a81878787878761192d565b505050505050565b610f3a610c09565b73ffffffffffffffffffffffffffffffffffffffff16610f5861095a565b73ffffffffffffffffffffffffffffffffffffffff1614610fae576040517f08c379a0000000000000000000000000000000000000000000000000000000008152600401610fa590612ca0565b60405180910390fd5b565b600080610fbd8484611283565b1415905092915050565b60008060016004600085815260200190815260200160002054610fea9190612be9565b905080600460008581526020019081526020016000208190555080915050919050565b600073ffffffffffffffffffffffffffffffffffffffff168473ffffffffffffffffffffffffffffffffffffffff160361107c576040517f08c379a000000000000000000000000000000000000000000000000000000000815260040161107390612d32565b60405180910390fd5b6000611086610c09565b9050600061109385611b04565b905060006110a085611b04565b90506110b1836000898585896116e5565b8460008088815260200190815260200160002060008973ffffffffffffffffffffffffffffffffffffffff1673ffffffffffffffffffffffffffffffffffffffff16815260200190815260200160002060008282546111109190612be9565b925050819055508673ffffffffffffffffffffffffffffffffffffffff16600073ffffffffffffffffffffffffffffffffffffffff168473ffffffffffffffffffffffffffffffffffffffff167fc3d58168c5ae7397731d063d5bbf3d657854427343f4c083240f7aacaa2d0f62898960405161118e929190612d52565b60405180910390a46111a583600089858589611925565b6111b483600089898989611b7e565b50505050505050565b6000600360009054906101000a900473ffffffffffffffffffffffffffffffffffffffff16905081600360006101000a81548173ffffffffffffffffffffffffffffffffffffffff021916908373ffffffffffffffffffffffffffffffffffffffff1602179055508173ffffffffffffffffffffffffffffffffffffffff168173ffffffffffffffffffffffffffffffffffffffff167f8be0079c531659141344cd1fd0a4f28419497f9722a3daafe3b4186f6b6457e060405160405180910390a35050565b60006005600084815260200190815260200160002060008373ffffffffffffffffffffffffffffffffffffffff1673ffffffffffffffffffffffffffffffffffffffff16815260200190815260200160002054905092915050565b8173ffffffffffffffffffffffffffffffffffffffff168373ffffffffffffffffffffffffffffffffffffffff160361134c576040517f08c379a000000000000000000000000000000000000000000000000000000000815260040161134390612ded565b60405180910390fd5b80600160008573ffffffffffffffffffffffffffffffffffffffff1673ffffffffffffffffffffffffffffffffffffffff16815260200190815260200160002060008473ffffffffffffffffffffffffffffffffffffffff1673ffffffffffffffffffffffffffffffffffffffff16815260200190815260200160002060006101000a81548160ff0219169083151502179055508173ffffffffffffffffffffffffffffffffffffffff168373ffffffffffffffffffffffffffffffffffffffff167f17307eab39ab6107e8899845ad3d59bd9653f200f220920489ca2b5937696c318360405161143d9190611f2a565b60405180910390a3505050565b600073ffffffffffffffffffffffffffffffffffffffff168473ffffffffffffffffffffffffffffffffffffffff16036114b9576040517f08c379a00000000000000000000000000000000000000000000000000000000081526004016114b090612b37565b60405180910390fd5b60006114c3610c09565b905060006114d085611b04565b905060006114dd85611b04565b90506114ed8389898585896116e5565b600080600088815260200190815260200160002060008a73ffffffffffffffffffffffffffffffffffffffff1673ffffffffffffffffffffffffffffffffffffffff16815260200190815260200160002054905085811015611584576040517f08c379a000000000000000000000000000000000000000000000000000000000815260040161157b90612bc9565b60405180910390fd5b85810360008089815260200190815260200160002060008b73ffffffffffffffffffffffffffffffffffffffff1673ffffffffffffffffffffffffffffffffffffffff168152602001908152602001600020819055508560008089815260200190815260200160002060008a73ffffffffffffffffffffffffffffffffffffffff1673ffffffffffffffffffffffffffffffffffffffff16815260200190815260200160002060008282546116399190612be9565b925050819055508773ffffffffffffffffffffffffffffffffffffffff168973ffffffffffffffffffffffffffffffffffffffff168573ffffffffffffffffffffffffffffffffffffffff167fc3d58168c5ae7397731d063d5bbf3d657854427343f4c083240f7aacaa2d0f628a8a6040516116b6929190612d52565b60405180910390a46116cc848a8a86868a611925565b6116da848a8a8a8a8a611b7e565b505050505050505050565b600073ffffffffffffffffffffffffffffffffffffffff168573ffffffffffffffffffffffffffffffffffffffff16148061174c5750600073ffffffffffffffffffffffffffffffffffffffff168473ffffffffffffffffffffffffffffffffffffffff16145b6040518060400160405280601c81526020017f7472616e7366657220504f4150206973206e6f7420616c6c6f77656400000000815250906117c3576040517f08c379a00000000000000000000000000000000000000000000000000000000081526004016117ba9190612002565b60405180910390fd5b5060005b83518110156118825760006117f6868684815181106117e9576117e86128fb565b5b6020026020010151610381565b146040518060400160405280601a81526020017f726563697069656e742068617320504f415020616c72656164790000000000008152509061186e576040517f08c379a00000000000000000000000000000000000000000000000000000000081526004016118659190612002565b60405180910390fd5b50808061187a90612959565b9150506117c7565b5060005b825181101561191c5760018382815181106118a4576118a36128fb565b5b602002602001015111156040518060600160405280602d815260200161314a602d913990611908576040517f08c379a00000000000000000000000000000000000000000000000000000000081526004016118ff9190612002565b60405180910390fd5b50808061191490612959565b915050611886565b50505050505050565b505050505050565b61194c8473ffffffffffffffffffffffffffffffffffffffff16611d55565b15611afc578373ffffffffffffffffffffffffffffffffffffffff1663bc197c8187878686866040518663ffffffff1660e01b8152600401611992959493929190612e62565b6020604051808303816000875af19250505080156119ce57506040513d601f19601f820116820180604052508101906119cb9190612edf565b60015b611a73576119da612f19565b806308c379a003611a3657506119ee612f3b565b806119f95750611a38565b806040517f08c379a0000000000000000000000000000000000000000000000000000000008152600401611a2d9190612002565b60405180910390fd5b505b6040517f08c379a0000000000000000000000000000000000000000000000000000000008152600401611a6a9061303d565b60405180910390fd5b63bc197c8160e01b7bffffffffffffffffffffffffffffffffffffffffffffffffffffffff1916817bffffffffffffffffffffffffffffffffffffffffffffffffffffffff191614611afa576040517f08c379a0000000000000000000000000000000000000000000000000000000008152600401611af1906130cf565b60405180910390fd5b505b505050505050565b60606000600167ffffffffffffffff811115611b2357611b22612029565b5b604051908082528060200260200182016040528015611b515781602001602082028036833780820191505090505b5090508281600081518110611b6957611b686128fb565b5b60200260200101818152505080915050919050565b611b9d8473ffffffffffffffffffffffffffffffffffffffff16611d55565b15611d4d578373ffffffffffffffffffffffffffffffffffffffff1663f23a6e6187878686866040518663ffffffff1660e01b8152600401611be39594939291906130ef565b6020604051808303816000875af1925050508015611c1f57506040513d601f19601f82011682018060405250810190611c1c9190612edf565b60015b611cc457611c2b612f19565b806308c379a003611c875750611c3f612f3b565b80611c4a5750611c89565b806040517f08c379a0000000000000000000000000000000000000000000000000000000008152600401611c7e9190612002565b60405180910390fd5b505b6040517f08c379a0000000000000000000000000000000000000000000000000000000008152600401611cbb9061303d565b60405180910390fd5b63f23a6e6160e01b7bffffffffffffffffffffffffffffffffffffffffffffffffffffffff1916817bffffffffffffffffffffffffffffffffffffffffffffffffffffffff191614611d4b576040517f08c379a0000000000000000000000000000000000000000000000000000000008152600401611d42906130cf565b60405180910390fd5b505b505050505050565b6000808273ffffffffffffffffffffffffffffffffffffffff163b119050919050565b6000604051905090565b600080fd5b600080fd5b600073ffffffffffffffffffffffffffffffffffffffff82169050919050565b6000611db782611d8c565b9050919050565b611dc781611dac565b8114611dd257600080fd5b50565b600081359050611de481611dbe565b92915050565b6000819050919050565b611dfd81611dea565b8114611e0857600080fd5b50565b600081359050611e1a81611df4565b92915050565b60008060408385031215611e3757611e36611d82565b5b6000611e4585828601611dd5565b9250506020611e5685828601611e0b565b9150509250929050565b611e6981611dea565b82525050565b6000602082019050611e846000830184611e60565b92915050565b60007fffffffff0000000000000000000000000000000000000000000000000000000082169050919050565b611ebf81611e8a565b8114611eca57600080fd5b50565b600081359050611edc81611eb6565b92915050565b600060208284031215611ef857611ef7611d82565b5b6000611f0684828501611ecd565b91505092915050565b60008115159050919050565b611f2481611f0f565b82525050565b6000602082019050611f3f6000830184611f1b565b92915050565b600060208284031215611f5b57611f5a611d82565b5b6000611f6984828501611e0b565b91505092915050565b600081519050919050565b600082825260208201905092915050565b60005b83811015611fac578082015181840152602081019050611f91565b60008484015250505050565b6000601f19601f8301169050919050565b6000611fd482611f72565b611fde8185611f7d565b9350611fee818560208601611f8e565b611ff781611fb8565b840191505092915050565b6000602082019050818103600083015261201c8184611fc9565b905092915050565b600080fd5b7f4e487b7100000000000000000000000000000000000000000000000000000000600052604160045260246000fd5b61206182611fb8565b810181811067ffffffffffffffff821117156120805761207f612029565b5b80604052505050565b6000612093611d78565b905061209f8282612058565b919050565b600067ffffffffffffffff8211156120bf576120be612029565b5b602082029050602081019050919050565b600080fd5b60006120e86120e3846120a4565b612089565b9050808382526020820190506020840283018581111561210b5761210a6120d0565b5b835b8181101561213457806121208882611e0b565b84526020840193505060208101905061210d565b5050509392505050565b600082601f83011261215357612152612024565b5b81356121638482602086016120d5565b91505092915050565b600080fd5b600067ffffffffffffffff82111561218c5761218b612029565b5b61219582611fb8565b9050602081019050919050565b82818337600083830152505050565b60006121c46121bf84612171565b612089565b9050828152602081018484840111156121e0576121df61216c565b5b6121eb8482856121a2565b509392505050565b600082601f83011261220857612207612024565b5b81356122188482602086016121b1565b91505092915050565b600080600080600060a0868803121561223d5761223c611d82565b5b600061224b88828901611dd5565b955050602061225c88828901611dd5565b945050604086013567ffffffffffffffff81111561227d5761227c611d87565b5b6122898882890161213e565b935050606086013567ffffffffffffffff8111156122aa576122a9611d87565b5b6122b68882890161213e565b925050608086013567ffffffffffffffff8111156122d7576122d6611d87565b5b6122e3888289016121f3565b9150509295509295909350565b6000806040838503121561230757612306611d82565b5b600061231585828601611e0b565b925050602061232685828601611dd5565b9150509250929050565b600067ffffffffffffffff82111561234b5761234a612029565b5b602082029050602081019050919050565b600061236f61236a84612330565b612089565b90508083825260208201905060208402830185811115612392576123916120d0565b5b835b818110156123bb57806123a78882611dd5565b845260208401935050602081019050612394565b5050509392505050565b600082601f8301126123da576123d9612024565b5b81356123ea84826020860161235c565b91505092915050565b6000806040838503121561240a57612409611d82565b5b600083013567ffffffffffffffff81111561242857612427611d87565b5b612434858286016123c5565b925050602083013567ffffffffffffffff81111561245557612454611d87565b5b6124618582860161213e565b9150509250929050565b600081519050919050565b600082825260208201905092915050565b6000819050602082019050919050565b6124a081611dea565b82525050565b60006124b28383612497565b60208301905092915050565b6000602082019050919050565b60006124d68261246b565b6124e08185612476565b93506124eb83612487565b8060005b8381101561251c57815161250388826124a6565b975061250e836124be565b9250506001810190506124ef565b5085935050505092915050565b6000602082019050818103600083015261254381846124cb565b905092915050565b61255481611dac565b82525050565b600060208201905061256f600083018461254b565b92915050565b61257e81611f0f565b811461258957600080fd5b50565b60008135905061259b81612575565b92915050565b600080604083850312156125b8576125b7611d82565b5b60006125c685828601611dd5565b92505060206125d78582860161258c565b9150509250929050565b600080604083850312156125f8576125f7611d82565b5b600061260685828601611dd5565b925050602061261785828601611dd5565b9150509250929050565b600080600080600060a0868803121561263d5761263c611d82565b5b600061264b88828901611dd5565b955050602061265c88828901611dd5565b945050604061266d88828901611e0b565b935050606061267e88828901611e0b565b925050608086013567ffffffffffffffff81111561269f5761269e611d87565b5b6126ab888289016121f3565b9150509295509295909350565b6000602082840312156126ce576126cd611d82565b5b60006126dc84828501611dd5565b91505092915050565b7f455243313135353a2061646472657373207a65726f206973206e6f742061207660008201527f616c6964206f776e657200000000000000000000000000000000000000000000602082015250565b6000612741602a83611f7d565b915061274c826126e5565b604082019050919050565b6000602082019050818103600083015261277081612734565b9050919050565b7f4e487b7100000000000000000000000000000000000000000000000000000000600052602260045260246000fd5b600060028204905060018216806127be57607f821691505b6020821081036127d1576127d0612777565b5b50919050565b7f455243313135353a2063616c6c6572206973206e6f7420746f6b656e206f776e60008201527f6572206e6f7220617070726f7665640000000000000000000000000000000000602082015250565b6000612833602f83611f7d565b915061283e826127d7565b604082019050919050565b6000602082019050818103600083015261286281612826565b9050919050565b7f455243313135353a206163636f756e747320616e6420696473206c656e67746860008201527f206d69736d617463680000000000000000000000000000000000000000000000602082015250565b60006128c5602983611f7d565b91506128d082612869565b604082019050919050565b600060208201905081810360008301526128f4816128b8565b9050919050565b7f4e487b7100000000000000000000000000000000000000000000000000000000600052603260045260246000fd5b7f4e487b7100000000000000000000000000000000000000000000000000000000600052601160045260246000fd5b600061296482611dea565b91507fffffffffffffffffffffffffffffffffffffffffffffffffffffffffffffffff82036129965761299561292a565b5b600182019050919050565b7f4f776e61626c653a206e6577206f776e657220697320746865207a65726f206160008201527f6464726573730000000000000000000000000000000000000000000000000000602082015250565b60006129fd602683611f7d565b9150612a08826129a1565b604082019050919050565b60006020820190508181036000830152612a2c816129f0565b9050919050565b7f455243313135353a2069647320616e6420616d6f756e7473206c656e6774682060008201527f6d69736d61746368000000000000000000000000000000000000000000000000602082015250565b6000612a8f602883611f7d565b9150612a9a82612a33565b604082019050919050565b60006020820190508181036000830152612abe81612a82565b9050919050565b7f455243313135353a207472616e7366657220746f20746865207a65726f20616460008201527f6472657373000000000000000000000000000000000000000000000000000000602082015250565b6000612b21602583611f7d565b9150612b2c82612ac5565b604082019050919050565b60006020820190508181036000830152612b5081612b14565b9050919050565b7f455243313135353a20696e73756666696369656e742062616c616e636520666f60008201527f72207472616e7366657200000000000000000000000000000000000000000000602082015250565b6000612bb3602a83611f7d565b9150612bbe82612b57565b604082019050919050565b60006020820190508181036000830152612be281612ba6565b9050919050565b6000612bf482611dea565b9150612bff83611dea565b9250828201905080821115612c1757612c1661292a565b5b92915050565b60006040820190508181036000830152612c3781856124cb565b90508181036020830152612c4b81846124cb565b90509392505050565b7f4f776e61626c653a2063616c6c6572206973206e6f7420746865206f776e6572600082015250565b6000612c8a602083611f7d565b9150612c9582612c54565b602082019050919050565b60006020820190508181036000830152612cb981612c7d565b9050919050565b7f455243313135353a206d696e7420746f20746865207a65726f2061646472657360008201527f7300000000000000000000000000000000000000000000000000000000000000602082015250565b6000612d1c602183611f7d565b9150612d2782612cc0565b604082019050919050565b60006020820190508181036000830152612d4b81612d0f565b9050919050565b6000604082019050612d676000830185611e60565b612d746020830184611e60565b9392505050565b7f455243313135353a2073657474696e6720617070726f76616c2073746174757360008201527f20666f722073656c660000000000000000000000000000000000000000000000602082015250565b6000612dd7602983611f7d565b9150612de282612d7b565b604082019050919050565b60006020820190508181036000830152612e0681612dca565b9050919050565b600081519050919050565b600082825260208201905092915050565b6000612e3482612e0d565b612e3e8185612e18565b9350612e4e818560208601611f8e565b612e5781611fb8565b840191505092915050565b600060a082019050612e77600083018861254b565b612e84602083018761254b565b8181036040830152612e9681866124cb565b90508181036060830152612eaa81856124cb565b90508181036080830152612ebe8184612e29565b90509695505050505050565b600081519050612ed981611eb6565b92915050565b600060208284031215612ef557612ef4611d82565b5b6000612f0384828501612eca565b91505092915050565b60008160e01c9050919050565b600060033d1115612f385760046000803e612f35600051612f0c565b90505b90565b600060443d10612fc857612f4d611d78565b60043d036004823e80513d602482011167ffffffffffffffff82111715612f75575050612fc8565b808201805167ffffffffffffffff811115612f935750505050612fc8565b80602083010160043d038501811115612fb0575050505050612fc8565b612fbf82602001850186612058565b82955050505050505b90565b7f455243313135353a207472616e7366657220746f206e6f6e204552433131353560008201527f526563656976657220696d706c656d656e746572000000000000000000000000602082015250565b6000613027603483611f7d565b915061303282612fcb565b604082019050919050565b600060208201905081810360008301526130568161301a565b9050919050565b7f455243313135353a204552433131353552656365697665722072656a6563746560008201527f6420746f6b656e73000000000000000000000000000000000000000000000000602082015250565b60006130b9602883611f7d565b91506130c48261305d565b604082019050919050565b600060208201905081810360008301526130e8816130ac565b9050919050565b600060a082019050613104600083018861254b565b613111602083018761254b565b61311e6040830186611e60565b61312b6060830185611e60565b818103608083015261313d8184612e29565b9050969550505050505056fe32206f72206d6f726520504f41507320666f72206f6e65206576656e742063616e277420626520697373756564a2646970667358221220942cb4f38b113f5ea958d6fdfa28d2631f83d46296375d00831266f52e989c6164736f6c63430008110033",
  "linkReferences": {},
  "deployedLinkReferences": {}
}