{
  "_format": "hh-sol-artifact-1",
  "contractName": "BulkRenewal",
  "sourceName": "contracts/ethregistrar/BulkRenewal.sol",
  "abi": [
    {
      "inputs": [
        {
          "internalType": "contract ENS",
          "name": "_ens",
          "type": "address"
        }
      ],
      "stateMutability": "nonpayable",
      "type": "constructor"
    },
    {
      "inputs": [],
      "name": "BULK_RENEWAL_ID",
      "outputs": [
        {
          "internalType": "bytes4",
          "name": "",
          "type": "bytes4"
        }
      ],
      "stateMutability": "view",
      "type": "function"
    },
    {
      "inputs": [],
      "name": "ens",
      "outputs": [
        {
          "internalType": "contract ENS",
          "name": "",
          "type": "address"
        }
      ],
      "stateMutability": "view",
      "type": "function"
    },
    {
      "inputs": [
        {
          "internalType": "string[]",
          "name": "names",
          "type": "string[]"
        },
        {
          "internalType": "uint256",
          "name": "duration",
          "type": "uint256"
        }
      ],
      "name": "renewAll",
      "outputs": [],
      "stateMutability": "payable",
      "type": "function"
    },
    {
      "inputs": [
        {
          "internalType": "string[]",
          "name": "names",
          "type": "string[]"
        },
        {
          "internalType": "uint256",
          "name": "duration",
          "type": "uint256"
        }
      ],
      "name": "rentPrice",
      "outputs": [
        {
          "internalType": "uint256",
          "name": "total",
          "type": "uint256"
        }
      ],
      "stateMutability": "view",
      "type": "function"
    },
    {
      "inputs": [
        {
          "internalType": "bytes4",
          "name": "interfaceID",
          "type": "bytes4"
        }
      ],
      "name": "supportsInterface",
      "outputs": [
        {
          "internalType": "bool",
          "name": "",
          "type": "bool"
        }
      ],
      "stateMutability": "pure",
      "type": "function"
    }
  ],
  "bytecode": "0x608060405234801561001057600080fd5b50604051610dac380380610dac8339818101604052810190610032919061008d565b806000806101000a81548173ffffffffffffffffffffffffffffffffffffffff021916908373ffffffffffffffffffffffffffffffffffffffff16021790555050610111565b600081519050610087816100fa565b92915050565b60006020828403121561009f57600080fd5b60006100ad84828501610078565b91505092915050565b60006100c1826100da565b9050919050565b60006100d3826100b6565b9050919050565b600073ffffffffffffffffffffffffffffffffffffffff82169050919050565b610103816100c8565b811461010e57600080fd5b50565b610c8c806101206000396000f3fe60806040526004361061004a5760003560e01c806301ffc9a71461004f5780633971d4671461008c5780633f15457f146100c9578063bfa4a291146100f4578063e8d6dbb41461011f575b600080fd5b34801561005b57600080fd5b506100766004803603810190610071919061086d565b61013b565b6040516100839190610937565b60405180910390f35b34801561009857600080fd5b506100b360048036038101906100ae9190610815565b61022f565b6040516100c091906109fe565b60405180910390f35b3480156100d557600080fd5b506100de610349565b6040516100eb91906109b1565b60405180910390f35b34801561010057600080fd5b5061010961036d565b6040516101169190610996565b60405180910390f35b61013960048036038101906101349190610815565b6103b3565b005b60007f01ffc9a7a5cef8baa21ed3c5c0d7e23accb804b619e9333b597f47a0d84076e27bffffffffffffffffffffffffffffffffffffffffffffffffffffffff1916827bffffffffffffffffffffffffffffffffffffffffffffffffffffffff1916148061022857507fabade9390260bd677ca22a667838fd7cecda76cdb9832c955a0c517a14a7824e7f9afd5683eddcc6e523fb96bcbb4e9b488fc75f5a028e6f3452da908d7ce38a68187bffffffffffffffffffffffffffffffffffffffffffffffffffffffff1916827bffffffffffffffffffffffffffffffffffffffffffffffffffffffff1916145b9050919050565b60008061023a6105c2565b905060005b85859050811015610340578173ffffffffffffffffffffffffffffffffffffffff166383e7f6ff87878481811061029f577f4e487b7100000000000000000000000000000000000000000000000000000000600052603260045260246000fd5b90506020028101906102b19190610a19565b876040518463ffffffff1660e01b81526004016102d0939291906109cc565b60206040518083038186803b1580156102e857600080fd5b505afa1580156102fc573d6000803e3d6000fd5b505050506040513d601f19601f820116820180604052508101906103209190610896565b8361032b9190610a81565b9250808061033890610b88565b91505061023f565b50509392505050565b60008054906101000a900473ffffffffffffffffffffffffffffffffffffffff1681565b7fabade9390260bd677ca22a667838fd7cecda76cdb9832c955a0c517a14a7824e7f9afd5683eddcc6e523fb96bcbb4e9b488fc75f5a028e6f3452da908d7ce38a681881565b60006103bd6105c2565b905060005b848490508110156105745760008273ffffffffffffffffffffffffffffffffffffffff166383e7f6ff878785818110610424577f4e487b7100000000000000000000000000000000000000000000000000000000600052603260045260246000fd5b90506020028101906104369190610a19565b876040518463ffffffff1660e01b8152600401610455939291906109cc565b60206040518083038186803b15801561046d57600080fd5b505afa158015610481573d6000803e3d6000fd5b505050506040513d601f19601f820116820180604052508101906104a59190610896565b90508273ffffffffffffffffffffffffffffffffffffffff1663acf1a841828888868181106104fd577f4e487b7100000000000000000000000000000000000000000000000000000000600052603260045260246000fd5b905060200281019061050f9190610a19565b886040518563ffffffff1660e01b815260040161052e939291906109cc565b6000604051808303818588803b15801561054757600080fd5b505af115801561055b573d6000803e3d6000fd5b505050505050808061056c90610b88565b9150506103c2565b503373ffffffffffffffffffffffffffffffffffffffff166108fc479081150290604051600060405180830381858888f193505050501580156105bb573d6000803e3d6000fd5b5050505050565b60008060008054906101000a900473ffffffffffffffffffffffffffffffffffffffff1673ffffffffffffffffffffffffffffffffffffffff16630178b8bf7f93cdeb708b7545dc668eb9280176169d1c33cfd8ed6f04690a0bcc88a93fc4ae60001b6040518263ffffffff1660e01b81526004016106419190610952565b60206040518083038186803b15801561065957600080fd5b505afa15801561066d573d6000803e3d6000fd5b505050506040513d601f19601f8201168201806040525081019061069191906107ec565b90508073ffffffffffffffffffffffffffffffffffffffff1663124a319c7f93cdeb708b7545dc668eb9280176169d1c33cfd8ed6f04690a0bcc88a93fc4ae60001b63018fac0660e01b6040518363ffffffff1660e01b81526004016106f892919061096d565b60206040518083038186803b15801561071057600080fd5b505afa158015610724573d6000803e3d6000fd5b505050506040513d601f19601f8201168201806040525081019061074891906107ec565b91505090565b60008151905061075d81610c11565b92915050565b60008083601f84011261077557600080fd5b8235905067ffffffffffffffff81111561078e57600080fd5b6020830191508360208202830111156107a657600080fd5b9250929050565b6000813590506107bc81610c28565b92915050565b6000813590506107d181610c3f565b92915050565b6000815190506107e681610c3f565b92915050565b6000602082840312156107fe57600080fd5b600061080c8482850161074e565b91505092915050565b60008060006040848603121561082a57600080fd5b600084013567ffffffffffffffff81111561084457600080fd5b61085086828701610763565b93509350506020610863868287016107c2565b9150509250925092565b60006020828403121561087f57600080fd5b600061088d848285016107ad565b91505092915050565b6000602082840312156108a857600080fd5b60006108b6848285016107d7565b91505092915050565b6108c881610ae9565b82525050565b6108d781610af5565b82525050565b6108e681610aff565b82525050565b6108f581610b55565b82525050565b60006109078385610a70565b9350610914838584610b79565b61091d83610c00565b840190509392505050565b61093181610b4b565b82525050565b600060208201905061094c60008301846108bf565b92915050565b600060208201905061096760008301846108ce565b92915050565b600060408201905061098260008301856108ce565b61098f60208301846108dd565b9392505050565b60006020820190506109ab60008301846108dd565b92915050565b60006020820190506109c660008301846108ec565b92915050565b600060408201905081810360008301526109e78185876108fb565b90506109f66020830184610928565b949350505050565b6000602082019050610a136000830184610928565b92915050565b60008083356001602003843603038112610a3257600080fd5b80840192508235915067ffffffffffffffff821115610a5057600080fd5b602083019250600182023603831315610a6857600080fd5b509250929050565b600082825260208201905092915050565b6000610a8c82610b4b565b9150610a9783610b4b565b9250827fffffffffffffffffffffffffffffffffffffffffffffffffffffffffffffffff03821115610acc57610acb610bd1565b5b828201905092915050565b6000610ae282610b2b565b9050919050565b60008115159050919050565b6000819050919050565b60007fffffffff0000000000000000000000000000000000000000000000000000000082169050919050565b600073ffffffffffffffffffffffffffffffffffffffff82169050919050565b6000819050919050565b6000610b6082610b67565b9050919050565b6000610b7282610b2b565b9050919050565b82818337600083830152505050565b6000610b9382610b4b565b91507fffffffffffffffffffffffffffffffffffffffffffffffffffffffffffffffff821415610bc657610bc5610bd1565b5b600182019050919050565b7f4e487b7100000000000000000000000000000000000000000000000000000000600052601160045260246000fd5b6000601f19601f8301169050919050565b610c1a81610ad7565b8114610c2557600080fd5b50565b610c3181610aff565b8114610c3c57600080fd5b50565b610c4881610b4b565b8114610c5357600080fd5b5056fea26469706673582212205a5d1b73412fcd795962bda22d6b9d57008bafd16854a352dda2f8d3bded62f964736f6c63430008040033",
  "linkReferences": {},
  "deployedLinkReferences": {}
}