{
  "_format": "hh-sol-artifact-1",
  "contractName": "FIFSRegistrar",
  "sourceName": "contracts/registry/FIFSRegistrar.sol",
  "abi": [
    {
      "inputs": [
        {
          "internalType": "contract ENS",
          "name": "ensAddr",
          "type": "address"
        },
        {
          "internalType": "bytes32",
          "name": "node",
          "type": "bytes32"
        }
      ],
      "stateMutability": "nonpayable",
      "type": "constructor"
    },
    {
      "inputs": [
        {
          "internalType": "bytes32",
          "name": "label",
          "type": "bytes32"
        },
        {
          "internalType": "address",
          "name": "owner",
          "type": "address"
        }
      ],
      "name": "register",
      "outputs": [],
      "stateMutability": "nonpayable",
      "type": "function"
    }
  ],
  "bytecode": "0x608060405234801561001057600080fd5b506040516105fc3803806105fc833981810160405281019061003291906100aa565b816000806101000a81548173ffffffffffffffffffffffffffffffffffffffff021916908373ffffffffffffffffffffffffffffffffffffffff160217905550806001819055505050610162565b60008151905061008f81610134565b92915050565b6000815190506100a48161014b565b92915050565b600080604083850312156100bd57600080fd5b60006100cb85828601610095565b92505060206100dc85828601610080565b9150509250929050565b60006100f182610114565b9050919050565b6000819050919050565b600061010d826100e6565b9050919050565b600073ffffffffffffffffffffffffffffffffffffffff82169050919050565b61013d816100f8565b811461014857600080fd5b50565b61015481610102565b811461015f57600080fd5b50565b61048b806101716000396000f3fe608060405234801561001057600080fd5b506004361061002b5760003560e01c8063d22057a914610030575b600080fd5b61004a600480360381019061004591906102f2565b61004c565b005b8160008060009054906101000a900473ffffffffffffffffffffffffffffffffffffffff1673ffffffffffffffffffffffffffffffffffffffff166302571be3600154846040516020016100a1929190610363565b604051602081830303815290604052805190602001206040518263ffffffff1660e01b81526004016100d3919061038f565b60206040518083038186803b1580156100eb57600080fd5b505afa1580156100ff573d6000803e3d6000fd5b505050506040513d601f19601f8201168201806040525081019061012391906102a0565b9050600073ffffffffffffffffffffffffffffffffffffffff168173ffffffffffffffffffffffffffffffffffffffff16148061018b57503373ffffffffffffffffffffffffffffffffffffffff168173ffffffffffffffffffffffffffffffffffffffff16145b61019457600080fd5b60008054906101000a900473ffffffffffffffffffffffffffffffffffffffff1673ffffffffffffffffffffffffffffffffffffffff166306ab592360015486866040518463ffffffff1660e01b81526004016101f3939291906103aa565b602060405180830381600087803b15801561020d57600080fd5b505af1158015610221573d6000803e3d6000fd5b505050506040513d601f19601f8201168201806040525081019061024591906102c9565b5050505050565b60008135905061025b81610427565b92915050565b60008151905061027081610427565b92915050565b6000813590506102858161043e565b92915050565b60008151905061029a8161043e565b92915050565b6000602082840312156102b257600080fd5b60006102c084828501610261565b91505092915050565b6000602082840312156102db57600080fd5b60006102e98482850161028b565b91505092915050565b6000806040838503121561030557600080fd5b600061031385828601610276565b92505060206103248582860161024c565b9150509250929050565b610337816103e1565b82525050565b610346816103f3565b82525050565b61035d610358826103f3565b61041d565b82525050565b600061036f828561034c565b60208201915061037f828461034c565b6020820191508190509392505050565b60006020820190506103a4600083018461033d565b92915050565b60006060820190506103bf600083018661033d565b6103cc602083018561033d565b6103d9604083018461032e565b949350505050565b60006103ec826103fd565b9050919050565b6000819050919050565b600073ffffffffffffffffffffffffffffffffffffffff82169050919050565b6000819050919050565b610430816103e1565b811461043b57600080fd5b50565b610447816103f3565b811461045257600080fd5b5056fea26469706673582212207c781ce24b59e71662bf9130e83e3f795a6910a719268a19d3d2ecfd3d0d131f64736f6c63430008040033",
  "linkReferences": {},
  "deployedLinkReferences": {}
}