{
  "_format": "hh-sol-artifact-1",
  "contractName": "BusinessCard",
  "sourceName": "contracts/BusinessCard.sol",
  "abi": [
    {
      "inputs": [],
      "stateMutability": "nonpayable",
      "type": "constructor"
    },
    {
      "anonymous": false,
      "inputs": [
        {
          "indexed": true,
          "internalType": "address",
          "name": "account",
          "type": "address"
        },
        {
          "indexed": true,
          "internalType": "address",
          "name": "operator",
          "type": "address"
        },
        {
          "indexed": false,
          "internalType": "bool",
          "name": "approved",
          "type": "bool"
        }
      ],
      "name": "ApprovalForAll",
      "type": "event"
    },
    {
      "anonymous": false,
      "inputs": [
        {
          "indexed": true,
          "internalType": "address",
          "name": "previousOwner",
          "type": "address"
        },
        {
          "indexed": true,
          "internalType": "address",
          "name": "newOwner",
          "type": "address"
        }
      ],
      "name": "OwnershipTransferred",
      "type": "event"
    },
    {
      "anonymous": false,
      "inputs": [
        {
          "indexed": true,
          "internalType": "address",
          "name": "operator",
          "type": "address"
        },
        {
          "indexed": true,
          "internalType": "address",
          "name": "from",
          "type": "address"
        },
        {
          "indexed": true,
          "internalType": "address",
          "name": "to",
          "type": "address"
        },
        {
          "indexed": false,
          "internalType": "uint256[]",
          "name": "ids",
          "type": "uint256[]"
        },
        {
          "indexed": false,
          "internalType": "uint256[]",
          "name": "values",
          "type": "uint256[]"
        }
      ],
      "name": "TransferBatch",
      "type": "event"
    },
    {
      "anonymous": false,
      "inputs": [
        {
          "indexed": true,
          "internalType": "address",
          "name": "operator",
          "type": "address"
        },
        {
          "indexed": true,
          "internalType": "address",
          "name": "from",
          "type": "address"
        },
        {
          "indexed": true,
          "internalType": "address",
          "name": "to",
          "type": "address"
        },
        {
          "indexed": false,
          "internalType": "uint256",
          "name": "id",
          "type": "uint256"
        },
        {
          "indexed": false,
          "internalType": "uint256",
          "name": "value",
          "type": "uint256"
        }
      ],
      "name": "TransferSingle",
      "type": "event"
    },
    {
      "anonymous": false,
      "inputs": [
        {
          "indexed": false,
          "internalType": "string",
          "name": "value",
          "type": "string"
        },
        {
          "indexed": true,
          "internalType": "uint256",
          "name": "id",
          "type": "uint256"
        }
      ],
      "name": "URI",
      "type": "event"
    },
    {
      "inputs": [],
      "name": "ERROR_BUSINESS_CARD_SENT_ALREADY",
      "outputs": [
        {
          "internalType": "string",
          "name": "",
          "type": "string"
        }
      ],
      "stateMutability": "view",
      "type": "function"
    },
    {
      "inputs": [],
      "name": "ERROR_SENDING_MULTIPLE_BUSINESS_CARDS",
      "outputs": [
        {
          "internalType": "string",
          "name": "",
          "type": "string"
        }
      ],
      "stateMutability": "view",
      "type": "function"
    },
    {
      "inputs": [],
      "name": "ERROR_TRANSFER",
      "outputs": [
        {
          "internalType": "string",
          "name": "",
          "type": "string"
        }
      ],
      "stateMutability": "view",
      "type": "function"
    },
    {
      "inputs": [
        {
          "internalType": "address",
          "name": "account",
          "type": "address"
        },
        {
          "internalType": "uint256",
          "name": "id",
          "type": "uint256"
        }
      ],
      "name": "balanceOf",
      "outputs": [
        {
          "internalType": "uint256",
          "name": "",
          "type": "uint256"
        }
      ],
      "stateMutability": "view",
      "type": "function"
    },
    {
      "inputs": [
        {
          "internalType": "address[]",
          "name": "accounts",
          "type": "address[]"
        },
        {
          "internalType": "uint256[]",
          "name": "ids",
          "type": "uint256[]"
        }
      ],
      "name": "balanceOfBatch",
      "outputs": [
        {
          "internalType": "uint256[]",
          "name": "",
          "type": "uint256[]"
        }
      ],
      "stateMutability": "view",
      "type": "function"
    },
    {
      "inputs": [
        {
          "internalType": "address",
          "name": "account",
          "type": "address"
        },
        {
          "internalType": "address",
          "name": "operator",
          "type": "address"
        }
      ],
      "name": "isApprovedForAll",
      "outputs": [
        {
          "internalType": "bool",
          "name": "",
          "type": "bool"
        }
      ],
      "stateMutability": "view",
      "type": "function"
    },
    {
      "inputs": [
        {
          "internalType": "address",
          "name": "from",
          "type": "address"
        },
        {
          "internalType": "address",
          "name": "to",
          "type": "address"
        }
      ],
      "name": "mint",
      "outputs": [],
      "stateMutability": "nonpayable",
      "type": "function"
    },
    {
      "inputs": [],
      "name": "owner",
      "outputs": [
        {
          "internalType": "address",
          "name": "",
          "type": "address"
        }
      ],
      "stateMutability": "view",
      "type": "function"
    },
    {
      "inputs": [],
      "name": "renounceOwnership",
      "outputs": [],
      "stateMutability": "nonpayable",
      "type": "function"
    },
    {
      "inputs": [
        {
          "internalType": "address",
          "name": "from",
          "type": "address"
        },
        {
          "internalType": "address",
          "name": "to",
          "type": "address"
        },
        {
          "internalType": "uint256[]",
          "name": "ids",
          "type": "uint256[]"
        },
        {
          "internalType": "uint256[]",
          "name": "amounts",
          "type": "uint256[]"
        },
        {
          "internalType": "bytes",
          "name": "data",
          "type": "bytes"
        }
      ],
      "name": "safeBatchTransferFrom",
      "outputs": [],
      "stateMutability": "nonpayable",
      "type": "function"
    },
    {
      "inputs": [
        {
          "internalType": "address",
          "name": "from",
          "type": "address"
        },
        {
          "internalType": "address",
          "name": "to",
          "type": "address"
        },
        {
          "internalType": "uint256",
          "name": "id",
          "type": "uint256"
        },
        {
          "internalType": "uint256",
          "name": "amount",
          "type": "uint256"
        },
        {
          "internalType": "bytes",
          "name": "data",
          "type": "bytes"
        }
      ],
      "name": "safeTransferFrom",
      "outputs": [],
      "stateMutability": "nonpayable",
      "type": "function"
    },
    {
      "inputs": [
        {
          "internalType": "address",
          "name": "operator",
          "type": "address"
        },
        {
          "internalType": "bool",
          "name": "approved",
          "type": "bool"
        }
      ],
      "name": "setApprovalForAll",
      "outputs": [],
      "stateMutability": "nonpayable",
      "type": "function"
    },
    {
      "inputs": [
        {
          "internalType": "address",
          "name": "account",
          "type": "address"
        },
        {
          "internalType": "string",
          "name": "resourceURI",
          "type": "string"
        }
      ],
      "name": "setProfileResource",
      "outputs": [],
      "stateMutability": "nonpayable",
      "type": "function"
    },
    {
      "inputs": [
        {
          "internalType": "bytes4",
          "name": "interfaceId",
          "type": "bytes4"
        }
      ],
      "name": "supportsInterface",
      "outputs": [
        {
          "internalType": "bool",
          "name": "",
          "type": "bool"
        }
      ],
      "stateMutability": "view",
      "type": "function"
    },
    {
      "inputs": [
        {
          "internalType": "address",
          "name": "author",
          "type": "address"
        }
      ],
      "name": "tokenID",
      "outputs": [
        {
          "internalType": "uint256",
          "name": "",
          "type": "uint256"
        }
      ],
      "stateMutability": "view",
      "type": "function"
    },
    {
      "inputs": [
        {
          "internalType": "address",
          "name": "newOwner",
          "type": "address"
        }
      ],
      "name": "transferOwnership",
      "outputs": [],
      "stateMutability": "nonpayable",
      "type": "function"
    },
    {
      "inputs": [
        {
          "internalType": "uint256",
          "name": "tokenID",
          "type": "uint256"
        }
      ],
      "name": "uri",
      "outputs": [
        {
          "internalType": "string",
          "name": "",
          "type": "string"
        }
      ],
      "stateMutability": "view",
      "type": "function"
    }
  ],
  "bytecode": "0x608060405260405180602001604052806000815250600390816200002491906200040d565b503480156200003257600080fd5b506040518060200160405280600081525062000054816200009b60201b60201c565b506200007562000069620000b060201b60201c565b620000b860201b60201c565b62000095604051806020016040528060008152506200017e60201b60201c565b620004f4565b8060029081620000ac91906200040d565b5050565b600033905090565b6000600560009054906101000a900473ffffffffffffffffffffffffffffffffffffffff16905081600560006101000a81548173ffffffffffffffffffffffffffffffffffffffff021916908373ffffffffffffffffffffffffffffffffffffffff1602179055508173ffffffffffffffffffffffffffffffffffffffff168173ffffffffffffffffffffffffffffffffffffffff167f8be0079c531659141344cd1fd0a4f28419497f9722a3daafe3b4186f6b6457e060405160405180910390a35050565b80600390816200018f91906200040d565b5050565b600081519050919050565b7f4e487b7100000000000000000000000000000000000000000000000000000000600052604160045260246000fd5b7f4e487b7100000000000000000000000000000000000000000000000000000000600052602260045260246000fd5b600060028204905060018216806200021557607f821691505b6020821081036200022b576200022a620001cd565b5b50919050565b60008190508160005260206000209050919050565b60006020601f8301049050919050565b600082821b905092915050565b600060088302620002957fffffffffffffffffffffffffffffffffffffffffffffffffffffffffffffffff8262000256565b620002a1868362000256565b95508019841693508086168417925050509392505050565b6000819050919050565b6000819050919050565b6000620002ee620002e8620002e284620002b9565b620002c3565b620002b9565b9050919050565b6000819050919050565b6200030a83620002cd565b620003226200031982620002f5565b84845462000263565b825550505050565b600090565b620003396200032a565b62000346818484620002ff565b505050565b5b818110156200036e57620003626000826200032f565b6001810190506200034c565b5050565b601f821115620003bd57620003878162000231565b620003928462000246565b81016020851015620003a2578190505b620003ba620003b18562000246565b8301826200034b565b50505b505050565b600082821c905092915050565b6000620003e260001984600802620003c2565b1980831691505092915050565b6000620003fd8383620003cf565b9150826002028217905092915050565b620004188262000193565b67ffffffffffffffff8111156200043457620004336200019e565b5b620004408254620001fc565b6200044d82828562000372565b600060209050601f83116001811462000485576000841562000470578287015190505b6200047c8582620003ef565b865550620004ec565b601f198416620004958662000231565b60005b82811015620004bf5784890151825560018201915060208501945060208101905062000498565b86831015620004df5784890151620004db601f891682620003cf565b8355505b6001600288020188555050505b505050505050565b61369b80620005046000396000f3fe608060405234801561001057600080fd5b506004361061010a5760003560e01c80638da5cb5b116100a2578063e985e9c511610071578063e985e9c5146102a5578063ee1fe2ad146102d5578063f242432a146102f1578063f2fde38b1461030d578063f855c5e2146103295761010a565b80638da5cb5b146102315780638dc0d4861461024f578063a22cb4651461026b578063a9052030146102875761010a565b80632eb2c2d6116100de5780632eb2c2d6146101bd5780634e1273f4146101d95780636336ccd914610209578063715018a6146102275761010a565b8062fdd58e1461010f57806301ffc9a71461013f5780630e89341c1461016f5780632a7617391461019f575b600080fd5b61012960048036038101906101249190611ef6565b610359565b6040516101369190611f45565b60405180910390f35b61015960048036038101906101549190611fb8565b610421565b6040516101669190612000565b60405180910390f35b6101896004803603810190610184919061201b565b610503565b60405161019691906120d8565b60405180910390f35b6101a7610515565b6040516101b491906120d8565b60405180910390f35b6101d760048036038101906101d291906122f7565b61054e565b005b6101f360048036038101906101ee9190612489565b6105ef565b60405161020091906125bf565b60405180910390f35b610211610708565b60405161021e91906120d8565b60405180910390f35b61022f610741565b005b610239610755565b60405161024691906125f0565b60405180910390f35b610269600480360381019061026491906126ac565b61077f565b005b61028560048036038101906102809190612734565b61079b565b005b61028f6107b1565b60405161029c91906120d8565b60405180910390f35b6102bf60048036038101906102ba9190612774565b6107cd565b6040516102cc9190612000565b60405180910390f35b6102ef60048036038101906102ea9190612774565b610861565b005b61030b600480360381019061030691906127b4565b61088f565b005b6103276004803603810190610322919061284b565b610930565b005b610343600480360381019061033e919061284b565b6109b3565b6040516103509190611f45565b60405180910390f35b60008073ffffffffffffffffffffffffffffffffffffffff168373ffffffffffffffffffffffffffffffffffffffff16036103c9576040517f08c379a00000000000000000000000000000000000000000000000000000000081526004016103c0906128ea565b60405180910390fd5b60008083815260200190815260200160002060008473ffffffffffffffffffffffffffffffffffffffff1673ffffffffffffffffffffffffffffffffffffffff16815260200190815260200160002054905092915050565b60007fd9b67a26000000000000000000000000000000000000000000000000000000007bffffffffffffffffffffffffffffffffffffffffffffffffffffffff1916827bffffffffffffffffffffffffffffffffffffffffffffffffffffffff191614806104ec57507f0e89341c000000000000000000000000000000000000000000000000000000007bffffffffffffffffffffffffffffffffffffffffffffffffffffffff1916827bffffffffffffffffffffffffffffffffffffffffffffffffffffffff1916145b806104fc57506104fb826109fc565b5b9050919050565b606061050e82610a66565b9050919050565b6040518060400160405280601b81526020017f726563697069656e742068617320746f6b656e20616c7265616479000000000081525081565b610556610b4b565b73ffffffffffffffffffffffffffffffffffffffff168573ffffffffffffffffffffffffffffffffffffffff16148061059c575061059b85610596610b4b565b6107cd565b5b6105db576040517f08c379a00000000000000000000000000000000000000000000000000000000081526004016105d29061297c565b60405180910390fd5b6105e88585858585610b53565b5050505050565b60608151835114610635576040517f08c379a000000000000000000000000000000000000000000000000000000000815260040161062c90612a0e565b60405180910390fd5b6000835167ffffffffffffffff811115610652576106516120ff565b5b6040519080825280602002602001820160405280156106805781602001602082028036833780820191505090505b50905060005b84518110156106fd576106cd8582815181106106a5576106a4612a2e565b5b60200260200101518583815181106106c0576106bf612a2e565b5b6020026020010151610359565b8282815181106106e0576106df612a2e565b5b602002602001018181525050806106f690612a8c565b9050610686565b508091505092915050565b6040518060400160405280601481526020017f43616e2774207472616e7366657220746f6b656e00000000000000000000000081525081565b610749610e74565b6107536000610ef2565b565b6000600560009054906101000a900473ffffffffffffffffffffffffffffffffffffffff16905090565b600061078a83610fb8565b905061079681836110e7565b505050565b6107ad6107a6610b4b565b838361114c565b5050565b60405180606001604052806028815260200161363e6028913981565b6000600160008473ffffffffffffffffffffffffffffffffffffffff1673ffffffffffffffffffffffffffffffffffffffff16815260200190815260200160002060008373ffffffffffffffffffffffffffffffffffffffff1673ffffffffffffffffffffffffffffffffffffffff16815260200190815260200160002060009054906101000a900460ff16905092915050565b600061086c83610fb8565b905061088a82826001604051806020016040528060008152506112b8565b505050565b610897610b4b565b73ffffffffffffffffffffffffffffffffffffffff168573ffffffffffffffffffffffffffffffffffffffff1614806108dd57506108dc856108d7610b4b565b6107cd565b5b61091c576040517f08c379a00000000000000000000000000000000000000000000000000000000081526004016109139061297c565b60405180910390fd5b6109298585858585611468565b5050505050565b610938610e74565b600073ffffffffffffffffffffffffffffffffffffffff168173ffffffffffffffffffffffffffffffffffffffff16036109a7576040517f08c379a000000000000000000000000000000000000000000000000000000000815260040161099e90612b46565b60405180910390fd5b6109b081610ef2565b50565b6000600760008373ffffffffffffffffffffffffffffffffffffffff1673ffffffffffffffffffffffffffffffffffffffff168152602001908152602001600020549050919050565b60007f01ffc9a7000000000000000000000000000000000000000000000000000000007bffffffffffffffffffffffffffffffffffffffffffffffffffffffff1916827bffffffffffffffffffffffffffffffffffffffffffffffffffffffff1916149050919050565b60606000600460008481526020019081526020016000208054610a8890612b95565b80601f0160208091040260200160405190810160405280929190818152602001828054610ab490612b95565b8015610b015780601f10610ad657610100808354040283529160200191610b01565b820191906000526020600020905b815481529060010190602001808311610ae457829003601f168201915b505050505090506000815111610b1f57610b1a83611703565b610b43565b600381604051602001610b33929190612c9a565b6040516020818303038152906040525b915050919050565b600033905090565b8151835114610b97576040517f08c379a0000000000000000000000000000000000000000000000000000000008152600401610b8e90612d30565b60405180910390fd5b600073ffffffffffffffffffffffffffffffffffffffff168473ffffffffffffffffffffffffffffffffffffffff1603610c06576040517f08c379a0000000000000000000000000000000000000000000000000000000008152600401610bfd90612dc2565b60405180910390fd5b6000610c10610b4b565b9050610c20818787878787611797565b60005b8451811015610dd1576000858281518110610c4157610c40612a2e565b5b602002602001015190506000858381518110610c6057610c5f612a2e565b5b60200260200101519050600080600084815260200190815260200160002060008b73ffffffffffffffffffffffffffffffffffffffff1673ffffffffffffffffffffffffffffffffffffffff16815260200190815260200160002054905081811015610d01576040517f08c379a0000000000000000000000000000000000000000000000000000000008152600401610cf890612e54565b60405180910390fd5b81810360008085815260200190815260200160002060008c73ffffffffffffffffffffffffffffffffffffffff1673ffffffffffffffffffffffffffffffffffffffff168152602001908152602001600020819055508160008085815260200190815260200160002060008b73ffffffffffffffffffffffffffffffffffffffff1673ffffffffffffffffffffffffffffffffffffffff1681526020019081526020016000206000828254610db69190612e74565b9250508190555050505080610dca90612a8c565b9050610c23565b508473ffffffffffffffffffffffffffffffffffffffff168673ffffffffffffffffffffffffffffffffffffffff168273ffffffffffffffffffffffffffffffffffffffff167f4a39dc06d4c0dbc64b70af90fd698a233a518aa5d07e595d983b8c0526c8f7fb8787604051610e48929190612ea8565b60405180910390a4610e5e8187878787876119d7565b610e6c8187878787876119df565b505050505050565b610e7c610b4b565b73ffffffffffffffffffffffffffffffffffffffff16610e9a610755565b73ffffffffffffffffffffffffffffffffffffffff1614610ef0576040517f08c379a0000000000000000000000000000000000000000000000000000000008152600401610ee790612f2b565b60405180910390fd5b565b6000600560009054906101000a900473ffffffffffffffffffffffffffffffffffffffff16905081600560006101000a81548173ffffffffffffffffffffffffffffffffffffffff021916908373ffffffffffffffffffffffffffffffffffffffff1602179055508173ffffffffffffffffffffffffffffffffffffffff168173ffffffffffffffffffffffffffffffffffffffff167f8be0079c531659141344cd1fd0a4f28419497f9722a3daafe3b4186f6b6457e060405160405180910390a35050565b600080600760008473ffffffffffffffffffffffffffffffffffffffff1673ffffffffffffffffffffffffffffffffffffffff16815260200190815260200160002054111561104857600760008373ffffffffffffffffffffffffffffffffffffffff1673ffffffffffffffffffffffffffffffffffffffff1681526020019081526020016000205490506110e2565b6110526006611bb6565b61105c6006611bcc565b600760008473ffffffffffffffffffffffffffffffffffffffff1673ffffffffffffffffffffffffffffffffffffffff16815260200190815260200160002081905550600760008373ffffffffffffffffffffffffffffffffffffffff1673ffffffffffffffffffffffffffffffffffffffff1681526020019081526020016000205490505b919050565b8060046000848152602001908152602001600020908161110791906130e2565b50817f6bb7ff708619ba0610cba295a58592e0451dee2622938c8755667688daf3529b61113384610503565b60405161114091906120d8565b60405180910390a25050565b8173ffffffffffffffffffffffffffffffffffffffff168373ffffffffffffffffffffffffffffffffffffffff16036111ba576040517f08c379a00000000000000000000000000000000000000000000000000000000081526004016111b190613226565b60405180910390fd5b80600160008573ffffffffffffffffffffffffffffffffffffffff1673ffffffffffffffffffffffffffffffffffffffff16815260200190815260200160002060008473ffffffffffffffffffffffffffffffffffffffff1673ffffffffffffffffffffffffffffffffffffffff16815260200190815260200160002060006101000a81548160ff0219169083151502179055508173ffffffffffffffffffffffffffffffffffffffff168373ffffffffffffffffffffffffffffffffffffffff167f17307eab39ab6107e8899845ad3d59bd9653f200f220920489ca2b5937696c31836040516112ab9190612000565b60405180910390a3505050565b600073ffffffffffffffffffffffffffffffffffffffff168473ffffffffffffffffffffffffffffffffffffffff1603611327576040517f08c379a000000000000000000000000000000000000000000000000000000000815260040161131e906132b8565b60405180910390fd5b6000611331610b4b565b9050600061133e85611bda565b9050600061134b85611bda565b905061135c83600089858589611797565b8460008088815260200190815260200160002060008973ffffffffffffffffffffffffffffffffffffffff1673ffffffffffffffffffffffffffffffffffffffff16815260200190815260200160002060008282546113bb9190612e74565b925050819055508673ffffffffffffffffffffffffffffffffffffffff16600073ffffffffffffffffffffffffffffffffffffffff168473ffffffffffffffffffffffffffffffffffffffff167fc3d58168c5ae7397731d063d5bbf3d657854427343f4c083240f7aacaa2d0f6289896040516114399291906132d8565b60405180910390a4611450836000898585896119d7565b61145f83600089898989611c54565b50505050505050565b600073ffffffffffffffffffffffffffffffffffffffff168473ffffffffffffffffffffffffffffffffffffffff16036114d7576040517f08c379a00000000000000000000000000000000000000000000000000000000081526004016114ce90612dc2565b60405180910390fd5b60006114e1610b4b565b905060006114ee85611bda565b905060006114fb85611bda565b905061150b838989858589611797565b600080600088815260200190815260200160002060008a73ffffffffffffffffffffffffffffffffffffffff1673ffffffffffffffffffffffffffffffffffffffff168152602001908152602001600020549050858110156115a2576040517f08c379a000000000000000000000000000000000000000000000000000000000815260040161159990612e54565b60405180910390fd5b85810360008089815260200190815260200160002060008b73ffffffffffffffffffffffffffffffffffffffff1673ffffffffffffffffffffffffffffffffffffffff168152602001908152602001600020819055508560008089815260200190815260200160002060008a73ffffffffffffffffffffffffffffffffffffffff1673ffffffffffffffffffffffffffffffffffffffff16815260200190815260200160002060008282546116579190612e74565b925050819055508773ffffffffffffffffffffffffffffffffffffffff168973ffffffffffffffffffffffffffffffffffffffff168573ffffffffffffffffffffffffffffffffffffffff167fc3d58168c5ae7397731d063d5bbf3d657854427343f4c083240f7aacaa2d0f628a8a6040516116d49291906132d8565b60405180910390a46116ea848a8a86868a6119d7565b6116f8848a8a8a8a8a611c54565b505050505050505050565b60606002805461171290612b95565b80601f016020809104026020016040519081016040528092919081815260200182805461173e90612b95565b801561178b5780601f106117605761010080835404028352916020019161178b565b820191906000526020600020905b81548152906001019060200180831161176e57829003601f168201915b50505050509050919050565b600073ffffffffffffffffffffffffffffffffffffffff168573ffffffffffffffffffffffffffffffffffffffff1614806117fe5750600073ffffffffffffffffffffffffffffffffffffffff168473ffffffffffffffffffffffffffffffffffffffff16145b6040518060400160405280601481526020017f43616e2774207472616e7366657220746f6b656e00000000000000000000000081525090611875576040517f08c379a000000000000000000000000000000000000000000000000000000000815260040161186c91906120d8565b60405180910390fd5b5060005b83518110156119345760006118a88686848151811061189b5761189a612a2e565b5b6020026020010151610359565b146040518060400160405280601b81526020017f726563697069656e742068617320746f6b656e20616c7265616479000000000081525090611920576040517f08c379a000000000000000000000000000000000000000000000000000000000815260040161191791906120d8565b60405180910390fd5b50808061192c90612a8c565b915050611879565b5060005b82518110156119ce57600183828151811061195657611955612a2e565b5b6020026020010151111560405180606001604052806028815260200161363e60289139906119ba576040517f08c379a00000000000000000000000000000000000000000000000000000000081526004016119b191906120d8565b60405180910390fd5b5080806119c690612a8c565b915050611938565b50505050505050565b505050505050565b6119fe8473ffffffffffffffffffffffffffffffffffffffff16611e2b565b15611bae578373ffffffffffffffffffffffffffffffffffffffff1663bc197c8187878686866040518663ffffffff1660e01b8152600401611a44959493929190613356565b6020604051808303816000875af1925050508015611a8057506040513d601f19601f82011682018060405250810190611a7d91906133d3565b60015b611b2557611a8c61340d565b806308c379a003611ae85750611aa061342f565b80611aab5750611aea565b806040517f08c379a0000000000000000000000000000000000000000000000000000000008152600401611adf91906120d8565b60405180910390fd5b505b6040517f08c379a0000000000000000000000000000000000000000000000000000000008152600401611b1c90613531565b60405180910390fd5b63bc197c8160e01b7bffffffffffffffffffffffffffffffffffffffffffffffffffffffff1916817bffffffffffffffffffffffffffffffffffffffffffffffffffffffff191614611bac576040517f08c379a0000000000000000000000000000000000000000000000000000000008152600401611ba3906135c3565b60405180910390fd5b505b505050505050565b6001816000016000828254019250508190555050565b600081600001549050919050565b60606000600167ffffffffffffffff811115611bf957611bf86120ff565b5b604051908082528060200260200182016040528015611c275781602001602082028036833780820191505090505b5090508281600081518110611c3f57611c3e612a2e565b5b60200260200101818152505080915050919050565b611c738473ffffffffffffffffffffffffffffffffffffffff16611e2b565b15611e23578373ffffffffffffffffffffffffffffffffffffffff1663f23a6e6187878686866040518663ffffffff1660e01b8152600401611cb99594939291906135e3565b6020604051808303816000875af1925050508015611cf557506040513d601f19601f82011682018060405250810190611cf291906133d3565b60015b611d9a57611d0161340d565b806308c379a003611d5d5750611d1561342f565b80611d205750611d5f565b806040517f08c379a0000000000000000000000000000000000000000000000000000000008152600401611d5491906120d8565b60405180910390fd5b505b6040517f08c379a0000000000000000000000000000000000000000000000000000000008152600401611d9190613531565b60405180910390fd5b63f23a6e6160e01b7bffffffffffffffffffffffffffffffffffffffffffffffffffffffff1916817bffffffffffffffffffffffffffffffffffffffffffffffffffffffff191614611e21576040517f08c379a0000000000000000000000000000000000000000000000000000000008152600401611e18906135c3565b60405180910390fd5b505b505050505050565b6000808273ffffffffffffffffffffffffffffffffffffffff163b119050919050565b6000604051905090565b600080fd5b600080fd5b600073ffffffffffffffffffffffffffffffffffffffff82169050919050565b6000611e8d82611e62565b9050919050565b611e9d81611e82565b8114611ea857600080fd5b50565b600081359050611eba81611e94565b92915050565b6000819050919050565b611ed381611ec0565b8114611ede57600080fd5b50565b600081359050611ef081611eca565b92915050565b60008060408385031215611f0d57611f0c611e58565b5b6000611f1b85828601611eab565b9250506020611f2c85828601611ee1565b9150509250929050565b611f3f81611ec0565b82525050565b6000602082019050611f5a6000830184611f36565b92915050565b60007fffffffff0000000000000000000000000000000000000000000000000000000082169050919050565b611f9581611f60565b8114611fa057600080fd5b50565b600081359050611fb281611f8c565b92915050565b600060208284031215611fce57611fcd611e58565b5b6000611fdc84828501611fa3565b91505092915050565b60008115159050919050565b611ffa81611fe5565b82525050565b60006020820190506120156000830184611ff1565b92915050565b60006020828403121561203157612030611e58565b5b600061203f84828501611ee1565b91505092915050565b600081519050919050565b600082825260208201905092915050565b60005b83811015612082578082015181840152602081019050612067565b60008484015250505050565b6000601f19601f8301169050919050565b60006120aa82612048565b6120b48185612053565b93506120c4818560208601612064565b6120cd8161208e565b840191505092915050565b600060208201905081810360008301526120f2818461209f565b905092915050565b600080fd5b7f4e487b7100000000000000000000000000000000000000000000000000000000600052604160045260246000fd5b6121378261208e565b810181811067ffffffffffffffff82111715612156576121556120ff565b5b80604052505050565b6000612169611e4e565b9050612175828261212e565b919050565b600067ffffffffffffffff821115612195576121946120ff565b5b602082029050602081019050919050565b600080fd5b60006121be6121b98461217a565b61215f565b905080838252602082019050602084028301858111156121e1576121e06121a6565b5b835b8181101561220a57806121f68882611ee1565b8452602084019350506020810190506121e3565b5050509392505050565b600082601f830112612229576122286120fa565b5b81356122398482602086016121ab565b91505092915050565b600080fd5b600067ffffffffffffffff821115612262576122616120ff565b5b61226b8261208e565b9050602081019050919050565b82818337600083830152505050565b600061229a61229584612247565b61215f565b9050828152602081018484840111156122b6576122b5612242565b5b6122c1848285612278565b509392505050565b600082601f8301126122de576122dd6120fa565b5b81356122ee848260208601612287565b91505092915050565b600080600080600060a0868803121561231357612312611e58565b5b600061232188828901611eab565b955050602061233288828901611eab565b945050604086013567ffffffffffffffff81111561235357612352611e5d565b5b61235f88828901612214565b935050606086013567ffffffffffffffff8111156123805761237f611e5d565b5b61238c88828901612214565b925050608086013567ffffffffffffffff8111156123ad576123ac611e5d565b5b6123b9888289016122c9565b9150509295509295909350565b600067ffffffffffffffff8211156123e1576123e06120ff565b5b602082029050602081019050919050565b6000612405612400846123c6565b61215f565b90508083825260208201905060208402830185811115612428576124276121a6565b5b835b81811015612451578061243d8882611eab565b84526020840193505060208101905061242a565b5050509392505050565b600082601f8301126124705761246f6120fa565b5b81356124808482602086016123f2565b91505092915050565b600080604083850312156124a05761249f611e58565b5b600083013567ffffffffffffffff8111156124be576124bd611e5d565b5b6124ca8582860161245b565b925050602083013567ffffffffffffffff8111156124eb576124ea611e5d565b5b6124f785828601612214565b9150509250929050565b600081519050919050565b600082825260208201905092915050565b6000819050602082019050919050565b61253681611ec0565b82525050565b6000612548838361252d565b60208301905092915050565b6000602082019050919050565b600061256c82612501565b612576818561250c565b93506125818361251d565b8060005b838110156125b2578151612599888261253c565b97506125a483612554565b925050600181019050612585565b5085935050505092915050565b600060208201905081810360008301526125d98184612561565b905092915050565b6125ea81611e82565b82525050565b600060208201905061260560008301846125e1565b92915050565b600067ffffffffffffffff821115612626576126256120ff565b5b61262f8261208e565b9050602081019050919050565b600061264f61264a8461260b565b61215f565b90508281526020810184848401111561266b5761266a612242565b5b612676848285612278565b509392505050565b600082601f830112612693576126926120fa565b5b81356126a384826020860161263c565b91505092915050565b600080604083850312156126c3576126c2611e58565b5b60006126d185828601611eab565b925050602083013567ffffffffffffffff8111156126f2576126f1611e5d565b5b6126fe8582860161267e565b9150509250929050565b61271181611fe5565b811461271c57600080fd5b50565b60008135905061272e81612708565b92915050565b6000806040838503121561274b5761274a611e58565b5b600061275985828601611eab565b925050602061276a8582860161271f565b9150509250929050565b6000806040838503121561278b5761278a611e58565b5b600061279985828601611eab565b92505060206127aa85828601611eab565b9150509250929050565b600080600080600060a086880312156127d0576127cf611e58565b5b60006127de88828901611eab565b95505060206127ef88828901611eab565b945050604061280088828901611ee1565b935050606061281188828901611ee1565b925050608086013567ffffffffffffffff81111561283257612831611e5d565b5b61283e888289016122c9565b9150509295509295909350565b60006020828403121561286157612860611e58565b5b600061286f84828501611eab565b91505092915050565b7f455243313135353a2061646472657373207a65726f206973206e6f742061207660008201527f616c6964206f776e657200000000000000000000000000000000000000000000602082015250565b60006128d4602a83612053565b91506128df82612878565b604082019050919050565b60006020820190508181036000830152612903816128c7565b9050919050565b7f455243313135353a2063616c6c6572206973206e6f7420746f6b656e206f776e60008201527f6572206e6f7220617070726f7665640000000000000000000000000000000000602082015250565b6000612966602f83612053565b91506129718261290a565b604082019050919050565b6000602082019050818103600083015261299581612959565b9050919050565b7f455243313135353a206163636f756e747320616e6420696473206c656e67746860008201527f206d69736d617463680000000000000000000000000000000000000000000000602082015250565b60006129f8602983612053565b9150612a038261299c565b604082019050919050565b60006020820190508181036000830152612a27816129eb565b9050919050565b7f4e487b7100000000000000000000000000000000000000000000000000000000600052603260045260246000fd5b7f4e487b7100000000000000000000000000000000000000000000000000000000600052601160045260246000fd5b6000612a9782611ec0565b91507fffffffffffffffffffffffffffffffffffffffffffffffffffffffffffffffff8203612ac957612ac8612a5d565b5b600182019050919050565b7f4f776e61626c653a206e6577206f776e657220697320746865207a65726f206160008201527f6464726573730000000000000000000000000000000000000000000000000000602082015250565b6000612b30602683612053565b9150612b3b82612ad4565b604082019050919050565b60006020820190508181036000830152612b5f81612b23565b9050919050565b7f4e487b7100000000000000000000000000000000000000000000000000000000600052602260045260246000fd5b60006002820490506001821680612bad57607f821691505b602082108103612bc057612bbf612b66565b5b50919050565b600081905092915050565b60008190508160005260206000209050919050565b60008154612bf381612b95565b612bfd8186612bc6565b94506001821660008114612c185760018114612c2d57612c60565b60ff1983168652811515820286019350612c60565b612c3685612bd1565b60005b83811015612c5857815481890152600182019150602081019050612c39565b838801955050505b50505092915050565b6000612c7482612048565b612c7e8185612bc6565b9350612c8e818560208601612064565b80840191505092915050565b6000612ca68285612be6565b9150612cb28284612c69565b91508190509392505050565b7f455243313135353a2069647320616e6420616d6f756e7473206c656e6774682060008201527f6d69736d61746368000000000000000000000000000000000000000000000000602082015250565b6000612d1a602883612053565b9150612d2582612cbe565b604082019050919050565b60006020820190508181036000830152612d4981612d0d565b9050919050565b7f455243313135353a207472616e7366657220746f20746865207a65726f20616460008201527f6472657373000000000000000000000000000000000000000000000000000000602082015250565b6000612dac602583612053565b9150612db782612d50565b604082019050919050565b60006020820190508181036000830152612ddb81612d9f565b9050919050565b7f455243313135353a20696e73756666696369656e742062616c616e636520666f60008201527f72207472616e7366657200000000000000000000000000000000000000000000602082015250565b6000612e3e602a83612053565b9150612e4982612de2565b604082019050919050565b60006020820190508181036000830152612e6d81612e31565b9050919050565b6000612e7f82611ec0565b9150612e8a83611ec0565b9250828201905080821115612ea257612ea1612a5d565b5b92915050565b60006040820190508181036000830152612ec28185612561565b90508181036020830152612ed68184612561565b90509392505050565b7f4f776e61626c653a2063616c6c6572206973206e6f7420746865206f776e6572600082015250565b6000612f15602083612053565b9150612f2082612edf565b602082019050919050565b60006020820190508181036000830152612f4481612f08565b9050919050565b60006020601f8301049050919050565b600082821b905092915050565b600060088302612f987fffffffffffffffffffffffffffffffffffffffffffffffffffffffffffffffff82612f5b565b612fa28683612f5b565b95508019841693508086168417925050509392505050565b6000819050919050565b6000612fdf612fda612fd584611ec0565b612fba565b611ec0565b9050919050565b6000819050919050565b612ff983612fc4565b61300d61300582612fe6565b848454612f68565b825550505050565b600090565b613022613015565b61302d818484612ff0565b505050565b5b818110156130515761304660008261301a565b600181019050613033565b5050565b601f8211156130965761306781612bd1565b61307084612f4b565b8101602085101561307f578190505b61309361308b85612f4b565b830182613032565b50505b505050565b600082821c905092915050565b60006130b96000198460080261309b565b1980831691505092915050565b60006130d283836130a8565b9150826002028217905092915050565b6130eb82612048565b67ffffffffffffffff811115613104576131036120ff565b5b61310e8254612b95565b613119828285613055565b600060209050601f83116001811461314c576000841561313a578287015190505b61314485826130c6565b8655506131ac565b601f19841661315a86612bd1565b60005b828110156131825784890151825560018201915060208501945060208101905061315d565b8683101561319f578489015161319b601f8916826130a8565b8355505b6001600288020188555050505b505050505050565b7f455243313135353a2073657474696e6720617070726f76616c2073746174757360008201527f20666f722073656c660000000000000000000000000000000000000000000000602082015250565b6000613210602983612053565b915061321b826131b4565b604082019050919050565b6000602082019050818103600083015261323f81613203565b9050919050565b7f455243313135353a206d696e7420746f20746865207a65726f2061646472657360008201527f7300000000000000000000000000000000000000000000000000000000000000602082015250565b60006132a2602183612053565b91506132ad82613246565b604082019050919050565b600060208201905081810360008301526132d181613295565b9050919050565b60006040820190506132ed6000830185611f36565b6132fa6020830184611f36565b9392505050565b600081519050919050565b600082825260208201905092915050565b600061332882613301565b613332818561330c565b9350613342818560208601612064565b61334b8161208e565b840191505092915050565b600060a08201905061336b60008301886125e1565b61337860208301876125e1565b818103604083015261338a8186612561565b9050818103606083015261339e8185612561565b905081810360808301526133b2818461331d565b90509695505050505050565b6000815190506133cd81611f8c565b92915050565b6000602082840312156133e9576133e8611e58565b5b60006133f7848285016133be565b91505092915050565b60008160e01c9050919050565b600060033d111561342c5760046000803e613429600051613400565b90505b90565b600060443d106134bc57613441611e4e565b60043d036004823e80513d602482011167ffffffffffffffff821117156134695750506134bc565b808201805167ffffffffffffffff81111561348757505050506134bc565b80602083010160043d0385018111156134a45750505050506134bc565b6134b38260200185018661212e565b82955050505050505b90565b7f455243313135353a207472616e7366657220746f206e6f6e204552433131353560008201527f526563656976657220696d706c656d656e746572000000000000000000000000602082015250565b600061351b603483612053565b9150613526826134bf565b604082019050919050565b6000602082019050818103600083015261354a8161350e565b9050919050565b7f455243313135353a204552433131353552656365697665722072656a6563746560008201527f6420746f6b656e73000000000000000000000000000000000000000000000000602082015250565b60006135ad602883612053565b91506135b882613551565b604082019050919050565b600060208201905081810360008301526135dc816135a0565b9050919050565b600060a0820190506135f860008301886125e1565b61360560208301876125e1565b6136126040830186611f36565b61361f6060830185611f36565b8181036080830152613631818461331d565b9050969550505050505056fe32206f66206d6f726520746f6b656e73206f66206120747970652063616e27742062652073656e74a26469706673582212205877ff022a009f06110038113836ba790db3bf4385153c54718b9ece5540c54e64736f6c63430008110033",
  "linkReferences": {},
  "deployedLinkReferences": {}
}