{
  "_format": "hh-sol-artifact-1",
  "contractName": "BusinessCardDesign",
  "sourceName": "contracts/BusinessCardDesign.sol",
  "abi": [
    {
      "inputs": [
        {
          "internalType": "string",
          "name": "baseURI",
          "type": "string"
        }
      ],
      "stateMutability": "nonpayable",
      "type": "constructor"
    },
    {
      "anonymous": false,
      "inputs": [
        {
          "indexed": true,
          "internalType": "address",
          "name": "account",
          "type": "address"
        },
        {
          "indexed": true,
          "internalType": "address",
          "name": "operator",
          "type": "address"
        },
        {
          "indexed": false,
          "internalType": "bool",
          "name": "approved",
          "type": "bool"
        }
      ],
      "name": "ApprovalForAll",
      "type": "event"
    },
    {
      "anonymous": false,
      "inputs": [
        {
          "indexed": false,
          "internalType": "uint256",
          "name": "designID",
          "type": "uint256"
        },
        {
          "indexed": false,
          "internalType": "string",
          "name": "uri",
          "type": "string"
        }
      ],
      "name": "DesignCreated",
      "type": "event"
    },
    {
      "anonymous": false,
      "inputs": [
        {
          "indexed": true,
          "internalType": "address",
          "name": "account",
          "type": "address"
        },
        {
          "indexed": false,
          "internalType": "uint256",
          "name": "designID",
          "type": "uint256"
        }
      ],
      "name": "DesignSelected",
      "type": "event"
    },
    {
      "anonymous": false,
      "inputs": [
        {
          "indexed": true,
          "internalType": "uint256",
          "name": "designID",
          "type": "uint256"
        },
        {
          "indexed": true,
          "internalType": "address",
          "name": "to",
          "type": "address"
        },
        {
          "indexed": false,
          "internalType": "uint256",
          "name": "amount",
          "type": "uint256"
        }
      ],
      "name": "NewTokenIssued",
      "type": "event"
    },
    {
      "anonymous": false,
      "inputs": [
        {
          "indexed": true,
          "internalType": "address",
          "name": "previousOwner",
          "type": "address"
        },
        {
          "indexed": true,
          "internalType": "address",
          "name": "newOwner",
          "type": "address"
        }
      ],
      "name": "OwnershipTransferred",
      "type": "event"
    },
    {
      "anonymous": false,
      "inputs": [
        {
          "indexed": true,
          "internalType": "address",
          "name": "operator",
          "type": "address"
        },
        {
          "indexed": true,
          "internalType": "address",
          "name": "from",
          "type": "address"
        },
        {
          "indexed": true,
          "internalType": "address",
          "name": "to",
          "type": "address"
        },
        {
          "indexed": false,
          "internalType": "uint256[]",
          "name": "ids",
          "type": "uint256[]"
        },
        {
          "indexed": false,
          "internalType": "uint256[]",
          "name": "values",
          "type": "uint256[]"
        }
      ],
      "name": "TransferBatch",
      "type": "event"
    },
    {
      "anonymous": false,
      "inputs": [
        {
          "indexed": true,
          "internalType": "address",
          "name": "operator",
          "type": "address"
        },
        {
          "indexed": true,
          "internalType": "address",
          "name": "from",
          "type": "address"
        },
        {
          "indexed": true,
          "internalType": "address",
          "name": "to",
          "type": "address"
        },
        {
          "indexed": false,
          "internalType": "uint256",
          "name": "id",
          "type": "uint256"
        },
        {
          "indexed": false,
          "internalType": "uint256",
          "name": "value",
          "type": "uint256"
        }
      ],
      "name": "TransferSingle",
      "type": "event"
    },
    {
      "anonymous": false,
      "inputs": [
        {
          "indexed": false,
          "internalType": "string",
          "name": "value",
          "type": "string"
        },
        {
          "indexed": true,
          "internalType": "uint256",
          "name": "id",
          "type": "uint256"
        }
      ],
      "name": "URI",
      "type": "event"
    },
    {
      "inputs": [],
      "name": "ERROR_ACCOUNT_DOES_NOT_HAVE_DESIGN",
      "outputs": [
        {
          "internalType": "string",
          "name": "",
          "type": "string"
        }
      ],
      "stateMutability": "view",
      "type": "function"
    },
    {
      "inputs": [],
      "name": "ERROR_DESIGN_NOT_FOUND",
      "outputs": [
        {
          "internalType": "string",
          "name": "",
          "type": "string"
        }
      ],
      "stateMutability": "view",
      "type": "function"
    },
    {
      "inputs": [],
      "name": "ERROR_SELL_ALL_SELECTED_DESIGN",
      "outputs": [
        {
          "internalType": "string",
          "name": "",
          "type": "string"
        }
      ],
      "stateMutability": "view",
      "type": "function"
    },
    {
      "inputs": [
        {
          "internalType": "address",
          "name": "account",
          "type": "address"
        },
        {
          "internalType": "uint256",
          "name": "id",
          "type": "uint256"
        }
      ],
      "name": "balanceOf",
      "outputs": [
        {
          "internalType": "uint256",
          "name": "",
          "type": "uint256"
        }
      ],
      "stateMutability": "view",
      "type": "function"
    },
    {
      "inputs": [
        {
          "internalType": "address[]",
          "name": "accounts",
          "type": "address[]"
        },
        {
          "internalType": "uint256[]",
          "name": "ids",
          "type": "uint256[]"
        }
      ],
      "name": "balanceOfBatch",
      "outputs": [
        {
          "internalType": "uint256[]",
          "name": "",
          "type": "uint256[]"
        }
      ],
      "stateMutability": "view",
      "type": "function"
    },
    {
      "inputs": [
        {
          "internalType": "uint256",
          "name": "cardDesignID",
          "type": "uint256"
        },
        {
          "internalType": "address",
          "name": "account",
          "type": "address"
        }
      ],
      "name": "hasCardDesign",
      "outputs": [
        {
          "internalType": "bool",
          "name": "",
          "type": "bool"
        }
      ],
      "stateMutability": "view",
      "type": "function"
    },
    {
      "inputs": [
        {
          "internalType": "address",
          "name": "account",
          "type": "address"
        },
        {
          "internalType": "address",
          "name": "operator",
          "type": "address"
        }
      ],
      "name": "isApprovedForAll",
      "outputs": [
        {
          "internalType": "bool",
          "name": "",
          "type": "bool"
        }
      ],
      "stateMutability": "view",
      "type": "function"
    },
    {
      "inputs": [
        {
          "internalType": "address",
          "name": "to",
          "type": "address"
        },
        {
          "internalType": "uint256",
          "name": "designID",
          "type": "uint256"
        },
        {
          "internalType": "uint256",
          "name": "number",
          "type": "uint256"
        }
      ],
      "name": "mint",
      "outputs": [],
      "stateMutability": "nonpayable",
      "type": "function"
    },
    {
      "inputs": [],
      "name": "owner",
      "outputs": [
        {
          "internalType": "address",
          "name": "",
          "type": "address"
        }
      ],
      "stateMutability": "view",
      "type": "function"
    },
    {
      "inputs": [
        {
          "internalType": "string",
          "name": "tokenURI",
          "type": "string"
        }
      ],
      "name": "registerResource",
      "outputs": [
        {
          "internalType": "uint256",
          "name": "",
          "type": "uint256"
        }
      ],
      "stateMutability": "nonpayable",
      "type": "function"
    },
    {
      "inputs": [],
      "name": "renounceOwnership",
      "outputs": [],
      "stateMutability": "nonpayable",
      "type": "function"
    },
    {
      "inputs": [
        {
          "internalType": "address",
          "name": "from",
          "type": "address"
        },
        {
          "internalType": "address",
          "name": "to",
          "type": "address"
        },
        {
          "internalType": "uint256[]",
          "name": "ids",
          "type": "uint256[]"
        },
        {
          "internalType": "uint256[]",
          "name": "amounts",
          "type": "uint256[]"
        },
        {
          "internalType": "bytes",
          "name": "data",
          "type": "bytes"
        }
      ],
      "name": "safeBatchTransferFrom",
      "outputs": [],
      "stateMutability": "nonpayable",
      "type": "function"
    },
    {
      "inputs": [
        {
          "internalType": "address",
          "name": "from",
          "type": "address"
        },
        {
          "internalType": "address",
          "name": "to",
          "type": "address"
        },
        {
          "internalType": "uint256",
          "name": "id",
          "type": "uint256"
        },
        {
          "internalType": "uint256",
          "name": "amount",
          "type": "uint256"
        },
        {
          "internalType": "bytes",
          "name": "data",
          "type": "bytes"
        }
      ],
      "name": "safeTransferFrom",
      "outputs": [],
      "stateMutability": "nonpayable",
      "type": "function"
    },
    {
      "inputs": [
        {
          "internalType": "address",
          "name": "author",
          "type": "address"
        }
      ],
      "name": "selectedDesignID",
      "outputs": [
        {
          "internalType": "uint256",
          "name": "",
          "type": "uint256"
        }
      ],
      "stateMutability": "view",
      "type": "function"
    },
    {
      "inputs": [
        {
          "internalType": "address",
          "name": "operator",
          "type": "address"
        },
        {
          "internalType": "bool",
          "name": "approved",
          "type": "bool"
        }
      ],
      "name": "setApprovalForAll",
      "outputs": [],
      "stateMutability": "nonpayable",
      "type": "function"
    },
    {
      "inputs": [
        {
          "internalType": "address",
          "name": "to",
          "type": "address"
        },
        {
          "internalType": "uint256",
          "name": "designID",
          "type": "uint256"
        }
      ],
      "name": "setDesignID",
      "outputs": [],
      "stateMutability": "nonpayable",
      "type": "function"
    },
    {
      "inputs": [
        {
          "internalType": "bytes4",
          "name": "interfaceId",
          "type": "bytes4"
        }
      ],
      "name": "supportsInterface",
      "outputs": [
        {
          "internalType": "bool",
          "name": "",
          "type": "bool"
        }
      ],
      "stateMutability": "view",
      "type": "function"
    },
    {
      "inputs": [
        {
          "internalType": "address",
          "name": "newOwner",
          "type": "address"
        }
      ],
      "name": "transferOwnership",
      "outputs": [],
      "stateMutability": "nonpayable",
      "type": "function"
    },
    {
      "inputs": [
        {
          "internalType": "uint256",
          "name": "tokenID",
          "type": "uint256"
        }
      ],
      "name": "uri",
      "outputs": [
        {
          "internalType": "string",
          "name": "",
          "type": "string"
        }
      ],
      "stateMutability": "view",
      "type": "function"
    }
  ],
  "bytecode": "0x6080604052604051806020016040528060008152506003908162000024919062000429565b503480156200003257600080fd5b5060405162003f8c38038062003f8c833981810160405281019062000058919062000674565b604051806020016040528060008152506200007981620000b760201b60201c565b506200009a6200008e620000cc60201b60201c565b620000d460201b60201c565b620000b0816200019a60201b62000d4d1760201c565b50620006c5565b8060029081620000c8919062000429565b5050565b600033905090565b6000600560009054906101000a900473ffffffffffffffffffffffffffffffffffffffff16905081600560006101000a81548173ffffffffffffffffffffffffffffffffffffffff021916908373ffffffffffffffffffffffffffffffffffffffff1602179055508173ffffffffffffffffffffffffffffffffffffffff168173ffffffffffffffffffffffffffffffffffffffff167f8be0079c531659141344cd1fd0a4f28419497f9722a3daafe3b4186f6b6457e060405160405180910390a35050565b8060039081620001ab919062000429565b5050565b600081519050919050565b7f4e487b7100000000000000000000000000000000000000000000000000000000600052604160045260246000fd5b7f4e487b7100000000000000000000000000000000000000000000000000000000600052602260045260246000fd5b600060028204905060018216806200023157607f821691505b602082108103620002475762000246620001e9565b5b50919050565b60008190508160005260206000209050919050565b60006020601f8301049050919050565b600082821b905092915050565b600060088302620002b17fffffffffffffffffffffffffffffffffffffffffffffffffffffffffffffffff8262000272565b620002bd868362000272565b95508019841693508086168417925050509392505050565b6000819050919050565b6000819050919050565b60006200030a62000304620002fe84620002d5565b620002df565b620002d5565b9050919050565b6000819050919050565b6200032683620002e9565b6200033e620003358262000311565b8484546200027f565b825550505050565b600090565b6200035562000346565b620003628184846200031b565b505050565b5b818110156200038a576200037e6000826200034b565b60018101905062000368565b5050565b601f821115620003d957620003a3816200024d565b620003ae8462000262565b81016020851015620003be578190505b620003d6620003cd8562000262565b83018262000367565b50505b505050565b600082821c905092915050565b6000620003fe60001984600802620003de565b1980831691505092915050565b6000620004198383620003eb565b9150826002028217905092915050565b6200043482620001af565b67ffffffffffffffff81111562000450576200044f620001ba565b5b6200045c825462000218565b620004698282856200038e565b600060209050601f831160018114620004a157600084156200048c578287015190505b6200049885826200040b565b86555062000508565b601f198416620004b1866200024d565b60005b82811015620004db57848901518255600182019150602085019450602081019050620004b4565b86831015620004fb5784890151620004f7601f891682620003eb565b8355505b6001600288020188555050505b505050505050565b6000604051905090565b600080fd5b600080fd5b600080fd5b600080fd5b6000601f19601f8301169050919050565b6200054a826200052e565b810181811067ffffffffffffffff821117156200056c576200056b620001ba565b5b80604052505050565b60006200058162000510565b90506200058f82826200053f565b919050565b600067ffffffffffffffff821115620005b257620005b1620001ba565b5b620005bd826200052e565b9050602081019050919050565b60005b83811015620005ea578082015181840152602081019050620005cd565b60008484015250505050565b60006200060d620006078462000594565b62000575565b9050828152602081018484840111156200062c576200062b62000529565b5b62000639848285620005ca565b509392505050565b600082601f83011262000659576200065862000524565b5b81516200066b848260208601620005f6565b91505092915050565b6000602082840312156200068d576200068c6200051a565b5b600082015167ffffffffffffffff811115620006ae57620006ad6200051f565b5b620006bc8482850162000641565b91505092915050565b6138b780620006d56000396000f3fe608060405234801561001057600080fd5b50600436106101205760003560e01c80634e1273f4116100ad578063bed630ca11610071578063bed630ca14610319578063e985e9c514610337578063f242432a14610367578063f2fde38b14610383578063ff5884591461039f57610120565b80634e1273f414610287578063715018a6146102b75780637707f30e146102c15780638da5cb5b146102df578063a22cb465146102fd57610120565b8063156e29f6116100f4578063156e29f6146101e55780632e6bfe94146102015780632eb2c2d61461021d5780632f6380cf1461023957806334b5cb181461026957610120565b8062fdd58e1461012557806301ffc9a7146101555780630298fad6146101855780630e89341c146101b5575b600080fd5b61013f600480360381019061013a919061202e565b6103cf565b60405161014c919061207d565b60405180910390f35b61016f600480360381019061016a91906120f0565b610497565b60405161017c9190612138565b60405180910390f35b61019f600480360381019061019a9190612153565b610579565b6040516101ac9190612138565b60405180910390f35b6101cf60048036038101906101ca9190612193565b61058f565b6040516101dc9190612250565b60405180910390f35b6101ff60048036038101906101fa9190612272565b6105a1565b005b61021b6004803603810190610216919061202e565b61069f565b005b610237600480360381019061023291906124c2565b610846565b005b610253600480360381019061024e9190612591565b6108e7565b604051610260919061207d565b60405180910390f35b610271610930565b60405161027e9190612250565b60405180910390f35b6102a1600480360381019061029c9190612681565b61094c565b6040516102ae91906127b7565b60405180910390f35b6102bf610a65565b005b6102c9610a79565b6040516102d69190612250565b60405180910390f35b6102e7610ab2565b6040516102f491906127e8565b60405180910390f35b6103176004803603810190610312919061282f565b610adc565b005b610321610af2565b60405161032e9190612250565b60405180910390f35b610351600480360381019061034c919061286f565b610b2b565b60405161035e9190612138565b60405180910390f35b610381600480360381019061037c91906128af565b610bbf565b005b61039d60048036038101906103989190612591565b610c60565b005b6103b960048036038101906103b491906129e7565b610ce3565b6040516103c6919061207d565b60405180910390f35b60008073ffffffffffffffffffffffffffffffffffffffff168373ffffffffffffffffffffffffffffffffffffffff160361043f576040517f08c379a000000000000000000000000000000000000000000000000000000000815260040161043690612aa2565b60405180910390fd5b60008083815260200190815260200160002060008473ffffffffffffffffffffffffffffffffffffffff1673ffffffffffffffffffffffffffffffffffffffff16815260200190815260200160002054905092915050565b60007fd9b67a26000000000000000000000000000000000000000000000000000000007bffffffffffffffffffffffffffffffffffffffffffffffffffffffff1916827bffffffffffffffffffffffffffffffffffffffffffffffffffffffff1916148061056257507f0e89341c000000000000000000000000000000000000000000000000000000007bffffffffffffffffffffffffffffffffffffffffffffffffffffffff1916827bffffffffffffffffffffffffffffffffffffffffffffffffffffffff1916145b80610572575061057182610d60565b5b9050919050565b60008061058683856103cf565b11905092915050565b606061059a82610dca565b9050919050565b6105a9610eaf565b816105b46007610f2d565b8111156040518060400160405280601081526020017f64657369676e206e6f7420666f756e64000000000000000000000000000000008152509061062e576040517f08c379a00000000000000000000000000000000000000000000000000000000081526004016106259190612250565b60405180910390fd5b5061064a84848460405180602001604052806000815250610f3b565b8373ffffffffffffffffffffffffffffffffffffffff16837f8de92c79f0cbd20bba80b8c0eeeaeb9b9f41690236596197b0f717d45a9e23e384604051610691919061207d565b60405180910390a350505050565b6106a7610eaf565b806106b26007610f2d565b8111156040518060400160405280601081526020017f64657369676e206e6f7420666f756e64000000000000000000000000000000008152509061072c576040517f08c379a00000000000000000000000000000000000000000000000000000000081526004016107239190612250565b60405180910390fd5b506107378284610579565b6040518060400160405280601f81526020017f6163636f756e7420646f65736e27742068617665207468652064657369676e00815250906107ae576040517f08c379a00000000000000000000000000000000000000000000000000000000081526004016107a59190612250565b60405180910390fd5b5081600660008573ffffffffffffffffffffffffffffffffffffffff1673ffffffffffffffffffffffffffffffffffffffff168152602001908152602001600020819055508273ffffffffffffffffffffffffffffffffffffffff167f5a6d85ef0b1de1714a569520c08c34c3d1338ee9cd6e5478bbeca1d6d40cbb5c83604051610839919061207d565b60405180910390a2505050565b61084e6110eb565b73ffffffffffffffffffffffffffffffffffffffff168573ffffffffffffffffffffffffffffffffffffffff16148061089457506108938561088e6110eb565b610b2b565b5b6108d3576040517f08c379a00000000000000000000000000000000000000000000000000000000081526004016108ca90612b34565b60405180910390fd5b6108e085858585856110f3565b5050505050565b6000600660008373ffffffffffffffffffffffffffffffffffffffff1673ffffffffffffffffffffffffffffffffffffffff168152602001908152602001600020549050919050565b60405180606001604052806028815260200161385a6028913981565b60608151835114610992576040517f08c379a000000000000000000000000000000000000000000000000000000000815260040161098990612bc6565b60405180910390fd5b6000835167ffffffffffffffff8111156109af576109ae6122ca565b5b6040519080825280602002602001820160405280156109dd5781602001602082028036833780820191505090505b50905060005b8451811015610a5a57610a2a858281518110610a0257610a01612be6565b5b6020026020010151858381518110610a1d57610a1c612be6565b5b60200260200101516103cf565b828281518110610a3d57610a3c612be6565b5b60200260200101818152505080610a5390612c44565b90506109e3565b508091505092915050565b610a6d610eaf565b610a776000611414565b565b6040518060400160405280601f81526020017f6163636f756e7420646f65736e27742068617665207468652064657369676e0081525081565b6000600560009054906101000a900473ffffffffffffffffffffffffffffffffffffffff16905090565b610aee610ae76110eb565b83836114da565b5050565b6040518060400160405280601081526020017f64657369676e206e6f7420666f756e640000000000000000000000000000000081525081565b6000600160008473ffffffffffffffffffffffffffffffffffffffff1673ffffffffffffffffffffffffffffffffffffffff16815260200190815260200160002060008373ffffffffffffffffffffffffffffffffffffffff1673ffffffffffffffffffffffffffffffffffffffff16815260200190815260200160002060009054906101000a900460ff16905092915050565b610bc76110eb565b73ffffffffffffffffffffffffffffffffffffffff168573ffffffffffffffffffffffffffffffffffffffff161480610c0d5750610c0c85610c076110eb565b610b2b565b5b610c4c576040517f08c379a0000000000000000000000000000000000000000000000000000000008152600401610c4390612b34565b60405180910390fd5b610c598585858585611646565b5050505050565b610c68610eaf565b600073ffffffffffffffffffffffffffffffffffffffff168173ffffffffffffffffffffffffffffffffffffffff1603610cd7576040517f08c379a0000000000000000000000000000000000000000000000000000000008152600401610cce90612cfe565b60405180910390fd5b610ce081611414565b50565b6000610ced610eaf565b6000610cf76118e1565b9050610d0381846118fc565b7f80762d530c666df8721c27a67f05ee74e0b052500c7af7f4ba5eed4ed578282281610d2e83610dca565b604051610d3c929190612d1e565b60405180910390a180915050919050565b8060039081610d5c9190612f5a565b5050565b60007f01ffc9a7000000000000000000000000000000000000000000000000000000007bffffffffffffffffffffffffffffffffffffffffffffffffffffffff1916827bffffffffffffffffffffffffffffffffffffffffffffffffffffffff1916149050919050565b60606000600460008481526020019081526020016000208054610dec90612d7d565b80601f0160208091040260200160405190810160405280929190818152602001828054610e1890612d7d565b8015610e655780601f10610e3a57610100808354040283529160200191610e65565b820191906000526020600020905b815481529060010190602001808311610e4857829003601f168201915b505050505090506000815111610e8357610e7e83611961565b610ea7565b600381604051602001610e979291906130eb565b6040516020818303038152906040525b915050919050565b610eb76110eb565b73ffffffffffffffffffffffffffffffffffffffff16610ed5610ab2565b73ffffffffffffffffffffffffffffffffffffffff1614610f2b576040517f08c379a0000000000000000000000000000000000000000000000000000000008152600401610f229061315b565b60405180910390fd5b565b600081600001549050919050565b600073ffffffffffffffffffffffffffffffffffffffff168473ffffffffffffffffffffffffffffffffffffffff1603610faa576040517f08c379a0000000000000000000000000000000000000000000000000000000008152600401610fa1906131ed565b60405180910390fd5b6000610fb46110eb565b90506000610fc1856119f5565b90506000610fce856119f5565b9050610fdf83600089858589611a6f565b8460008088815260200190815260200160002060008973ffffffffffffffffffffffffffffffffffffffff1673ffffffffffffffffffffffffffffffffffffffff168152602001908152602001600020600082825461103e919061320d565b925050819055508673ffffffffffffffffffffffffffffffffffffffff16600073ffffffffffffffffffffffffffffffffffffffff168473ffffffffffffffffffffffffffffffffffffffff167fc3d58168c5ae7397731d063d5bbf3d657854427343f4c083240f7aacaa2d0f6289896040516110bc929190613241565b60405180910390a46110d383600089858589611b97565b6110e283600089898989611b9f565b50505050505050565b600033905090565b8151835114611137576040517f08c379a000000000000000000000000000000000000000000000000000000000815260040161112e906132dc565b60405180910390fd5b600073ffffffffffffffffffffffffffffffffffffffff168473ffffffffffffffffffffffffffffffffffffffff16036111a6576040517f08c379a000000000000000000000000000000000000000000000000000000000815260040161119d9061336e565b60405180910390fd5b60006111b06110eb565b90506111c0818787878787611a6f565b60005b84518110156113715760008582815181106111e1576111e0612be6565b5b602002602001015190506000858381518110611200576111ff612be6565b5b60200260200101519050600080600084815260200190815260200160002060008b73ffffffffffffffffffffffffffffffffffffffff1673ffffffffffffffffffffffffffffffffffffffff168152602001908152602001600020549050818110156112a1576040517f08c379a000000000000000000000000000000000000000000000000000000000815260040161129890613400565b60405180910390fd5b81810360008085815260200190815260200160002060008c73ffffffffffffffffffffffffffffffffffffffff1673ffffffffffffffffffffffffffffffffffffffff168152602001908152602001600020819055508160008085815260200190815260200160002060008b73ffffffffffffffffffffffffffffffffffffffff1673ffffffffffffffffffffffffffffffffffffffff1681526020019081526020016000206000828254611356919061320d565b925050819055505050508061136a90612c44565b90506111c3565b508473ffffffffffffffffffffffffffffffffffffffff168673ffffffffffffffffffffffffffffffffffffffff168273ffffffffffffffffffffffffffffffffffffffff167f4a39dc06d4c0dbc64b70af90fd698a233a518aa5d07e595d983b8c0526c8f7fb87876040516113e8929190613420565b60405180910390a46113fe818787878787611b97565b61140c818787878787611d76565b505050505050565b6000600560009054906101000a900473ffffffffffffffffffffffffffffffffffffffff16905081600560006101000a81548173ffffffffffffffffffffffffffffffffffffffff021916908373ffffffffffffffffffffffffffffffffffffffff1602179055508173ffffffffffffffffffffffffffffffffffffffff168173ffffffffffffffffffffffffffffffffffffffff167f8be0079c531659141344cd1fd0a4f28419497f9722a3daafe3b4186f6b6457e060405160405180910390a35050565b8173ffffffffffffffffffffffffffffffffffffffff168373ffffffffffffffffffffffffffffffffffffffff1603611548576040517f08c379a000000000000000000000000000000000000000000000000000000000815260040161153f906134c9565b60405180910390fd5b80600160008573ffffffffffffffffffffffffffffffffffffffff1673ffffffffffffffffffffffffffffffffffffffff16815260200190815260200160002060008473ffffffffffffffffffffffffffffffffffffffff1673ffffffffffffffffffffffffffffffffffffffff16815260200190815260200160002060006101000a81548160ff0219169083151502179055508173ffffffffffffffffffffffffffffffffffffffff168373ffffffffffffffffffffffffffffffffffffffff167f17307eab39ab6107e8899845ad3d59bd9653f200f220920489ca2b5937696c31836040516116399190612138565b60405180910390a3505050565b600073ffffffffffffffffffffffffffffffffffffffff168473ffffffffffffffffffffffffffffffffffffffff16036116b5576040517f08c379a00000000000000000000000000000000000000000000000000000000081526004016116ac9061336e565b60405180910390fd5b60006116bf6110eb565b905060006116cc856119f5565b905060006116d9856119f5565b90506116e9838989858589611a6f565b600080600088815260200190815260200160002060008a73ffffffffffffffffffffffffffffffffffffffff1673ffffffffffffffffffffffffffffffffffffffff16815260200190815260200160002054905085811015611780576040517f08c379a000000000000000000000000000000000000000000000000000000000815260040161177790613400565b60405180910390fd5b85810360008089815260200190815260200160002060008b73ffffffffffffffffffffffffffffffffffffffff1673ffffffffffffffffffffffffffffffffffffffff168152602001908152602001600020819055508560008089815260200190815260200160002060008a73ffffffffffffffffffffffffffffffffffffffff1673ffffffffffffffffffffffffffffffffffffffff1681526020019081526020016000206000828254611835919061320d565b925050819055508773ffffffffffffffffffffffffffffffffffffffff168973ffffffffffffffffffffffffffffffffffffffff168573ffffffffffffffffffffffffffffffffffffffff167fc3d58168c5ae7397731d063d5bbf3d657854427343f4c083240f7aacaa2d0f628a8a6040516118b2929190613241565b60405180910390a46118c8848a8a86868a611b97565b6118d6848a8a8a8a8a611b9f565b505050505050505050565b60006118ed6007611f4d565b6118f76007610f2d565b905090565b8060046000848152602001908152602001600020908161191c9190612f5a565b50817f6bb7ff708619ba0610cba295a58592e0451dee2622938c8755667688daf3529b6119488461058f565b6040516119559190612250565b60405180910390a25050565b60606002805461197090612d7d565b80601f016020809104026020016040519081016040528092919081815260200182805461199c90612d7d565b80156119e95780601f106119be576101008083540402835291602001916119e9565b820191906000526020600020905b8154815290600101906020018083116119cc57829003601f168201915b50505050509050919050565b60606000600167ffffffffffffffff811115611a1457611a136122ca565b5b604051908082528060200260200182016040528015611a425781602001602082028036833780820191505090505b5090508281600081518110611a5a57611a59612be6565b5b60200260200101818152505080915050919050565b6000600660008773ffffffffffffffffffffffffffffffffffffffff1673ffffffffffffffffffffffffffffffffffffffff16815260200190815260200160002054905060005b8451811015611b8d576000858281518110611ad457611ad3612be6565b5b60200260200101519050828114611aeb5750611b7a565b6000858381518110611b0057611aff612be6565b5b6020026020010151611b128a846103cf565b611b1c91906134e9565b1160405180606001604052806028815260200161385a6028913990611b77576040517f08c379a0000000000000000000000000000000000000000000000000000000008152600401611b6e9190612250565b60405180910390fd5b50505b8080611b8590612c44565b915050611ab6565b5050505050505050565b505050505050565b611bbe8473ffffffffffffffffffffffffffffffffffffffff16611f63565b15611d6e578373ffffffffffffffffffffffffffffffffffffffff1663f23a6e6187878686866040518663ffffffff1660e01b8152600401611c04959493929190613572565b6020604051808303816000875af1925050508015611c4057506040513d601f19601f82011682018060405250810190611c3d91906135e1565b60015b611ce557611c4c61361b565b806308c379a003611ca85750611c6061363d565b80611c6b5750611caa565b806040517f08c379a0000000000000000000000000000000000000000000000000000000008152600401611c9f9190612250565b60405180910390fd5b505b6040517f08c379a0000000000000000000000000000000000000000000000000000000008152600401611cdc9061373f565b60405180910390fd5b63f23a6e6160e01b7bffffffffffffffffffffffffffffffffffffffffffffffffffffffff1916817bffffffffffffffffffffffffffffffffffffffffffffffffffffffff191614611d6c576040517f08c379a0000000000000000000000000000000000000000000000000000000008152600401611d63906137d1565b60405180910390fd5b505b505050505050565b611d958473ffffffffffffffffffffffffffffffffffffffff16611f63565b15611f45578373ffffffffffffffffffffffffffffffffffffffff1663bc197c8187878686866040518663ffffffff1660e01b8152600401611ddb9594939291906137f1565b6020604051808303816000875af1925050508015611e1757506040513d601f19601f82011682018060405250810190611e1491906135e1565b60015b611ebc57611e2361361b565b806308c379a003611e7f5750611e3761363d565b80611e425750611e81565b806040517f08c379a0000000000000000000000000000000000000000000000000000000008152600401611e769190612250565b60405180910390fd5b505b6040517f08c379a0000000000000000000000000000000000000000000000000000000008152600401611eb39061373f565b60405180910390fd5b63bc197c8160e01b7bffffffffffffffffffffffffffffffffffffffffffffffffffffffff1916817bffffffffffffffffffffffffffffffffffffffffffffffffffffffff191614611f43576040517f08c379a0000000000000000000000000000000000000000000000000000000008152600401611f3a906137d1565b60405180910390fd5b505b505050505050565b6001816000016000828254019250508190555050565b6000808273ffffffffffffffffffffffffffffffffffffffff163b119050919050565b6000604051905090565b600080fd5b600080fd5b600073ffffffffffffffffffffffffffffffffffffffff82169050919050565b6000611fc582611f9a565b9050919050565b611fd581611fba565b8114611fe057600080fd5b50565b600081359050611ff281611fcc565b92915050565b6000819050919050565b61200b81611ff8565b811461201657600080fd5b50565b60008135905061202881612002565b92915050565b6000806040838503121561204557612044611f90565b5b600061205385828601611fe3565b925050602061206485828601612019565b9150509250929050565b61207781611ff8565b82525050565b6000602082019050612092600083018461206e565b92915050565b60007fffffffff0000000000000000000000000000000000000000000000000000000082169050919050565b6120cd81612098565b81146120d857600080fd5b50565b6000813590506120ea816120c4565b92915050565b60006020828403121561210657612105611f90565b5b6000612114848285016120db565b91505092915050565b60008115159050919050565b6121328161211d565b82525050565b600060208201905061214d6000830184612129565b92915050565b6000806040838503121561216a57612169611f90565b5b600061217885828601612019565b925050602061218985828601611fe3565b9150509250929050565b6000602082840312156121a9576121a8611f90565b5b60006121b784828501612019565b91505092915050565b600081519050919050565b600082825260208201905092915050565b60005b838110156121fa5780820151818401526020810190506121df565b60008484015250505050565b6000601f19601f8301169050919050565b6000612222826121c0565b61222c81856121cb565b935061223c8185602086016121dc565b61224581612206565b840191505092915050565b6000602082019050818103600083015261226a8184612217565b905092915050565b60008060006060848603121561228b5761228a611f90565b5b600061229986828701611fe3565b93505060206122aa86828701612019565b92505060406122bb86828701612019565b9150509250925092565b600080fd5b7f4e487b7100000000000000000000000000000000000000000000000000000000600052604160045260246000fd5b61230282612206565b810181811067ffffffffffffffff82111715612321576123206122ca565b5b80604052505050565b6000612334611f86565b905061234082826122f9565b919050565b600067ffffffffffffffff8211156123605761235f6122ca565b5b602082029050602081019050919050565b600080fd5b600061238961238484612345565b61232a565b905080838252602082019050602084028301858111156123ac576123ab612371565b5b835b818110156123d557806123c18882612019565b8452602084019350506020810190506123ae565b5050509392505050565b600082601f8301126123f4576123f36122c5565b5b8135612404848260208601612376565b91505092915050565b600080fd5b600067ffffffffffffffff82111561242d5761242c6122ca565b5b61243682612206565b9050602081019050919050565b82818337600083830152505050565b600061246561246084612412565b61232a565b9050828152602081018484840111156124815761248061240d565b5b61248c848285612443565b509392505050565b600082601f8301126124a9576124a86122c5565b5b81356124b9848260208601612452565b91505092915050565b600080600080600060a086880312156124de576124dd611f90565b5b60006124ec88828901611fe3565b95505060206124fd88828901611fe3565b945050604086013567ffffffffffffffff81111561251e5761251d611f95565b5b61252a888289016123df565b935050606086013567ffffffffffffffff81111561254b5761254a611f95565b5b612557888289016123df565b925050608086013567ffffffffffffffff81111561257857612577611f95565b5b61258488828901612494565b9150509295509295909350565b6000602082840312156125a7576125a6611f90565b5b60006125b584828501611fe3565b91505092915050565b600067ffffffffffffffff8211156125d9576125d86122ca565b5b602082029050602081019050919050565b60006125fd6125f8846125be565b61232a565b905080838252602082019050602084028301858111156126205761261f612371565b5b835b8181101561264957806126358882611fe3565b845260208401935050602081019050612622565b5050509392505050565b600082601f830112612668576126676122c5565b5b81356126788482602086016125ea565b91505092915050565b6000806040838503121561269857612697611f90565b5b600083013567ffffffffffffffff8111156126b6576126b5611f95565b5b6126c285828601612653565b925050602083013567ffffffffffffffff8111156126e3576126e2611f95565b5b6126ef858286016123df565b9150509250929050565b600081519050919050565b600082825260208201905092915050565b6000819050602082019050919050565b61272e81611ff8565b82525050565b60006127408383612725565b60208301905092915050565b6000602082019050919050565b6000612764826126f9565b61276e8185612704565b935061277983612715565b8060005b838110156127aa5781516127918882612734565b975061279c8361274c565b92505060018101905061277d565b5085935050505092915050565b600060208201905081810360008301526127d18184612759565b905092915050565b6127e281611fba565b82525050565b60006020820190506127fd60008301846127d9565b92915050565b61280c8161211d565b811461281757600080fd5b50565b60008135905061282981612803565b92915050565b6000806040838503121561284657612845611f90565b5b600061285485828601611fe3565b92505060206128658582860161281a565b9150509250929050565b6000806040838503121561288657612885611f90565b5b600061289485828601611fe3565b92505060206128a585828601611fe3565b9150509250929050565b600080600080600060a086880312156128cb576128ca611f90565b5b60006128d988828901611fe3565b95505060206128ea88828901611fe3565b94505060406128fb88828901612019565b935050606061290c88828901612019565b925050608086013567ffffffffffffffff81111561292d5761292c611f95565b5b61293988828901612494565b9150509295509295909350565b600067ffffffffffffffff821115612961576129606122ca565b5b61296a82612206565b9050602081019050919050565b600061298a61298584612946565b61232a565b9050828152602081018484840111156129a6576129a561240d565b5b6129b1848285612443565b509392505050565b600082601f8301126129ce576129cd6122c5565b5b81356129de848260208601612977565b91505092915050565b6000602082840312156129fd576129fc611f90565b5b600082013567ffffffffffffffff811115612a1b57612a1a611f95565b5b612a27848285016129b9565b91505092915050565b7f455243313135353a2061646472657373207a65726f206973206e6f742061207660008201527f616c6964206f776e657200000000000000000000000000000000000000000000602082015250565b6000612a8c602a836121cb565b9150612a9782612a30565b604082019050919050565b60006020820190508181036000830152612abb81612a7f565b9050919050565b7f455243313135353a2063616c6c6572206973206e6f7420746f6b656e206f776e60008201527f6572206e6f7220617070726f7665640000000000000000000000000000000000602082015250565b6000612b1e602f836121cb565b9150612b2982612ac2565b604082019050919050565b60006020820190508181036000830152612b4d81612b11565b9050919050565b7f455243313135353a206163636f756e747320616e6420696473206c656e67746860008201527f206d69736d617463680000000000000000000000000000000000000000000000602082015250565b6000612bb06029836121cb565b9150612bbb82612b54565b604082019050919050565b60006020820190508181036000830152612bdf81612ba3565b9050919050565b7f4e487b7100000000000000000000000000000000000000000000000000000000600052603260045260246000fd5b7f4e487b7100000000000000000000000000000000000000000000000000000000600052601160045260246000fd5b6000612c4f82611ff8565b91507fffffffffffffffffffffffffffffffffffffffffffffffffffffffffffffffff8203612c8157612c80612c15565b5b600182019050919050565b7f4f776e61626c653a206e6577206f776e657220697320746865207a65726f206160008201527f6464726573730000000000000000000000000000000000000000000000000000602082015250565b6000612ce86026836121cb565b9150612cf382612c8c565b604082019050919050565b60006020820190508181036000830152612d1781612cdb565b9050919050565b6000604082019050612d33600083018561206e565b8181036020830152612d458184612217565b90509392505050565b7f4e487b7100000000000000000000000000000000000000000000000000000000600052602260045260246000fd5b60006002820490506001821680612d9557607f821691505b602082108103612da857612da7612d4e565b5b50919050565b60008190508160005260206000209050919050565b60006020601f8301049050919050565b600082821b905092915050565b600060088302612e107fffffffffffffffffffffffffffffffffffffffffffffffffffffffffffffffff82612dd3565b612e1a8683612dd3565b95508019841693508086168417925050509392505050565b6000819050919050565b6000612e57612e52612e4d84611ff8565b612e32565b611ff8565b9050919050565b6000819050919050565b612e7183612e3c565b612e85612e7d82612e5e565b848454612de0565b825550505050565b600090565b612e9a612e8d565b612ea5818484612e68565b505050565b5b81811015612ec957612ebe600082612e92565b600181019050612eab565b5050565b601f821115612f0e57612edf81612dae565b612ee884612dc3565b81016020851015612ef7578190505b612f0b612f0385612dc3565b830182612eaa565b50505b505050565b600082821c905092915050565b6000612f3160001984600802612f13565b1980831691505092915050565b6000612f4a8383612f20565b9150826002028217905092915050565b612f63826121c0565b67ffffffffffffffff811115612f7c57612f7b6122ca565b5b612f868254612d7d565b612f91828285612ecd565b600060209050601f831160018114612fc45760008415612fb2578287015190505b612fbc8582612f3e565b865550613024565b601f198416612fd286612dae565b60005b82811015612ffa57848901518255600182019150602085019450602081019050612fd5565b868310156130175784890151613013601f891682612f20565b8355505b6001600288020188555050505b505050505050565b600081905092915050565b6000815461304481612d7d565b61304e818661302c565b94506001821660008114613069576001811461307e576130b1565b60ff19831686528115158202860193506130b1565b61308785612dae565b60005b838110156130a95781548189015260018201915060208101905061308a565b838801955050505b50505092915050565b60006130c5826121c0565b6130cf818561302c565b93506130df8185602086016121dc565b80840191505092915050565b60006130f78285613037565b915061310382846130ba565b91508190509392505050565b7f4f776e61626c653a2063616c6c6572206973206e6f7420746865206f776e6572600082015250565b60006131456020836121cb565b91506131508261310f565b602082019050919050565b6000602082019050818103600083015261317481613138565b9050919050565b7f455243313135353a206d696e7420746f20746865207a65726f2061646472657360008201527f7300000000000000000000000000000000000000000000000000000000000000602082015250565b60006131d76021836121cb565b91506131e28261317b565b604082019050919050565b60006020820190508181036000830152613206816131ca565b9050919050565b600061321882611ff8565b915061322383611ff8565b925082820190508082111561323b5761323a612c15565b5b92915050565b6000604082019050613256600083018561206e565b613263602083018461206e565b9392505050565b7f455243313135353a2069647320616e6420616d6f756e7473206c656e6774682060008201527f6d69736d61746368000000000000000000000000000000000000000000000000602082015250565b60006132c66028836121cb565b91506132d18261326a565b604082019050919050565b600060208201905081810360008301526132f5816132b9565b9050919050565b7f455243313135353a207472616e7366657220746f20746865207a65726f20616460008201527f6472657373000000000000000000000000000000000000000000000000000000602082015250565b60006133586025836121cb565b9150613363826132fc565b604082019050919050565b600060208201905081810360008301526133878161334b565b9050919050565b7f455243313135353a20696e73756666696369656e742062616c616e636520666f60008201527f72207472616e7366657200000000000000000000000000000000000000000000602082015250565b60006133ea602a836121cb565b91506133f58261338e565b604082019050919050565b60006020820190508181036000830152613419816133dd565b9050919050565b6000604082019050818103600083015261343a8185612759565b9050818103602083015261344e8184612759565b90509392505050565b7f455243313135353a2073657474696e6720617070726f76616c2073746174757360008201527f20666f722073656c660000000000000000000000000000000000000000000000602082015250565b60006134b36029836121cb565b91506134be82613457565b604082019050919050565b600060208201905081810360008301526134e2816134a6565b9050919050565b60006134f482611ff8565b91506134ff83611ff8565b925082820390508181111561351757613516612c15565b5b92915050565b600081519050919050565b600082825260208201905092915050565b60006135448261351d565b61354e8185613528565b935061355e8185602086016121dc565b61356781612206565b840191505092915050565b600060a08201905061358760008301886127d9565b61359460208301876127d9565b6135a1604083018661206e565b6135ae606083018561206e565b81810360808301526135c08184613539565b90509695505050505050565b6000815190506135db816120c4565b92915050565b6000602082840312156135f7576135f6611f90565b5b6000613605848285016135cc565b91505092915050565b60008160e01c9050919050565b600060033d111561363a5760046000803e61363760005161360e565b90505b90565b600060443d106136ca5761364f611f86565b60043d036004823e80513d602482011167ffffffffffffffff821117156136775750506136ca565b808201805167ffffffffffffffff81111561369557505050506136ca565b80602083010160043d0385018111156136b25750505050506136ca565b6136c1826020018501866122f9565b82955050505050505b90565b7f455243313135353a207472616e7366657220746f206e6f6e204552433131353560008201527f526563656976657220696d706c656d656e746572000000000000000000000000602082015250565b60006137296034836121cb565b9150613734826136cd565b604082019050919050565b600060208201905081810360008301526137588161371c565b9050919050565b7f455243313135353a204552433131353552656365697665722072656a6563746560008201527f6420746f6b656e73000000000000000000000000000000000000000000000000602082015250565b60006137bb6028836121cb565b91506137c68261375f565b604082019050919050565b600060208201905081810360008301526137ea816137ae565b9050919050565b600060a08201905061380660008301886127d9565b61381360208301876127d9565b81810360408301526138258186612759565b905081810360608301526138398185612759565b9050818103608083015261384d8184613539565b9050969550505050505056fe63616e27742073656e6420616c6c206f662073656c65637465642064657369676e20746f6b656e73a2646970667358221220a54a78e9d1fbd583263fb1ec66fe553b85ad7984b93fb436d84accf95c54f48d64736f6c63430008110033",
  "linkReferences": {},
  "deployedLinkReferences": {}
}