{
  "_format": "hh-sol-artifact-1",
  "contractName": "DefaultReverseResolver",
  "sourceName": "contracts/resolvers/DefaultReverseResolver.sol",
  "abi": [
    {
      "inputs": [
        {
          "internalType": "contract ENS",
          "name": "ensAddr",
          "type": "address"
        }
      ],
      "stateMutability": "nonpayable",
      "type": "constructor"
    },
    {
      "inputs": [],
      "name": "ens",
      "outputs": [
        {
          "internalType": "contract ENS",
          "name": "",
          "type": "address"
        }
      ],
      "stateMutability": "view",
      "type": "function"
    },
    {
      "inputs": [
        {
          "internalType": "bytes32",
          "name": "",
          "type": "bytes32"
        }
      ],
      "name": "name",
      "outputs": [
        {
          "internalType": "string",
          "name": "",
          "type": "string"
        }
      ],
      "stateMutability": "view",
      "type": "function"
    },
    {
      "inputs": [
        {
          "internalType": "bytes32",
          "name": "node",
          "type": "bytes32"
        },
        {
          "internalType": "string",
          "name": "_name",
          "type": "string"
        }
      ],
      "name": "setName",
      "outputs": [],
      "stateMutability": "nonpayable",
      "type": "function"
    }
  ],
  "bytecode": "0x60806040523480156200001157600080fd5b5060405162000b4938038062000b498339818101604052810190620000379190620002bb565b806000806101000a81548173ffffffffffffffffffffffffffffffffffffffff021916908373ffffffffffffffffffffffffffffffffffffffff16021790555060008060009054906101000a900473ffffffffffffffffffffffffffffffffffffffff1673ffffffffffffffffffffffffffffffffffffffff166302571be37f91d1777781884d03a6757a803996e38de2a42967fb37eeaca72729271025a9e260001b6040518263ffffffff1660e01b8152600401620000f8919062000326565b60206040518083038186803b1580156200011157600080fd5b505afa15801562000126573d6000803e3d6000fd5b505050506040513d601f19601f820116820180604052508101906200014c919062000263565b9050600073ffffffffffffffffffffffffffffffffffffffff168173ffffffffffffffffffffffffffffffffffffffff161462000216578073ffffffffffffffffffffffffffffffffffffffff16631e83409a336040518263ffffffff1660e01b8152600401620001be919062000309565b602060405180830381600087803b158015620001d957600080fd5b505af1158015620001ee573d6000803e3d6000fd5b505050506040513d601f19601f820116820180604052508101906200021491906200028f565b505b5050620003e3565b6000815190506200022f8162000395565b92915050565b6000815190506200024681620003af565b92915050565b6000815190506200025d81620003c9565b92915050565b6000602082840312156200027657600080fd5b600062000286848285016200021e565b91505092915050565b600060208284031215620002a257600080fd5b6000620002b28482850162000235565b91505092915050565b600060208284031215620002ce57600080fd5b6000620002de848285016200024c565b91505092915050565b620002f28162000343565b82525050565b620003038162000357565b82525050565b6000602082019050620003206000830184620002e7565b92915050565b60006020820190506200033d6000830184620002f8565b92915050565b6000620003508262000375565b9050919050565b6000819050919050565b60006200036e8262000343565b9050919050565b600073ffffffffffffffffffffffffffffffffffffffff82169050919050565b620003a08162000343565b8114620003ac57600080fd5b50565b620003ba8162000357565b8114620003c657600080fd5b50565b620003d48162000361565b8114620003e057600080fd5b50565b61075680620003f36000396000f3fe608060405234801561001057600080fd5b50600436106100415760003560e01c80633f15457f14610046578063691f3431146100645780637737221314610094575b600080fd5b61004e6100b0565b60405161005b91906104cf565b60405180910390f35b61007e600480360381019061007991906103e0565b6100d4565b60405161008b91906104ea565b60405180910390f35b6100ae60048036038101906100a99190610409565b610174565b005b60008054906101000a900473ffffffffffffffffffffffffffffffffffffffff1681565b600160205280600052604060002060009150905080546100f390610620565b80601f016020809104026020016040519081016040528092919081815260200182805461011f90610620565b801561016c5780601f106101415761010080835404028352916020019161016c565b820191906000526020600020905b81548152906001019060200180831161014f57829003601f168201915b505050505081565b8160008054906101000a900473ffffffffffffffffffffffffffffffffffffffff1673ffffffffffffffffffffffffffffffffffffffff166302571be3826040518263ffffffff1660e01b81526004016101ce91906104b4565b60206040518083038186803b1580156101e657600080fd5b505afa1580156101fa573d6000803e3d6000fd5b505050506040513d601f19601f8201168201806040525081019061021e91906103b7565b73ffffffffffffffffffffffffffffffffffffffff163373ffffffffffffffffffffffffffffffffffffffff161461025557600080fd5b8160016000858152602001908152602001600020908051906020019061027c929190610282565b50505050565b82805461028e90610620565b90600052602060002090601f0160209004810192826102b057600085556102f7565b82601f106102c957805160ff19168380011785556102f7565b828001600101855582156102f7579182015b828111156102f65782518255916020019190600101906102db565b5b5090506103049190610308565b5090565b5b80821115610321576000816000905550600101610309565b5090565b600061033861033384610531565b61050c565b90508281526020810184848401111561035057600080fd5b61035b8482856105de565b509392505050565b600081519050610372816106f2565b92915050565b60008135905061038781610709565b92915050565b600082601f83011261039e57600080fd5b81356103ae848260208601610325565b91505092915050565b6000602082840312156103c957600080fd5b60006103d784828501610363565b91505092915050565b6000602082840312156103f257600080fd5b600061040084828501610378565b91505092915050565b6000806040838503121561041c57600080fd5b600061042a85828601610378565b925050602083013567ffffffffffffffff81111561044757600080fd5b6104538582860161038d565b9150509250929050565b61046681610590565b82525050565b610475816105ba565b82525050565b600061048682610562565b610490818561056d565b93506104a08185602086016105ed565b6104a9816106e1565b840191505092915050565b60006020820190506104c9600083018461045d565b92915050565b60006020820190506104e4600083018461046c565b92915050565b60006020820190508181036000830152610504818461047b565b905092915050565b6000610516610527565b90506105228282610652565b919050565b6000604051905090565b600067ffffffffffffffff82111561054c5761054b6106b2565b5b610555826106e1565b9050602081019050919050565b600081519050919050565b600082825260208201905092915050565b60006105898261059a565b9050919050565b6000819050919050565b600073ffffffffffffffffffffffffffffffffffffffff82169050919050565b60006105c5826105cc565b9050919050565b60006105d78261059a565b9050919050565b82818337600083830152505050565b60005b8381101561060b5780820151818401526020810190506105f0565b8381111561061a576000848401525b50505050565b6000600282049050600182168061063857607f821691505b6020821081141561064c5761064b610683565b5b50919050565b61065b826106e1565b810181811067ffffffffffffffff8211171561067a576106796106b2565b5b80604052505050565b7f4e487b7100000000000000000000000000000000000000000000000000000000600052602260045260246000fd5b7f4e487b7100000000000000000000000000000000000000000000000000000000600052604160045260246000fd5b6000601f19601f8301169050919050565b6106fb8161057e565b811461070657600080fd5b50565b61071281610590565b811461071d57600080fd5b5056fea2646970667358221220daddd04823092e9d46f9217937abe906822d1c4633b49f07989601d048e57e2364736f6c63430008040033",
  "linkReferences": {},
  "deployedLinkReferences": {}
}