{
  "_format": "hh-sol-artifact-1",
  "contractName": "P256SHA256Algorithm",
  "sourceName": "contracts/dnssec-oracle/algorithms/P256SHA256Algorithm.sol",
  "abi": [
    {
      "inputs": [
        {
          "internalType": "uint256",
          "name": "x0",
          "type": "uint256"
        },
        {
          "internalType": "uint256",
          "name": "y0",
          "type": "uint256"
        },
        {
          "internalType": "uint256",
          "name": "x1",
          "type": "uint256"
        },
        {
          "internalType": "uint256",
          "name": "y1",
          "type": "uint256"
        }
      ],
      "name": "add",
      "outputs": [
        {
          "internalType": "uint256",
          "name": "",
          "type": "uint256"
        },
        {
          "internalType": "uint256",
          "name": "",
          "type": "uint256"
        }
      ],
      "stateMutability": "pure",
      "type": "function"
    },
    {
      "inputs": [
        {
          "internalType": "uint256",
          "name": "x1",
          "type": "uint256"
        },
        {
          "internalType": "uint256",
          "name": "y1",
          "type": "uint256"
        },
        {
          "internalType": "uint256",
          "name": "x2",
          "type": "uint256"
        },
        {
          "internalType": "uint256",
          "name": "y2",
          "type": "uint256"
        }
      ],
      "name": "addAndReturnProjectivePoint",
      "outputs": [
        {
          "internalType": "uint256[3]",
          "name": "P",
          "type": "uint256[3]"
        }
      ],
      "stateMutability": "pure",
      "type": "function"
    },
    {
      "inputs": [
        {
          "internalType": "uint256",
          "name": "x0",
          "type": "uint256"
        },
        {
          "internalType": "uint256",
          "name": "y0",
          "type": "uint256"
        },
        {
          "internalType": "uint256",
          "name": "z0",
          "type": "uint256"
        },
        {
          "internalType": "uint256",
          "name": "x1",
          "type": "uint256"
        },
        {
          "internalType": "uint256",
          "name": "y1",
          "type": "uint256"
        },
        {
          "internalType": "uint256",
          "name": "z1",
          "type": "uint256"
        }
      ],
      "name": "addProj",
      "outputs": [
        {
          "internalType": "uint256",
          "name": "x2",
          "type": "uint256"
        },
        {
          "internalType": "uint256",
          "name": "y2",
          "type": "uint256"
        },
        {
          "internalType": "uint256",
          "name": "z2",
          "type": "uint256"
        }
      ],
      "stateMutability": "pure",
      "type": "function"
    },
    {
      "inputs": [
        {
          "internalType": "uint256",
          "name": "x",
          "type": "uint256"
        },
        {
          "internalType": "uint256",
          "name": "y",
          "type": "uint256"
        }
      ],
      "name": "isOnCurve",
      "outputs": [
        {
          "internalType": "bool",
          "name": "",
          "type": "bool"
        }
      ],
      "stateMutability": "pure",
      "type": "function"
    },
    {
      "inputs": [
        {
          "internalType": "uint256",
          "name": "x0",
          "type": "uint256"
        },
        {
          "internalType": "uint256",
          "name": "y0",
          "type": "uint256"
        }
      ],
      "name": "isZeroCurve",
      "outputs": [
        {
          "internalType": "bool",
          "name": "isZero",
          "type": "bool"
        }
      ],
      "stateMutability": "pure",
      "type": "function"
    },
    {
      "inputs": [
        {
          "internalType": "uint256",
          "name": "scalar",
          "type": "uint256"
        }
      ],
      "name": "multipleGeneratorByScalar",
      "outputs": [
        {
          "internalType": "uint256",
          "name": "",
          "type": "uint256"
        },
        {
          "internalType": "uint256",
          "name": "",
          "type": "uint256"
        }
      ],
      "stateMutability": "pure",
      "type": "function"
    },
    {
      "inputs": [
        {
          "internalType": "uint256",
          "name": "x0",
          "type": "uint256"
        },
        {
          "internalType": "uint256",
          "name": "y0",
          "type": "uint256"
        },
        {
          "internalType": "uint256",
          "name": "exp",
          "type": "uint256"
        }
      ],
      "name": "multiplyPowerBase2",
      "outputs": [
        {
          "internalType": "uint256",
          "name": "",
          "type": "uint256"
        },
        {
          "internalType": "uint256",
          "name": "",
          "type": "uint256"
        }
      ],
      "stateMutability": "pure",
      "type": "function"
    },
    {
      "inputs": [
        {
          "internalType": "uint256",
          "name": "x0",
          "type": "uint256"
        },
        {
          "internalType": "uint256",
          "name": "y0",
          "type": "uint256"
        },
        {
          "internalType": "uint256",
          "name": "scalar",
          "type": "uint256"
        }
      ],
      "name": "multiplyScalar",
      "outputs": [
        {
          "internalType": "uint256",
          "name": "x1",
          "type": "uint256"
        },
        {
          "internalType": "uint256",
          "name": "y1",
          "type": "uint256"
        }
      ],
      "stateMutability": "pure",
      "type": "function"
    },
    {
      "inputs": [
        {
          "internalType": "uint256",
          "name": "x0",
          "type": "uint256"
        },
        {
          "internalType": "uint256",
          "name": "y0",
          "type": "uint256"
        },
        {
          "internalType": "uint256",
          "name": "z0",
          "type": "uint256"
        }
      ],
      "name": "toAffinePoint",
      "outputs": [
        {
          "internalType": "uint256",
          "name": "x1",
          "type": "uint256"
        },
        {
          "internalType": "uint256",
          "name": "y1",
          "type": "uint256"
        }
      ],
      "stateMutability": "pure",
      "type": "function"
    },
    {
      "inputs": [
        {
          "internalType": "uint256",
          "name": "x0",
          "type": "uint256"
        },
        {
          "internalType": "uint256",
          "name": "y0",
          "type": "uint256"
        }
      ],
      "name": "toProjectivePoint",
      "outputs": [
        {
          "internalType": "uint256[3]",
          "name": "P",
          "type": "uint256[3]"
        }
      ],
      "stateMutability": "pure",
      "type": "function"
    },
    {
      "inputs": [
        {
          "internalType": "uint256",
          "name": "x0",
          "type": "uint256"
        },
        {
          "internalType": "uint256",
          "name": "y0",
          "type": "uint256"
        }
      ],
      "name": "twice",
      "outputs": [
        {
          "internalType": "uint256",
          "name": "",
          "type": "uint256"
        },
        {
          "internalType": "uint256",
          "name": "",
          "type": "uint256"
        }
      ],
      "stateMutability": "pure",
      "type": "function"
    },
    {
      "inputs": [
        {
          "internalType": "uint256",
          "name": "x0",
          "type": "uint256"
        },
        {
          "internalType": "uint256",
          "name": "y0",
          "type": "uint256"
        },
        {
          "internalType": "uint256",
          "name": "z0",
          "type": "uint256"
        }
      ],
      "name": "twiceProj",
      "outputs": [
        {
          "internalType": "uint256",
          "name": "x1",
          "type": "uint256"
        },
        {
          "internalType": "uint256",
          "name": "y1",
          "type": "uint256"
        },
        {
          "internalType": "uint256",
          "name": "z1",
          "type": "uint256"
        }
      ],
      "stateMutability": "pure",
      "type": "function"
    },
    {
      "inputs": [
        {
          "internalType": "bytes32",
          "name": "message",
          "type": "bytes32"
        },
        {
          "internalType": "uint256[2]",
          "name": "rs",
          "type": "uint256[2]"
        },
        {
          "internalType": "uint256[2]",
          "name": "Q",
          "type": "uint256[2]"
        }
      ],
      "name": "validateSignature",
      "outputs": [
        {
          "internalType": "bool",
          "name": "",
          "type": "bool"
        }
      ],
      "stateMutability": "pure",
      "type": "function"
    },
    {
      "inputs": [
        {
          "internalType": "bytes",
          "name": "key",
          "type": "bytes"
        },
        {
          "internalType": "bytes",
          "name": "data",
          "type": "bytes"
        },
        {
          "internalType": "bytes",
          "name": "signature",
          "type": "bytes"
        }
      ],
      "name": "verify",
      "outputs": [
        {
          "internalType": "bool",
          "name": "",
          "type": "bool"
        }
      ],
      "stateMutability": "view",
      "type": "function"
    },
    {
      "inputs": [],
      "name": "zeroAffine",
      "outputs": [
        {
          "internalType": "uint256",
          "name": "x",
          "type": "uint256"
        },
        {
          "internalType": "uint256",
          "name": "y",
          "type": "uint256"
        }
      ],
      "stateMutability": "pure",
      "type": "function"
    },
    {
      "inputs": [],
      "name": "zeroProj",
      "outputs": [
        {
          "internalType": "uint256",
          "name": "x",
          "type": "uint256"
        },
        {
          "internalType": "uint256",
          "name": "y",
          "type": "uint256"
        },
        {
          "internalType": "uint256",
          "name": "z",
          "type": "uint256"
        }
      ],
      "stateMutability": "pure",
      "type": "function"
    }
  ],
  "bytecode": "0x608060405234801561001057600080fd5b5061301b806100206000396000f3fe608060405234801561001057600080fd5b50600436106101005760003560e01c806372fb4a1411610097578063c80edca411610066578063c80edca414610329578063de8f50a11461035b578063e022d77c1461038b578063f214aba0146103bc57610100565b806372fb4a14146102795780637ec8da8d146102aa57806384dfba46146102da578063c30cfa2d146102f957610100565b806314c67060116100d357806314c67060146101c7578063322b24aa146101e7578063675ca04314610218578063713eca281461024957610100565b806304e960d71461010557806309d3ef31146101355780630afb4ddc146101665780630b0dbcfa14610197575b600080fd5b61011f600480360381019061011a919061292f565b6103ee565b60405161012c9190612cb7565b60405180910390f35b61014f600480360381019061014a9190612a4b565b610a05565b60405161015d929190612cd2565b60405180910390f35b610180600480360381019061017b9190612a22565b610a39565b60405161018e929190612cd2565b60405180910390f35b6101b160048036038101906101ac9190612a4b565b610a90565b6040516101be9190612cb7565b60405180910390f35b6101cf610dbd565b6040516101de93929190612cfb565b60405180910390f35b61020160048036038101906101fc9190612a87565b610dd2565b60405161020f929190612cd2565b60405180910390f35b610232600480360381019061022d9190612a87565b610e35565b604051610240929190612cd2565b60405180910390f35b610263600480360381019061025e9190612ad6565b610f23565b6040516102709190612c9c565b60405180910390f35b610293600480360381019061028e9190612a87565b610f58565b6040516102a1929190612cd2565b60405180910390f35b6102c460048036038101906102bf9190612a4b565b61105e565b6040516102d19190612c9c565b60405180910390f35b6102e26112bb565b6040516102f0929190612cd2565b60405180910390f35b610313600480360381019061030e9190612a4b565b6112c9565b6040516103209190612cb7565b60405180910390f35b610343600480360381019061033e9190612a87565b6112f3565b60405161035293929190612cfb565b60405180910390f35b6103756004803603810190610370919061297e565b611b94565b6040516103829190612cb7565b60405180910390f35b6103a560048036038101906103a09190612ad6565b611c96565b6040516103b3929190612cd2565b60405180910390f35b6103d660048036038101906103d19190612b39565b611cd0565b6040516103e593929190612cfb565b60405180910390f35b6000808360006002811061042b577f4e487b7100000000000000000000000000000000000000000000000000000000600052603260045260246000fd5b6020020151148061049a57507fffffffff00000000ffffffffffffffffbce6faada7179e84f3b9cac2fc63255183600060028110610492577f4e487b7100000000000000000000000000000000000000000000000000000000600052603260045260246000fd5b602002015110155b806104e357506000836001600281106104dc577f4e487b7100000000000000000000000000000000000000000000000000000000600052603260045260246000fd5b6020020151145b156104f157600090506109fe565b6105778260006002811061052e577f4e487b7100000000000000000000000000000000000000000000000000000000600052603260045260246000fd5b60200201518360016002811061056d577f4e487b7100000000000000000000000000000000000000000000000000000000600052603260045260246000fd5b6020020151610a90565b61058457600090506109fe565b60008060008060006105f4886001600281106105c9577f4e487b7100000000000000000000000000000000000000000000000000000000600052603260045260246000fd5b60200201517fffffffff00000000ffffffffffffffffbce6faada7179e84f3b9cac2fc632551611f47565b905061069b7f6b17d1f2e12c4247f8bce6e563a440f277037d812deb33a0f4a13945d898c2967f4fe342e2fe1a7f9b8ee7eb4a7c0f9e162bce33576b315ececbb6406837bf51f57fffffffff00000000ffffffffffffffffbce6faada7179e84f3b9cac2fc63255180610690577f4e487b7100000000000000000000000000000000000000000000000000000000600052601260045260246000fd5b848d60001c09610f58565b80945081965050506107bf876000600281106106e0577f4e487b7100000000000000000000000000000000000000000000000000000000600052603260045260246000fd5b60200201518860016002811061071f577f4e487b7100000000000000000000000000000000000000000000000000000000600052603260045260246000fd5b60200201517fffffffff00000000ffffffffffffffffbce6faada7179e84f3b9cac2fc63255180610779577f4e487b7100000000000000000000000000000000000000000000000000000000600052601260045260246000fd5b848c6000600281106107b4577f4e487b7100000000000000000000000000000000000000000000000000000000600052603260045260246000fd5b602002015109610f58565b809350819550505060006107d586858786610f23565b9050600081600260038110610813577f4e487b7100000000000000000000000000000000000000000000000000000000600052603260045260246000fd5b6020020151141561082d57600096505050505050506109fe565b60006108978260026003811061086c577f4e487b7100000000000000000000000000000000000000000000000000000000600052603260045260246000fd5b60200201517fffffffff00000001000000000000000000000000ffffffffffffffffffffffff611f47565b90507fffffffff00000001000000000000000000000000ffffffffffffffffffffffff806108ee577f4e487b7100000000000000000000000000000000000000000000000000000000600052601260045260246000fd5b7fffffffff00000001000000000000000000000000ffffffffffffffffffffffff80610943577f4e487b7100000000000000000000000000000000000000000000000000000000600052601260045260246000fd5b82830983600060038110610980577f4e487b7100000000000000000000000000000000000000000000000000000000600052603260045260246000fd5b6020020151099050896000600281106109c2577f4e487b7100000000000000000000000000000000000000000000000000000000600052603260045260246000fd5b60200201517fffffffff00000000ffffffffffffffffbce6faada7179e84f3b9cac2fc632551826109f39190612ee8565b149750505050505050505b9392505050565b6000806000610a16858560016112f3565b809350819650829750505050610a2d858583610e35565b92509250509250929050565b600080610a877f6b17d1f2e12c4247f8bce6e563a440f277037d812deb33a0f4a13945d898c2967f4fe342e2fe1a7f9b8ee7eb4a7c0f9e162bce33576b315ececbb6406837bf51f585610f58565b91509150915091565b60008260001480610ac057507fffffffff00000001000000000000000000000000ffffffffffffffffffffffff83145b80610acb5750816000145b80610af557507fffffffff00000001000000000000000000000000ffffffffffffffffffffffff82145b15610b035760009050610db7565b60007fffffffff00000001000000000000000000000000ffffffffffffffffffffffff80610b5a577f4e487b7100000000000000000000000000000000000000000000000000000000600052601260045260246000fd5b838409905060007fffffffff00000001000000000000000000000000ffffffffffffffffffffffff80610bb6577f4e487b7100000000000000000000000000000000000000000000000000000000600052601260045260246000fd5b857fffffffff00000001000000000000000000000000ffffffffffffffffffffffff80610c0c577f4e487b7100000000000000000000000000000000000000000000000000000000600052601260045260246000fd5b87880909905060007fffffffff00000001000000000000000000000000fffffffffffffffffffffffc14610d0c577fffffffff00000001000000000000000000000000ffffffffffffffffffffffff80610c8f577f4e487b7100000000000000000000000000000000000000000000000000000000600052601260045260246000fd5b7fffffffff00000001000000000000000000000000ffffffffffffffffffffffff80610ce4577f4e487b7100000000000000000000000000000000000000000000000000000000600052601260045260246000fd5b7fffffffff00000001000000000000000000000000fffffffffffffffffffffffc8709820890505b60007f5ac635d8aa3a93e7b3ebbd55769886bc651d06b0cc53b0f63bce3c3e27d2604b14610daf577fffffffff00000001000000000000000000000000ffffffffffffffffffffffff80610d89577f4e487b7100000000000000000000000000000000000000000000000000000000600052601260045260246000fd5b7f5ac635d8aa3a93e7b3ebbd55769886bc651d06b0cc53b0f63bce3c3e27d2604b820890505b808214925050505b92915050565b60008060008060016000925092509250909192565b6000806000859050600085905060006001905060005b86811015610e1a57610dfb8484846112f3565b8094508195508296505050508080610e1290612e9f565b915050610de8565b50610e26838383610e35565b94509450505050935093915050565b6000806000610e64847fffffffff00000001000000000000000000000000ffffffffffffffffffffffff611f47565b90507fffffffff00000001000000000000000000000000ffffffffffffffffffffffff80610ebb577f4e487b7100000000000000000000000000000000000000000000000000000000600052601260045260246000fd5b81870992507fffffffff00000001000000000000000000000000ffffffffffffffffffffffff80610f15577f4e487b7100000000000000000000000000000000000000000000000000000000600052601260045260246000fd5b818609915050935093915050565b610f2b6127af565b600080610f3a87878787611c96565b8092508193505050610f4c828261105e565b92505050949350505050565b6000806000831415610f7557610f6c6112bb565b91509150611056565b6001831415610f8957848491509150611056565b6002831415610fa557610f9c8585610a05565b91509150611056565b600085905060008590506000600190506000600190508895508794506000600288610fd09190612ee8565b1415610fde57600094508495505b600187901c96505b600087111561104257610ffa8484846112f3565b80945081955082965050505060016002886110159190612ee8565b141561103657611029848484898986611cd0565b8093508197508298505050505b600187901c9650610fe6565b61104d868683610e35565b95509550505050505b935093915050565b6110666127af565b7fffffffff00000001000000000000000000000000ffffffffffffffffffffffff806110bb577f4e487b7100000000000000000000000000000000000000000000000000000000600052601260045260246000fd5b6001600008816002600381106110fa577f4e487b7100000000000000000000000000000000000000000000000000000000600052603260045260246000fd5b6020020181815250507fffffffff00000001000000000000000000000000ffffffffffffffffffffffff80611158577f4e487b7100000000000000000000000000000000000000000000000000000000600052601260045260246000fd5b81600260038110611192577f4e487b7100000000000000000000000000000000000000000000000000000000600052603260045260246000fd5b60200201518409816000600381106111d3577f4e487b7100000000000000000000000000000000000000000000000000000000600052603260045260246000fd5b6020020181815250507fffffffff00000001000000000000000000000000ffffffffffffffffffffffff80611231577f4e487b7100000000000000000000000000000000000000000000000000000000600052601260045260246000fd5b8160026003811061126b577f4e487b7100000000000000000000000000000000000000000000000000000000600052603260045260246000fd5b60200201518309816001600381106112ac577f4e487b7100000000000000000000000000000000000000000000000000000000600052603260045260246000fd5b60200201818152505092915050565b600080600080915091509091565b600080831480156112da5750600082145b156112e857600190506112ed565b600090505b92915050565b60008060008060008060006113088a8a6112c9565b1561132457611315610dbd565b96509650965050505050611b8b565b7fffffffff00000001000000000000000000000000ffffffffffffffffffffffff80611379577f4e487b7100000000000000000000000000000000000000000000000000000000600052601260045260246000fd5b888a0992507fffffffff00000001000000000000000000000000ffffffffffffffffffffffff806113d3577f4e487b7100000000000000000000000000000000000000000000000000000000600052601260045260246000fd5b6002840992507fffffffff00000001000000000000000000000000ffffffffffffffffffffffff8061142e577f4e487b7100000000000000000000000000000000000000000000000000000000600052601260045260246000fd5b8a840991507fffffffff00000001000000000000000000000000ffffffffffffffffffffffff80611488577f4e487b7100000000000000000000000000000000000000000000000000000000600052601260045260246000fd5b89830991507fffffffff00000001000000000000000000000000ffffffffffffffffffffffff806114e2577f4e487b7100000000000000000000000000000000000000000000000000000000600052601260045260246000fd5b6002830991507fffffffff00000001000000000000000000000000ffffffffffffffffffffffff8061153d577f4e487b7100000000000000000000000000000000000000000000000000000000600052601260045260246000fd5b8a8b0999507fffffffff00000001000000000000000000000000ffffffffffffffffffffffff80611597577f4e487b7100000000000000000000000000000000000000000000000000000000600052601260045260246000fd5b60038b0993507fffffffff00000001000000000000000000000000ffffffffffffffffffffffff806115f2577f4e487b7100000000000000000000000000000000000000000000000000000000600052601260045260246000fd5b88890997507fffffffff00000001000000000000000000000000ffffffffffffffffffffffff8061164c577f4e487b7100000000000000000000000000000000000000000000000000000000600052601260045260246000fd5b7fffffffff00000001000000000000000000000000fffffffffffffffffffffffc890997507fffffffff00000001000000000000000000000000ffffffffffffffffffffffff806116c6577f4e487b7100000000000000000000000000000000000000000000000000000000600052601260045260246000fd5b88850893507fffffffff00000001000000000000000000000000ffffffffffffffffffffffff80611720577f4e487b7100000000000000000000000000000000000000000000000000000000600052601260045260246000fd5b84850990507fffffffff00000001000000000000000000000000ffffffffffffffffffffffff8061177a577f4e487b7100000000000000000000000000000000000000000000000000000000600052601260045260246000fd5b8260020999507fffffffff00000001000000000000000000000000ffffffffffffffffffffffff806117d5577f4e487b7100000000000000000000000000000000000000000000000000000000600052601260045260246000fd5b8a7fffffffff00000001000000000000000000000000ffffffffffffffffffffffff6118019190612e0b565b820890507fffffffff00000001000000000000000000000000ffffffffffffffffffffffff8061185a577f4e487b7100000000000000000000000000000000000000000000000000000000600052601260045260246000fd5b817fffffffff00000001000000000000000000000000ffffffffffffffffffffffff6118869190612e0b565b830899507fffffffff00000001000000000000000000000000ffffffffffffffffffffffff806118df577f4e487b7100000000000000000000000000000000000000000000000000000000600052601260045260246000fd5b8a850999507fffffffff00000001000000000000000000000000ffffffffffffffffffffffff80611939577f4e487b7100000000000000000000000000000000000000000000000000000000600052601260045260246000fd5b838a0998507fffffffff00000001000000000000000000000000ffffffffffffffffffffffff80611993577f4e487b7100000000000000000000000000000000000000000000000000000000600052601260045260246000fd5b898a0998507fffffffff00000001000000000000000000000000ffffffffffffffffffffffff806119ed577f4e487b7100000000000000000000000000000000000000000000000000000000600052601260045260246000fd5b8960020998507fffffffff00000001000000000000000000000000ffffffffffffffffffffffff80611a48577f4e487b7100000000000000000000000000000000000000000000000000000000600052601260045260246000fd5b897fffffffff00000001000000000000000000000000ffffffffffffffffffffffff611a749190612e0b565b8b0895507fffffffff00000001000000000000000000000000ffffffffffffffffffffffff80611acd577f4e487b7100000000000000000000000000000000000000000000000000000000600052601260045260246000fd5b81840996507fffffffff00000001000000000000000000000000ffffffffffffffffffffffff80611b27577f4e487b7100000000000000000000000000000000000000000000000000000000600052601260045260246000fd5b83840994507fffffffff00000001000000000000000000000000ffffffffffffffffffffffff80611b81577f4e487b7100000000000000000000000000000000000000000000000000000000600052601260045260246000fd5b8386099450505050505b93509350939050565b6000611c8a60028686604051611bab929190612c83565b602060405180830381855afa158015611bc8573d6000803e3d6000fd5b5050506040513d601f19601f82011682018060405250810190611beb9190612906565b611c3885858080601f016020809104026020016040519081016040528093929190818152602001838380828437600081840152601f19601f82011690508083019250505050505050612051565b611c858a8a8080601f016020809104026020016040519081016040528093929190818152602001838380828437600081840152601f19601f820116905080830192505050505050506120a1565b6103ee565b90509695505050505050565b6000806000611cab8787600188886001611cd0565b809350819850829950505050611cc2878783610e35565b925092505094509492505050565b6000806000806000806000611ce58d8d6112c9565b15611cfc5789898996509650965050505050611f3b565b611d068a8a6112c9565b15611d1d578c8c8c96509650965050505050611f3b565b7fffffffff00000001000000000000000000000000ffffffffffffffffffffffff80611d72577f4e487b7100000000000000000000000000000000000000000000000000000000600052601260045260246000fd5b888d0993507fffffffff00000001000000000000000000000000ffffffffffffffffffffffff80611dcc577f4e487b7100000000000000000000000000000000000000000000000000000000600052601260045260246000fd5b8b8a0992507fffffffff00000001000000000000000000000000ffffffffffffffffffffffff80611e26577f4e487b7100000000000000000000000000000000000000000000000000000000600052601260045260246000fd5b888e0991507fffffffff00000001000000000000000000000000ffffffffffffffffffffffff80611e80577f4e487b7100000000000000000000000000000000000000000000000000000000600052601260045260246000fd5b8b8b09905080821415611ec65782841415611eaf57611ea08d8d8d6112f3565b96509650965050505050611f3b565b611eb7610dbd565b96509650965050505050611f3b565b611f2a7fffffffff00000001000000000000000000000000ffffffffffffffffffffffff80611f1e577f4e487b7100000000000000000000000000000000000000000000000000000000600052601260045260246000fd5b898d09838386886120f1565b809750819850829950505050505050505b96509650969350505050565b600080831480611f5657508183145b80611f615750600082145b15611f6f576000905061204b565b81831115611fb157818381611fad577f4e487b7100000000000000000000000000000000000000000000000000000000600052601260045260246000fd5b0692505b600080600190506000849050600086905060005b6000821461202757818381612003577f4e487b7100000000000000000000000000000000000000000000000000000000600052601260045260246000fd5b04905083848202860383848402860380955081965082975083985050505050611fc5565b6000851215612042578460000387039550505050505061204b565b84955050505050505b92915050565b6120596127d1565b604051806040016040528061207860008561278490919063ffffffff16565b60001c815260200161209460208561278490919063ffffffff16565b60001c8152509050919050565b6120a96127d1565b60405180604001604052806120c860048561278490919063ffffffff16565b60001c81526020016120e460248561278490919063ffffffff16565b60001c8152509050919050565b6000806000806000806000807fffffffff00000001000000000000000000000000ffffffffffffffffffffffff80612152577f4e487b7100000000000000000000000000000000000000000000000000000000600052601260045260246000fd5b8a7fffffffff00000001000000000000000000000000ffffffffffffffffffffffff61217e9190612e0b565b8a0890507fffffffff00000001000000000000000000000000ffffffffffffffffffffffff806121d7577f4e487b7100000000000000000000000000000000000000000000000000000000600052601260045260246000fd5b8b7fffffffff00000001000000000000000000000000ffffffffffffffffffffffff6122039190612e0b565b8d0894507fffffffff00000001000000000000000000000000ffffffffffffffffffffffff8061225c577f4e487b7100000000000000000000000000000000000000000000000000000000600052601260045260246000fd5b85860993507fffffffff00000001000000000000000000000000ffffffffffffffffffffffff806122b6577f4e487b7100000000000000000000000000000000000000000000000000000000600052601260045260246000fd5b81820991507fffffffff00000001000000000000000000000000ffffffffffffffffffffffff80612310577f4e487b7100000000000000000000000000000000000000000000000000000000600052601260045260246000fd5b8d830991507fffffffff00000001000000000000000000000000ffffffffffffffffffffffff8061236a577f4e487b7100000000000000000000000000000000000000000000000000000000600052601260045260246000fd5b8c8c089a507fffffffff00000001000000000000000000000000ffffffffffffffffffffffff806123c4577f4e487b7100000000000000000000000000000000000000000000000000000000600052601260045260246000fd5b848c099a507fffffffff00000001000000000000000000000000ffffffffffffffffffffffff8061241e577f4e487b7100000000000000000000000000000000000000000000000000000000600052601260045260246000fd5b8b7fffffffff00000001000000000000000000000000ffffffffffffffffffffffff61244a9190612e0b565b830891507fffffffff00000001000000000000000000000000ffffffffffffffffffffffff806124a3577f4e487b7100000000000000000000000000000000000000000000000000000000600052601260045260246000fd5b82860997507fffffffff00000001000000000000000000000000ffffffffffffffffffffffff806124fd577f4e487b7100000000000000000000000000000000000000000000000000000000600052601260045260246000fd5b85850992507fffffffff00000001000000000000000000000000ffffffffffffffffffffffff80612557577f4e487b7100000000000000000000000000000000000000000000000000000000600052601260045260246000fd5b848d099b507fffffffff00000001000000000000000000000000ffffffffffffffffffffffff806125b1577f4e487b7100000000000000000000000000000000000000000000000000000000600052601260045260246000fd5b827fffffffff00000001000000000000000000000000ffffffffffffffffffffffff6125dd9190612e0b565b8d089b507fffffffff00000001000000000000000000000000ffffffffffffffffffffffff80612636577f4e487b7100000000000000000000000000000000000000000000000000000000600052601260045260246000fd5b8c820990507fffffffff00000001000000000000000000000000ffffffffffffffffffffffff80612690577f4e487b7100000000000000000000000000000000000000000000000000000000600052601260045260246000fd5b838a0998507fffffffff00000001000000000000000000000000ffffffffffffffffffffffff806126ea577f4e487b7100000000000000000000000000000000000000000000000000000000600052601260045260246000fd5b897fffffffff00000001000000000000000000000000ffffffffffffffffffffffff6127169190612e0b565b820896507fffffffff00000001000000000000000000000000ffffffffffffffffffffffff8061276f577f4e487b7100000000000000000000000000000000000000000000000000000000600052601260045260246000fd5b8d840995505050505050955095509592505050565b600082516020836127959190612db5565b11156127a057600080fd5b81602084010151905092915050565b6040518060600160405280600390602082028036833780820191505090505090565b6040518060400160405280600290602082028036833780820191505090505090565b600061280661280184612d57565b612d32565b9050808285602086028201111561281c57600080fd5b60005b8581101561284c578161283288826128f1565b84526020840193506020830192505060018101905061281f565b5050509392505050565b600082601f83011261286757600080fd5b60026128748482856127f3565b91505092915050565b60008135905061288c81612fb7565b92915050565b6000815190506128a181612fb7565b92915050565b60008083601f8401126128b957600080fd5b8235905067ffffffffffffffff8111156128d257600080fd5b6020830191508360018202830111156128ea57600080fd5b9250929050565b60008135905061290081612fce565b92915050565b60006020828403121561291857600080fd5b600061292684828501612892565b91505092915050565b600080600060a0848603121561294457600080fd5b60006129528682870161287d565b935050602061296386828701612856565b925050606061297486828701612856565b9150509250925092565b6000806000806000806060878903121561299757600080fd5b600087013567ffffffffffffffff8111156129b157600080fd5b6129bd89828a016128a7565b9650965050602087013567ffffffffffffffff8111156129dc57600080fd5b6129e889828a016128a7565b9450945050604087013567ffffffffffffffff811115612a0757600080fd5b612a1389828a016128a7565b92509250509295509295509295565b600060208284031215612a3457600080fd5b6000612a42848285016128f1565b91505092915050565b60008060408385031215612a5e57600080fd5b6000612a6c858286016128f1565b9250506020612a7d858286016128f1565b9150509250929050565b600080600060608486031215612a9c57600080fd5b6000612aaa868287016128f1565b9350506020612abb868287016128f1565b9250506040612acc868287016128f1565b9150509250925092565b60008060008060808587031215612aec57600080fd5b6000612afa878288016128f1565b9450506020612b0b878288016128f1565b9350506040612b1c878288016128f1565b9250506060612b2d878288016128f1565b91505092959194509250565b60008060008060008060c08789031215612b5257600080fd5b6000612b6089828a016128f1565b9650506020612b7189828a016128f1565b9550506040612b8289828a016128f1565b9450506060612b9389828a016128f1565b9350506080612ba489828a016128f1565b92505060a0612bb589828a016128f1565b9150509295509295509295565b6000612bce8383612c65565b60208301905092915050565b612be381612d87565b612bed8184612d9f565b9250612bf882612d7d565b8060005b83811015612c29578151612c108782612bc2565b9650612c1b83612d92565b925050600181019050612bfc565b505050505050565b612c3a81612e3f565b82525050565b6000612c4c8385612daa565b9350612c59838584612e5f565b82840190509392505050565b612c6e81612e55565b82525050565b612c7d81612e55565b82525050565b6000612c90828486612c40565b91508190509392505050565b6000606082019050612cb16000830184612bda565b92915050565b6000602082019050612ccc6000830184612c31565b92915050565b6000604082019050612ce76000830185612c74565b612cf46020830184612c74565b9392505050565b6000606082019050612d106000830186612c74565b612d1d6020830185612c74565b612d2a6040830184612c74565b949350505050565b6000612d3c612d4d565b9050612d488282612e6e565b919050565b6000604051905090565b600067ffffffffffffffff821115612d7257612d71612f77565b5b602082029050919050565b6000819050919050565b600060039050919050565b6000602082019050919050565b600081905092915050565b600081905092915050565b6000612dc082612e55565b9150612dcb83612e55565b9250827fffffffffffffffffffffffffffffffffffffffffffffffffffffffffffffffff03821115612e0057612dff612f19565b5b828201905092915050565b6000612e1682612e55565b9150612e2183612e55565b925082821015612e3457612e33612f19565b5b828203905092915050565b60008115159050919050565b6000819050919050565b6000819050919050565b82818337600083830152505050565b612e7782612fa6565b810181811067ffffffffffffffff82111715612e9657612e95612f77565b5b80604052505050565b6000612eaa82612e55565b91507fffffffffffffffffffffffffffffffffffffffffffffffffffffffffffffffff821415612edd57612edc612f19565b5b600182019050919050565b6000612ef382612e55565b9150612efe83612e55565b925082612f0e57612f0d612f48565b5b828206905092915050565b7f4e487b7100000000000000000000000000000000000000000000000000000000600052601160045260246000fd5b7f4e487b7100000000000000000000000000000000000000000000000000000000600052601260045260246000fd5b7f4e487b7100000000000000000000000000000000000000000000000000000000600052604160045260246000fd5b6000601f19601f8301169050919050565b612fc081612e4b565b8114612fcb57600080fd5b50565b612fd781612e55565b8114612fe257600080fd5b5056fea26469706673582212204d60be6bdcac30379dfc2c3f7e32e20986639eaa493d6639845fce09e82ea86e64736f6c63430008040033",
  "linkReferences": {},
  "deployedLinkReferences": {}
}