{
  "_format": "hh-sol-artifact-1",
  "contractName": "TestResolver",
  "sourceName": "contracts/ethregistrar/TestResolver.sol",
  "abi": [
    {
      "inputs": [],
      "stateMutability": "nonpayable",
      "type": "constructor"
    },
    {
      "inputs": [
        {
          "internalType": "bytes32",
          "name": "node",
          "type": "bytes32"
        }
      ],
      "name": "addr",
      "outputs": [
        {
          "internalType": "address",
          "name": "",
          "type": "address"
        }
      ],
      "stateMutability": "view",
      "type": "function"
    },
    {
      "inputs": [
        {
          "internalType": "bytes32",
          "name": "node",
          "type": "bytes32"
        },
        {
          "internalType": "address",
          "name": "addr",
          "type": "address"
        }
      ],
      "name": "setAddr",
      "outputs": [],
      "stateMutability": "nonpayable",
      "type": "function"
    },
    {
      "inputs": [
        {
          "internalType": "bytes4",
          "name": "interfaceID",
          "type": "bytes4"
        }
      ],
      "name": "supportsInterface",
      "outputs": [
        {
          "internalType": "bool",
          "name": "",
          "type": "bool"
        }
      ],
      "stateMutability": "pure",
      "type": "function"
    }
  ],
  "bytecode": "0x608060405234801561001057600080fd5b506103c5806100206000396000f3fe608060405234801561001057600080fd5b50600436106100415760003560e01c806301ffc9a7146100465780633b3b57de14610076578063d5fa2b00146100a6575b600080fd5b610060600480360381019061005b9190610259565b6100c2565b60405161006d91906102bb565b60405180910390f35b610090600480360381019061008b91906101f4565b610124565b60405161009d91906102a0565b60405180910390f35b6100c060048036038101906100bb919061021d565b610160565b005b60006301ffc9a760e01b827bffffffffffffffffffffffffffffffffffffffffffffffffffffffff1916148061011d5750633b3b57de60e01b827bffffffffffffffffffffffffffffffffffffffffffffffffffffffff1916145b9050919050565b600080600083815260200190815260200160002060009054906101000a900473ffffffffffffffffffffffffffffffffffffffff169050919050565b8060008084815260200190815260200160002060006101000a81548173ffffffffffffffffffffffffffffffffffffffff021916908373ffffffffffffffffffffffffffffffffffffffff1602179055505050565b6000813590506101c48161034a565b92915050565b6000813590506101d981610361565b92915050565b6000813590506101ee81610378565b92915050565b60006020828403121561020657600080fd5b6000610214848285016101ca565b91505092915050565b6000806040838503121561023057600080fd5b600061023e858286016101ca565b925050602061024f858286016101b5565b9150509250929050565b60006020828403121561026b57600080fd5b6000610279848285016101df565b91505092915050565b61028b816102d6565b82525050565b61029a816102e8565b82525050565b60006020820190506102b56000830184610282565b92915050565b60006020820190506102d06000830184610291565b92915050565b60006102e18261032a565b9050919050565b60008115159050919050565b6000819050919050565b60007fffffffff0000000000000000000000000000000000000000000000000000000082169050919050565b600073ffffffffffffffffffffffffffffffffffffffff82169050919050565b610353816102d6565b811461035e57600080fd5b50565b61036a816102f4565b811461037557600080fd5b50565b610381816102fe565b811461038c57600080fd5b5056fea264697066735822122041d6e876be0e6713ddb8dd26c3bda758081675f5e1421c46c1fb250060fc4ee864736f6c63430008040033",
  "linkReferences": {},
  "deployedLinkReferences": {}
}