{
  "_format": "hh-sol-artifact-1",
  "contractName": "LinearPremiumPriceOracle",
  "sourceName": "contracts/ethregistrar/LinearPremiumPriceOracle.sol",
  "abi": [
    {
      "inputs": [
        {
          "internalType": "contract AggregatorInterface",
          "name": "_usdOracle",
          "type": "address"
        },
        {
          "internalType": "uint256[]",
          "name": "_rentPrices",
          "type": "uint256[]"
        },
        {
          "internalType": "uint256",
          "name": "_initialPremium",
          "type": "uint256"
        },
        {
          "internalType": "uint256",
          "name": "_premiumDecreaseRate",
          "type": "uint256"
        }
      ],
      "stateMutability": "nonpayable",
      "type": "constructor"
    },
    {
      "anonymous": false,
      "inputs": [
        {
          "indexed": false,
          "internalType": "address",
          "name": "oracle",
          "type": "address"
        }
      ],
      "name": "OracleChanged",
      "type": "event"
    },
    {
      "anonymous": false,
      "inputs": [
        {
          "indexed": true,
          "internalType": "address",
          "name": "previousOwner",
          "type": "address"
        },
        {
          "indexed": true,
          "internalType": "address",
          "name": "newOwner",
          "type": "address"
        }
      ],
      "name": "OwnershipTransferred",
      "type": "event"
    },
    {
      "anonymous": false,
      "inputs": [
        {
          "indexed": false,
          "internalType": "uint256[]",
          "name": "prices",
          "type": "uint256[]"
        }
      ],
      "name": "RentPriceChanged",
      "type": "event"
    },
    {
      "inputs": [],
      "name": "initialPremium",
      "outputs": [
        {
          "internalType": "uint256",
          "name": "",
          "type": "uint256"
        }
      ],
      "stateMutability": "view",
      "type": "function"
    },
    {
      "inputs": [],
      "name": "owner",
      "outputs": [
        {
          "internalType": "address",
          "name": "",
          "type": "address"
        }
      ],
      "stateMutability": "view",
      "type": "function"
    },
    {
      "inputs": [
        {
          "internalType": "string",
          "name": "name",
          "type": "string"
        },
        {
          "internalType": "uint256",
          "name": "expires",
          "type": "uint256"
        },
        {
          "internalType": "uint256",
          "name": "duration",
          "type": "uint256"
        }
      ],
      "name": "premium",
      "outputs": [
        {
          "internalType": "uint256",
          "name": "",
          "type": "uint256"
        }
      ],
      "stateMutability": "view",
      "type": "function"
    },
    {
      "inputs": [],
      "name": "premiumDecreaseRate",
      "outputs": [
        {
          "internalType": "uint256",
          "name": "",
          "type": "uint256"
        }
      ],
      "stateMutability": "view",
      "type": "function"
    },
    {
      "inputs": [
        {
          "internalType": "string",
          "name": "name",
          "type": "string"
        },
        {
          "internalType": "uint256",
          "name": "expires",
          "type": "uint256"
        },
        {
          "internalType": "uint256",
          "name": "duration",
          "type": "uint256"
        }
      ],
      "name": "price",
      "outputs": [
        {
          "internalType": "uint256",
          "name": "",
          "type": "uint256"
        }
      ],
      "stateMutability": "view",
      "type": "function"
    },
    {
      "inputs": [],
      "name": "renounceOwnership",
      "outputs": [],
      "stateMutability": "nonpayable",
      "type": "function"
    },
    {
      "inputs": [
        {
          "internalType": "uint256",
          "name": "",
          "type": "uint256"
        }
      ],
      "name": "rentPrices",
      "outputs": [
        {
          "internalType": "uint256",
          "name": "",
          "type": "uint256"
        }
      ],
      "stateMutability": "view",
      "type": "function"
    },
    {
      "inputs": [
        {
          "internalType": "contract AggregatorInterface",
          "name": "_usdOracle",
          "type": "address"
        }
      ],
      "name": "setOracle",
      "outputs": [],
      "stateMutability": "nonpayable",
      "type": "function"
    },
    {
      "inputs": [
        {
          "internalType": "uint256[]",
          "name": "_rentPrices",
          "type": "uint256[]"
        }
      ],
      "name": "setPrices",
      "outputs": [],
      "stateMutability": "nonpayable",
      "type": "function"
    },
    {
      "inputs": [
        {
          "internalType": "bytes4",
          "name": "interfaceID",
          "type": "bytes4"
        }
      ],
      "name": "supportsInterface",
      "outputs": [
        {
          "internalType": "bool",
          "name": "",
          "type": "bool"
        }
      ],
      "stateMutability": "view",
      "type": "function"
    },
    {
      "inputs": [
        {
          "internalType": "uint256",
          "name": "expires",
          "type": "uint256"
        },
        {
          "internalType": "uint256",
          "name": "amount",
          "type": "uint256"
        }
      ],
      "name": "timeUntilPremium",
      "outputs": [
        {
          "internalType": "uint256",
          "name": "",
          "type": "uint256"
        }
      ],
      "stateMutability": "view",
      "type": "function"
    },
    {
      "inputs": [
        {
          "internalType": "address",
          "name": "newOwner",
          "type": "address"
        }
      ],
      "name": "transferOwnership",
      "outputs": [],
      "stateMutability": "nonpayable",
      "type": "function"
    },
    {
      "inputs": [],
      "name": "usdOracle",
      "outputs": [
        {
          "internalType": "contract AggregatorInterface",
          "name": "",
          "type": "address"
        }
      ],
      "stateMutability": "view",
      "type": "function"
    }
  ],
  "bytecode": "0x60806040526276a7006003553480156200001857600080fd5b50604051620021203803806200212083398181016040528101906200003e9190620003b2565b83836000620000526200015c60201b60201c565b9050806000806101000a81548173ffffffffffffffffffffffffffffffffffffffff021916908373ffffffffffffffffffffffffffffffffffffffff1602179055508073ffffffffffffffffffffffffffffffffffffffff16600073ffffffffffffffffffffffffffffffffffffffff167f8be0079c531659141344cd1fd0a4f28419497f9722a3daafe3b4186f6b6457e060405160405180910390a35081600260006101000a81548173ffffffffffffffffffffffffffffffffffffffff021916908373ffffffffffffffffffffffffffffffffffffffff16021790555062000142816200016460201b60201c565b505081600481905550806005819055505050505062000700565b600033905090565b620001746200015c60201b60201c565b73ffffffffffffffffffffffffffffffffffffffff166200019a6200024860201b60201c565b73ffffffffffffffffffffffffffffffffffffffff1614620001f3576040517f08c379a0000000000000000000000000000000000000000000000000000000008152600401620001ea9062000517565b60405180910390fd5b80600190805190602001906200020b92919062000271565b507f73422d94aedd596c2d4d39f27a01033adc390a9054efaf259afefd95ef7331df816040516200023d9190620004f3565b60405180910390a150565b60008060009054906101000a900473ffffffffffffffffffffffffffffffffffffffff16905090565b828054828255906000526020600020908101928215620002b0579160200282015b82811115620002af57825182559160200191906001019062000292565b5b509050620002bf9190620002c3565b5090565b5b80821115620002de576000816000905550600101620002c4565b5090565b6000620002f9620002f38462000562565b62000539565b905080838252602082019050828560208602820111156200031957600080fd5b60005b858110156200034d57816200033288826200039b565b8452602084019350602083019250506001810190506200031c565b5050509392505050565b600082601f8301126200036957600080fd5b81516200037b848260208601620002e2565b91505092915050565b6000815190506200039581620006cc565b92915050565b600081519050620003ac81620006e6565b92915050565b60008060008060808587031215620003c957600080fd5b6000620003d98782880162000384565b945050602085015167ffffffffffffffff811115620003f757600080fd5b620004058782880162000357565b935050604062000418878288016200039b565b92505060606200042b878288016200039b565b91505092959194509250565b6000620004458383620004e2565b60208301905092915050565b60006200045e82620005a1565b6200046a8185620005b9565b9350620004778362000591565b8060005b83811015620004ae57815162000492888262000437565b97506200049f83620005ac565b9250506001810190506200047b565b5085935050505092915050565b6000620004ca602083620005ca565b9150620004d782620006a3565b602082019050919050565b620004ed8162000623565b82525050565b600060208201905081810360008301526200050f818462000451565b905092915050565b600060208201905081810360008301526200053281620004bb565b9050919050565b60006200054562000558565b90506200055382826200062d565b919050565b6000604051905090565b600067ffffffffffffffff82111562000580576200057f62000663565b5b602082029050602081019050919050565b6000819050602082019050919050565b600081519050919050565b6000602082019050919050565b600082825260208201905092915050565b600082825260208201905092915050565b6000620005e88262000603565b9050919050565b6000620005fc82620005db565b9050919050565b600073ffffffffffffffffffffffffffffffffffffffff82169050919050565b6000819050919050565b620006388262000692565b810181811067ffffffffffffffff821117156200065a576200065962000663565b5b80604052505050565b7f4e487b7100000000000000000000000000000000000000000000000000000000600052604160045260246000fd5b6000601f19601f8301169050919050565b7f4f776e61626c653a2063616c6c6572206973206e6f7420746865206f776e6572600082015250565b620006d781620005ef565b8114620006e357600080fd5b50565b620006f18162000623565b8114620006fd57600080fd5b50565b611a1080620007106000396000f3fe608060405234801561001057600080fd5b50600436106100cf5760003560e01c80637d3fb8b71161008c578063c8a4271f11610066578063c8a4271f14610212578063ed6c33ed14610230578063f05af2b714610260578063f2fde38b1461027e576100cf565b80637d3fb8b7146101a65780638da5cb5b146101c4578063a34e3596146101e2576100cf565b806301ffc9a7146100d457806306d5d0b61461010457806350e9a71514610134578063715018a61461016457806379cf92d31461016e5780637adbf9731461018a575b600080fd5b6100ee60048036038101906100e99190611252565b61029a565b6040516100fb91906114e2565b60405180910390f35b61011e60048036038101906101199190611339565b610314565b60405161012b9190611558565b60405180910390f35b61014e600480360381019061014991906112cd565b610338565b60405161015b9190611558565b60405180910390f35b61016c61048b565b005b61018860048036038101906101839190611211565b6105c5565b005b6101a4600480360381019061019f919061127b565b610692565b005b6101ae610789565b6040516101bb9190611558565b60405180910390f35b6101cc61078f565b6040516101d991906114a5565b60405180910390f35b6101fc60048036038101906101f791906112cd565b6107b8565b6040516102099190611558565b60405180910390f35b61021a61081b565b60405161022791906114fd565b60405180910390f35b61024a60048036038101906102459190611362565b610841565b6040516102579190611558565b60405180910390f35b6102686108c3565b6040516102759190611558565b60405180910390f35b610298600480360381019061029391906111e8565b6108c9565b005b60007fa377dd9642cebf45fb7337de53983749383ac5da8d3b497b8a0ed3662534165f7bffffffffffffffffffffffffffffffffffffffffffffffffffffffff1916827bffffffffffffffffffffffffffffffffffffffffffffffffffffffff1916148061030d575061030c82610a72565b5b9050919050565b6001818154811061032457600080fd5b906000526020600020016000915090505481565b60008061038886868080601f016020809104026020016040519081016040528093929190818152602001838380828437600081840152601f19601f82011690508083019250505050505050610b66565b90506001805490508111156103a05760018054905090505b600081116103ad57600080fd5b600061041184600180856103c191906116ef565b815481106103f8577f4e487b7100000000000000000000000000000000000000000000000000000000600052603260045260246000fd5b9060005260206000200154610d4190919063ffffffff16565b905061047461046588888080601f016020809104026020016040519081016040528093929190818152602001838380828437600081840152601f19601f820116905080830192505050505050508787610d86565b82610e0890919063ffffffff16565b905061047f81610e30565b92505050949350505050565b610493610f06565b73ffffffffffffffffffffffffffffffffffffffff166104b161078f565b73ffffffffffffffffffffffffffffffffffffffff1614610507576040517f08c379a00000000000000000000000000000000000000000000000000000000081526004016104fe90611538565b60405180910390fd5b600073ffffffffffffffffffffffffffffffffffffffff1660008054906101000a900473ffffffffffffffffffffffffffffffffffffffff1673ffffffffffffffffffffffffffffffffffffffff167f8be0079c531659141344cd1fd0a4f28419497f9722a3daafe3b4186f6b6457e060405160405180910390a360008060006101000a81548173ffffffffffffffffffffffffffffffffffffffff021916908373ffffffffffffffffffffffffffffffffffffffff160217905550565b6105cd610f06565b73ffffffffffffffffffffffffffffffffffffffff166105eb61078f565b73ffffffffffffffffffffffffffffffffffffffff1614610641576040517f08c379a000000000000000000000000000000000000000000000000000000000815260040161063890611538565b60405180910390fd5b8060019080519060200190610657929190611035565b507f73422d94aedd596c2d4d39f27a01033adc390a9054efaf259afefd95ef7331df8160405161068791906114c0565b60405180910390a150565b61069a610f06565b73ffffffffffffffffffffffffffffffffffffffff166106b861078f565b73ffffffffffffffffffffffffffffffffffffffff161461070e576040517f08c379a000000000000000000000000000000000000000000000000000000000815260040161070590611538565b60405180910390fd5b80600260006101000a81548173ffffffffffffffffffffffffffffffffffffffff021916908373ffffffffffffffffffffffffffffffffffffffff1602179055507f0e05ae75e8b926552cf6fcd744d19f422561e3ced1e426868730852702dbe4188160405161077e91906114a5565b60405180910390a150565b60045481565b60008060009054906101000a900473ffffffffffffffffffffffffffffffffffffffff16905090565b600061081161080c86868080601f016020809104026020016040519081016040528093929190818152602001838380828437600081840152601f19601f820116905080830192505050505050508585610d86565b610e30565b9050949350505050565b600260009054906101000a900473ffffffffffffffffffffffffffffffffffffffff1681565b600061084c82610f0e565b915060045482111561085d57600080fd5b61087260035484610e0890919063ffffffff16565b9250600061088b83600454610fe490919063ffffffff16565b905060006108a46005548361100d90919063ffffffff16565b90506108b98186610e0890919063ffffffff16565b9250505092915050565b60055481565b6108d1610f06565b73ffffffffffffffffffffffffffffffffffffffff166108ef61078f565b73ffffffffffffffffffffffffffffffffffffffff1614610945576040517f08c379a000000000000000000000000000000000000000000000000000000000815260040161093c90611538565b60405180910390fd5b600073ffffffffffffffffffffffffffffffffffffffff168173ffffffffffffffffffffffffffffffffffffffff1614156109b5576040517f08c379a00000000000000000000000000000000000000000000000000000000081526004016109ac90611518565b60405180910390fd5b8073ffffffffffffffffffffffffffffffffffffffff1660008054906101000a900473ffffffffffffffffffffffffffffffffffffffff1673ffffffffffffffffffffffffffffffffffffffff167f8be0079c531659141344cd1fd0a4f28419497f9722a3daafe3b4186f6b6457e060405160405180910390a3806000806101000a81548173ffffffffffffffffffffffffffffffffffffffff021916908373ffffffffffffffffffffffffffffffffffffffff16021790555050565b60007f01ffc9a7a5cef8baa21ed3c5c0d7e23accb804b619e9333b597f47a0d84076e27bffffffffffffffffffffffffffffffffffffffffffffffffffffffff1916827bffffffffffffffffffffffffffffffffffffffffffffffffffffffff19161480610b5f57507fa34e3596c835a2bb0c76af3bc7896686f9d9abbb37ea27272246c0e9dab761c57f50e9a715a506f81ba3cfca69197fa8231c19274521697ca4e52316238d69d8a9187bffffffffffffffffffffffffffffffffffffffffffffffffffffffff1916827bffffffffffffffffffffffffffffffffffffffffffffffffffffffff1916145b9050919050565b60008060008084519050600092505b80821015610d36576000858381518110610bb8577f4e487b7100000000000000000000000000000000000000000000000000000000600052603260045260246000fd5b602001015160f81c60f81b9050608060f81b817effffffffffffffffffffffffffffffffffffffffffffffffffffffffffffff19161015610c0757600183610c00919061160e565b9250610d22565b60e060f81b817effffffffffffffffffffffffffffffffffffffffffffffffffffffffffffff19161015610c4957600283610c42919061160e565b9250610d21565b60f060f81b817effffffffffffffffffffffffffffffffffffffffffffffffffffffffffffff19161015610c8b57600383610c84919061160e565b9250610d20565b60f8801b817effffffffffffffffffffffffffffffffffffffffffffffffffffffffffffff19161015610ccc57600483610cc5919061160e565b9250610d1f565b60fc60f81b817effffffffffffffffffffffffffffffffffffffffffffffffffffffffffffff19161015610d0e57600583610d07919061160e565b9250610d1e565b600683610d1b919061160e565b92505b5b5b5b5b508280610d2e90611808565b935050610b75565b829350505050919050565b600080831415610d545760009050610d80565b60008284610d629190611695565b9050828482610d719190611664565b14610d7b57600080fd5b809150505b92915050565b6000610d9d60035484610e0890919063ffffffff16565b925042831115610db05760009050610e01565b6000610dd9610dc88542610fe490919063ffffffff16565b600554610d4190919063ffffffff16565b9050600454811115610def576000915050610e01565b80600454610dfd91906116ef565b9150505b9392505050565b6000808284610e17919061160e565b905083811015610e2657600080fd5b8091505092915050565b600080600260009054906101000a900473ffffffffffffffffffffffffffffffffffffffff1673ffffffffffffffffffffffffffffffffffffffff166350d25bcd6040518163ffffffff1660e01b815260040160206040518083038186803b158015610e9b57600080fd5b505afa158015610eaf573d6000803e3d6000fd5b505050506040513d601f19601f82011682018060405250810190610ed391906112a4565b9050610efe81610ef06305f5e10086610d4190919063ffffffff16565b61100d90919063ffffffff16565b915050919050565b600033905090565b600080600260009054906101000a900473ffffffffffffffffffffffffffffffffffffffff1673ffffffffffffffffffffffffffffffffffffffff166350d25bcd6040518163ffffffff1660e01b815260040160206040518083038186803b158015610f7957600080fd5b505afa158015610f8d573d6000803e3d6000fd5b505050506040513d601f19601f82011682018060405250810190610fb191906112a4565b9050610fdc6305f5e100610fce8386610d4190919063ffffffff16565b61100d90919063ffffffff16565b915050919050565b600082821115610ff357600080fd5b6000828461100191906116ef565b90508091505092915050565b600080821161101b57600080fd5b600082846110299190611664565b90508091505092915050565b828054828255906000526020600020908101928215611071579160200282015b82811115611070578251825591602001919060010190611055565b5b50905061107e9190611082565b5090565b5b8082111561109b576000816000905550600101611083565b5090565b60006110b26110ad84611598565b611573565b905080838252602082019050828560208602820111156110d157600080fd5b60005b8581101561110157816110e788826111d3565b8452602084019350602083019250506001810190506110d4565b5050509392505050565b60008135905061111a81611967565b92915050565b600082601f83011261113157600080fd5b813561114184826020860161109f565b91505092915050565b6000813590506111598161197e565b92915050565b60008135905061116e81611995565b92915050565b600081519050611183816119ac565b92915050565b60008083601f84011261119b57600080fd5b8235905067ffffffffffffffff8111156111b457600080fd5b6020830191508360018202830111156111cc57600080fd5b9250929050565b6000813590506111e2816119c3565b92915050565b6000602082840312156111fa57600080fd5b60006112088482850161110b565b91505092915050565b60006020828403121561122357600080fd5b600082013567ffffffffffffffff81111561123d57600080fd5b61124984828501611120565b91505092915050565b60006020828403121561126457600080fd5b60006112728482850161114a565b91505092915050565b60006020828403121561128d57600080fd5b600061129b8482850161115f565b91505092915050565b6000602082840312156112b657600080fd5b60006112c484828501611174565b91505092915050565b600080600080606085870312156112e357600080fd5b600085013567ffffffffffffffff8111156112fd57600080fd5b61130987828801611189565b9450945050602061131c878288016111d3565b925050604061132d878288016111d3565b91505092959194509250565b60006020828403121561134b57600080fd5b6000611359848285016111d3565b91505092915050565b6000806040838503121561137557600080fd5b6000611383858286016111d3565b9250506020611394858286016111d3565b9150509250929050565b60006113aa8383611487565b60208301905092915050565b6113bf81611723565b82525050565b60006113d0826115d4565b6113da81856115ec565b93506113e5836115c4565b8060005b838110156114165781516113fd888261139e565b9750611408836115df565b9250506001810190506113e9565b5085935050505092915050565b61142c81611735565b82525050565b61143b816117b3565b82525050565b600061144e6026836115fd565b9150611459826118ef565b604082019050919050565b60006114716020836115fd565b915061147c8261193e565b602082019050919050565b611490816117a9565b82525050565b61149f816117a9565b82525050565b60006020820190506114ba60008301846113b6565b92915050565b600060208201905081810360008301526114da81846113c5565b905092915050565b60006020820190506114f76000830184611423565b92915050565b60006020820190506115126000830184611432565b92915050565b6000602082019050818103600083015261153181611441565b9050919050565b6000602082019050818103600083015261155181611464565b9050919050565b600060208201905061156d6000830184611496565b92915050565b600061157d61158e565b905061158982826117d7565b919050565b6000604051905090565b600067ffffffffffffffff8211156115b3576115b26118af565b5b602082029050602081019050919050565b6000819050602082019050919050565b600081519050919050565b6000602082019050919050565b600082825260208201905092915050565b600082825260208201905092915050565b6000611619826117a9565b9150611624836117a9565b9250827fffffffffffffffffffffffffffffffffffffffffffffffffffffffffffffffff0382111561165957611658611851565b5b828201905092915050565b600061166f826117a9565b915061167a836117a9565b92508261168a57611689611880565b5b828204905092915050565b60006116a0826117a9565b91506116ab836117a9565b9250817fffffffffffffffffffffffffffffffffffffffffffffffffffffffffffffffff04831182151516156116e4576116e3611851565b5b828202905092915050565b60006116fa826117a9565b9150611705836117a9565b92508282101561171857611717611851565b5b828203905092915050565b600061172e82611789565b9050919050565b60008115159050919050565b60007fffffffff0000000000000000000000000000000000000000000000000000000082169050919050565b600061177882611723565b9050919050565b6000819050919050565b600073ffffffffffffffffffffffffffffffffffffffff82169050919050565b6000819050919050565b60006117be826117c5565b9050919050565b60006117d082611789565b9050919050565b6117e0826118de565b810181811067ffffffffffffffff821117156117ff576117fe6118af565b5b80604052505050565b6000611813826117a9565b91507fffffffffffffffffffffffffffffffffffffffffffffffffffffffffffffffff82141561184657611845611851565b5b600182019050919050565b7f4e487b7100000000000000000000000000000000000000000000000000000000600052601160045260246000fd5b7f4e487b7100000000000000000000000000000000000000000000000000000000600052601260045260246000fd5b7f4e487b7100000000000000000000000000000000000000000000000000000000600052604160045260246000fd5b6000601f19601f8301169050919050565b7f4f776e61626c653a206e6577206f776e657220697320746865207a65726f206160008201527f6464726573730000000000000000000000000000000000000000000000000000602082015250565b7f4f776e61626c653a2063616c6c6572206973206e6f7420746865206f776e6572600082015250565b61197081611723565b811461197b57600080fd5b50565b61198781611741565b811461199257600080fd5b50565b61199e8161176d565b81146119a957600080fd5b50565b6119b58161177f565b81146119c057600080fd5b50565b6119cc816117a9565b81146119d757600080fd5b5056fea2646970667358221220f76da66b4087ad7c70ae754e52f6364c804c2c86d78dbc546c8576b3611f00a464736f6c63430008040033",
  "linkReferences": {},
  "deployedLinkReferences": {}
}