{
  "_format": "hh-sol-artifact-1",
  "contractName": "PublicResolver",
  "sourceName": "contracts/resolvers/PublicResolver.sol",
  "abi": [
    {
      "inputs": [
        {
          "internalType": "contract ENS",
          "name": "_ens",
          "type": "address"
        },
        {
          "internalType": "contract INameWrapper",
          "name": "wrapperAddress",
          "type": "address"
        }
      ],
      "stateMutability": "nonpayable",
      "type": "constructor"
    },
    {
      "anonymous": false,
      "inputs": [
        {
          "indexed": true,
          "internalType": "bytes32",
          "name": "node",
          "type": "bytes32"
        },
        {
          "indexed": true,
          "internalType": "uint256",
          "name": "contentType",
          "type": "uint256"
        }
      ],
      "name": "ABIChanged",
      "type": "event"
    },
    {
      "anonymous": false,
      "inputs": [
        {
          "indexed": true,
          "internalType": "bytes32",
          "name": "node",
          "type": "bytes32"
        },
        {
          "indexed": false,
          "internalType": "address",
          "name": "a",
          "type": "address"
        }
      ],
      "name": "AddrChanged",
      "type": "event"
    },
    {
      "anonymous": false,
      "inputs": [
        {
          "indexed": true,
          "internalType": "bytes32",
          "name": "node",
          "type": "bytes32"
        },
        {
          "indexed": false,
          "internalType": "uint256",
          "name": "coinType",
          "type": "uint256"
        },
        {
          "indexed": false,
          "internalType": "bytes",
          "name": "newAddress",
          "type": "bytes"
        }
      ],
      "name": "AddressChanged",
      "type": "event"
    },
    {
      "anonymous": false,
      "inputs": [
        {
          "indexed": true,
          "internalType": "address",
          "name": "owner",
          "type": "address"
        },
        {
          "indexed": true,
          "internalType": "address",
          "name": "operator",
          "type": "address"
        },
        {
          "indexed": false,
          "internalType": "bool",
          "name": "approved",
          "type": "bool"
        }
      ],
      "name": "ApprovalForAll",
      "type": "event"
    },
    {
      "anonymous": false,
      "inputs": [
        {
          "indexed": true,
          "internalType": "bytes32",
          "name": "node",
          "type": "bytes32"
        },
        {
          "indexed": false,
          "internalType": "bytes",
          "name": "hash",
          "type": "bytes"
        }
      ],
      "name": "ContenthashChanged",
      "type": "event"
    },
    {
      "anonymous": false,
      "inputs": [
        {
          "indexed": true,
          "internalType": "bytes32",
          "name": "node",
          "type": "bytes32"
        },
        {
          "indexed": false,
          "internalType": "bytes",
          "name": "name",
          "type": "bytes"
        },
        {
          "indexed": false,
          "internalType": "uint16",
          "name": "resource",
          "type": "uint16"
        },
        {
          "indexed": false,
          "internalType": "bytes",
          "name": "record",
          "type": "bytes"
        }
      ],
      "name": "DNSRecordChanged",
      "type": "event"
    },
    {
      "anonymous": false,
      "inputs": [
        {
          "indexed": true,
          "internalType": "bytes32",
          "name": "node",
          "type": "bytes32"
        },
        {
          "indexed": false,
          "internalType": "bytes",
          "name": "name",
          "type": "bytes"
        },
        {
          "indexed": false,
          "internalType": "uint16",
          "name": "resource",
          "type": "uint16"
        }
      ],
      "name": "DNSRecordDeleted",
      "type": "event"
    },
    {
      "anonymous": false,
      "inputs": [
        {
          "indexed": true,
          "internalType": "bytes32",
          "name": "node",
          "type": "bytes32"
        }
      ],
      "name": "DNSZoneCleared",
      "type": "event"
    },
    {
      "anonymous": false,
      "inputs": [
        {
          "indexed": true,
          "internalType": "bytes32",
          "name": "node",
          "type": "bytes32"
        },
        {
          "indexed": false,
          "internalType": "bytes",
          "name": "lastzonehash",
          "type": "bytes"
        },
        {
          "indexed": false,
          "internalType": "bytes",
          "name": "zonehash",
          "type": "bytes"
        }
      ],
      "name": "DNSZonehashChanged",
      "type": "event"
    },
    {
      "anonymous": false,
      "inputs": [
        {
          "indexed": true,
          "internalType": "bytes32",
          "name": "node",
          "type": "bytes32"
        },
        {
          "indexed": true,
          "internalType": "bytes4",
          "name": "interfaceID",
          "type": "bytes4"
        },
        {
          "indexed": false,
          "internalType": "address",
          "name": "implementer",
          "type": "address"
        }
      ],
      "name": "InterfaceChanged",
      "type": "event"
    },
    {
      "anonymous": false,
      "inputs": [
        {
          "indexed": true,
          "internalType": "bytes32",
          "name": "node",
          "type": "bytes32"
        },
        {
          "indexed": false,
          "internalType": "string",
          "name": "name",
          "type": "string"
        }
      ],
      "name": "NameChanged",
      "type": "event"
    },
    {
      "anonymous": false,
      "inputs": [
        {
          "indexed": true,
          "internalType": "bytes32",
          "name": "node",
          "type": "bytes32"
        },
        {
          "indexed": false,
          "internalType": "bytes32",
          "name": "x",
          "type": "bytes32"
        },
        {
          "indexed": false,
          "internalType": "bytes32",
          "name": "y",
          "type": "bytes32"
        }
      ],
      "name": "PubkeyChanged",
      "type": "event"
    },
    {
      "anonymous": false,
      "inputs": [
        {
          "indexed": true,
          "internalType": "bytes32",
          "name": "node",
          "type": "bytes32"
        },
        {
          "indexed": true,
          "internalType": "string",
          "name": "indexedKey",
          "type": "string"
        },
        {
          "indexed": false,
          "internalType": "string",
          "name": "key",
          "type": "string"
        }
      ],
      "name": "TextChanged",
      "type": "event"
    },
    {
      "inputs": [
        {
          "internalType": "bytes32",
          "name": "node",
          "type": "bytes32"
        },
        {
          "internalType": "uint256",
          "name": "contentTypes",
          "type": "uint256"
        }
      ],
      "name": "ABI",
      "outputs": [
        {
          "internalType": "uint256",
          "name": "",
          "type": "uint256"
        },
        {
          "internalType": "bytes",
          "name": "",
          "type": "bytes"
        }
      ],
      "stateMutability": "view",
      "type": "function"
    },
    {
      "inputs": [
        {
          "internalType": "bytes32",
          "name": "node",
          "type": "bytes32"
        }
      ],
      "name": "addr",
      "outputs": [
        {
          "internalType": "address payable",
          "name": "",
          "type": "address"
        }
      ],
      "stateMutability": "view",
      "type": "function"
    },
    {
      "inputs": [
        {
          "internalType": "bytes32",
          "name": "node",
          "type": "bytes32"
        },
        {
          "internalType": "uint256",
          "name": "coinType",
          "type": "uint256"
        }
      ],
      "name": "addr",
      "outputs": [
        {
          "internalType": "bytes",
          "name": "",
          "type": "bytes"
        }
      ],
      "stateMutability": "view",
      "type": "function"
    },
    {
      "inputs": [
        {
          "internalType": "bytes32",
          "name": "node",
          "type": "bytes32"
        }
      ],
      "name": "clearDNSZone",
      "outputs": [],
      "stateMutability": "nonpayable",
      "type": "function"
    },
    {
      "inputs": [
        {
          "internalType": "bytes32",
          "name": "node",
          "type": "bytes32"
        }
      ],
      "name": "contenthash",
      "outputs": [
        {
          "internalType": "bytes",
          "name": "",
          "type": "bytes"
        }
      ],
      "stateMutability": "view",
      "type": "function"
    },
    {
      "inputs": [
        {
          "internalType": "bytes32",
          "name": "node",
          "type": "bytes32"
        },
        {
          "internalType": "bytes32",
          "name": "name",
          "type": "bytes32"
        },
        {
          "internalType": "uint16",
          "name": "resource",
          "type": "uint16"
        }
      ],
      "name": "dnsRecord",
      "outputs": [
        {
          "internalType": "bytes",
          "name": "",
          "type": "bytes"
        }
      ],
      "stateMutability": "view",
      "type": "function"
    },
    {
      "inputs": [
        {
          "internalType": "bytes32",
          "name": "node",
          "type": "bytes32"
        },
        {
          "internalType": "bytes32",
          "name": "name",
          "type": "bytes32"
        }
      ],
      "name": "hasDNSRecords",
      "outputs": [
        {
          "internalType": "bool",
          "name": "",
          "type": "bool"
        }
      ],
      "stateMutability": "view",
      "type": "function"
    },
    {
      "inputs": [
        {
          "internalType": "bytes32",
          "name": "node",
          "type": "bytes32"
        },
        {
          "internalType": "bytes4",
          "name": "interfaceID",
          "type": "bytes4"
        }
      ],
      "name": "interfaceImplementer",
      "outputs": [
        {
          "internalType": "address",
          "name": "",
          "type": "address"
        }
      ],
      "stateMutability": "view",
      "type": "function"
    },
    {
      "inputs": [
        {
          "internalType": "address",
          "name": "account",
          "type": "address"
        },
        {
          "internalType": "address",
          "name": "operator",
          "type": "address"
        }
      ],
      "name": "isApprovedForAll",
      "outputs": [
        {
          "internalType": "bool",
          "name": "",
          "type": "bool"
        }
      ],
      "stateMutability": "view",
      "type": "function"
    },
    {
      "inputs": [
        {
          "internalType": "bytes[]",
          "name": "data",
          "type": "bytes[]"
        }
      ],
      "name": "multicall",
      "outputs": [
        {
          "internalType": "bytes[]",
          "name": "results",
          "type": "bytes[]"
        }
      ],
      "stateMutability": "nonpayable",
      "type": "function"
    },
    {
      "inputs": [
        {
          "internalType": "bytes32",
          "name": "node",
          "type": "bytes32"
        }
      ],
      "name": "name",
      "outputs": [
        {
          "internalType": "string",
          "name": "",
          "type": "string"
        }
      ],
      "stateMutability": "view",
      "type": "function"
    },
    {
      "inputs": [
        {
          "internalType": "bytes32",
          "name": "node",
          "type": "bytes32"
        }
      ],
      "name": "pubkey",
      "outputs": [
        {
          "internalType": "bytes32",
          "name": "x",
          "type": "bytes32"
        },
        {
          "internalType": "bytes32",
          "name": "y",
          "type": "bytes32"
        }
      ],
      "stateMutability": "view",
      "type": "function"
    },
    {
      "inputs": [
        {
          "internalType": "bytes32",
          "name": "node",
          "type": "bytes32"
        },
        {
          "internalType": "uint256",
          "name": "contentType",
          "type": "uint256"
        },
        {
          "internalType": "bytes",
          "name": "data",
          "type": "bytes"
        }
      ],
      "name": "setABI",
      "outputs": [],
      "stateMutability": "nonpayable",
      "type": "function"
    },
    {
      "inputs": [
        {
          "internalType": "bytes32",
          "name": "node",
          "type": "bytes32"
        },
        {
          "internalType": "uint256",
          "name": "coinType",
          "type": "uint256"
        },
        {
          "internalType": "bytes",
          "name": "a",
          "type": "bytes"
        }
      ],
      "name": "setAddr",
      "outputs": [],
      "stateMutability": "nonpayable",
      "type": "function"
    },
    {
      "inputs": [
        {
          "internalType": "bytes32",
          "name": "node",
          "type": "bytes32"
        },
        {
          "internalType": "address",
          "name": "a",
          "type": "address"
        }
      ],
      "name": "setAddr",
      "outputs": [],
      "stateMutability": "nonpayable",
      "type": "function"
    },
    {
      "inputs": [
        {
          "internalType": "address",
          "name": "operator",
          "type": "address"
        },
        {
          "internalType": "bool",
          "name": "approved",
          "type": "bool"
        }
      ],
      "name": "setApprovalForAll",
      "outputs": [],
      "stateMutability": "nonpayable",
      "type": "function"
    },
    {
      "inputs": [
        {
          "internalType": "bytes32",
          "name": "node",
          "type": "bytes32"
        },
        {
          "internalType": "bytes",
          "name": "hash",
          "type": "bytes"
        }
      ],
      "name": "setContenthash",
      "outputs": [],
      "stateMutability": "nonpayable",
      "type": "function"
    },
    {
      "inputs": [
        {
          "internalType": "bytes32",
          "name": "node",
          "type": "bytes32"
        },
        {
          "internalType": "bytes",
          "name": "data",
          "type": "bytes"
        }
      ],
      "name": "setDNSRecords",
      "outputs": [],
      "stateMutability": "nonpayable",
      "type": "function"
    },
    {
      "inputs": [
        {
          "internalType": "bytes32",
          "name": "node",
          "type": "bytes32"
        },
        {
          "internalType": "bytes4",
          "name": "interfaceID",
          "type": "bytes4"
        },
        {
          "internalType": "address",
          "name": "implementer",
          "type": "address"
        }
      ],
      "name": "setInterface",
      "outputs": [],
      "stateMutability": "nonpayable",
      "type": "function"
    },
    {
      "inputs": [
        {
          "internalType": "bytes32",
          "name": "node",
          "type": "bytes32"
        },
        {
          "internalType": "string",
          "name": "name",
          "type": "string"
        }
      ],
      "name": "setName",
      "outputs": [],
      "stateMutability": "nonpayable",
      "type": "function"
    },
    {
      "inputs": [
        {
          "internalType": "bytes32",
          "name": "node",
          "type": "bytes32"
        },
        {
          "internalType": "bytes32",
          "name": "x",
          "type": "bytes32"
        },
        {
          "internalType": "bytes32",
          "name": "y",
          "type": "bytes32"
        }
      ],
      "name": "setPubkey",
      "outputs": [],
      "stateMutability": "nonpayable",
      "type": "function"
    },
    {
      "inputs": [
        {
          "internalType": "bytes32",
          "name": "node",
          "type": "bytes32"
        },
        {
          "internalType": "string",
          "name": "key",
          "type": "string"
        },
        {
          "internalType": "string",
          "name": "value",
          "type": "string"
        }
      ],
      "name": "setText",
      "outputs": [],
      "stateMutability": "nonpayable",
      "type": "function"
    },
    {
      "inputs": [
        {
          "internalType": "bytes32",
          "name": "node",
          "type": "bytes32"
        },
        {
          "internalType": "bytes",
          "name": "hash",
          "type": "bytes"
        }
      ],
      "name": "setZonehash",
      "outputs": [],
      "stateMutability": "nonpayable",
      "type": "function"
    },
    {
      "inputs": [
        {
          "internalType": "bytes4",
          "name": "interfaceID",
          "type": "bytes4"
        }
      ],
      "name": "supportsInterface",
      "outputs": [
        {
          "internalType": "bool",
          "name": "",
          "type": "bool"
        }
      ],
      "stateMutability": "pure",
      "type": "function"
    },
    {
      "inputs": [
        {
          "internalType": "bytes32",
          "name": "node",
          "type": "bytes32"
        },
        {
          "internalType": "string",
          "name": "key",
          "type": "string"
        }
      ],
      "name": "text",
      "outputs": [
        {
          "internalType": "string",
          "name": "",
          "type": "string"
        }
      ],
      "stateMutability": "view",
      "type": "function"
    },
    {
      "inputs": [
        {
          "internalType": "bytes32",
          "name": "node",
          "type": "bytes32"
        }
      ],
      "name": "zonehash",
      "outputs": [
        {
          "internalType": "bytes",
          "name": "",
          "type": "bytes"
        }
      ],
      "stateMutability": "view",
      "type": "function"
    }
  ],
  "bytecode": "0x60806040523480156200001157600080fd5b5060405162004162380380620041628339818101604052810190620000379190620000ef565b81600b60006101000a81548173ffffffffffffffffffffffffffffffffffffffff021916908373ffffffffffffffffffffffffffffffffffffffff16021790555080600c60006101000a81548173ffffffffffffffffffffffffffffffffffffffff021916908373ffffffffffffffffffffffffffffffffffffffff1602179055505050620001c0565b600081519050620000d2816200018c565b92915050565b600081519050620000e981620001a6565b92915050565b600080604083850312156200010357600080fd5b60006200011385828601620000c1565b92505060206200012685828601620000d8565b9150509250929050565b60006200013d826200016c565b9050919050565b6000620001518262000130565b9050919050565b6000620001658262000130565b9050919050565b600073ffffffffffffffffffffffffffffffffffffffff82169050919050565b620001978162000144565b8114620001a357600080fd5b50565b620001b18162000158565b8114620001bd57600080fd5b50565b613f9280620001d06000396000f3fe608060405234801561001057600080fd5b506004361061018e5760003560e01c806377372213116100de578063bc1c58d111610097578063d5fa2b0011610071578063d5fa2b00146104ed578063e59d895d14610509578063e985e9c514610525578063f1cb7e06146105555761018e565b8063bc1c58d114610470578063c8690233146104a0578063ce3decdc146104d15761018e565b806377372213146103a05780638b95dd71146103bc578063a22cb465146103d8578063a8fa5682146103f4578063ac9650d814610424578063ad5780af146104545761018e565b8063304e6ade1161014b57806359d1d43c1161012557806359d1d43c146102f45780635c98042b14610324578063623195b014610354578063691f3431146103705761018e565b8063304e6ade146102785780633b3b57de146102945780634cbf6ba4146102c45761018e565b806301ffc9a7146101935780630af179d7146101c357806310f13a8c146101df578063124a319c146101fb5780632203ab561461022b57806329cd62ea1461025c575b600080fd5b6101ad60048036038101906101a89190613457565b610585565b6040516101ba91906137e0565b60405180910390f35b6101dd60048036038101906101d8919061320f565b610597565b005b6101f960048036038101906101f491906132bf565b6107c9565b005b61021560048036038101906102109190613184565b610877565b604051610222919061376d565b60405180910390f35b61024560048036038101906102409190613348565b610cbb565b6040516102539291906139cf565b60405180910390f35b610276600480360381019061027191906130e6565b610def565b005b610292600480360381019061028d919061320f565b610e81565b005b6102ae60048036038101906102a99190613045565b610ef7565b6040516102bb91906137a3565b60405180910390f35b6102de60048036038101906102d991906130aa565b610f2d565b6040516102eb91906137e0565b60405180910390f35b61030e60048036038101906103099190613267565b610f95565b60405161031b9190613972565b60405180910390f35b61033e60048036038101906103399190613045565b61105a565b60405161034b919061387e565b60405180910390f35b61036e60048036038101906103699190613384565b6110ff565b005b61038a60048036038101906103859190613045565b611195565b6040516103979190613972565b60405180910390f35b6103ba60048036038101906103b59190613267565b61123a565b005b6103d660048036038101906103d191906133f0565b6112b0565b005b6103f260048036038101906103ed9190612fc4565b611386565b005b61040e60048036038101906104099190613135565b6114f2565b60405161041b919061387e565b60405180910390f35b61043e60048036038101906104399190613000565b6115e7565b60405161044b91906137be565b60405180910390f35b61046e60048036038101906104699190613045565b611793565b005b61048a60048036038101906104859190613045565b611800565b604051610497919061387e565b60405180910390f35b6104ba60048036038101906104b59190613045565b6118a5565b6040516104c8929190613816565b60405180910390f35b6104eb60048036038101906104e6919061320f565b6118df565b005b6105076004803603810190610502919061306e565b6119f8565b005b610523600480360381019061051e91906131c0565b611a24565b005b61053f600480360381019061053a9190612f88565b611b36565b60405161054c91906137e0565b60405180910390f35b61056f600480360381019061056a9190613348565b611bca565b60405161057c919061387e565b60405180910390f35b600061059082611c81565b9050919050565b826105a181611ce2565b6105aa57600080fd5b60008060608060008061060b60008a8a8080601f016020809104026020016040519081016040528093929190818152602001838380828437600081840152601f19601f82011690508083019250505050505050611ee190919063ffffffff16565b90505b61061781611f0b565b61074d5760008661ffff161415610673578060400151955061063881611f21565b93508360405160200161064b919061373d565b60405160208183030381529060405280519060200120915061066c81611f58565b925061073f565b600061067e82611f21565b9050816040015161ffff168761ffff161415806106ab57506106a98186611f9190919063ffffffff16565b155b1561073d576107168b86898d8d8080601f016020809104026020016040519081016040528093929190818152602001838380828437600081840152601f19601f820116905080830192505050505050508a8b886020015161070c9190613b9a565b60008b5114611fb8565b81604001519650816020015195508094508480519060200120925061073a82611f58565b93505b505b610748816122e3565b61060e565b506000835111156107be576107bd8984878b8b8080601f016020809104026020016040519081016040528093929190818152602001838380828437600081840152601f19601f8201169050808301925050505050505088898e8e90506107b39190613b9a565b6000895114611fb8565b5b505050505050505050565b846107d381611ce2565b6107dc57600080fd5b8282600a60008981526020019081526020016000208787604051610801929190613754565b9081526020016040518091039020919061081c929190612b4c565b50848460405161082d929190613754565b6040518091039020867fd8c9334b1a9c2f9da342a0a2b32629c1a229b6445dad78947f674b44444a7550878760405161086792919061394e565b60405180910390a3505050505050565b600080600760008581526020019081526020016000206000847bffffffffffffffffffffffffffffffffffffffffffffffffffffffff19167bffffffffffffffffffffffffffffffffffffffffffffffffffffffff1916815260200190815260200160002060009054906101000a900473ffffffffffffffffffffffffffffffffffffffff169050600073ffffffffffffffffffffffffffffffffffffffff168173ffffffffffffffffffffffffffffffffffffffff161461093c5780915050610cb5565b600061094785610ef7565b9050600073ffffffffffffffffffffffffffffffffffffffff168173ffffffffffffffffffffffffffffffffffffffff16141561098957600092505050610cb5565b6000808273ffffffffffffffffffffffffffffffffffffffff166301ffc9a760e01b6040516024016109bb919061383f565b6040516020818303038152906040527f01ffc9a7000000000000000000000000000000000000000000000000000000007bffffffffffffffffffffffffffffffffffffffffffffffffffffffff19166020820180517bffffffffffffffffffffffffffffffffffffffffffffffffffffffff8381831617835250505050604051610a45919061373d565b600060405180830381855afa9150503d8060008114610a80576040519150601f19603f3d011682016040523d82523d6000602084013e610a85565b606091505b5091509150811580610a98575060208151105b80610b0c5750600060f81b81601f81518110610add577f4e487b7100000000000000000000000000000000000000000000000000000000600052603260045260246000fd5b602001015160f81c60f81b7effffffffffffffffffffffffffffffffffffffffffffffffffffffffffffff1916145b15610b1e576000945050505050610cb5565b8273ffffffffffffffffffffffffffffffffffffffff1686604051602401610b46919061383f565b6040516020818303038152906040527f01ffc9a7000000000000000000000000000000000000000000000000000000007bffffffffffffffffffffffffffffffffffffffffffffffffffffffff19166020820180517bffffffffffffffffffffffffffffffffffffffffffffffffffffffff8381831617835250505050604051610bd0919061373d565b600060405180830381855afa9150503d8060008114610c0b576040519150601f19603f3d011682016040523d82523d6000602084013e610c10565b606091505b508092508193505050811580610c27575060208151105b80610c9b5750600060f81b81601f81518110610c6c577f4e487b7100000000000000000000000000000000000000000000000000000000600052603260045260246000fd5b602001015160f81c60f81b7effffffffffffffffffffffffffffffffffffffffffffffffffffffffffffff1916145b15610cad576000945050505050610cb5565b829450505050505b92915050565b60006060600080600086815260200190815260200160002090506000600190505b848111610dcf57600085821614158015610d14575060008260008381526020019081526020016000208054610d1090613d0e565b9050115b15610dc35780826000838152602001908152602001600020808054610d3890613d0e565b80601f0160208091040260200160405190810160405280929190818152602001828054610d6490613d0e565b8015610db15780601f10610d8657610100808354040283529160200191610db1565b820191906000526020600020905b815481529060010190602001808311610d9457829003601f168201915b50505050509050935093505050610de8565b600181901b9050610cdc565b5060006040518060200160405280600081525092509250505b9250929050565b82610df981611ce2565b610e0257600080fd5b604051806040016040528084815260200183815250600960008681526020019081526020016000206000820151816000015560208201518160010155905050837f1d6f5e03d3f63eb58751986629a5439baee5079ff04f345becb66e23eb154e468484604051610e73929190613816565b60405180910390a250505050565b82610e8b81611ce2565b610e9457600080fd5b8282600260008781526020019081526020016000209190610eb6929190612bd2565b50837fe379c1624ed7e714cc0937528a32359d69d5281337765313dba4e081b72d75788484604051610ee992919061385a565b60405180910390a250505050565b600080610f0583603c611bca565b9050600081511415610f1b576000915050610f28565b610f248161242d565b9150505b919050565b60008060066000858152602001908152602001600020600060046000878152602001908152602001600020548152602001908152602001600020600084815260200190815260200160002060009054906101000a900461ffff1661ffff161415905092915050565b6060600a60008581526020019081526020016000208383604051610fba929190613754565b90815260200160405180910390208054610fd390613d0e565b80601f0160208091040260200160405190810160405280929190818152602001828054610fff90613d0e565b801561104c5780601f106110215761010080835404028352916020019161104c565b820191906000526020600020905b81548152906001019060200180831161102f57829003601f168201915b505050505090509392505050565b606060036000838152602001908152602001600020805461107a90613d0e565b80601f01602080910402602001604051908101604052809291908181526020018280546110a690613d0e565b80156110f35780601f106110c8576101008083540402835291602001916110f3565b820191906000526020600020905b8154815290600101906020018083116110d657829003601f168201915b50505050509050919050565b8361110981611ce2565b61111257600080fd5b6000846001866111229190613b9a565b161461112d57600080fd5b82826000808881526020019081526020016000206000878152602001908152602001600020919061115f929190612bd2565b5083857faa121bbeef5f32f5961a2a28966e769023910fc9479059ee3495d4c1a696efe360405160405180910390a35050505050565b60606008600083815260200190815260200160002080546111b590613d0e565b80601f01602080910402602001604051908101604052809291908181526020018280546111e190613d0e565b801561122e5780601f106112035761010080835404028352916020019161122e565b820191906000526020600020905b81548152906001019060200180831161121157829003601f168201915b50505050509050919050565b8261124481611ce2565b61124d57600080fd5b828260086000878152602001908152602001600020919061126f929190612b4c565b50837fb7d29e911041e8d9b843369e890bcb72c9388692ba48b65ac54e7214c4c348f784846040516112a292919061394e565b60405180910390a250505050565b826112ba81611ce2565b6112c357600080fd5b837f65412581168e88a1e60c6459d7f44ae83ad0832e670826c05a4e2476b57af75284846040516112f59291906139cf565b60405180910390a2603c83141561134757837f52d7d861f09ab3d26239d492e8968629f95e9e318cf0b73bfddc441522a15fd26113318461242d565b60405161133e9190613788565b60405180910390a25b81600160008681526020019081526020016000206000858152602001908152602001600020908051906020019061137f929190612c58565b5050505050565b8173ffffffffffffffffffffffffffffffffffffffff163373ffffffffffffffffffffffffffffffffffffffff1614156113f5576040517f08c379a00000000000000000000000000000000000000000000000000000000081526004016113ec90613994565b60405180910390fd5b80600d60003373ffffffffffffffffffffffffffffffffffffffff1673ffffffffffffffffffffffffffffffffffffffff16815260200190815260200160002060008473ffffffffffffffffffffffffffffffffffffffff1673ffffffffffffffffffffffffffffffffffffffff16815260200190815260200160002060006101000a81548160ff0219169083151502179055508173ffffffffffffffffffffffffffffffffffffffff163373ffffffffffffffffffffffffffffffffffffffff167f17307eab39ab6107e8899845ad3d59bd9653f200f220920489ca2b5937696c31836040516114e691906137e0565b60405180910390a35050565b606060056000858152602001908152602001600020600060046000878152602001908152602001600020548152602001908152602001600020600084815260200190815260200160002060008361ffff1661ffff168152602001908152602001600020805461156090613d0e565b80601f016020809104026020016040519081016040528092919081815260200182805461158c90613d0e565b80156115d95780601f106115ae576101008083540402835291602001916115d9565b820191906000526020600020905b8154815290600101906020018083116115bc57829003601f168201915b505050505090509392505050565b60608282905067ffffffffffffffff81111561162c577f4e487b7100000000000000000000000000000000000000000000000000000000600052604160045260246000fd5b60405190808252806020026020018201604052801561165f57816020015b606081526020019060019003908161164a5790505b50905060005b8383905081101561178c576000803073ffffffffffffffffffffffffffffffffffffffff168686858181106116c3577f4e487b7100000000000000000000000000000000000000000000000000000000600052603260045260246000fd5b90506020028101906116d591906139ff565b6040516116e3929190613724565b600060405180830381855af49150503d806000811461171e576040519150601f19603f3d011682016040523d82523d6000602084013e611723565b606091505b50915091508161173257600080fd5b8084848151811061176c577f4e487b7100000000000000000000000000000000000000000000000000000000600052603260045260246000fd5b60200260200101819052505050808061178490613d9c565b915050611665565b5092915050565b8061179d81611ce2565b6117a657600080fd5b6004600083815260200190815260200160002060008154809291906117ca90613d9c565b9190505550817fb757169b8492ca2f1c6619d9d76ce22803035c3b1d5f6930dffe7b127c1a198360405160405180910390a25050565b606060026000838152602001908152602001600020805461182090613d0e565b80601f016020809104026020016040519081016040528092919081815260200182805461184c90613d0e565b80156118995780601f1061186e57610100808354040283529160200191611899565b820191906000526020600020905b81548152906001019060200180831161187c57829003601f168201915b50505050509050919050565b6000806009600084815260200190815260200160002060000154600960008581526020019081526020016000206001015491509150915091565b826118e981611ce2565b6118f257600080fd5b600060036000868152602001908152602001600020805461191290613d0e565b80601f016020809104026020016040519081016040528092919081815260200182805461193e90613d0e565b801561198b5780601f106119605761010080835404028352916020019161198b565b820191906000526020600020905b81548152906001019060200180831161196e57829003601f168201915b5050505050905083836003600088815260200190815260200160002091906119b4929190612bd2565b50847f8f15ed4b723ef428f250961da8315675b507046737e19319fc1a4d81bfe87f858286866040516119e9939291906138a0565b60405180910390a25050505050565b81611a0281611ce2565b611a0b57600080fd5b611a1f83603c611a1a85612450565b6112b0565b505050565b82611a2e81611ce2565b611a3757600080fd5b81600760008681526020019081526020016000206000857bffffffffffffffffffffffffffffffffffffffffffffffffffffffff19167bffffffffffffffffffffffffffffffffffffffffffffffffffffffff1916815260200190815260200160002060006101000a81548173ffffffffffffffffffffffffffffffffffffffff021916908373ffffffffffffffffffffffffffffffffffffffff160217905550827bffffffffffffffffffffffffffffffffffffffffffffffffffffffff1916847f7c69f06bea0bdef565b709e93a147836b0063ba2dd89f02d0b7e8d931e6a6daa84604051611b28919061376d565b60405180910390a350505050565b6000600d60008473ffffffffffffffffffffffffffffffffffffffff1673ffffffffffffffffffffffffffffffffffffffff16815260200190815260200160002060008373ffffffffffffffffffffffffffffffffffffffff1673ffffffffffffffffffffffffffffffffffffffff16815260200190815260200160002060009054906101000a900460ff16905092915050565b60606001600084815260200190815260200160002060008381526020019081526020016000208054611bfb90613d0e565b80601f0160208091040260200160405190810160405280929190818152602001828054611c2790613d0e565b8015611c745780601f10611c4957610100808354040283529160200191611c74565b820191906000526020600020905b815481529060010190602001808311611c5757829003601f168201915b5050505050905092915050565b60006359d1d43c60e01b7bffffffffffffffffffffffffffffffffffffffffffffffffffffffff1916827bffffffffffffffffffffffffffffffffffffffffffffffffffffffff19161480611cdb5750611cda826124da565b5b9050919050565b600080600b60009054906101000a900473ffffffffffffffffffffffffffffffffffffffff1673ffffffffffffffffffffffffffffffffffffffff166302571be3846040518263ffffffff1660e01b8152600401611d4091906137fb565b60206040518083038186803b158015611d5857600080fd5b505afa158015611d6c573d6000803e3d6000fd5b505050506040513d601f19601f82011682018060405250810190611d909190612f5f565b9050600c60009054906101000a900473ffffffffffffffffffffffffffffffffffffffff1673ffffffffffffffffffffffffffffffffffffffff168173ffffffffffffffffffffffffffffffffffffffff161415611e9957600c60009054906101000a900473ffffffffffffffffffffffffffffffffffffffff1673ffffffffffffffffffffffffffffffffffffffff16636352211e8460001c6040518263ffffffff1660e01b8152600401611e4691906139b4565b60206040518083038186803b158015611e5e57600080fd5b505afa158015611e72573d6000803e3d6000fd5b505050506040513d601f19601f82011682018060405250810190611e969190612f5f565b90505b3373ffffffffffffffffffffffffffffffffffffffff168173ffffffffffffffffffffffffffffffffffffffff161480611ed95750611ed88133611b36565b5b915050919050565b611ee9612cde565b828160000181905250818160c0018181525050611f05816122e3565b92915050565b6000816000015151826020015110159050919050565b6060611f518260200151611f3d8460000151856020015161253b565b84600001516125de9092919063ffffffff16565b9050919050565b6060611f8a8260a001518360a001518460c00151611f769190613b9a565b84600001516125de9092919063ffffffff16565b9050919050565b600081518351148015611fb05750611faf8360008460008751612699565b5b905092915050565b6000600460008981526020019081526020016000205490506000878051906020012090506000611ff38686896125de9092919063ffffffff16565b90508315612165576000600560008c81526020019081526020016000206000858152602001908152602001600020600084815260200190815260200160002060008a61ffff1661ffff168152602001908152602001600020805461205690613d0e565b9050146120cc57600660008b815260200190815260200160002060008481526020019081526020016000206000838152602001908152602001600020600081819054906101000a900461ffff16809291906120b090613ce4565b91906101000a81548161ffff021916908361ffff160217905550505b600560008b81526020019081526020016000206000848152602001908152602001600020600083815260200190815260200160002060008961ffff1661ffff16815260200190815260200160002060006121269190612d29565b897f03528ed0c2a3ebc993b12ce3c16bb382f9c7d88ef7d8a1bf290eaf35955a12078a8a6040516121589291906138d9565b60405180910390a26122d7565b6000600560008c81526020019081526020016000206000858152602001908152602001600020600084815260200190815260200160002060008a61ffff1661ffff16815260200190815260200160002080546121c090613d0e565b9050141561223757600660008b815260200190815260200160002060008481526020019081526020016000206000838152602001908152602001600020600081819054906101000a900461ffff168092919061221b90613d71565b91906101000a81548161ffff021916908361ffff160217905550505b80600560008c81526020019081526020016000206000858152602001908152602001600020600084815260200190815260200160002060008a61ffff1661ffff1681526020019081526020016000209080519060200190612299929190612c58565b50897f52a608b3303a48862d07a73d82fa221318c0027fbbcfb1b2329bface3f19ff2b8a8a846040516122ce93929190613909565b60405180910390a25b50505050505050505050565b8060c001518160200181815250508060000151518160200151106123065761242a565b600061231a8260000151836020015161253b565b82602001516123299190613b44565b90506123428183600001516126bd90919063ffffffff16565b826040019061ffff16908161ffff16815250506002816123629190613b44565b905061237b8183600001516126bd90919063ffffffff16565b826060019061ffff16908161ffff168152505060028161239b9190613b44565b90506123b48183600001516126ec90919063ffffffff16565b826080019063ffffffff16908163ffffffff16815250506004816123d89190613b44565b905060006123f38284600001516126bd90919063ffffffff16565b61ffff1690506002826124069190613b44565b9150818360a0018181525050808261241e9190613b44565b8360c001818152505050505b50565b6000601482511461243d57600080fd5b600c6101000a6020830151049050919050565b6060601467ffffffffffffffff811115612493577f4e487b7100000000000000000000000000000000000000000000000000000000600052604160045260246000fd5b6040519080825280601f01601f1916602001820160405280156124c55781602001600182028036833780820191505090505b509050600c6101000a82026020820152919050565b600063c869023360e01b7bffffffffffffffffffffffffffffffffffffffffffffffffffffffff1916827bffffffffffffffffffffffffffffffffffffffffffffffffffffffff1916148061253457506125338261271d565b5b9050919050565b6000808290505b6001156125c95783518110612580577f4e487b7100000000000000000000000000000000000000000000000000000000600052600160045260246000fd5b6000612595828661277e90919063ffffffff16565b60ff1690506001816125a79190613b44565b826125b29190613b44565b915060008114156125c357506125c9565b50612542565b82816125d59190613b9a565b91505092915050565b6060835182846125ee9190613b44565b11156125f957600080fd5b60008267ffffffffffffffff81111561263b577f4e487b7100000000000000000000000000000000000000000000000000000000600052604160045260246000fd5b6040519080825280601f01601f19166020018201604052801561266d5781602001600182028036833780820191505090505b509050600080602083019150856020880101905061268c8282876127cf565b8293505050509392505050565b60006126a6848484612833565b6126b1878785612833565b14905095945050505050565b600082516002836126ce9190613b44565b11156126d957600080fd5b61ffff8260028501015116905092915050565b600082516004836126fd9190613b44565b111561270857600080fd5b63ffffffff8260048501015116905092915050565b600063691f343160e01b7bffffffffffffffffffffffffffffffffffffffffffffffffffffffff1916827bffffffffffffffffffffffffffffffffffffffffffffffffffffffff1916148061277757506127768261285f565b5b9050919050565b60008282815181106127b9577f4e487b7100000000000000000000000000000000000000000000000000000000600052603260045260246000fd5b602001015160f81c60f81b60f81c905092915050565b5b6020811061280e57815183526020836127e99190613b44565b92506020826127f89190613b44565b91506020816128079190613b9a565b90506127d0565b60006001826020036101000a0390508019835116818551168181178652505050505050565b6000835182846128439190613b44565b111561284e57600080fd5b818360208601012090509392505050565b60007f124a319c1247f4318c3c16c7e9cc865d0fb5d80d7bf02f56cafc0d14da0208507bffffffffffffffffffffffffffffffffffffffffffffffffffffffff1916827bffffffffffffffffffffffffffffffffffffffffffffffffffffffff191614806128d257506128d1826128d9565b5b9050919050565b600063a8fa568260e01b7bffffffffffffffffffffffffffffffffffffffffffffffffffffffff1916827bffffffffffffffffffffffffffffffffffffffffffffffffffffffff191614806129725750635c47637c60e01b7bffffffffffffffffffffffffffffffffffffffffffffffffffffffff1916827bffffffffffffffffffffffffffffffffffffffffffffffffffffffff1916145b80612982575061298182612989565b5b9050919050565b600063bc1c58d160e01b7bffffffffffffffffffffffffffffffffffffffffffffffffffffffff1916827bffffffffffffffffffffffffffffffffffffffffffffffffffffffff191614806129e357506129e2826129ea565b5b9050919050565b6000633b3b57de60e01b7bffffffffffffffffffffffffffffffffffffffffffffffffffffffff1916827bffffffffffffffffffffffffffffffffffffffffffffffffffffffff19161480612a83575063f1cb7e0660e01b7bffffffffffffffffffffffffffffffffffffffffffffffffffffffff1916827bffffffffffffffffffffffffffffffffffffffffffffffffffffffff1916145b80612a935750612a9282612a9a565b5b9050919050565b6000632203ab5660e01b7bffffffffffffffffffffffffffffffffffffffffffffffffffffffff1916827bffffffffffffffffffffffffffffffffffffffffffffffffffffffff19161480612af45750612af382612afb565b5b9050919050565b60006301ffc9a760e01b7bffffffffffffffffffffffffffffffffffffffffffffffffffffffff1916827bffffffffffffffffffffffffffffffffffffffffffffffffffffffff1916149050919050565b828054612b5890613d0e565b90600052602060002090601f016020900481019282612b7a5760008555612bc1565b82601f10612b9357803560ff1916838001178555612bc1565b82800160010185558215612bc1579182015b82811115612bc0578235825591602001919060010190612ba5565b5b509050612bce9190612d69565b5090565b828054612bde90613d0e565b90600052602060002090601f016020900481019282612c005760008555612c47565b82601f10612c1957803560ff1916838001178555612c47565b82800160010185558215612c47579182015b82811115612c46578235825591602001919060010190612c2b565b5b509050612c549190612d69565b5090565b828054612c6490613d0e565b90600052602060002090601f016020900481019282612c865760008555612ccd565b82601f10612c9f57805160ff1916838001178555612ccd565b82800160010185558215612ccd579182015b82811115612ccc578251825591602001919060010190612cb1565b5b509050612cda9190612d69565b5090565b6040518060e001604052806060815260200160008152602001600061ffff168152602001600061ffff168152602001600063ffffffff16815260200160008152602001600081525090565b508054612d3590613d0e565b6000825580601f10612d475750612d66565b601f016020900490600052602060002090810190612d659190612d69565b5b50565b5b80821115612d82576000816000905550600101612d6a565b5090565b6000612d99612d9484613a7b565b613a56565b905082815260208101848484011115612db157600080fd5b612dbc848285613ca2565b509392505050565b600081359050612dd381613ed2565b92915050565b600081519050612de881613ed2565b92915050565b60008083601f840112612e0057600080fd5b8235905067ffffffffffffffff811115612e1957600080fd5b602083019150836020820283011115612e3157600080fd5b9250929050565b600081359050612e4781613ee9565b92915050565b600081359050612e5c81613f00565b92915050565b600081359050612e7181613f17565b92915050565b60008083601f840112612e8957600080fd5b8235905067ffffffffffffffff811115612ea257600080fd5b602083019150836001820283011115612eba57600080fd5b9250929050565b600082601f830112612ed257600080fd5b8135612ee2848260208601612d86565b91505092915050565b60008083601f840112612efd57600080fd5b8235905067ffffffffffffffff811115612f1657600080fd5b602083019150836001820283011115612f2e57600080fd5b9250929050565b600081359050612f4481613f2e565b92915050565b600081359050612f5981613f45565b92915050565b600060208284031215612f7157600080fd5b6000612f7f84828501612dd9565b91505092915050565b60008060408385031215612f9b57600080fd5b6000612fa985828601612dc4565b9250506020612fba85828601612dc4565b9150509250929050565b60008060408385031215612fd757600080fd5b6000612fe585828601612dc4565b9250506020612ff685828601612e38565b9150509250929050565b6000806020838503121561301357600080fd5b600083013567ffffffffffffffff81111561302d57600080fd5b61303985828601612dee565b92509250509250929050565b60006020828403121561305757600080fd5b600061306584828501612e4d565b91505092915050565b6000806040838503121561308157600080fd5b600061308f85828601612e4d565b92505060206130a085828601612dc4565b9150509250929050565b600080604083850312156130bd57600080fd5b60006130cb85828601612e4d565b92505060206130dc85828601612e4d565b9150509250929050565b6000806000606084860312156130fb57600080fd5b600061310986828701612e4d565b935050602061311a86828701612e4d565b925050604061312b86828701612e4d565b9150509250925092565b60008060006060848603121561314a57600080fd5b600061315886828701612e4d565b935050602061316986828701612e4d565b925050604061317a86828701612f35565b9150509250925092565b6000806040838503121561319757600080fd5b60006131a585828601612e4d565b92505060206131b685828601612e62565b9150509250929050565b6000806000606084860312156131d557600080fd5b60006131e386828701612e4d565b93505060206131f486828701612e62565b925050604061320586828701612dc4565b9150509250925092565b60008060006040848603121561322457600080fd5b600061323286828701612e4d565b935050602084013567ffffffffffffffff81111561324f57600080fd5b61325b86828701612e77565b92509250509250925092565b60008060006040848603121561327c57600080fd5b600061328a86828701612e4d565b935050602084013567ffffffffffffffff8111156132a757600080fd5b6132b386828701612eeb565b92509250509250925092565b6000806000806000606086880312156132d757600080fd5b60006132e588828901612e4d565b955050602086013567ffffffffffffffff81111561330257600080fd5b61330e88828901612eeb565b9450945050604086013567ffffffffffffffff81111561332d57600080fd5b61333988828901612eeb565b92509250509295509295909350565b6000806040838503121561335b57600080fd5b600061336985828601612e4d565b925050602061337a85828601612f4a565b9150509250929050565b6000806000806060858703121561339a57600080fd5b60006133a887828801612e4d565b94505060206133b987828801612f4a565b935050604085013567ffffffffffffffff8111156133d657600080fd5b6133e287828801612e77565b925092505092959194509250565b60008060006060848603121561340557600080fd5b600061341386828701612e4d565b935050602061342486828701612f4a565b925050604084013567ffffffffffffffff81111561344157600080fd5b61344d86828701612ec1565b9150509250925092565b60006020828403121561346957600080fd5b600061347784828501612e62565b91505092915050565b600061348c83836135b5565b905092915050565b61349d81613c6c565b82525050565b6134ac81613be0565b82525050565b6134bb81613bce565b82525050565b60006134cc82613abc565b6134d68185613aea565b9350836020820285016134e885613aac565b8060005b8581101561352457848403895281516135058582613480565b945061351083613add565b925060208a019950506001810190506134ec565b50829750879550505050505092915050565b61353f81613bf2565b82525050565b61354e81613bfe565b82525050565b61355d81613c08565b82525050565b600061356f8385613b0c565b935061357c838584613ca2565b61358583613e72565b840190509392505050565b600061359c8385613b1d565b93506135a9838584613ca2565b82840190509392505050565b60006135c082613ac7565b6135ca8185613afb565b93506135da818560208601613cb1565b6135e381613e72565b840191505092915050565b60006135f982613ac7565b6136038185613b0c565b9350613613818560208601613cb1565b61361c81613e72565b840191505092915050565b600061363282613ac7565b61363c8185613b1d565b935061364c818560208601613cb1565b80840191505092915050565b60006136648385613b28565b9350613671838584613ca2565b61367a83613e72565b840190509392505050565b60006136918385613b39565b935061369e838584613ca2565b82840190509392505050565b60006136b582613ad2565b6136bf8185613b28565b93506136cf818560208601613cb1565b6136d881613e72565b840191505092915050565b60006136f0602983613b28565b91506136fb82613e83565b604082019050919050565b61370f81613c34565b82525050565b61371e81613c62565b82525050565b6000613731828486613590565b91508190509392505050565b60006137498284613627565b915081905092915050565b6000613761828486613685565b91508190509392505050565b600060208201905061378260008301846134b2565b92915050565b600060208201905061379d6000830184613494565b92915050565b60006020820190506137b860008301846134a3565b92915050565b600060208201905081810360008301526137d881846134c1565b905092915050565b60006020820190506137f56000830184613536565b92915050565b60006020820190506138106000830184613545565b92915050565b600060408201905061382b6000830185613545565b6138386020830184613545565b9392505050565b60006020820190506138546000830184613554565b92915050565b60006020820190508181036000830152613875818486613563565b90509392505050565b6000602082019050818103600083015261389881846135ee565b905092915050565b600060408201905081810360008301526138ba81866135ee565b905081810360208301526138cf818486613563565b9050949350505050565b600060408201905081810360008301526138f381856135ee565b90506139026020830184613706565b9392505050565b6000606082019050818103600083015261392381866135ee565b90506139326020830185613706565b818103604083015261394481846135ee565b9050949350505050565b60006020820190508181036000830152613969818486613658565b90509392505050565b6000602082019050818103600083015261398c81846136aa565b905092915050565b600060208201905081810360008301526139ad816136e3565b9050919050565b60006020820190506139c96000830184613715565b92915050565b60006040820190506139e46000830185613715565b81810360208301526139f681846135ee565b90509392505050565b60008083356001602003843603038112613a1857600080fd5b80840192508235915067ffffffffffffffff821115613a3657600080fd5b602083019250600182023603831315613a4e57600080fd5b509250929050565b6000613a60613a71565b9050613a6c8282613d40565b919050565b6000604051905090565b600067ffffffffffffffff821115613a9657613a95613e43565b5b613a9f82613e72565b9050602081019050919050565b6000819050602082019050919050565b600081519050919050565b600081519050919050565b600081519050919050565b6000602082019050919050565b600082825260208201905092915050565b600082825260208201905092915050565b600082825260208201905092915050565b600081905092915050565b600082825260208201905092915050565b600081905092915050565b6000613b4f82613c62565b9150613b5a83613c62565b9250827fffffffffffffffffffffffffffffffffffffffffffffffffffffffffffffffff03821115613b8f57613b8e613de5565b5b828201905092915050565b6000613ba582613c62565b9150613bb083613c62565b925082821015613bc357613bc2613de5565b5b828203905092915050565b6000613bd982613c42565b9050919050565b6000613beb82613c42565b9050919050565b60008115159050919050565b6000819050919050565b60007fffffffff0000000000000000000000000000000000000000000000000000000082169050919050565b600061ffff82169050919050565b600073ffffffffffffffffffffffffffffffffffffffff82169050919050565b6000819050919050565b6000613c7782613c7e565b9050919050565b6000613c8982613c90565b9050919050565b6000613c9b82613c42565b9050919050565b82818337600083830152505050565b60005b83811015613ccf578082015181840152602081019050613cb4565b83811115613cde576000848401525b50505050565b6000613cef82613c34565b91506000821415613d0357613d02613de5565b5b600182039050919050565b60006002820490506001821680613d2657607f821691505b60208210811415613d3a57613d39613e14565b5b50919050565b613d4982613e72565b810181811067ffffffffffffffff82111715613d6857613d67613e43565b5b80604052505050565b6000613d7c82613c34565b915061ffff821415613d9157613d90613de5565b5b600182019050919050565b6000613da782613c62565b91507fffffffffffffffffffffffffffffffffffffffffffffffffffffffffffffffff821415613dda57613dd9613de5565b5b600182019050919050565b7f4e487b7100000000000000000000000000000000000000000000000000000000600052601160045260246000fd5b7f4e487b7100000000000000000000000000000000000000000000000000000000600052602260045260246000fd5b7f4e487b7100000000000000000000000000000000000000000000000000000000600052604160045260246000fd5b6000601f19601f8301169050919050565b7f455243313135353a2073657474696e6720617070726f76616c2073746174757360008201527f20666f722073656c660000000000000000000000000000000000000000000000602082015250565b613edb81613bce565b8114613ee657600080fd5b50565b613ef281613bf2565b8114613efd57600080fd5b50565b613f0981613bfe565b8114613f1457600080fd5b50565b613f2081613c08565b8114613f2b57600080fd5b50565b613f3781613c34565b8114613f4257600080fd5b50565b613f4e81613c62565b8114613f5957600080fd5b5056fea2646970667358221220325590a10e66546b171dbd36ddbe9f9427179c71b63baba135e67e5795d6d24264736f6c63430008040033",
  "linkReferences": {},
  "deployedLinkReferences": {}
}