{
  "_format": "hh-sol-artifact-1",
  "contractName": "DummyNameWrapper",
  "sourceName": "contracts/resolvers/mocks/DummyNameWrapper.sol",
  "abi": [
    {
      "inputs": [
        {
          "internalType": "uint256",
          "name": "",
          "type": "uint256"
        }
      ],
      "name": "ownerOf",
      "outputs": [
        {
          "internalType": "address",
          "name": "",
          "type": "address"
        }
      ],
      "stateMutability": "view",
      "type": "function"
    }
  ],
  "bytecode": "0x608060405234801561001057600080fd5b5061015b806100206000396000f3fe608060405234801561001057600080fd5b506004361061002b5760003560e01c80636352211e14610030575b600080fd5b61004a6004803603810190610045919061007f565b610060565b60405161005791906100b7565b60405180910390f35b6000329050919050565b6000813590506100798161010e565b92915050565b60006020828403121561009157600080fd5b600061009f8482850161006a565b91505092915050565b6100b1816100d2565b82525050565b60006020820190506100cc60008301846100a8565b92915050565b60006100dd826100e4565b9050919050565b600073ffffffffffffffffffffffffffffffffffffffff82169050919050565b6000819050919050565b61011781610104565b811461012257600080fd5b5056fea2646970667358221220c34634a162d72274c2c22d9b86ac6a941a7d2db3122412aa6436179fcfdaea3264736f6c63430008040033",
  "linkReferences": {},
  "deployedLinkReferences": {}
}